:1007E0000034000000070000C2EE0000000000001E
:1007F00000000000000000000000000000000000F9
:10080000022852120CAA53997F122F49902E42E4CB
:10081000F0A374FFF01231147F0112227943890290
:10082000120CB0438002439980220002313E74AA28
:100830007583F5758255A574557583FA7582AAA5D9
:1008400074A57583F5758255A5220002237090402A
:100850007FE493FF64326003EF7002002253A87FAD
:100860000080FD021B1612201C12244F9001897477
:1008700001F022123141022D50000002313B120CD6
:1008800001FDACF0D39FEC9E40329001BE120C15DE
:10089000120F03D3EF9430EE9475400C9002DC7489
:1008A00075F0A37430F0800D120C0C120F1790022B
:1008B000DCF0A3EFF0E490024B02092D120C12FFC2
:1008C000AEF09001BE120C15FDACF0C39FFFEC9E84
:1008D000FED3EF9410EE9427400C9002DC7427F0C6
:1008E000A37410F08012120C12FFC3ED9FFEEC9562
:1008F000F09002DCF0A3CEF09002DCE0FFA3E090E9
:10090000024BCFF0A3EFF0300018D3E0942C90020C
:100910004BE09401401390024D7427F0A37410F043
:100920008007E490024DF0A3F0E49002DCF0A3F025
:100930009001E2E0606B120CF5C394E8EE648094E1
:100940008350159001BB120C15C394B8E5F0940BBD
:10095000500690022B7420F0D3120E21401AD3902F
:1009600002DDE095279002DCE09526400B90019097
:10097000E4F0A37464F0801BD3900191E0940090A4
:100980000190E09400400C9001BB120C159002DC29
:10099000120DBDD209900196740FF0A374A0F080DF
:1009A0000890022B7420120C90120CF5D3120E2218
:1009B0005003020BD79001BB120C2D120DCCC3902B
:1009C00002DDE094C89002DCE0648094805007E48B
:1009D00090022FF0A3F090022FE0FEA3E0FF900220
:1009E000DDE02FF09002DCE03EF0E0FEA3E0FF123D
:1009F0000F1EE47BB87A88F9F8C3121741500A90A9
:100A000002DC7488F0A374B8F0D3900193E09400F2
:100A1000900192E09400500790002EE0B42018124C
:100A20000CF5C39496EE64809480500B120E214016
:100A30003A7C007D0A80103000319001E2E0700DB8
:100A4000120CF57C027DBC120E7CF0801E120CF59F
:100A5000C39527EE952650137C027DBC120E7C12A6
:100A60000C90120E65120C2D120CBF9001E2E0707A
:100A700003020BB9900194E07002A3E06003020B43
:100A8000B9120CF5120F1EE54D2FF54DE54C3EF554
:100A90004CE54B3DF54BE54A3CF54A054FE54F70BB
:100AA00002054EC3E55494E8E55394035003020B4A
:100AB0005BAE4EAF4FCBEFCB120D37AF4DAE4CAD63
:100AC0004BAC4A1216AF9002DEEEF0A3EFF0C3E596
:100AD000519FFFE5509EFE122DD49002E0EEF0A350
:100AE000EFF0D39464EE94005006E5514550700C3D
:100AF0009002DEE0F550A3E0F551804ED39002DF86
:100B0000E095519002DEE09550401B120DE4400448
:100B1000740A800BD3EF943CEE9400402D740525AD
:100B200051F551E48020120DE4400A74F62551F588
:100B30005174FF8011D3EF943CEE9400400C74FB91
:100B40002551F55174FF3550F550E4F54DF54CF550
:100B50004BF54AF54EF54FF553F554D3E551940056
:100B6000E5509400402A9002DDE09551FF9002DCB0
:100B7000E09550FE122DD4120F0D5008120E87E48E
:100B8000F555800CE555C394075005120E870555A1
:100B9000E5DB20E2359001C4120C157D0F120E2A00
:100BA0009002DC120C7E120F1EEB7B10120CC59013
:100BB00001C4120C2DF9EE800CE5DB20E20C120EC4
:100BC00065120C2DC98FF01216549001C4120C1529
:100BD00024A8FFE5F0801D9001BB120C2D120DB66C
:100BE0009001C4120C2D120DB69002DDE024A8FF76
:100BF0009002DCE03461F99001C1120C2D120CBF9F
:100C0000229001BEE0FBA3E0FAA3E0F91215F1FF88
:100C1000AEF09001B8E0FBA3E0FAA3E0F90215F111
:100C20009001E5A3A3E0F9A3E0FF9001BEE0FBA3E0
:100C3000E0FAA3E022F07E007F057D007B007A00D1
:100C4000796012180A7E007F127D007BFE7A00799F
:100C50000012180AE4900210F0A3F090020EF0A324
:100C6000F0900212F0A3F0A3F0A3F0A3F0A3F022FF
:100C7000E4FCFDE0F8A3E0F9A3E0FAA3E022C8EC6D
:100C8000C8C9EDC9CAEECACBEFCBE0FEA3E0FF2294
:100C9000F09001947403F0A374E8F07B007A00797B
:100CA0004A7E007F127D0002180A43AB025389FD81
:100CB0005395FD5396FD22A3F0A37401F0A322C91E
:100CC0008FF00216542FFFEA3EFEE93DFDE83CFCA2
:100CD000E4FAF9F80216AFE4F0902EC07402F09036
:100CE0002EC27411F0902EC77401F0902ECA7411A8
:100CF000F0902EC4229002DCE0FEA3E0FF22E4FC90
:100D0000FDEB2FFFEA3EFEED39FDEC38FC22E0FE64
:100D1000A3E0FFD39400EE940022E50A25E0242A04
:100D2000F8E6FE08E62290018C7402F0A37458F0F5
:100D300022A3E0FEA3E0FBCAEECAE4F9F822902E5B
:100D4000427D14E0FEA3E0FF7C0002153EC3FF904D
:100D50000237E09F900236E095F0227F087A017911
:100D6000E57E007D007B0102180AE50D25E0241CCC
:100D7000F582E43402F583E0FEA3E0FF22F0900266
:100D80002DE03400F0E0FFA3E0A3CFF0A3EFF022CA
:100D90009002DAA3A3E0F9A3E0FF9001B822E0FCFF
:100DA000A3E0FDA3E0FEA3E022E2FF08E2CF900271
:100DB00014F0A3EFF022F9E4F5F0021654FFE5F089
:100DC000F0A3EFF022902EC07419F022F9EE8FF00C
:100DD000021654E4F50EF50DF50CF50B2290002EDD
:100DE000E06420229002E0E0FEA3E0FFD39450EE06
:100DF00094002290018E7402F0A374BCF022902E15
:100E0000C07402F0902EC4E4F0A3F0229001B6E08A
:100E1000FCA3E0FD22AB0EAA0DA90CA80BD3021770
:100E200057EF9400EE6480948022FFAEF07C0002C5
:100E300017DD9002DDE0940A9002DCE0940022903D
:100E4000022EE094C890022DE0940022FDE4356D5E
:100E5000FCED2FFFEC35F0FE22E5292488FFE52884
:100E60003413FED3229002DCE0F9A3E0FF9001C42A
:100E70002225E0242AF8A60F08A610221215A59014
:100E800002DCEEF0A3EF229002DCE550F0A3E55186
:100E9000F022E4900192F0A3F022900237E09D90BE
:100EA0000236E09C229002DDE09F9002DCE09E2270
:100EB000F9746175F0A802165490004D7410F02278
:100EC000F0A3F0900198F0A3F022E4F0A374C8F02E
:100ED00022FEEF2401FFE43EC31322C3EF940AEE87
:100EE0006480948022902EC0E4F0902E1EE022E2D6
:100EF0002401F218E23400F222C9EDC9CAEECACBCD
:100F0000EFCB22FFC3ED9FFFEC95F0FE22C3EF94E1
:100F100064EE6480948022C39FFFE5F09E22EE334E
:100F200095E0FDFC2290022C7464F022F9E4121684
:100F30001C90022EE022C3E55F956AE55E9569226A
:100F40009002DA02177B90023A120C73FBE9C0E0C0
:100F5000EAC0E0EBC0E09001D3120C15FFE4FCFD09
:100F6000D0E0FBD0E0FAD0E0F9EB2FFFEA35F01249
:100F70000D0690023A12177B90023FE004F07006D3
:100F800090023EE004F0900240E07002A3E06003B3
:100F900002124190023A120D9EFFEEC0E0EFC0E057
:100FA000120D31D0E0FFD0E0FE1216AF90023A12DF
:100FB000177B90023AA3A3E0FFA3E0900238CFF0A2
:100FC000A3EFF0A312179300000000E490023EF09C
:100FD000A3F0A3F0A374C8F090018AE07002A3E02C
:100FE0006003021241900242E07002A3E06003023B
:100FF00012419001E2E070030210AD900234E0FE75
:10100000A3E0FF4E7022900238E0FDA3E09002348E
:10101000CDF0A3EDF09001BB120C15FD900236E56A
:10102000F0F0A3EDF00210DA900238E0FCA3E0FD4E
:10103000C3EF9DFFEE9CFE122DD4900248120C2DA2
:10104000120DCC900232E07026900248120C15C3AB
:10105000940DE5F09400500F9001BB120C15FF9019
:101060000236120DBE80229002327401F0801A9076
:101070000248120C15C39402E5F09400500BE49062
:101080000234120C68900232F0900238E0FEA3E0C5
:10109000FFD3900235E09F900234E09E4007E49039
:1010A0000233F080359002337401F0802DE4900219
:1010B00034120C68900232F0900244E07002A3E017
:1010C000700280109001BB120C15C39496E5F09449
:1010D000005007E4900244120C68900232E0700362
:1010E000021241900236120D0E500302124190017D
:1010F000BB120C15120F17FE122DD49002DCEEF06D
:10110000A3EFF0A3E4F0A3748CF09001BB120C15D4
:10111000FDACF0D3120E9A40109002DEE013FEA355
:10112000E013FFD3120EA55013C3120E9A50349041
:1011300002DEE0FEA3E0FF120EA54027E49002329B
:10114000F0900234F0A3F09001BB120C15120D4D7B
:1011500090024274015006F0A3742CF022F0A374A4
:1011600090F0229001BB120C15D3120D4E500302C9
:101170001220D3120E325003021220900233E06488
:10118000016003021220120C2AF974FF75F0FB12A1
:10119000161CD3900247E0942C900246E094014044
:1011A00071900245E02405F0900244E03400F02004
:1011B00000609001BB120C15FFC374B89F740B95AF
:1011C000F0504F900245E024C8F527900244E034E7
:1011D00000F526C3E52794E8E5269403401BAE26D8
:1011E000AF277C007D0912153EEF7803CEC313CEE6
:1011F00013D8F9F56E8E6D8019E527AE267802C3F7
:1012000033CE33CED8F9FF7C007D031215508E6D9E
:101210008F6E900247E02405F0900246E03400F023
:101220009001BB120C15120D4D5016120E324011CA
:10123000900233E0700B120C2AF9E475F0051216D7
:101240001C22208A0302153D90018CE07002A3E06D
:10125000600302153D90018AE07002A3E060030282
:10126000153D900218E07002A3E0600302153D12E4
:101270000DDD600302153D9001E2E070309001CD7C
:10128000120C15FFAEF09001BB120C15D39FE5F0C8
:101290009E400302153D120D5BE4900224F0A3F082
:1012A000120E93900190120EC0F5698003756900CB
:1012B000756A20E4F5B2F5BA122F49900228E0F5DC
:1012C0005CA3E0F55DC207758D20438D20758D8090
:1012D00043AA08D2AF758B02758EAF200A24120D77
:1012E000DD701F200D1CE5DB20E217758AC4200D80
:1012F0000DE5DB20E2087587030000008006D207B9
:101300008002D207758B11758A5053AAF7D39001CA
:101310008BE0949090018AE09401400EA3E0247049
:10132000F090018AE034FEF08007E490018AF0A397
:10133000F0D3900197E09490900196E09401400ED4
:10134000A3E02470F0900196E034FEF08007E49072
:101350000196F0A3F0900068E075F003A4902EC30E
:10136000F0A3E4F0A3F0120CAA53997F12311412E7
:101370000DC5902EC0E030E2F9902EC0E4F0902E22
:1013800002E0F56BA3E0F56C438902120CB04380D8
:1013900002123121120DC5902EC0E030E2F9120E7A
:1013A000E5F522A3E0F523E56C2529FFE56B35285B
:1013B000FEC3EF9523F525EE9522F524120E59E58F
:1013C000259FE5249E40048E248F25902EC4E4F0B2
:1013D000439980900214E524F0A3E525F0C3E55D70
:1013E0009525FFE55C9524FE122DD48E5E8F5F124D
:1013F0000F36400302151AAE24AF257C007D0F1274
:1014000017DD120F40AF68AE67AD66AC659002DACB
:10141000120C73FBD31217579002DA4017120D9E6D
:101420009568FFEE9567FEED9566FDEC9565FC12FF
:101430000F40800712179300000000E47F607EEAEF
:10144000FDFC9002DA120C73FBD3121757400A907E
:1014500002DA1217930000EA60120C127D09120ED4
:101460002A9002DA120C737B0A120CC5120F4090FC
:1014700001E2E0703CAE5CAF5DFC7D091217DDC897
:10148000ECC8120EF9E4FCFDEB2525FFEA35241229
:101490000D06E47B0A120CD18E5C8F5D9002DA128D
:1014A0000C23120CBF120D90120C2D120CBF021542
:1014B0001A120D90120C2D120CBF9001BE120C15B9
:1014C000FFAEF09002DA120C70FBD3121757405A9D
:1014D000120C01120F17FEC3EF956EEE956D5003BF
:1014E00002152A90022CE0D39400402E120E3F5099
:1014F000299001BE120C15FFE56E2446120E4C1207
:101500000C12D39FE5F09E400E120C2A75F01412B7
:101510000F2C2414120D7D120F2520070D120F36EB
:101520005008120DDD70030212C7900231E0041260
:101530000C359001E404F090018E120ECA22EF8D5A
:10154000F0A4A8F0CF8CF0A428CE8DF0A42EFE221B
:10155000BC000BBE0029EF8DF084FFADF022E4CC7F
:10156000F875F008EF2FFFEE33FEEC33FCEE9DEC48
:10157000984005FCEE9DFE0FD5F0E9E4CEFD22ED8E
:10158000F8F5F0EE8420D21CFEADF075F008EF2FD8
:10159000FFED33FD4007985006D5F0F222C398FDC9
:1015A0000FD5F0EA22C2D5EC30E709B2D5E4C39DED
:1015B000FDE49CFCEE30E715B2D5E4C39FFFE49E4A
:1015C000FE121550C3E49DFDE49CFC8003121550EF
:1015D00030D507C3E49FFFE49EFE22C5F0F8A3E0E8
:1015E00028F0C5F0F8E582158270021583E038F026
:1015F00022BB010A89828A83E0F5F0A3E02250062B
:1016000087F009E71922BBFE07E3F5F009E3192289
:1016100089828A83E493F5F074019322BB010789E0
:10162000828A830215DB500B09C5F027F7C5F01934
:1016300037F722BBFE0D09F8E325F0F3C5F019E3F7
:1016400038F322F889828A8374019325F0C5F0F873
:10165000E4933822BB010A89828A83F0E5F0A3F083
:10166000225006F709A7F01922BBFE06F3E5F009A0
:10167000F3192275F008758200EF2FFFEE33FECDCF
:1016800033CDCC33CCC58233C5829BED9AEC99E542
:101690008298400CF582EE9BFEED9AFDEC99FC0FD2
:1016A000D5F0D6E4CEFBE4CDFAE4CCF9A88222B89A
:1016B00000C1B90059BA002DEC8BF084CFCECDFC1F
:1016C000E5F0CBF97818EF2FFFEE33FEED33FDECAC
:1016D00033FCEB33FB10D703994004EB99FB0FD895
:1016E000E5E4F9FA227818EF2FFFEE33FEED33FD33
:1016F000EC33FCC933C910D7059BE99A4007EC9B32
:10170000FCE99AF90FD8E0E4C9FAE4CCFB2275F0C1
:1017100010EF2FFFEE33FEED33FDCC33CCC833C8D2
:1017200010D7079BEC9AE899400AED9BFDEC9AFCD8
:10173000E899F80FD5F0DAE4CDFBE4CCFAE4C8F987
:1017400022EB9FF5F0EA9E42F0E99D42F0EC6480C6
:10175000C864809845F022EB9FF5F0EA9E42F0E9DC
:101760009D42F0E89C45F022E8600FECC313FCEDCD
:1017700013FDEE13FEEF13FFD8F122ECF0A3EDF012
:10178000A3EEF0A3EFF022ECF208EDF208EEF2087F
:10179000EFF222A8828583F0D083D0821217AA129A
:1017A00017AA1217AA1217AAE473E493A3C583C554
:1017B000F0C583C8C582C8F0A3C583C5F0C583C87A
:1017C000C582C822D083D082E493F208740193F2D8
:1017D00008740293F208740393F2740473EC8EF0AD
:1017E000A4CCC5F0CCCDF8EFA4CEC5F02DFDE43CE3
:1017F000FCE8A42EC8C5F03DFDE43CFCEFA4FFE5E9
:10180000F028FEE43DFDE43CFC22EF4E6012EF6068
:10181000010EEDBB010B89828A83F0A3DFFCDEFAA7
:101820002289F05007F709DFFCA9F022BBFEFCF388
:1018300009DFFCA9F022120DFE53997FF50BF50C80
:10184000F50DF50EF50A123114120CAA120DC59001
:101850002EC0E030E2F9902EC0E4F0438902120C71
:10186000B0438002902E02E0FEA3E0250CF50CEEC2
:10187000350BF50B123121120DC5902EC0E030E270
:10188000F9120EE5FEA3E0250EF50EEE350DF50D71
:10189000050AE50AC3940340AD439980902EC5E440
:1018A000F0E529240CFFE52834FEFED3EF950CEE7D
:1018B000950B4016900218E07002A3E0701390029E
:1018C000187403F0A374E8F08007E4900218F0A302
:1018D000F0900210120D0E401FCBEFCBCAEECAEBF8
:1018E000250EFFEA350DFEE433FDE433FC780112EA
:1018F00017688E0D8F0E800A900210E50DF0A3E59B
:101900000EF0900212120D0E4020CBEFCBCAEECAA1
:10191000EB250CFFEA350BFEE433FDE433FCE47BFE
:1019200002120CD18E0B8F0C800A900212E50BF084
:10193000A3E50CF0E50C2529FFE50B3528FEC3EFE8
:10194000950EF510EE950DF50F120E59E5109FE569
:101950000F9E40048E0F8F1090020EE50FF0A3E54E
:1019600010F0A3E50DF0A3E50EF0A3E50BF0A3E561
:101970000CF0AF10AE0F1225D6EE120DAE90002E69
:10198000E0B420097BFE7A007900120CA17800E215
:10199000FB08E2F908E2FA08E2CBF8900214E0FE54
:1019A000A3E0FF120CFE78001217877805120EEFE5
:1019B000C3780AE294E818E294035003021A81788B
:1019C00004E2FE08E2FFE4FCFDECC0E0120EF97850
:1019D00000E2FC08E2FD08E2FE08E2FFD0E0F812B7
:1019E00016AF9002E0EEF0A3EFF0C37807E29FFF9E
:1019F00018E29EFE122DD49002E2EEF0A3EFF078F2
:101A000006E2FE08E2120D12403D9002E2E0FCA365
:101A1000E0FD9405EC9400502EED9403EC9400400E
:101A20001F9002E0E0FCA3E0FDD3EF9DEE9C400B95
:101A3000E224FFF218E234FFF280057807120EEF7D
:101A400078087402F280267808E2D394004003E21A
:101A500014F27808E2600818E2700218E2700E9042
:101A600002E0E0FFA3E07806CFF208EFF278001280
:101A700017C400000000E47804F208F27809F208C4
:101A8000F27806E2FE08E2120D124061900215E0C3
:101A90009FFF900214E09EFE9002E0F0A3EFF0D3CF
:101AA00094F9EE6480947F4017E094079002E0E0A0
:101AB00064809480500A18120DA9E4780BF2802DEE
:101AC0009002E0E0FEA3E0FF122DD4D3EF940FEEDE
:101AD000648094804005780B7403F2780BE2C39421
:101AE00003500A7806120DA9780BE204F290021452
:101AF000E0F548A3E0F549750A01E50A120D1CFF5F
:101B0000E50A25E02428F8C6EEC608C6EFC6050A91
:101B1000E50AB410E522C0E0C083C082C0D0E8C0AE
:101B2000E0D2AF90019DE004F0D390018BE09400EF
:101B300090018AE09400400CA3E024FFF090018A19
:101B4000E034FFF0D390018DE0940090018CE0949C
:101B500000400CA3E024FFF090018CE034FFF0D3B0
:101B600090018FE0940090018EE09400400CA3E07F
:101B700024FFF090018EE034FFF0D3900191E094C7
:101B800000900190E09400400CA3E024FFF090014D
:101B900090E034FFF0D3900193E09400900192E044
:101BA0009400400CA3E024FFF0900192E034FFF099
:101BB000D390019BE0940090019AE09400400CA324
:101BC000E024FFF090019AE034FFF0D3900199E017
:101BD0009400900198E09400400CA3E024FFF09062
:101BE0000198E034FFF0D3900195E09400900194C7
:101BF000E09400400CA3E024FFF0900194E034FF57
:101C0000F090022CE0D394014003E014F090022BFA
:101C1000E0D394004003E014F0C3780AE294E8189B
:101C2000E29403500A08E22401F218E23400F2C3FD
:101C3000E55494E8E553940350080554E5547002C4
:101C40000553D3900241E09400900240E09400409C
:101C50000CA3E024FFF0900240E034FFF0D39002A8
:101C600043E09400900242E09400400CA3E024FF83
:101C7000F0900242E034FFF0D3900219E09401901A
:101C80000218E09400400CA3E024FFF0900218E05A
:101C900034FFF0D3900197E09400900196E0940017
:101CA000400CA3E024FFF0900196E034FFF0D390C5
:101CB000024EE0940090024DE09400400CA3E0241A
:101CC000FFF090024DE034FFF0D3900117E0940153
:101CD000900116E09400400CA3E024FFF090011660
:101CE000E034FFF0D0E0F8D0D0D082D083D0E03222
:101CF000900224E0FEA3E0FFC39404EE9400502A77
:101D0000120E0CEF25E0FFEE33FE741C2FF58274EB
:101D1000023EF583ECF0A3EDF0900225E004F070B4
:101D200006900224E004F0021E4D750D01120D6AAA
:101D3000E50D25E0241AF582E43402F583EEF0A3E4
:101D4000EFF0050DE50DB404E49001E2E07003024C
:101D50001DF19001BE120C15FFAEF0120E0CD39FB8
:101D6000EC9E5003021DEFED9FFFEC9EFED3EF941F
:101D7000F4EE94014079A3120C15120F039002DFC8
:101D8000F0A3EFF0122DD4120F0D5063E49002E196
:101D9000F0A3F09002DFE0FEA3E0FF122DD4D3EF1A
:101DA0009428EE648094804025D39002E0E0940073
:101DB0009002DFE0648094809002E14008E4F0A3A8
:101DC0007405F0801074FFF0A374FBF08007E490BA
:101DD00002E1F0A3F0120C12FF9002E2E02FFE905D
:101DE00002E1E035F0900222F0A3CEF0021E4D8019
:101DF0004D120C12FF120E0CC3EF9DFFE5F09CFE7E
:101E0000122DD4C3EF940FEE648094805030900173
:101E1000BE120C15FFC39001B7E09FFF9001B6E022
:101E200095F0FE122DD4120EDB50059001BE8003FA
:101E30009001B8120C15FF900222E5F0800B900182
:101E4000B6E0FFA3E0900222CFF0A3EFF0E4F50CA0
:101E5000F50BF50AF509F50DD3900225E0950D90E7
:101E60000224E09400401E120D6AE4FCFDE50C2FF4
:101E7000F50CE50B3EF50BED350AF50AEC3509F5E9
:101E800009050D80D3AF0CAE0BAD0AAC09EEC0E076
:101E9000EFC0E0900224120D32D0E0FFD0E0FE123D
:101EA00016AF8F0C8E0B8D0A8C09229001E2E07028
:101EB00003021F31120D5B120DF390022BE0702E06
:101EC000A3E0702A9001BB120C15FFAEF0D394E88A
:101ED000EE94034019EF94B8EE940B501190022A3F
:101EE000E0FF04F0EF9428400A120F258005E490EB
:101EF000022AF090022CE06401600302201BC3124E
:101F00000E3F400302201B9001BE120C15FFE56E30
:101F10002432120E4C120C12D39FE5F09E400E128A
:101F20000C2A75F005120F2C2405120D7D120F25B9
:101F300022E490022C120C6690022AF09001E51225
:101F40000C73FBE9C0E0EAC0E0EBC0E0120C12FF4A
:101F5000E4FCFDD0E0FBD0E0FAD0E0F9EB2FFFEAA3
:101F600035F0120D069001E512177B9001EAE004AE
:101F7000F070069001E9E004F090018EE07002A399
:101F8000E0600302201B9001E5120D9EFFEEC0E011
:101F9000EFC0E0120D31D0E0FFD0E0FE1216AF909E
:101FA00001E512177B9001BE120C152432FFE435B7
:101FB000F0FE9001E5120C70FBD3121757403990D8
:101FC000018AE07002A3E0702F20092C9001ECE060
:101FD00004F070069001EBE004F0D39001ECE09483
:101FE000059001EBE09400401E120C20120CBFE49F
:101FF0009001EBF0A3F0800F120C20120CBFE490C4
:1020000001EBF0A3F0C2099001E512179300000064
:1020100000E49001E9F0A3F0120DF3227E007FFFAF
:102020007D007B017A00791712180A9002EE740085
:10203000F0A37417F090013D7401F0A37400F0A3B5
:1020400074CBF09001437401F0A37400F074BF12DC
:102050002F007400F0A374A7F09001407401F0A366
:102060007400F0A374D9F09001497401F0A37400D6
:10207000F074E5122F007400F0A37432122F017473
:1020800001F0A37415F0902DE0E493FF9002EEE0D0
:10209000FCA3E0FDF5828C83A3EFF0900015E0FF38
:1020A000ED2404122EDA900014E0FFED2405122E28
:1020B000DA900016E0FFED2406122EDA902DE2E40D
:1020C00093FFED2412122EDA902DE3E493FFED241A
:1020D00014122EDA9001527401F0A37400F0A3746C
:1020E0004FF0E4FF75F002EFA42401F582E5F0342F
:1020F0002EF583E493FE122F08EEF0122F08E0FE77
:1021000075F002EFA42400F582E5F0342EF583E4A7
:102110009324C0F582E4342EF583EEF00FEFB4166D
:10212000C3902F56E090006BF0902F56E090008106
:10213000F0902F56E090006CF0902F56E0900082C7
:10214000F09001127401F0900111F090004D7410A4
:10215000F090002EF090003BF0A37420F090018AE4
:102160007407F0A374D0F022120DD3F515F516857F
:102170002A11852B12852A13852B14F50A120D1AA4
:10218000FFD3E5149FE5139E40078E138F14850A35
:1021900016C3E5129FE5119E50078E118F12850A16
:1021A00015050AE50AB40FD5E4F50FF510F50AE5B3
:1021B00016650A602EE515650A6028E510450F7062
:1021C00010E50A25E0242AF8E6F50F08E6F5108068
:1021D00012120D1A2510FFE50F3E120ED1F50FEF6A
:1021E00013F510050AE50AB40FC5900228E50FF0B3
:1021F000A3E510F0E516C3940C5005E516120E7118
:10220000E515C3940C5005E515120E71120DD3F5AA
:102210000A120D1AFFE4FCFDE50E2FF50EE50D3E4A
:10222000F50DED350CF50CEC350BF50B050AE50A53
:10223000B40FDEAF68AE67AD66AC65120E15401A1E
:10224000E50E9568F50EE50D9567F50DE50C9566BF
:10225000F50CE50B9565F50B8003120DD3E47F605B
:102260007EEAFDFC120E15400BE4750E60750DEA5A
:10227000F50CF50BAE0DAF0E229002E0EFF09002E0
:10228000E5E4F0A374FFF0E4A3F0A3F0A304F0A34B
:1022900074FFF0902EC07402F0902EC37408F0E426
:1022A0009002E1F0A3F09002E1E0FEA3E0FFC3940E
:1022B00009EE9400400302236DEF9407EE94004072
:1022C000067E007F0180199002E1A3E004FFE47E16
:1022D00001C8EFC8088006CEA2E713CE13D8F8FFD6
:1022E0009002E3EEF0A3EFF0902EC07419F0902E60
:1022F000C0E030E2F9902EC0E4F09002E0E0FF751B
:10230000F002A42400122EEFE0FCA3E0FD902EC00A
:102310007402F0D3ED94FFEC940F40179002E3E0C9
:10232000FCA3E0FD75F002EF122EECEC8DF012151F
:10233000DB80299002E0E075F002122EECC083C031
:1023400082E0FEA3E0FF9002E3E0FCA3E0FDC3EF28
:102350009DFFEE9CD082D083F0A3EFF09002E2E0EC
:1023600004F070069002E1E004F00222A67F002251
:10237000C0E0C083C082C0D0ECC0E0EFC0E0D2AF0C
:10238000E5DB30E419D20DC20CE5DB30E102802E32
:102390009002EDE5DFF09002F0E4F002243DE5DB91
:1023A00030E50FD20A300C05C20C02243DC20D02EA
:1023B000243DC20CE5DB30E13EE5DB30E00F90026E
:1023C000F1E0FF04F01230FEE0F5DF80709002F1E2
:1023D000E0FFB40819208A16D28A9001B27401F085
:1023E0009002EEE0FCA3E02407123104E4F0EF6475
:1023F0001A704AD20B80469002F0E0700EA3E5DF1F
:10240000F09002F07401F0D20C80329002F1E09072
:102410002F1393B4FF089002EDE5DFF080199002CE
:10242000F1E0FF1230FEE5DFF0EFB4240A90018CFA
:102430007401F0A374F4F09002F1E004F075DBFF96
:10244000D0E0FFD0E0FCD0D0D082D083D0E0327F8B
:10245000997A0179B6120D619001B87401F0A374F4
:1024600000F07457120CB77400F07459120CB77462
:1024700000F0A3745B120CB87400F0A37445120C46
:10248000B87400F0A37441120CB87400F0A3743F48
:10249000F09001D37401F0A37400F0A37439F090AC
:1024A00002487401F0A37400F0A37497F09001D671
:1024B0007401F0A37400F0A3742F120CB87400F030
:1024C000A37435F09001CA7401F0A37400F0A374F2
:1024D00049120CB87400F0A3743D120CB87400F0EB
:1024E000A3744BF0756D00756EC89001CA120C2D67
:1024F000F9E56D856EF01216549001CD120C2DF990
:10250000E475F0641216547526007527969001D074
:10251000120C2DF9E5268527F00216549002DCEE08
:10252000F0A3EF120C359002DCE07002A3E0600330
:1025300012267C1227C0E4900224F0A3F07F0F1231
:102540002FD8120D26A3120DF6E490022C120C6661
:102550009001B6E0F9A3E0FFA3120C2D120CBF907E
:1025600001BB120C2D120DB69001C1120C2D120ED2
:10257000B09001C4120C2D120DB69001C7120C2D93
:10258000120EB0120EB9E49001E2F09001E51217BC
:102590009300000000E49001E9120C689001B6126B
:1025A0000C25120CBFE49001E4F090019A120EC0C9
:1025B000900196F0A3F0FE7F16FD7B017A0279323E
:1025C00012180A9001D3120C15900238120DBD900A
:1025D0000240120ECA229002E4EEF0A3EFF0E5638F
:1025E0004562700C9002E4E0F562A3E0F5638016AA
:1025F0009002E5E02563FF9002E4E03562120ED11F
:10260000F562EF13F5630564E564D3940A400D8524
:102610006260856361E4F562F563F564D3E5619416
:1026200000E5609400404C9002E5E09561FF900267
:10263000E4E09560FE122DD4120EDB501EAE60AFAA
:10264000617C007D031217DD9002E4120C7E120CF7
:10265000FE78021217689002E480139002E5E025EC
:1026600061FF9002E4E03560C313FEEF13FFEEF06C
:10267000A3EFF09002E4E0FEA3E0FF221208039033
:102680002E42E0FEA3E024A4FFEE34FE9002DEF032
:10269000A3EFF0120CAA53997F122F491231149014
:1026A0002EC07402F0902EC314F0120DC5902EC0EF
:1026B000E030E2F9902EC0E4F0902E027D09120D78
:1026C000438E288F297D0F1217DDEF24E0F568EE89
:1026D00034B1F567ED34FFF566EC34FFF5654389F9
:1026E00002120CB043800243998053997F1231212A
:1026F000902E5EE4F0A374FFF07F0F122279902EEB
:10270000C4E4F0439980A3F09001B5E0900034F068
:10271000120D3E9001D6120C2DF9EE8FF0021654D8
:1027200030002090024DE07002A3E06008756D2734
:10273000756E108006756D1B756E5875261775279A
:10274000708014900244E07002A3E0700AF56D7589
:102750006EC8F5267527969001BB120C15FFAEF0DA
:10276000C3956EEE956D500F9001E2E0601AC3EFD5
:102770009527EE95264011900192E07002A3E0703B
:10278000279001E204F0802090002EE0B420051292
:102790000E928006900192120ECAE49001E2F0902F
:1027A0000190F0A3F0120EB99001E2E060119000E8
:1027B0003BE090004DB410047410F0227420F0221D
:1027C0004389025395FD5396FD4380021230A27F48
:1027D0000C1228E1CAEECACBEFCB7F0C1228E1EF36
:1027E0002BFFEE3AFE9002DFF0A3EFF07C007D0FAE
:1027F00012153E9002DFEEF0A3EFF01230E012155A
:10280000F145F0700A9002DFE0FFA3E0CF803D12B7
:1028100015F1FFAEF07C007D081217DDC8ECC8C9C9
:10282000EDC9CAEECACBEFCB9002DFE0FEA3E0FF1A
:10283000E4FCFDEB2FFFEA3EFEED39FDEC38FCE455
:102840007B09FAF9F81216AF1230E0EE8FF012168B
:102850005422787FE4F6D8FD75816E02289C020030
:1028600000022F7BE493A3F8E493A34003F68001D6
:10287000F208DFF48029E493A3F85407240CC8C3BA
:1028800033C4540F4420C8834004F456800146F6F4
:10289000DFE4800B01020408102040809029D7E477
:1028A0007E019360BCA3FF543F30E509541FFEE452
:1028B00093A360010ECF54C025E060A840B8E49314
:1028C000A3FAE493A3F8E493A3C8C582C8CAC58356
:1028D000CAF0A3C8C582C8CAC583CADFE9DEE780DB
:1028E000BECDEFCD43AD105399EF439A10539BEFFC
:1028F0001230F7147E00C8EDC8088005C333CE330C
:10290000CED8F9FF902EC4EEF0A3EFF0902EC8EED3
:10291000F0A3EFF074101230EC902EC0E030E2F92A
:10292000902EC0E4F07402F074201230EC902EC0AF
:10293000E030E2F9902E00E0FEA3E0FF1230F790C5
:102940002EC4E4F0A3F0902EC8F0A3F0902EC0F0B7
:10295000439910539AEF539BEF5390EF229001A7A6
:10296000E014601B1460432402705D9001B1E0B478
:10297000010A9001A71229C9D205D200C203227F01
:1029800002122D92EF60077F0212312EC2059001D4
:10299000B1E070349001A77402F0D203C205C20006
:1029A0007F0312312E7F03022C287F03122D92EF1A
:1029B00060167F0312312E9001B1E09001A77003E1
:1029C000F080031229C9C203227401F07F02123180
:1029D0002E7F02122C28224101AB004101AC0041A4
:1029E00001A8004101B00042011603E84101B20014
:1029F000C102C101C1044101B1004101A700C103ED
:102A0000C100C1054102F0004102F1004202EB00A9
:102A100000C10AC10CC10B4102ED104101B30041DC
:102A200001B510C106C109C10841024F00022800CA
:102A3000000465000000004101B41041025000C1D3
:102A40000D4100120000200806200303300512305B
:102A500008067F017E008003E4FFFE12251CC208E9
:102A600022900198E07002A3E06005120DDD703A3B
:102A7000200003122E9E1227C07F01122FD8121C95
:102A8000F09002DAEEF0A3EFF07B017A0279DA122D
:102A90002CC69002DA120D95120C2D120CBF1208E2
:102AA0007E122720120F46121EAB122AAE22900170
:102AB00016E07004A3E0640170119001B2E07004AC
:102AC000D28A04F0E4900116F0A3F090004DE0FCEF
:102AD0009001B4E06C603D90004DE0FE9001B4F0D8
:102AE00090001EE09001B0F0540FF0EEB42005E02D
:102AF0004420800AECB4100B9001B0E04410F09038
:102B0000001EF0C28AE49001B2F09001167403F046
:102B1000A374E8F0229002DA7408F0A3E4F0A3743E
:102B20003FF0A374DFF0E4FDFCF9758A10538AEFDF
:102B3000009002DAE0FEA3E02DF582EE3CF583E49E
:102B400093FF69F90DBD00010CBC37E5BDDFE290D4
:102B500002DC12310BE493699002EE700912310B22
:102B6000A37407F0800612310BA3E4F0758A50536A
:102B70008AEF0022900189E024FE60131460231480
:102B80006027240370499001897402F01231377F65
:102B9000017E0012251C9001897403F0E49001A8C5
:102BA000F0229001897404F02212295D122C79120E
:102BB000295D900218E07004A3E06401700C90029B
:102BC00018F0A3F09001897402F0E490019DF022C6
:102BD000122EF8F5828E83A3E0B4AA03122B1512ED
:102BE0002EF8FF122EE3E0B41008EF122EE3E4F00B
:102BF000D208122EF8FF241B122EE5E0700DEF24F0
:102C00001C122EE5E0B41003122D0D122EF8241321
:102C1000122EE5E0FFB410069001B17401F0EFB49C
:102C20002005E49001B1F0229002DAEFF0E024D127
:102C3000123082E060037F01229002DAE0FF24D1AB
:102C40001230827401F0EF12308AE493FE74019323
:102C5000FFE4FCFD902F60E0F8A3E0F9A3E0FAA305
:102C6000E02FFFEA3EFEED39EC389002DAE0123058
:102C700096EEF0A3EFF07F0022120DDD7029900296
:102C80004FE07003120D2690024F7401F090003C4B
:102C9000E0B42008122A4612124280031230069035
:102CA000019C7401F0801CE490024FF090003CE025
:102CB000B42005122A46800312300690019CE06081
:102CC00002E4F00230C29002DCEBF0A3EAF0A3E9E8
:102CD000F090018CE07002A3E070319001E4E060BC
:102CE0002BE49001E4F01227C0120D267508017F35
:102CF00001122FD8121CF09002DC120C2D120DCCF8
:102D00000508E508C3940F40E6120E922212082E21
:102D1000E4F5F275F30875EEFF75EF3F75EA81F59E
:102D2000F675EB0700E5EC30E7FBE4F5EC9002EE1E
:102D3000E0FEA3E0FF241BF582E43EF583E5F3F01B
:102D4000EF241CF582E43EF583E5F2F075EB3022CA
:102D5000758B11902F647440F0E4FEE4FFEF75F082
:102D600003A42463F582E43402F583E5822EF58220
:102D7000E43583F583E4F00FEFB40AE10EEEB4031B
:102D8000DA7F099002D1E4F0A3DFFC902F64748015
:102D9000F022CBEFCB12307FE06036902F60A3A300
:102DA000E0FEA3E0FFEB123096E0FCA3E0FDD39F32
:102DB000EC9E501DC3EF9DFFEE9CFEEB12308AC3CC
:102DC0007401939FE4939E400812307FE4F07F01EA
:102DD000227F0022EE30E707C3E49FFFE49EFE223D
:102DE0000701AB34E4FF300A169002EEE0FCA3E0EA
:102DF000F5828C83E0FE54F0FFEE540FF0C20A22FD
:102E0000021103030A110DA00EA60FFF0C020BFF07
:102E100023F724072504070127022A0228022B0290
:102E200029012C012D042E042F0426040701021170
:102E300003060A100D400E800FFF0C020BFF23F457
:102E400024042504070127102A1028042B04290331
:102E50002C032D202E202F1026200000758A505381
:102E60008AEF9000157411F09000147422F0900015
:102E7000167433F0E4F5AB75AC1DF5ADF5AF75899F
:102E8000FF75913C7599FFF59675931CF59BF5952B
:102E9000F592F59AD28A9001B204F0D20E22300B4C
:102EA00038C20B902E42E0FFA3E09002DCCFF0A3EB
:102EB000EFF0120803120D3E9001D6120C2D120DE8
:102EC000CC902EC07402F09002DCE0FFA3E0902EC4
:102ED00042CFF0A3EFF0120D2622F582E43CF583F9
:102EE000EFF022241AF582E43EF58322A42440F573
:102EF00082E5F0342EF583229002EEE0FEA3E0227C
:102F0000A3F0A37401F0A32274672FF582E43400C8
:102F1000F5832200000000FFFFFFFF0000FFFFFF1E
:102F2000FFFFFFFFFFFF00FF000000FFFF000000AA
:102F3000FFFFFFFFFFFFFF00000000FFFFFFFFFF9D
:102F4000FFFFFFFFFF00000000120DFEFF74672F60
:102F5000F582E43400F583E0FE75F002EFA424006E
:102F6000F582E5F0342EF583E49324C0F582E43451
:102F70002EF583EEF00FEFB416D32212084E123066
:102F80005953A87F122E5C120866122FAA43A880FC
:102F9000120873900112E060069001897401F0122A
:102FA0002DE4122BD0122B7480F59002EEE0FFA3DB
:102FB000E09002F2CFF0A3EFF0E4F5DA75DA4043E7
:102FC000DA2075D74075D64075DA5875D90143A90E
:102FD0000875B80875F808229002DFEFF0122F4943
:102FE000E4F5099002DFE0FFE509C39F50071218DE
:102FF00036050980EE902EC0E4F01221689001B6EB
:10300000EEF0A3EFF022E4F5B2F5BA758D20438D12
:1030100020538D7F53AAF7F58BE5DB20E211200DBD
:103020000EE4F58A758703000000758A50D2087592
:103030008B112201F40028002801F4009603E80116
:10304000F403E81770006403E800320258025801E4
:103050002C01F403E8271000C85391FC4392037F2E
:1030600040208804EF4402FF208904EF4404FFEF6E
:1030700064406005E4F5DA80FE900012EFF02274FF
:10308000D12BF582E43402F5832225E02447F58232
:10309000E43430F5832225E02451F582E43402F54E
:1030A00083221230F7902EC77474F0902ECD74C026
:1030B000F0A374FFF0A3F0902EC37401F0902ECA19
:1030C000F022E5B230E005E5AA20E013E490019E8D
:1030D000F075B28E75B6F9F5B743B20143AA012275
:1030E0009001D3E0FBA3E0FAA3E0F922902EC2F016
:1030F000902EC07419F022902EC07402F022A3E02A
:10310000FCA3E02FF582E43CF58322E0FEA3E0F58A
:10311000828E83229002E4120CD7E4F0A37402F0B2
:10312000229002E4120CD77480F0A3E4F02274D150
:103130002F123082E4F022120EB922D2AF32D2AF77
:10314000320230C200000000000000000000000059
:10315000000000000000000000000000000000006F
:10316000000000000000000000000000000000005F
:10317000000000000000000000000000000000004F
:10318000000000000000000000000000000000003F
:103FD0000000000000000000000000000000007F62
:103FE00000000000000000000000000000000000D1
:103FF00000000000000000000000000000000000C1
:00000001FF
