:1007E0000032000000070000C7D600000000000033
:1007F00000000000000000000000000000000000F9
:10080000022812120CB553997F122F4F902E42E4FA
:10081000F0A374FFF01230A67F011222094389026F
:10082000120CBB438002439980220002314A74AA11
:100830007583F5758255A574557583FA7582AAA5D9
:1008400074A57583F5758255A5220002230090409A
:100850007FE493FF64326003EF7002002253A87FAD
:100860000080FD021A9D121FAC1224B390018974FE
:1008700001F02212314D022D730000023147120C9B
:100880000CFDACF0D39FEC9E40329001BE120C20C8
:10089000120EF6D3EF9430EE9475400C9002DA7499
:1008A00075F0A37430F0800D120C17120F00900237
:1008B000DAF0A3EFF0E490024902092D120C1DFFBB
:1008C000AEF09001BE120C20FDACF0C39FFFEC9E79
:1008D000FED3EF9410EE9427400C9002DA7427F0C8
:1008E000A37410F08012120C1DFFC3ED9FFEEC9557
:1008F000F09002DAF0A3CEF09002DAE0FFA3E090ED
:100900000249CFF0A3EFF0300018D3E0942C90020E
:1009100049E09401401390024B7427F0A37410F047
:100920008007E490024BF0A3F0E49002DAF0A3F029
:100930009001E2E0606B120CDCC394E8EE648094FA
:100940008350159001BB120C20C394B8E5F0940BB2
:1009500050069002297420F0D3120E0E401AD39044
:1009600002DBE095279002DAE09526400B9001909B
:10097000E4F0A37464F0801BD3900191E0940090A4
:100980000190E09400400C9001BB120C209002DA20
:10099000120DB2D209900196740FF0A374A0F080EA
:1009A000089002297420120C9B120CDCD3120E0F3B
:1009B0005003020BE29001BB120C38120E4AC39096
:1009C00002DBE094C89002DAE0648094805007E48F
:1009D00090022DF0A3F090022DE0FEA3E0FF900224
:1009E000DBE02FF09002DAE03EF0E0FEA3E0FF1241
:1009F0000F07E47BB87A88F9F8C3121733500A90CE
:100A000002DA7488F0A374B8F0D3900193E09400F4
:100A1000900192E09400500790002EE0B42018124C
:100A20000CDCC39496EE64809480500B120E0E4042
:100A30003A7C007D0A80103000319001E2E0700DB8
:100A4000120CDC7C027DBC120E68F0801E120CDCE5
:100A5000C39527EE952650137C027DBC120E6812BA
:100A60000C9B120E51120C38120CCE9001E2E07069
:100A700003020BC4900194E07002A3E06003020B38
:100A8000C4120CDC120F07E54B2FF54BE54A3EF57F
:100A90004AE5493DF549E5483CF548054DE54D70C9
:100AA00002054CC3E55294E8E55194035003020B50
:100AB0005BAE4CAF4DCBEFCB120D24AF4BAE4AAD7E
:100AC00049AC481216A19002DCEEF0A3EFF0C3E5AA
:100AD0004F9FFFE54E9EFE1231329002DEEEF0A3F4
:100AE000EFF0D3943CEE94005006E54F454E700C69
:100AF0009002DCE0F54EA3E0F54F804ED39002DD8E
:100B0000E0954F9002DCE0954E401B120DD2400460
:100B1000740A800BD3EF943CEE9400402D740525AD
:100B20004FF54FE48020120DD2400A74F6254FF5A0
:100B30004F74FF8011D3EF943CEE9400400C74FB93
:100B4000254FF54F74FF354EF54EE4F54BF54AF55C
:100B500049F548F54CF54DF551F552D3E54F940064
:100B6000E54E940040309002DBE0954FFF9002DAB2
:100B7000E0954EFE123132C3EF9482EE6480948091
:100B80005008120E73E4F553800CE553C3940750DC
:100B900005120E730553E5DB20E23A9001C4120CF6
:100BA00020FFAEF07C007D0F1217CF9002DA120CFE
:100BB00089120F07EB7B10120D0C9001C4120C3838
:100BC000F9EE800CE5DB20E20C120E51120C38C954
:100BD0008FF01216469001C4120C2024A8FFE5F0F5
:100BE000801D9001BB120C38120DAB9001C4120C89
:100BF00038120DAB9002DBE024A8FF9002DAE0345B
:100C000061F99001C1120C38120CCE229001BEE0A5
:100C1000FBA3E0FAA3E0F91215E3FFAEF09001B8F0
:100C2000E0FBA3E0FAA3E0F90215E39001E5A3A33A
:100C3000E0F9A3E0FF9001BEE0FBA3E0FAA3E0220D
:100C4000F07E007F057D007B007A00795E1217FC44
:100C50007E007F127D007BFE7A0079001217FCE493
:100C600090020EF0A3F090020CF0A3F0900210F0AE
:100C7000A3F0A3F0A3F0A3F0A3F022E4FCFDE0F8BE
:100C8000A3E0F9A3E0FAA3E022C8ECC8C9EDC9CA01
:100C9000EECACBEFCBE0FEA3E0FF22F0900194740C
:100CA00003F0A374E8F07B007A0079487E007F129D
:100CB0007D000217FC43AB025389FD5395FD53960B
:100CC000FD227D14E0FEA3E0FF7C00021530C98FF9
:100CD000F0021646A3F0A37401F0A3229002DAE01A
:100CE000FEA3E0FF22E4FCFDEB2FFFEA3EFEED3920
:100CF000FDEC38FC22E50A25E0242AF8E6FE08E6A9
:100D00002290018C7402F0A37458F0222FFFEA3E67
:100D1000FEE93DFDE83CFCE4FAF9F80216A1A3E087
:100D2000FEA3E0FBCAEECAE4F9F822C3FF90023545
:100D3000E09F900234E095F0227F087A0179E57E09
:100D4000007D007B010217FCE4F0902EC07402F0DD
:100D500022E50D25E0241AF582E43402F583E0FE55
:100D6000A3E0FF22F090022BE03400F0E0FFA3E0CC
:100D7000A3CFF0A3EFF0229002D8A3A3E0F9A3E061
:100D8000FF9001B8227806E2FE08E2FFD39400EE5D
:100D9000940022E0FCA3E0FDA3E0FEA3E022E2FF3A
:100DA00008E2CF900212F0A3EFF022F9E4F5F0028E
:100DB0001646FFE5F0F0A3EFF022902EC07419F074
:100DC00022E4F50EF50DF50CF50B2290002EE064F3
:100DD00020229002DEE0FEA3E0FFD39450EE9400C8
:100DE0002290018E7402F0A374BCF0229001B6E050
:100DF000FCA3E0FD22902EC77401F0902ECA741659
:100E0000F022AB0EAA0DA90CA80BD3021749EF9440
:100E100000EE64809480229002DBE0940A9002DA73
:100E2000E094002290022CE094C890022BE0940001
:100E300022FDE4356BFCED2FFFEC35F0FE22E529B9
:100E40002488FFE5283413FED322F9EE8FF0021632
:100E5000469002DAE0F9A3E0FF9001C42225E024E5
:100E60002AF8A60F08A610221215979002DAEEF0C3
:100E7000A3EF229002DAE54EF0A3E54FF022E490D2
:100E80000192F0A3F022900235E09D900234E09CA4
:100E9000229002DBE09F9002DAE09E22F9746175F5
:100EA000F0A802164690004D7410F022F0A3F090C6
:100EB0000198F0A3F022E4F0A374C8F022902EC4AD
:100EC000E4F0A322FEEF2401FFE43EC31322C3EFAC
:100ED000940AEE6480948022902EC0E4F0902E1E3E
:100EE000E022E22401F218E23400F222C9EDC9CA7C
:100EF000EECACBEFCB22FFC3ED9FFFEC95F0FE22B5
:100F0000C39FFFE5F09E22EE3395E0FDFC229002A8
:100F10002A7464F022F9E412160E90022CE022C327
:100F2000E55D9568E55C9567229002D802176D2013
:100F30008A0302122F90018CE07002A3E06003028A
:100F4000122F90018AE07002A3E0600302122F903A
:100F50000216E07002A3E0600302122F120DCB60B4
:100F60000302122F9001E2E070309001CD120C20AC
:100F7000FFAEF09001BB120C20D39FE5F09E400322
:100F800002122F120D39E4900222F0A3F0120E7F0C
:100F9000900190120EACF5678003756700756820AC
:100FA000E4F5B2F5BA122F4F900226E0F55AA3E00D
:100FB000F55BC207758D20438D20758D8043AA088F
:100FC000D2AF758B02758EAF200A24120DCB701F25
:100FD000200D1CE5DB20E217758AC4200D0DE5DB32
:100FE00020E2087587030000008006D2078002D245
:100FF00007758B11758A5053AAF7D390018BE09433
:101000009090018AE09401400EA3E02470F09001DA
:101010008AE034FEF08007E490018AF0A3F0D390D8
:101020000197E09490900196E09401400EA3E02493
:1010300070F0900196E034FEF08007E4900196F0A5
:10104000A3F0900068E075F005A4902EC3F0A3E42F
:10105000F0A3F0120CB553997F1230A6120DBA907E
:101060002EC0E030E2F9902EC0E4F0902E02E0F5C0
:1010700069A3E0F56A438902120CBB438002123176
:1010800001120DBA902EC0E030E2F9120ED8F5220E
:10109000A3E0F523E56A2529FFE5693528FEC3EFBE
:1010A0009523F525EE9522F524120E3EE5259FE5C4
:1010B000249E40048E248F25902EC4E4F043998012
:1010C000900212E524F0A3E525F0C3E55B9525FF2A
:1010D000E55A9524FE1231328E5C8F5D120F1F404F
:1010E0000302120CAE24AF257C007D0E1217CF1226
:1010F0000F29AF66AE65AD64AC639002D8120C7E6A
:10110000FBD31217499002D84017120D939566FF32
:10111000EE9565FEED9564FDEC9563FC120F29805C
:101120000712178500000000E47F607EEAFDFC9056
:1011300002D8120C7EFBD3121749400A9002D81233
:1011400017850000EA60120C1DFFAEF07C007D09DF
:101150001217CF9002D8120C7E7B0A120D0C120FC0
:10116000299001E2E0703CAE5AAF5BFC7D0912179A
:10117000CFC8ECC8120EECE4FCFDEB2525FFEA35E8
:1011800024120CEDE47B0A120D188E5A8F5B90022C
:10119000D8120C2E120CCE120D77120C38120CCE67
:1011A00002120C120D77120C38120CCE9001BE12E6
:1011B0000C20FFAEF09002D8120C7BFBD312174923
:1011C000405A120C0C120F00FEC3EF956CEE956B9B
:1011D000500302121C90022AE0D39400402E120EFB
:1011E0002450299001BE120C20FFE56C2446120EFB
:1011F00031120C1DD39FE5F09E400E120C3575F098
:1012000014120F152414120D64120F0E20070D1264
:101210000F1F5008120DCB7003020FB490022FE085
:1012200004120C409001E404F090018E120EB622DC
:10123000900238120C7EFBE9C0E0EAC0E0EBC0E0AF
:101240009001D3120C20FFE4FCFDD0E0FBD0E0FACB
:10125000D0E0F9EB2FFFEA35F0120CED90023812D6
:10126000176D90023DE004F0700690023CE004F03F
:1012700090023EE07002A3E0600302152F90023856
:10128000120D93FFEEC0E0EFC0E0120D1ED0E0FFA4
:10129000D0E0FE1216A190023812176D900238A30A
:1012A000A3E0FFA3E0900236CFF0A3EFF0A3121764
:1012B0008500000000E490023CF0A3F0A3F0A374CA
:1012C000C8F090018AE07002A3E0600302152F903D
:1012D0000240E07002A3E0600302152F9001E2E0FB
:1012E0007003021397900232E0FEA3E0FF4E7022DB
:1012F000900236E0FDA3E0900232CDF0A3EDF09035
:1013000001BB120C20FD900234E5F0F0A3EDF002D9
:1013100013C4900236E0FCA3E0FDC3EF9DFFEE9CFA
:10132000FE123132900246120C38120E4A900230F0
:10133000E07026900246120C20C3940DE5F0940054
:10134000500F9001BB120C20FF900234120DB3809D
:10135000229002307401F0801A900246120C20C3D1
:101360009402E5F09400500BE4900232120C73905A
:101370000230F0900236E0FEA3E0FFD3900233E0AB
:101380009F900232E09E4007E4900231F080359059
:1013900002317401F0802DE4900232120C7390023D
:1013A00030F0900242E07002A3E0700280109001E1
:1013B000BB120C20C39496E5F094005007E4900211
:1013C00042120C73900230E0700302152F90023429
:1013D000E0FEA3E0120D8B500302152F9001BB120B
:1013E0000C20120F00FE1231329002DAEEF0A3EF61
:1013F000F0A3E4F0A3748CF09001BB120C20FDACC0
:10140000F0D3120E8640109002DCE013FEA3E0132E
:10141000FFD3120E915013C3120E8650349002DC8B
:10142000E0FEA3E0FF120E914027E4900230F0901E
:101430000232F0A3F09001BB120C20120D2B90028F
:101440004074015006F0A3742CF022F0A37490F0C5
:10145000229001BB120C20D3120D2C500302150E4A
:10146000D3120E17500302150E900231E064016092
:101470000302150E120C35F974FF75F0FB12160EEF
:10148000D3900245E0942C900244E0940140719086
:101490000243E02405F0900242E03400F0200060B6
:1014A0009001BB120C20FFC374B89F740B95F050D1
:1014B0004F900243E024C8F527900242E03400F543
:1014C00026C3E52794E8E5269403401BAE26AF2704
:1014D0007C007D09121530EF7803CEC313CE13D8EC
:1014E000F9F56C8E6B8019E527AE267802C333CEF2
:1014F00033CED8F9FF7C007D031215428E6B8F6CC2
:10150000900245E02405F0900244E03400F09001A0
:10151000BB120C20120D2B5016120E174011900208
:1015200031E0700B120C35F9E475F00512160E223D
:10153000EF8DF0A4A8F0CF8CF0A428CE8DF0A42ECF
:10154000FE22BC000BBE0029EF8DF084FFADF0221F
:10155000E4CCF875F008EF2FFFEE33FEEC33FCEE31
:101560009DEC984005FCEE9DFE0FD5F0E9E4CEFD24
:1015700022EDF8F5F0EE8420D21CFEADF075F008F7
:10158000EF2FFFED33FD4007985006D5F0F222C350
:1015900098FD0FD5F0EA22C2D5EC30E709B2D5E4C8
:1015A000C39DFDE49CFCEE30E715B2D5E4C39FFF7C
:1015B000E49EFE121542C3E49DFDE49CFC800312F0
:1015C000154230D507C3E49FFFE49EFE22C5F0F824
:1015D000A3E028F0C5F0F8E582158270021583E0DB
:1015E00038F022BB010A89828A83E0F5F0A3E02269
:1015F000500687F009E71922BBFE07E3F5F009E37F
:10160000192289828A83E493F5F074019322BB0145
:101610000789828A830215CD500B09C5F027F7C5CB
:10162000F01937F722BBFE0D09F8E325F0F3C5F0FA
:1016300019E338F322F889828A8374019325F0C56F
:10164000F0F8E4933822BB010A89828A83F0E5F03E
:10165000A3F0225006F709A7F01922BBFE06F3E516
:10166000F009F3192275F008758200EF2FFFEE33B1
:10167000FECD33CDCC33CCC58233C5829BED9AEC05
:1016800099E58298400CF582EE9BFEED9AFDEC996F
:10169000FC0FD5F0D6E4CEFBE4CDFAE4CCF9A88279
:1016A00022B800C1B90059BA002DEC8BF084CFCE1E
:1016B000CDFCE5F0CBF97818EF2FFFEE33FEED33DC
:1016C000FDEC33FCEB33FB10D703994004EB99FBA3
:1016D0000FD8E5E4F9FA227818EF2FFFEE33FEED8C
:1016E00033FDEC33FCC933C910D7059BE99A400799
:1016F000EC9BFCE99AF90FD8E0E4C9FAE4CCFB22B0
:1017000075F010EF2FFFEE33FEED33FDCC33CCC878
:1017100033C810D7079BEC9AE899400AED9BFDEC83
:101720009AFCE899F80FD5F0DAE4CDFBE4CCFAE4C2
:10173000C8F922EB9FF5F0EA9E42F0E99D42F0ECF9
:101740006480C864809845F022EB9FF5F0EA9E42E1
:10175000F0E99D42F0E89C45F022E8600FECC313ED
:10176000FCED13FDEE13FEEF13FFD8F122ECF0A316
:10177000EDF0A3EEF0A3EFF022ECF208EDF208EEAC
:10178000F208EFF222A8828583F0D083D08212176C
:101790009C12179C12179C12179CE473E493A3C528
:1017A00083C5F0C583C8C582C8F0A3C583C5F0C58D
:1017B00083C8C582C822D083D082E493F208740122
:1017C00093F208740293F208740393F2740473ECB6
:1017D0008EF0A4CCC5F0CCCDF8EFA4CEC5F02DFD95
:1017E000E43CFCE8A42EC8C5F03DFDE43CFCEFA4BD
:1017F000FFE5F028FEE43DFDE43CFC22EF4E6012E4
:10180000EF60010EEDBB010B89828A83F0A3DFFC40
:10181000DEFA2289F05007F709DFFCA9F022BBFEAF
:10182000FCF309DFFCA9F022120D4A120EBDF053A1
:10183000997FF50BF50CF50DF50EF50A1230A61291
:101840000CB5120DBA902EC0E030E2F9902EC0E433
:10185000F0438902120CBB438002902E02E0FEA3EB
:10186000E0250CF50CEE350BF50B123101120DBA1B
:10187000902EC0E030E2F9120ED8FEA3E0250EF55E
:101880000EEE350DF50D050AE50AC3940540AD438E
:101890009980902EC5E4F0E529240CFFE52834FE5C
:1018A000FED3EF950CEE950B4016900216E07002F9
:1018B000A3E070139002167403F0A374E8F080079D
:1018C000E4900216F0A3F0E50C2529FFE50B35287E
:1018D000FEC3EF950EF510EE950DF50F120E3EE5D9
:1018E000109FE50F9E40048E0F8F1090020CE50FA5
:1018F000F0A3E510F0A3E50DF0A3E50EF0A3E50BD2
:10190000F0A3E50CF0AF10AE0F12263AEE120DA3C5
:1019100090002EE0B420097BFE7A007900120CAC16
:101920007800E2FB08E2F908E2FA08E2CBF890025C
:1019300012E0FEA3E0FF120CE5780012177978059B
:10194000120EE2C3780AE294E818E294035003020C
:101950001A0E7804E2FE08E2FFE4FCFDECC0E0129F
:101960000EEC7800E2FC08E2FD08E2FE08E2FFD09F
:10197000E0F81216A19002DEEEF0A3EFF0C37807B4
:10198000E29FFF18E29EFE1231329002E0EEF0A3D9
:10199000EFF0120D85403D9002E0E0FCA3E0FD94E5
:1019A00005EC9400502EED9403EC9400401F90023F
:1019B000DEE0FCA3E0FDD3EF9DEE9C400BE224FFB4
:1019C000F218E234FFF280057807120EE27808740C
:1019D00003F280267808E2D394004003E214F27800
:1019E00008E2600818E2700218E2700E9002DEE071
:1019F000FFA3E07806CFF208EFF278001217B600E6
:101A0000000000E47804F208F27809F208F2120DFE
:101A1000854061900213E09FFF900212E09EFE90CD
:101A200002DEF0A3EFF0D394F9EE6480947F4017C8
:101A3000E094079002DEE064809480500A18120D52
:101A40009EE4780BF2802D9002DEE0FEA3E0FF1210
:101A50003132D3EF940FEE648094804005780B749C
:101A600003F2780BE2C39403500A7806120D9E78B5
:101A70000BE204F2900212E0F546A3E0F547750A86
:101A800001E50A120CF7FFE50A25E02428F8C6EE66
:101A9000C608C6EFC6050AE50AB40FE522C0E0C0D5
:101AA00083C082C0D0E8C0E0D2AF90019DE004F0D6
:101AB000D390018BE0940090018AE09400400CA345
:101AC000E024FFF090018AE034FFF0D390018DE034
:101AD000940090018CE09400400CA3E024FFF0906F
:101AE000018CE034FFF0D390018FE0940090018EE0
:101AF000E09400400CA3E024FFF090018EE034FF5E
:101B0000F0D3900191E09400900190E09400400C9B
:101B1000A3E024FFF0900190E034FFF0D390019314
:101B2000E09400900192E09400400CA3E024FFF0C8
:101B3000900192E034FFF0D390019BE0940090017B
:101B40009AE09400400CA3E024FFF090019AE03466
:101B5000FFF0D3900199E09400900198E094004048
:101B60000CA3E024FFF0900198E034FFF0D3900143
:101B700095E09400900194E09400400CA3E024FFD1
:101B8000F0900194E034FFF090022AE0D3940140F9
:101B900003E014F0900229E0D394004003E014F035
:101BA000C3780AE294E818E29403500A08E2240198
:101BB000F218E23400F2C3E55294E8E55194035080
:101BC000080552E55270020551D390023FE094009F
:101BD00090023EE09400400CA3E024FFF090023E0F
:101BE000E034FFF0D3900241E09400900240E09492
:101BF00000400CA3E024FFF0900240E034FFF0D35B
:101C0000900217E09401900216E09400400CA3E0CB
:101C100024FFF0900216E034FFF0D3900197E09497
:101C200000900196E09400400CA3E024FFF09001A6
:101C300096E034FFF0D390024CE0940090024BE029
:101C40009400400CA3E024FFF090024BE034FFF03E
:101C5000D3900117E09401900116E09400400CA38A
:101C6000E024FFF0900116E034FFF0D0E0F8D0D08F
:101C7000D082D083D0E032900222E0FEA3E0FFC306
:101C80009404EE9400502A120DECEF25E0FFEE33A1
:101C9000FE741A2FF58274023EF583ECF0A3EDF08A
:101CA000900223E004F07006900222E004F0021D8E
:101CB000DD750D01120D51E50D25E02418F582E4C6
:101CC0003402F583EEF0A3EFF0050DE50DB404E466
:101CD0009001E2E07003021D819001BE120C20FF12
:101CE000AEF0120DECD39FEC9E5003021D7FED9FD2
:101CF000FFEC9EFED3EF94F4EE94015003021D7F9F
:101D0000A3120C20120EF69002DDF0A3EFF01231B8
:101D100032C3EF9464EE648094805063E49002DFF9
:101D2000F0A3F09002DDE0FEA3E0FF123132D3EF2A
:101D30009428EE648094804025D39002DEE09400E5
:101D40009002DDE0648094809002DF4008E4F0A31C
:101D50007405F0801074FFF0A374FBF08007E4902A
:101D600002DFF0A3F0120C1DFF9002E0E02FFE90C6
:101D700002DFE035F0900220F0A3CEF0021DDD80FE
:101D80004D120C1DFF120DECC3EF9DFFE5F09CFE04
:101D9000123132C3EF940FEE648094805030900182
:101DA000BE120C20FFC39001B7E09FFF9001B6E088
:101DB00095F0FE123132120ECE50059001BE800316
:101DC0009001B8120C20FF900220E5F0800B9001EA
:101DD000B6E0FFA3E0900220CFF0A3EFF0E4F50C13
:101DE000F50BF50AF509F50DD3900223E0950D905A
:101DF0000222E09400401E120D51E4FCFDE50C2F80
:101E0000F50CE50B3EF50BED350AF50AEC3509F559
:101E100009050D80D3AF0CAE0BAD0AAC09EEC0E0E6
:101E2000EFC0E0900222120D1FD0E0FFD0E0FE12C2
:101E300016A18F0C8E0B8D0A8C09229001E2E070A6
:101E400003021EC1120D39120DE1900229E0702E1D
:101E5000A3E0702A9001BB120C20FFAEF0D394E8EF
:101E6000EE94034019EF94B8EE940B5011900228B1
:101E7000E0FF04F0EF9428400A120F0E8005E49072
:101E80000228F090022AE064016003021FABC31233
:101E90000E244003021FAB9001BE120C20FFE56C24
:101EA0002432120E31120C1DD39FE5F09E400E120B
:101EB0000C3575F005120F152405120D64120F0E66
:101EC00022E490022A120C71900228F09001E5128F
:101ED0000C7EFBE9C0E0EAC0E0EBC0E0120C1DFFA5
:101EE000E4FCFDD0E0FBD0E0FAD0E0F9EB2FFFEA14
:101EF00035F0120CED9001E512176D9001EAE00447
:101F0000F070069001E9E004F090018EE07002A309
:101F1000E06003021FAB9001E5120D93FFEEC0E0FD
:101F2000EFC0E0120D1ED0E0FFD0E0FE1216A1902F
:101F300001E512176D9001BE120C202432FFE4352A
:101F4000F0FE9001E5120C7BFBD31217494039904B
:101F5000018AE07002A3E0702F20092C9001ECE0D0
:101F600004F070069001EBE004F0D39001ECE094F3
:101F7000059001EBE09400401E120C2B120CCEE4F5
:101F80009001EBF0A3F0800F120C2B120CCEE4901A
:101F900001EBF0A3F0C2099001E5121785000000E3
:101FA00000E49001E9F0A3F0120DE1227E007FFF32
:101FB0007D007B017A0079171217FC9002EC740007
:101FC000F0A37417F090013D7401F0A37400F0A326
:101FD00074CBF09001437401F0A37400F074BF124D
:101FE0002F067400F0A374A7F09001407401F0A3D1
:101FF0007400F0A374D9F09001497401F0A3740047
:10200000F074E5122F067400F0A37432122F0774D7
:1020100001F0A37415F0902DE0E493FF9002ECE042
:10202000FCA3E0FDF5828C83A3EFF0900015E0FFA8
:10203000ED2404122EE0900014E0FFED2405122E92
:10204000E0900016E0FFED2406122EE0902DE2E471
:1020500093FFED2412122EE0902DE3E493FFED2484
:1020600014122EE09001527401F0A37400F0A374D6
:102070004FF0E4FF75F002EFA42401F582E5F0349F
:102080002EF583E493FE122F0EEEF0122F0EE0FEDB
:1020900075F002EFA42400F582E5F0342EF583E418
:1020A0009324C0F582E4342EF583EEF00FEFB416DE
:1020B000C3902F56E090006BF0902F56E090008177
:1020C000F0902F56E090006CF0902F56E090008238
:1020D000F09001127401F0900111F090004D741015
:1020E000F090002EF090003BF0A37420F090018A55
:1020F0007407F0A374D0F022120DC1F515F5168502
:102100002A11852B12852A13852B14F50A120CF53A
:10211000FFD3E5149FE5139E40078E138F14850AA5
:1021200016C3E5129FE5119E50078E118F12850A86
:1021300015050AE50AB40ED5E4F50FF510F50AE524
:1021400016650A602EE515650A6028E510450F70D2
:1021500010E50A25E0242AF8E6F50F08E6F51080D8
:1021600012120CF52510FFE50F3E120EC4F50FEF0D
:1021700013F510050AE50AB40EC5900226E50FF026
:10218000A3E510F0E516C3940B5005E516120E5D9D
:10219000E515C3940B5005E515120E5D120DC1F542
:1021A0000A120CF5FFE4FCFDE50E2FF50EE50D3EE1
:1021B000F50DED350CF50CEC350BF50B050AE50AC4
:1021C000B40EDEAF66AE65AD64AC63120E02401AAB
:1021D000E50E9566F50EE50D9565F50DE50C956436
:1021E000F50CE50B9563F50B8003120DC1E47F60E0
:1021F0007EEAFDFC120E02400BE4750E60750DEADE
:10220000F50CF50BAE0DAF0E229002DEEFF0900252
:10221000E3E4F0A374FFF0E4A3F0A3F0A304F0A3BD
:1022200074FFF0902EC07402F0902EC37408F0E496
:102230009002DFF0A3F09002DFE0FEA3E0FFC39482
:1022400009EE940040030222FDEF9407EE94004053
:10225000067E007F0180199002DFA3E004FFE47E88
:1022600001C8EFC8088006CEA2E713CE13D8F8FF46
:102270009002E1EEF0A3EFF0902EC07419F0902ED2
:10228000C0E030E2F9902EC0E4F09002DEE0FF758D
:10229000F002A42400122EF5E0FCA3E0FD902EC075
:1022A0007402F0D3ED94FFEC940F40179002E1E03C
:1022B000FCA3E0FD75F002EF122EF2EC8DF012158A
:1022C000CD80299002DEE075F002122EF2C083C0AC
:1022D00082E0FEA3E0FF9002E1E0FCA3E0FDC3EF9B
:1022E0009DFFEE9CD082D083F0A3EFF09002E0E05F
:1022F00004F070069002DFE004F00222367F002234
:10230000C0E0C083C082C0D0ECC0E0EFC0E0D2AF7C
:10231000E5DB30E419D20DC20CE5DB30E102802EA2
:102320009002EBE5DFF09002EEE4F00223CDE5DB76
:1023300030E50FD20A300C05C20C0223CDC20D02CB
:1023400023CDC20CE5DB30E13EE5DB30E00F90024F
:10235000EFE0FF04F012311CE0F5DF80709002EF37
:10236000E0FFB40819208A16D28A9001B27401F0F5
:102370009002ECE0FCA3E02407123122E4F0EF64C9
:102380001A704AD20B80469002EEE0700EA3E5DF91
:10239000F09002EE7401F0D20C80329002EFE090E7
:1023A0002F1993B4FF089002EBE5DFF0801990023B
:1023B000EFE0FF12311CE5DFF0EFB4240A90018C4E
:1023C0007401F0A374F4F09002EFE004F075DBFF09
:1023D000D0E0FFD0E0FCD0D0D082D083D0E032E497
:1023E000F56D120803902E42E0FEA3E0FFBE010946
:1023F000BFFF06756D01120803902E42E0FEA3E0B8
:1024000024A4FFEE34FE9002DCF0A3EFF0120CB532
:1024100053997F122F4F1230A6120D4A902EC314DB
:10242000F0120DBA902EC0E030E2F9902EC0E4F028
:10243000902E027D0F120CC48E288F291D1217CFEB
:10244000EF24E0F566EE34B1F565ED34FFF564ECAC
:1024500034FFF563438902120CBB43800243998029
:1024600053997F123101902E5EE4F0A374FFF07F48
:102470000F122209902EC4E4F0439980A3F090013A
:10248000B5E0900034F0E56D902E42B4010D120CD1
:10249000C29001D6120C38F9EE8012120CC2EF2451
:1024A000E8FFEE3403F99001D6120C38C98FF01210
:1024B0001646227F977A0179B6120D3F9001B874C3
:1024C00001F0A37400F07457120CD47400F0745926
:1024D000120CD47400F0A3745B120CD57400F0A33A
:1024E0007445120CD57400F0A37441120CD574001D
:1024F000F0A3743FF09001D37401F0A37400F0A333
:102500007439F09002467401F0A37400F0A374973C
:10251000F09001D67401F0A37400F0A3742F120C94
:10252000D57400F0A37435F09001CA7401F0A3745F
:1025300000F0A37449120CD57400F0A3743D120C82
:10254000D57400F0A3744BF0756B00756CC89001E6
:10255000CA120C38F9E56B856CF01216469001CD65
:10256000120C38F9E475F0641216467526007527CA
:10257000969001D0120C38F9E5268527F002164610
:102580009002DAEEF0A3EF120C409002DAE0700253
:10259000A3E060031223DF122780E4900222F0A35D
:1025A000F07F0E122FE2120D01A3120DE4E490024F
:1025B0002A120C719001B6E0F9A3E0FFA3120C38C7
:1025C000120CCE9001BB120C38120DAB9001C1124F
:1025D0000C38120E9C9001C4120C38120DAB9001F5
:1025E000C7120C38120E9C120EA5E49001E2F09076
:1025F00001E512178500000000E49001E9120C7358
:102600009001B6120C30120CCEE49001E4F090016F
:102610009A120EAC900196F0A3F0FE7F16FD7B019E
:102620007A0279301217FC9001D3120C20900236F6
:10263000120DB290023E120EB6229002E2EEF0A30C
:10264000EFF0E5614560700C9002E2E0F560A3E018
:10265000F56180169002E3E02561FF9002E2E0352B
:1026600060120EC4F560EF13F5610562E562D39464
:102670000A400D85605E85615FE4F560F561F56295
:10268000D3E55F9400E55E9400404C9002E3E09552
:102690005FFF9002E2E0955EFE123132120ECE50E4
:1026A0001EAE5EAF5F7C007D031217CF9002E21278
:1026B0000C89120CE5780212175A9002E2801390EE
:1026C00002E3E0255FFF9002E2E0355EC313FEEF18
:1026D00013FFEEF0A3EFF09002E2E0FEA3E0FF2292
:1026E00030002090024BE07002A3E06008756B2779
:1026F000756C108006756B1B756C587526177527E1
:10270000708014900242E07002A3E0700AF56B75CD
:102710006CC8F5267527969001BB120C20FFAEF011
:10272000C3956CEE956B500F9001E2E0601AC3EF19
:102730009527EE95264011900192E07002A3E0707B
:10274000279001E204F0802090002EE0B4200512D2
:102750000E7E8006900192120EB6E49001E2F09097
:102760000190F0A3F0120EA59001E2E0601190003C
:102770003BE090004DB410047410F0227420F0225D
:102780004389025395FD5396FD4380021230867FA4
:102790000C1228A1CAEECACBEFCB7F0C1228A1EFF6
:1027A0002BFFEE3AFE9002DDF0A3EFF07C007D0EF1
:1027B0001215309002DDEEF0A3EFF01230E31215A7
:1027C000E345F0700A9002DDE0FFA3E0CF803D1208
:1027D00015E3FFAEF07C007D081217CFC8ECC8C926
:1027E000EDC9CAEECACBEFCB9002DDE0FEA3E0FF5D
:1027F000E4FCFDEB2FFFEA3EFEED39FDEC38FCE496
:102800007B09FAF9F81216A11230E3EE8FF01216D6
:102810004622787FE4F6D8FD75816D02285C0200BF
:1028200000022F85E493A3F8E493A34003F680010C
:10283000F208DFF48029E493A3F85407240CC8C3FA
:1028400033C4540F4420C8834004F456800146F634
:10285000DFE4800B0102040810204080902997E4F7
:102860007E019360BCA3FF543F30E509541FFEE492
:1028700093A360010ECF54C025E060A840B8E49354
:10288000A3FAE493A3F8E493A3C8C582C8CAC58396
:10289000CAF0A3C8C582C8CAC583CADFE9DEE7801B
:1028A000BECDEFCD43AD105399EF439A10539BEF3C
:1028B0001230FA147E00C8EDC8088005C333CE3349
:1028C000CED8F9FF902EC4EEF0A3EFF0902EC8EE14
:1028D000F0A3EFF074101230EF902EC0E030E2F968
:1028E000902EC0E4F07402F074201230EF902EC0ED
:1028F000E030E2F9902E00E0FEA3E0FF1230FA9003
:102900002EC4E4F0A3F0902EC8F0A3F0902EC0F0F7
:10291000439910539AEF539BEF5390EF229001A7E6
:10292000E014601B1460432402705D9001B1E0B4B8
:10293000010A9001A7122989D205D200C203227F81
:1029400002122E5CEF60077F0212313EC205900139
:10295000B1E070349001A77402F0D203C205C20046
:102960007F0312313E7F03022C4B7F03122E5CEF5C
:1029700060167F0312313E9001B1E09001A7700311
:10298000F08003122989C203227401F07F02123100
:102990003E7F02122C4B224101AB004101AC0041B1
:1029A00001A8004101B00042011603E84101B20054
:1029B000C102C101C1044101B1004101A700C1032D
:1029C000C100C1054102EE004102EF004202E900F0
:1029D00000C10AC10CC10B4102EB104101B300411F
:1029E00001B510C106C109C10841024D00016D00C9
:1029F000022800000463000000004101B4104102FD
:102A00004E00C10D410012000020080620030330D3
:102A100005123008067F017E008003E4FFFE1225C8
:102A200080C20822900198E07002A3E06005120DB8
:102A3000CB703A200003122AD81227807F01122F70
:102A4000E2121C779002D8EEF0A3EFF07B017A023D
:102A500079D8122CE99002D8120D7C120C38120C85
:102A6000CE12087E1226E0121230121E3B122A717C
:102A700022900116E07004A3E0640170119001B28D
:102A8000E07004D28A04F0E4900116F0A3F0900004
:102A90004DE0FC9001B4E06C603D90004DE0FE9094
:102AA00001B4F090001EE09001B0F0540FF0EEB4CD
:102AB0002005E04420800AECB4100B9001B0E04403
:102AC00010F090001EF0C28AE49001B2F09001165E
:102AD0007403F0A374E8F022300B5CC20B902E421A
:102AE000E0FFA3E09002DCCFF0A3EFF0120803E5D3
:102AF0006D902E42B40109120CC29002DAEE800DE4
:102B0000120CC2EF24E8FFEE34039002DAF0A3EFD8
:102B1000F09002DAE0F9A3E0FF9001D6120C38122F
:102B20000CCE120D4A9002DCE0FFA3E0902E42CFC3
:102B3000F0A3EFF0120D01229002D87408F0A3E484
:102B4000F0A3743FF0A374DFF0E4FDFCF9758A1084
:102B5000538AEF009002D8E0FEA3E02DF582EE3C10
:102B6000F583E493FF69F90DBD00010CBC37E5BDA9
:102B7000DFE29002DA123129E493699002EC7009E5
:102B8000123129A37407F08006123129A3E4F075ED
:102B90008A50538AEF0022900189E024FE601314CA
:102BA0006023146027240370499001897402F01295
:102BB0002DDB7F017E001225809001897403F0E4F3
:102BC0009001A8F0229001897404F02212291D12AC
:102BD0002C9C12291D900216E07004A3E064017081
:102BE0000C900216F0A3F09001897402F0E49001B9
:102BF0009DF022122EFEF5828E83A3E0B4AA03126A
:102C00002B38122EFEFF122EE9E0B41008EF122E20
:102C1000E9E4F0D208122EFEFF241B122EEBE07026
:102C20000DEF241C122EEBE0B41003122D30122EE7
:102C3000FE2413122EEBE0FFB410069001B17401D4
:102C4000F0EFB42005E49001B1F0229002D8EFF04B
:102C5000E024CF123066E060037F01229002D8E0CA
:102C6000FF24CF1230667401F0EF12306EE493FE51
:102C7000740193FFE4FCFD902F60E0F8A3E0F9A35A
:102C8000E0FAA3E02FFFEA3EFEED39EC389002D8DF
:102C9000E012307AEEF0A3EFF07F0022120DCB703D
:102CA0002990024DE07003120D0190024D7401F065
:102CB00090003CE0B42008122A09120F2F80031262
:102CC000301090019C7401F0801CE490024DF09053
:102CD000003CE0B42005122A098003123010900154
:102CE0009CE06002E4F00230C59002DAEBF0A3EA67
:102CF000F0A3E9F090018CE07002A3E07031900144
:102D0000E4E0602BE49001E4F0122780120D0175DD
:102D100008017F01122FE2121C779002DA120C38A0
:102D2000120E4A0508E508C3940E40E6120E7E22F4
:102D300012082EE4F5F275F30875EEFF75EF3F7596
:102D4000EA81F5F675EB0700E5EC30E7FBE4F5EC1E
:102D50009002ECE0FEA3E0FF241BF582E43EF58345
:102D6000E5F3F0EF241CF582E43EF583E5F2F0751F
:102D7000EB3022758B11902F647440F0E4FEE4FF79
:102D8000EF75F003A42461F582E43402F583E58253
:102D90002EF582E43583F583E4F00FEFB40AE10EFB
:102DA000EEB403DA7F099002CFE4F0A3DFFC902FAA
:102DB000647480F02201F40028002801F4009603D6
:102DC000E801F403E81770006403E80032025802D7
:102DD00058012C01F403E8271000C8120EA52200A8
:102DE0000701AB32E4FF300A169002ECE0FCA3E0EE
:102DF000F5828C83E0FE54F0FFEE540FF0C20A22FD
:102E0000029103030A160DA00EA60FFF0C020BFF82
:102E100023F724062504070127002A0028002B0099
:102E200029012C012D042E042F0426040701021170
:102E300003060A100D400E800FFF0C020BFF23F457
:102E400024042504070127102A1028042B04290331
:102E50002C032D202E202F1026200000CBEFCB128C
:102E60003063E06036902F60A3A3E0FEA3E0FFEBA9
:102E700012307AE0FCA3E0FDD39FEC9E501DC3EF1F
:102E80009DFFEE9CFEEB12306EC37401939FE493A2
:102E90009E4008123063E4F07F01227F0022758A91
:102EA00050538AEF9000157411F09000147422F0C2
:102EB0009000167433F0E4F5AB75AC1DF5ADF5AFCD
:102EC0007589FF75913C7599FFF59675931CF59B77
:102ED000F595F592F59AD28A9001B204F0D20E22BD
:102EE000F582E43CF583EFF022241AF582E43EF506
:102EF0008322A42440F582E5F0342EF5832290024B
:102F0000ECE0FEA3E022A3F0A37401F0A322746717
:102F10002FF582E43400F5832200000000FFFFFF5C
:102F2000FF0000FFFFFFFFFFFFFFFFFF00FF0000AC
:102F300000FFFF000000FFFFFFFFFFFFFF0000009A
:102F400000FFFFFFFFFFFFFFFFFFFF000000001279
:102F50000D4A120EBDF0FF74672FF582E43400F5C0
:102F600083E0FE75F002EFA42400F582E5F0342E34
:102F7000F583E49324C0F582E4342EF583EEF00F5C
:102F8000EFB416D32212084E12303D53A87F122EF2
:102F90009E120866122FB443A88012087390011283
:102FA000E060069001897401F0122DE4122BF312F7
:102FB0002B9780F59002ECE0FFA3E09002F0CFF0B9
:102FC000A3EFF0E4F5DA75DA4043DA2075D74275FD
:102FD000D64275DA5875D90143A90875B80875F84D
:102FE00008229002DDEFF0122F4FE4F5099002DD88
:102FF000E0FFE509C39F5007121828050980EE90ED
:103000002EC0E4F01220F89001B6EEF0A3EFF0220B
:10301000E4F5B2F5BA758D20438D20538D7F53AA08
:10302000F7F58BE5DB20E211200D0EE4F58A7587BC
:1030300003000000758A50D208758B11225391FC51
:103040004392037F40208804EF4402FF208904EF6D
:103050004404FFEF64426005E4F5DA80FE9000125C
:10306000EFF02274CF2BF582E43402F5832225E0C1
:1030700024C9F582E4342DF5832225E0244FF5821E
:10308000E43402F583221230FA902EC77474F09063
:103090002ECD74C0F0A374FFF0A3F0902EC3740182
:1030A000F0902ECAF0229002E2120D48E56D902EAB
:1030B000C2B40104741180027491F0120DF5120E65
:1030C000BD7402F022E5B230E005E5AA20E013E489
:1030D00090019EF075B28E75B6F9F5B743B2014313
:1030E000AA01229001D3E0FBA3E0FAA3E0F9229029
:1030F0002EC2F0902EC07419F022902EC07402F0EF
:10310000229002E2120D48902EC27411F0E56D1269
:103110000DF5902EC47480F0A3E4F022A3E0FCA38C
:10312000E02FF582E43CF58322E0FEA3E0F5828EF9
:103130008322EE30E707C3E49FFFE49EFE2274CFB4
:103140002F123066E4F022D2AF32D2AF320230C555
:10315000000000000000000000000000000000006F
:10316000000000000000000000000000000000005F
:10317000000000000000000000000000000000004F
:10318000000000000000000000000000000000003F
:103FD0000000000000000000000000000000009051
:103FE00000000000000000000000000000000000D1
:103FF00000000000000000000000000000000000C1
:00000001FF
