:10000000001B000000020000C7000000000000000C
:1000100000000000000000000000000000000000E0
:1000200078FFE4B8200118F6D8F99000007F007E30
:1000300007E4F0A3DFFCDEFA75812A02345C1224A7
:1000400015122AA490022C7401F022023DD874AA41
:100050007583F5758255A574557583FA7582AAA5C1
:1000600074A57583F5758255A522000227C19040BD
:100070007FE493FF64316003EF7002002253A87F96
:100080000080FD0222D312331A9000FFE0600812B4
:100090003142E49000FFF022D2AF32020878EF8DB7
:1000A000F0A4A8F0CF8CF0A428CE8DF0A42EFE22D0
:1000B000BC000BBE0029EF8DF084FFADF022E4CC34
:1000C000F875F008EF2FFFEE33FEEC33FCEE9DECFD
:1000D000984005FCEE9DFE0FD5F0E9E4CEFD22ED43
:1000E000F8F5F0EE8420D21CFEADF075F008EF2F8D
:1000F000FFED33FD4007985006D5F0F222C398FD7E
:100100000FD5F0EA22C2D5EC30E709B2D5E4C39DA1
:10011000FDE49CFCEE30E715B2D5E4C39FFFE49EFE
:10012000FE120890C3E49DFDE49CFC80031208903D
:1001300030D507C3E49FFFE49EFE22C5F0F8A3E09C
:1001400028F0C5F0F8E582158270021583E038F0DA
:1001500022BB010A89828A83E0F5F0A3E0225006DF
:1001600087F009E71922BBFE07E3F5F009E319223E
:1001700089828A83E493F5F074019322BB0110E530
:100180008229F582E5833AF583E0F5F0A3E0225079
:1001900009E92582F886F008E622BBFE0AE92582F5
:1001A000F8E2F5F008E222E5832AF583E993F5F019
:1001B000A3E99322BB010789828A8302091B500BA2
:1001C00009C5F027F7C5F01937F722BBFE0D09F86E
:1001D000E325F0F3C5F019E338F322F889828A8326
:1001E00074019325F0C5F0F8E4933822BB010DC5E6
:1001F0008229C582C5833AC58302091B5011C58275
:1002000029F808E5F026F618F5F0E58236F622BB67
:10021000FE11C58229F808E225F0F5F0F218E23562
:1002200082F222F8E58229F582E5832AF5837401BA
:100230009325F0F5F0E4933822BB010A89828A8382
:10024000F0E5F0A3F0225006F709A7F01922BBFE53
:1002500006F3E5F009F31922F8BB0111E58229F54F
:1002600082E5833AF583E8F0E5F0A3F0225009E94E
:100270002582C8F608A6F022BBFE09E92582C8F24D
:10028000E5F008F22275F008758200EF2FFFEE33DB
:10029000FECD33CDCC33CCC58233C5829BED9AECF9
:1002A00099E58298400CF582EE9BFEED9AFDEC9963
:1002B000FC0FD5F0D6E4CEFBE4CDFAE4CCF9A8826D
:1002C00022B800C1B90059BA002DEC8BF084CFCE12
:1002D000CDFCE5F0CBF97818EF2FFFEE33FEED33D0
:1002E000FDEC33FCEB33FB10D703994004EB99FB97
:1002F0000FD8E5E4F9FA227818EF2FFFEE33FEED80
:1003000033FDEC33FCC933C910D7059BE99A40078C
:10031000EC9BFCE99AF90FD8E0E4C9FAE4CCFB22A3
:1003200075F010EF2FFFEE33FEED33FDCC33CCC86C
:1003300033C810D7079BEC9AE899400AED9BFDEC77
:100340009AFCE899F80FD5F0DAE4CDFBE4CCFAE4B6
:10035000C8F922EB9FF5F0EA9E42F0E99D42F0ECED
:100360006480C864809845F022EB9FF5F0EA9E42D5
:10037000F0E99D42F0E89C45F022ECF0A3EDF0A3FB
:10038000EEF0A3EFF022A8828583F0D083D0821212
:100390000B7D120B7D120B7D120B7DE473E493A396
:1003A000C583C5F0C583C8C582C8F0A3C583C5F0A1
:1003B000C583C8C582C822A42582F582E5F03583AD
:1003C000F58322EC8EF0A4CCC5F0CCCDF8EFA4CE12
:1003D000C5F02DFDE43CFCE8A42EC8C5F03DFDE4CD
:1003E0003CFCEFA4FFE5F028FEE43DFDE43CFC22EC
:1003F000EF4E6012EF60010EEDBB010B89828A8324
:10040000F0A3DFFCDEFA2289F05007F709DFFCA930
:10041000F022BBFEFCF309DFFCA9F022208A0302D4
:100420000F26900232E07002A3E06003020F261252
:1004300013B76003020F26900132E0705390011D44
:100440001211FAFFAEF090010B1211FAD39FE5F0F2
:100450009E4003020F261211F712120EF9E5F08FDB
:10046000F0120A19900134120B66000000001212FB
:10047000C8F0900194F0A3F0A37404F0141212F0E9
:100480001213D79002361213FAF517751819800651
:10049000751700751814E4F5B2F5BA900199E0F5F6
:1004A0000CA3E0F50D300603020EFE758D20438D82
:1004B00020758D8043AA08D2AF758B02758EAF2050
:1004C000061890001BE0B4201120090EE5DB20E2A5
:1004D00009758AC4758703000000758B11758A50F1
:1004E00053AAF7D3900231E09490900230E0940147
:1004F000400EA3E02470F0900230E034FEF080075C
:10050000E4900230F0A3F07F01123DA2121262E4E7
:10051000FF12122AEEF00FEFB416F6900055E075B8
:10052000F003A4902EC3F0A3E4F0A37402F0539957
:100530007F902EC0F0902EC714F0902EC50412129A
:100540009A902EC0E030E2F9121412F519A3E0F5EA
:100550001A439980121271121290902EC0E030E26C
:10056000F912141CF508A3E0F509E4251AFFE519B2
:100570003412FEC3EF9509F50BEE9508F50A121239
:1005800078C3E50D950BFFE50C950AFE123DB98E7B
:100590000E8F0F12143E4003020EF1AE0AAF0B7C19
:1005A000007D14120BA31214487FE07E197D017C9C
:1005B000009002E6121257FBD3120B499002E6405C
:1005C0001712137A94E0FFEE9419FEED9401FDECFE
:1005D0009400FC1214488007120B6600000000E42F
:1005E0007F607EEAFDFC9002E6121257FBD3120BED
:1005F00049400A9002E6120B660000EA601211F709
:10060000FFAEF07C007D09120BA39002E612125798
:100610007B0A1212B6121448900132E07025AE0C1B
:10062000AF0DFC7D0912139BE4FCFDEB250BFFEAEB
:10063000350AFEED39FDEC38FCE47B0A1212C28E5D
:100640000C8F0D900132E0700C9002E6121208122D
:1006500012B0020EF19002E6A3A3E0F9A3E0FF902E
:1006600001081212121212B090010E1211FA900229
:10067000E6121251FBD3120B495003020EFE121167
:10068000E6121434C3EF951CEE951B5003020EFEC8
:1006900090010E1211FAFFC3ED9FFFEC95F0F99057
:1006A000010B1212121212B090019CE06063121240
:1006B000F99400405C90010B1211FA12142DFE12F5
:1006C0003DB99002EAEEF0A3EFF090019CE0B40196
:1006D0001B90010B1211FA1212A250101213BE40FD
:1006E0000B12120FF9E475F00312099490019CE0CB
:1006F000B4021E90010B1211FAFFD31212A4401182
:100700001213BE500C12120FF974FF75F0FD12098E
:100710009412143E50081213B77003020C85900116
:100720009BE004F0E4F510F5111213DF9001A31221
:100730000B6600000000E49001A71212CC74C8F010
:100740009001337401F0229001E3E0FBA3E0FAA3EF
:10075000E09002E7F9E0FF75F002A4F58285F083EE
:1007600012095CFDACF09001E6E0FBA3E0FAA3E027
:10077000F9229002E6E0FF75F002A4F58285F0838D
:1007800002095C9002E6E0FBEF24C0FFEE34FEFEBF
:100790007C007D0A12087E7D32120890EF2440FF13
:1007A000EE3401FEEB25E024C2F582E43401F5834A
:1007B00022900257E0FFED2407F582E43CF583EF39
:1007C000F022EF75F002A4F58285F08322C201C207
:1007D0000474132BF582E43402F583E4F074192BCE
:1007E000F582E43402F58322242DF582E43402F507
:1007F00083E075F002A42440F582E5F0342EF58301
:1008000022746A2FF582E43400F583E0FEEF25E0E0
:10081000242CF582E4342EF583E49324C0F582E49D
:10082000342EF583EEF0229002EBE0FD25E024016A
:10083000F582E43402F583229002F8E0FCA3E0FDA7
:100840002407F582E43CF583E0900257F054F0FF72
:10085000F0229002E7E025E02407F582E43402F577
:1008600083229002EBE0FF2410F582E43402F5834A
:10087000E004F074102FF582E43402F58322900234
:10088000E9E0FEA3E0FF900208E02FF0900207E00D
:100890003EF0E0FEA3E0FFD322F0EF25E025E024C8
:1008A0005FF582E4343DF583E49322F582E43AF582
:1008B00083EFF022E0FEA3E02DFFEE35F0CDEFCD8B
:1008C000FF9002F8E0FAA3E0FB22F090024904F066
:1008D000E49001C4F0A3F0A3F0A3F022E0FF9002A3
:1008E000F8E0FCA3E022241AF582E43EF58322908E
:1008F00002F8E0FEA3E0229002E7E02416F582E48D
:100900003402F5832274132BF582E43402F583223A
:10091000F583E493FC740193FDEF25E022741A2B18
:10092000F582E43402F583E4229002E8E0FEA3E0DD
:10093000FF2274DA2FF582E43401F5832225E024C6
:10094000C8F582E43401F58322E490021DF09002A0
:100950005022C3E0FDEF9D7480F86E9822902EC067
:100960007402F022EC8DF0020A3825E024BCF582F6
:10097000E43401F583E5F0F0A322F0C201C204E4FF
:1009800090021EF0900251F022F582E43402F583C9
:10099000E022120931FFAEF09001E322FDACF090AD
:1009A00001E322A3F0A37401F0A322C39DFFE5F0AD
:1009B0009CFE229002E7E0FD7F05229002E7E0FD29
:1009C0007F0422E4F0A3F09001E322F5ABF5AD75CE
:1009D00089FF7599FF22E0FEA3E0C394B4EE940072
:1009E0002224CEF582E43401F5832224D4F582E476
:1009F0003401F583229002E6E004F022120931C3AB
:100A00009FFFE5F09E2290010EE0FBA3E0FAA3E039
:100A1000F9120931FFAEF0900108E0FBA3E0FAA360
:100A2000E0F9020931900134A3A3E0F9A3E0FF90BB
:100A3000010EE0FBA3E0FAA3E022A3F0E52425E009
:100A4000243CF582E43401F5832274542FF582E4CA
:100A50003400F583E0FEEF75F002A42400F582E592
:100A6000F0342EF583E49324C0F582E4342EF5832C
:100A700022FFAEF0E4FCFDE0F8A3E0F9A3E0FAA366
:100A8000E02243AB025389FD5395FD5396FD5399E4
:100A90007F902EC07402F0224389025395FD539635
:100AA000FD43800243998022A3F0A37401F0A322A6
:100AB000902EC7E4F07404902EC5F0902EC07419E7
:100AC000F022C3FF9001A0E09F90019FE095F022EB
:100AD000C98FF0020A192FFFEA3EFEE93DFDE83C0E
:100AE000FCE4FAF9F8020AA1900138E4F0A3F0A3BB
:100AF000F0A322E0FEA3E0FFE4FCFDE5282FF528AB
:100B0000E5273EF527ED3526F526EC3525F525229A
:100B1000900234F0A374E8F02290019FE0FEA3E07D
:100B2000FFD39400EE22A3F0A37403F0A374E8F0C3
:100B300022E4F528F527F526F52522F9EB2FFFEA23
:100B400035F0FEED39FDEC38FC020B5AA3E0FEA3B4
:100B5000E0FBCAEECAE4F9F822902E42E0FEA3E0E0
:100B6000FF7C007D1412087E90012622E52725E0F7
:100B7000248CF582E43401F583E0FEA3E0FF2290AB
:100B800002E8E0FEA3E0FF22902E42E4F0A374FF0F
:100B9000F0902EC57402F07F0122E0FCA3E0FDA3DB
:100BA000E0FEA3E022F9E4F5F0020A19FFE5F0F017
:100BB000A3EFF022F9EE8FF0020A19120BA3C8EC92
:100BC000C8C9EDC9CAEECACBEFCB22AB28AA27A968
:100BD00026A825D3020B4990001BE0642022900236
:100BE000EBE094649002EAE0940022900106E0FFBA
:100BF000A3E0900192CF22E4900238F0A3F022F516
:100C000015F514F513F512F51622F9746175F0A8AF
:100C1000020A1990003A7410F022F0A3F090023CFE
:100C2000F0A3F022E4F0A374C8F022902EC4E4F004
:100C3000A322902EC0E4F0902E02E022902EC0E479
:100C4000F0902E04E022E0FEA3E0FFC322C39FFF4A
:100C5000E5F09E22FDACF0C39FFFEC9EFE22C3E5B3
:100C60000F9518E50E9517229002E6020B5AE4FB49
:100C7000120FBDE0640160030216831210E5E0FA72
:100C80006003021537EB64017067121018BF200370
:100C9000D38001C34005E4900257F0900251E0FF79
:100CA0006401701C900250E0900257B4010AE044C5
:100CB00009F0C201D2048025E0440112115A802EAD
:100CC000EF6402701E900249E06007120FBDE4F06D
:100CD000800B900257E04405F0C201C2041210FDDF
:100CE000F0800B900257E04401F0C201C204120FE1
:100CF00091EB6402704D121018BF2003D38001C322
:100D00004005E4900257F0900251E0FF6401701C2E
:100D1000900250E0900257B4010AE04406F0D2017C
:100D2000C204801CE0440412115A8014EF90025750
:100D3000B40205E044058003E04404F0C201C204AB
:100D4000120F91900249E06002E4F090023CE4F05E
:100D5000A37464F0021676EA64016003021676EB6F
:100D60006401600302160D1210CF2407F582E43EE1
:100D7000121026BF2003D38001C34005E490025720
:100D8000F0900250E0FF64027049900258E0FCA32A
:100D9000E0C394B4EC9400400E90024CE0FCA3E05D
:100DA00094B4EC9400501FC201C2041210E5E4F0A8
:100DB00074142BF582E43402120FB9E4F01210FD22
:100DC0001210AA021604900257E0440AF0D201D28F
:100DD00004803FEF6401704C90024C121072943CFE
:100DE000EE9400401BEF94B4EE9400501390025820
:100DF0001211B6500B120FADE4F012112A1210AA04
:100E000090021EE0900257B4010EE04406F0D201B9
:100E1000C2041210FDF0800CE04402F0D201C204C2
:100E2000121129F09002571210BC120F97EB6402B6
:100E30007064121018BF2003D38001C34005E490F2
:100E40000257F0900258121072943CEE9400401B2E
:100E5000EF94B4EE9400501390024C1211B6500B64
:100E6000120FADE4F090021D1210AA90021DE06472
:100E7000017020900251E0900257B4010AE0440949
:100E8000F0C201D204800CE04408F0C201D2041286
:100E90001129F0120F91120FBDE4F0900249E07099
:100EA00002C28A0BEB640360030214507F04229099
:100EB0000132E07003021746900134120B66000005
:100EC00000001212C8F074031212F0E4900196F0C0
:100ED00090019CE070030218871212F994005003ED
:100EE00002188790010B1211FA12142DFE123DB94F
:100EF0009002E8EEF0A3EFF0D394E8EE9403400AFA
:100F0000E490019CF0A3F0A3F02290019CE0B401D6
:100F10002990010B1211FA1212A2400302188790B5
:100F200002E9E094289002E8E09400500302188758
:100F300012120FF9E475F003802990010B1211FAD7
:100F4000D31212A350030218879002E9E094329062
:100F500002E8E09400400302188712120FF974FFB0
:100F600075F0FD020994900134121257FBE9C0E0BC
:100F7000EAC0E0EBC0E01211F7FFE4FCFDD0E0FBBB
:100F8000D0E0FAD0E090013412131B900139E00454
:100F9000F07006900138E004F0900234E07002A393
:100FA000E0600302188790013412137AFFEEC0E06C
:100FB000EFC0E012132CD0E0FFD0E0FE120AA190A7
:100FC0000134120B5A90010E1211FA241EFFE4355F
:100FD000F0FEE4FCFD900134121257FBD3120B49D2
:100FE0004040900230E07002A3E070369001B5E01E
:100FF0007030200C2D90013BE004F0700690013A17
:10100000E004F0D390013BE0940590013AE09400B5
:10101000406F1212051212B0E490013AF0A3F002F0
:10102000186190010E1211FA900134121251FBC393
:10103000120B49703A900107E02414FF900106E07A
:101040003400F912120F1212B01211E6FDACF0D3F7
:101050009FEC9E12120FF94005EC8DF080171209DB
:1010600031FF900108121212F9E5F08FF08006129C
:101070001205C98FF0120A19E490013AF0A3F0C2E8
:101080000CE4900196F0900134120B660000000011
:10109000E4900138F0A3F09001B5E09002346004D0
:1010A00012140422121309221211E6FDACF0D39F90
:1010B000EC9E403490010E1211FAFFC3ED9FFFEC3D
:1010C00095F0FED3EF9430EE9475400D9002E874E5
:1010D00075F0A37430F00219051211F112142D905D
:1010E00002E8F0A3EFF0803D1211F7FFAEF090019F
:1010F0000E1211FA121434D3EF9410EE9427400C10
:101100009002E874D8F0A374F0F080121211F7FF87
:10111000C3ED9FFEEC95F09002E8F0A3CEF0E490D2
:1011200002E8F0A3F0900132E060459002E812126C
:10113000FC64809480401A9001201211FAFDD3EFD4
:101140009DEE95F0400B900236E4F0A37432F080EF
:101150001BD3900237E09400900236E09400400CDC
:1011600090010B1211FA9002E812138CD20C800637
:1011700090023A121309D39002E9E094009002E839
:10118000E0648094805003021A3CE0F9A3E0FF90F1
:10119000010B1212121212B012135FEE3395E0FD22
:1011A000FCE47BB87A88F9F8C3120B33500A90023A
:1011B000E87488F0A374B8F0D3900239E0940090FA
:1011C0000238E09400401C12135F9496EE64809401
:1011D000805010EF9400EE6480948040257C007D68
:1011E0000A801430001C12135FC394A0EE64809434
:1011F0008F500F7C007D321208E59002E8EEF0A3DC
:10120000EFF0900132E0603390023AE07002A3E028
:1012100070299001141211FAFFAEF07C007D1312B8
:10122000139B12135FEE3395E0FDFCEB7B1412125F
:10123000B6900114121212F9EE800F9002E8E0F954
:10124000A3E0FF900114121212C98FF0120A199034
:1012500001141211FA24A8FFE5F0801D90010B1271
:101260001212121385900114121212121385900299
:10127000E9E024A8FF9002E8E03461F9900111123E
:1012800012121212B0229001A3121257FBE9C0E011
:10129000EAC0E0EBC0E09001231211FAFFE4FCFD8C
:1012A000D0E0FBD0E0FAD0E09001A312131B900134
:1012B000A8E004F070069001A7E004F09001A9E016
:1012C0007002A3E06003021C0D9001A312137AFFC9
:1012D000EEC0E0EFC0E012132CD0E0FFD0E0FE1231
:1012E0000AA19001A3120B5A9001A3A3A3E0FFA3AC
:1012F000E09001A1CFF0A3EFF0A3120B6600000075
:10130000009001A71212CB74C8F0900230E0700276
:10131000A3E06003021C0D900132E07003021B93F6
:1013200090019DE0FEA3E0FF4E70219001A1E0FD41
:10133000A3E090019DCDF0A3EDF090010B1211FA06
:10134000FD90019FE5F0F0A3EDF0804F121C0E9090
:1013500001AF1212121213949001AF1211FAC3943A
:1013600006E5F09400501490010B1211FAFF900161
:101370009F12138DE490019CF080209001A1E0FE6B
:10138000A3E0FFD390019EE09F90019DE09E90011D
:101390009C40057401F080037402F0E49001ABF00E
:1013A000A3F09001B5F09001B2121212F9E4F5F039
:1013B000020A199001ABE0FEA3E0FF4E701290010B
:1013C000A1E0FDA3E09001ABCDF0ED12130680513A
:1013D000121C0E9001B21212121213949001ADE081
:1013E0007002A3E0703B9001B21211FAD39408E5A9
:1013F000F0940040129001B57401F09001AD7413A7
:10140000F0A37488F0800BE49001B5F09001AD1268
:1014100013099001A1E0FFA3E09001ABCFF0A3EF8F
:10142000F0E490019D1212CCF090019CF02290010A
:10143000A1E0FCA3E0FDC3EF9DFFEE9CFE123DB9D1
:101440002212131190013CE0FEA3E0FF9002EEEEA9
:10145000F0A3EFF0E4A3F0A3F0CBEFCBCAEECA7495
:10146000FFA3F0A3F075240112121CE0FEA3E0C359
:101470009BEE9A50109002F2EAF0EB12121AE0FA88
:10148000A3E0FB802412121CE0FEA3E0FFD3900235
:10149000F3E09F9002F2E09E400F12121CE0FFA3C7
:1014A000E09002F2CFF0A3EFF012121CE0FEA3E0F6
:1014B000FF9002EEE0FCA3E0FDC39FEC9E5010A362
:1014C000ECF0ED12121AE0FFA3E09002EE801C1285
:1014D000121C1214269002F1E09F9002F0E09E5040
:1014E0000F12121CE0FFA3E09002F0CFF0A3EFF088
:1014F0000524E52464146003021C48121311F5242A
:1015000012121C1212D30524E524B414F39002EF36
:10151000E02BFF9002EEE03AFAC3E5289FFFE527B3
:101520009AFEE5269400FDE5259400FCEEC0E0EF70
:10153000C0E09002F2E0FEA3E0FF9002F1E02FFF96
:101540009002F0E03ECBEFCBFAD0E0FFD0E0FEC35C
:10155000EF9BFFEE9AFEED9400FDEC9400FCE47B23
:10156000101212C28F288E278D268C259002ECEE49
:10157000F0A3EFF0900199EEF0A3EFF0121311F544
:101580002412121C1214269002EDE09FFF9002EC30
:10159000E09EFE123DB9D3EF940AEE648094804041
:1015A000059002EC800312121C1212D30524E524CC
:1015B000C3941440CC7FE07E197D017C001213ABF4
:1015C000401AE52894E0F528E5279419F527E52643
:1015D0009401F526E5259400F5258003121311E406
:1015E0007F607EEAFDFC1213AB400BE4752860754A
:1015F00027EAF526F525AE27AF28229002E7EFF07F
:101600009002EA740BF02405A3F0120F469002E753
:10161000120F5512117C120F4975F002EF120F5A7A
:1016200012118B9002E8F0A3EFF0123DB99002EA9C
:101630001211324003021E9C9002E7E0FF1210DB01
:10164000E0600AEF121036E4F0A3F0800C121109EA
:10165000121032EE8FF012091B1210321210729417
:101660000FEE6480948040199002E7E0FD1210367E
:10167000E4F0A3F0120F46ED120FA3E475F0018021
:1016800021C3EF94F1EE6480947F50199002E7E05B
:10169000FF121036E4F0A3F0120F46120FA274FFEF
:1016A000F5F01209CC9002E7E0FD24DA121115E4FE
:1016B000F07F04123C30121193021F639002E7E0A6
:1016C000FF24DA121115E070481211127401F012A1
:1016D0001109123DB9C3EF9432EE64809480503109
:1016E0009001E3120F499002E7E0120F57FBAAF0B6
:1016F0001211097C007D031208E5C3EB9FFFEA9EEF
:10170000FE120F469002E7E0120FA3EE8FF0120ACE
:1017100038121109123DB99002E7E0FD12111DE0E7
:10172000FAA3E0D39FEA9E402674162D1210DDE046
:1017300070239002E7E07F0512339E12119312315D
:10174000E2EF6011120F27120FA21211448006124D
:101750001193123C30C39002E9E094F59002E8E066
:101760006480947F501A12119B12339E12119B12A7
:1017700031E2EF6011120F27120FA21211448006FE
:1017800012119B123C30120F469002E7120F5512B5
:10179000117C120F4975F002EF120F5A12118B9043
:1017A00001EC120F499002E7E0120FA3EE8FF00256
:1017B0000A389002E6747EF0E4A3F09002E7E0FDC0
:1017C000C3940340030220E87F021231E2EF600479
:1017D000121129F09002E7E0FF24131210E8E060F4
:1017E00003022074EFB4010F120F85E0FFA3E09015
:1017F0000258CFF0A3EFF09002E7E0B4020F120F0F
:1018000085E0FFA3E090024CCFF0A3EFF09002E759
:10181000E0FF25E01211C1E0FCA3E0FDEF120F850F
:10182000E0FEA3E0C39DEE9C40449002E7E09002FE
:10183000E6F024131210E87401F090021DE004F0A9
:10184000900250F09002E7E0FD2419120FC07401DD
:10185000F0E4FF12212F12212F12339E9002E7E0B5
:10186000FD7F0812339E1210D77401F0801290028F
:10187000E7E0FDE4FF1231E2EF60051210D7E4F07B
:101880009002E7E0FD7F011231E2EF6072E4900226
:101890001E0220DA9002E7E0FF25E01211CBE0FC07
:1018A000A3E0FDEF120F85E0FEA3E0C39DEE9C4098
:1018B000399002E7E0FD9002E6F07F081231E2EF96
:1018C000603D9001E3E0FBA3E0FAA3E09002E712A1
:1018D0000F34120FA21211441220F72419120FC054
:1018E0007401F090021EE00480101220F7241912F7
:1018F0000FC07401F090021EE004F0900251F090CD
:1019000002E7E004F0021F9B9002E6E0FF9002284D
:10191000E06F6002EFF0229002E7E0FD2413F58211
:10192000E43402F583E4F07F08123C309002E7E0F3
:10193000FDE4FF12339E9002E7E0FD7F01123C3090
:101940009002E7E0FD7F0112339E9002E7E0221251
:101950003C309002E7E0FD7F022290022CE024FE62
:10196000601C14602F14700302227A2403600302A7
:1019700022D290022C7402F0123521123DD41208AA
:10198000667F017E00122C4B90022C7403F0E490D1
:10199000024FF022123D2B900225E0700302225BE1
:1019A00090024FE004F0E49002E5F09002E5E0FFE1
:1019B000C3940340030222569001E0120F499002A3
:1019C000E5E0FE120F3775F002EE120FA612114479
:1019D0009001E0120F499002E5E0FE120F5712113C
:1019E0007C120F4975F002EE120FA6121144EF643B
:1019F0000170391210CFFF240A1210C8E4F0EF244E
:101A00000B1210C8E4F09001E0120F499002E5E0DB
:101A1000120F57E5F01210BDFD240E120F9990021F
:101A2000E5E0120F57FFED240F120F999002E5E049
:101A3000640270391210CFFF240C1210C8E4F0EFCA
:101A4000240D1210C8E4F09001E0120F499002E555
:101A5000E0120F57E5F01210BDFD2410120F9990FF
:101A600002E5E0120F57FFED2411120F999002E5E5
:101A7000E004F002218BE4900225F090024FE0C3D5
:101A80009403406E9001BB747EF0E4900226F090C7
:101A9000024FF090022C7404F02212369112399603
:101AA0009001BAE07003123D2B123691900225E0AE
:101AB00064017033122D1A123691E49002E5F09011
:101AC00002E5E0FFC39403500E12268B123691906C
:101AD00002E5E004F080E8121F9212144E90022CEE
:101AE000EFF0E4900225F0900241E0A3F0E49002D0
:101AF00041F022C0E0C083C082C0D0D2AF9002418A
:101B0000E004F0D3900231E09400900230E09400C1
:101B1000400CA3E024FFF0900230E034FFF0D390BB
:101B20000233E09400900232E09400400CA3E024E1
:101B3000FFF0900232E034FFF0D3900235E09400E1
:101B4000900234E09400400CA3E024FFF0900234B3
:101B5000E034FFF0D3900237E09400900236E09436
:101B600000400CA3E024FFF0900236E034FFF0D3F5
:101B7000900239E09400900238E09400400CA3E019
:101B800024FFF0900238E034FFF0D390023FE0945D
:101B90000090023EE09400400CA3E024FFF090028D
:101BA0003EE034FFF0D390023DE0940090023CE030
:101BB0009400400CA3E024FFF090023CE034FFF0DE
:101BC000D390023BE0940090023AE09400400CA3D2
:101BD000E024FFF090023AE034FFF0D3900184E07B
:101BE0009400900183E09400400CA3E024FFF09067
:101BF0000183E034FFF0D39001AAE094009001A9A2
:101C0000E09400400CA3E024FFF09001A9E034FF31
:101C1000F0D39001AEE094009001ADE09400400C50
:101C2000A3E024FFF09001ADE034FFF0D0D0D082EB
:101C3000D083D0E0327E007FFF7D007B017A007987
:101C400004120BD09002F87400F0A37404F0900119
:101C5000E07401F0A37400F0A374B8F09001E6748E
:101C600001F0A37400F074AC1211837400F0A3743B
:101C700094F09001E37401F0A37400F0A374C6F033
:101C80009001EC7401F0A37400F074D2121183740B
:101C900000F0A3741F1211847401F0A37402F09079
:101CA0002DE0E4931210BDFDF5828C83A3EFF0903C
:101CB0000002E0FFED2404120F99900001E0FFED17
:101CC0002405120F99900003E0FFED2406120F99EE
:101CD000902DE2E493FFED2412120F99902DE3E48E
:101CE00093FFED2414120F999001F57401F0A37481
:101CF00000F0A3743CF0E4FF75F002EFA42401F5BA
:101D000082E5F0342EF583E493FE74542FF582E4DB
:101D10003400F583EEF0EF25E0242DF582E4342E37
:101D2000F583E493FE746A2FF582E43400F583EEC4
:101D3000F0120FE10FEFB416BF902F56E09000584D
:101D4000F0902F56E090006EF09000FF7401F0903C
:101D500000FEF090003A7410F090001BF090002804
:101D6000F0A37420F09002307413F0A37488F02272
:101D70009001941214269404EE9400502F900106C2
:101D8000E0FCA3E0FDEF25E0FFEE33FE748C2FF5C1
:101D90008274013EF583ECF0A3EDF0900195E00430
:101DA000F07006900194E004F002260F75270112EE
:101DB000134CE52725E0248AF582E43401F583EE0F
:101DC000F0A3EFF00527E527B404E4900132E060CA
:101DD000191211F712266D500C1211F7FF90019293
:101DE000E5F002260B1213CB80411211F712266D7B
:101DF000503690010E1211FAFFC3900107E09FFFC9
:101E0000900106E095F0FE123DB9C3EF9414EE6424
:101E1000809480500590010E80039001081211FA01
:101E2000FF900192E5F080031213CBF0A3EFF0E4F2
:101E3000F526F525F524F523F527D3900195E095B2
:101E400027900194E09400401E12134CE4FCFDE541
:101E5000262FF526E5253EF525ED3524F524EC3530
:101E600023F523052780D3AF26AE25AD24AC23EE82
:101E7000C0E0EFC0E090019412132DD0E0FFD0E05D
:101E8000FE120AA18F268E258D248C2322FF90011D
:101E900006E0FCA3E0FDC3EF9DFFE5F09CFE123DD4
:101EA000B9C3EF9428EE64809480229002E6EFF0AC
:101EB000120F46120F5212117C120F4975F002EFE9
:101EC000120F5AC39DE5F09C40299001E3A3A39013
:101ED00002E6E0120F57FDEF12114AEDF09001EC0F
:101EE000120F49120F52FDEF120F85E5F0F0A3ED2E
:101EF000F0801F9002E6E0FF120F851211A3120F6F
:101F00004975F002EF120F5AFF9002E6E012114AF3
:101F1000EFF09002E6E0FF120F85E0FCA3E0C3942F
:101F200032EC94005008EF120F85E4F0A3F0900219
:101F3000E6E0FF64017050EF120F851210729440BA
:101F4000EE94014008120F63EEF0A3EFF09002E66A
:101F5000E0FD120F85E01210A0240A12108BED1282
:101F60000F85A3E0FFEB240B12108B120F46120F0C
:101F700052FDEF120F85121094240E12108BCFED2C
:101F8000CFEB240F12108B9002E6E0FF640270503A
:101F9000EF120F851210729440EE94014008120F58
:101FA00063EEF0A3EFF09002E6E0FD120F85E01281
:101FB00010A0240C12108BED120F85A3E0FFEB2470
:101FC0000D12108B120F46120F52FDEF120F8512D9
:101FD0001094241012108BCFEDCFEB241112108B24
:101FE00022C0E0C083C082C0D0ECC0E0EDC0E0EE13
:101FF000C0E0EFC0E0D2AFE5DB30E419D209C2089F
:10200000E5DB30E102802E9002F7E5DFF09002FA86
:10201000E4F00228A7E5DB30E50FD206300805C260
:10202000080228A7C2090228A7C208E5DB30E1356B
:10203000E5DB30E00C9002FB123D88E0F5DF022882
:10204000A79002FBE0FFB40813208A10D28A900206
:10205000F8E0FCA3E02407123D92E4F0EF641A706C
:1020600066D20780629002FAE0700EA3E5DFF0907E
:1020700002FA7401F0D208804E9002FBE0903B33EC
:1020800093FFB4FF0E9002F7E5DFF09002FBE0044F
:10209000F08034EF640F9002FB7026E0FFA3E0FCB9
:1020A000A3E0FD123D91E0540FF09002FBE0FF042D
:1020B000F0ED123D91E0FFE5DF54F0FEEF4EF080D1
:1020C00006123D88E5DFF075DBFFD0E0FFD0E0FED3
:1020D000D0E0FDD0E0FCD0D0D082D083D0E03290F0
:1020E00002EBEFF09001E3120F499002EB120F5553
:1020F000FDACF09001E0120F4975F002EF120F5A9B
:1021000012118B121007EE8FF012091BED12100C3A
:10211000E0FEA3E0FF123DB9D3EF9414EE64809487
:102120008050589002EBE012100C1210729403EEE3
:102130006480948040161210071211A3120F497583
:10214000F002ED120FA6E475F0018020C3EF94FDBC
:10215000EE6480947F50189002EBE0FF12100C1296
:1021600011A3120F49120FA274FFF5F01209CC90BF
:1021700002EBE02410121056E4F0229002EBE01281
:10218000100CE0FEA3E0FF123DB99002EBE012114B
:102190001DE0FCA3E0D39FEC9E400B121042E0D365
:1021A000940240378009121042E0D39401402C90F1
:1021B00002EBE0FF12100CE4F0A3F09001E0120F2C
:1021C0004975F002EF120F5A121175120F49900261
:1021D000EBE0120FA3EE8FF0120A38229002EAEF22
:1021E000F09002EFE4F0A374FFF0E4A3F0A3F0A3F7
:1021F00004F0A374FFF012113D902EC37408F0E4B4
:102200009002EBF0A3F09002EBE0FEA3E0FFC3949A
:1022100009EE94004003022AA1EF9407EE940040D7
:10222000067E007F0180199002EBA3E004FFE47EAC
:1022300001C8EFC8088006CEA2E713CE13D8F8FF76
:102240009002EDEEF0A3EFF0902EC07419F0902EF6
:10225000C0E030E2F99002EAE0FF75F002A4240049
:10226000120FD8E0FCA3E0FD12113DD3ED94FFEC7A
:10227000940F40179002EDE0FCA3E0FD75F002EF33
:10228000120FD5EC8DF012091B80259002EA120F77
:10229000D1C083C082E0FEA3E0FF9002EDE0FCA38A
:1022A000E0FDC3EF9DFFEE9CD082D083F0A3EFF062
:1022B0009002ECE004F070069002EBE004F00229DA
:1022C000E67F00227E007FB47D007B017A017906E3
:1022D000120BD09001087401F0A37400F074441242
:1022E00012887400F074461212887400F0A37448C7
:1022F0001212897400F0A374321212897400F0A3D0
:10230000742E1212897400F0A3742CF090012374BF
:1023100001F0A37400F0A37426F09001AF7401F0F3
:10232000A37400F0A374841212897400F0A374865D
:10233000F09001267401F0A37400F0A3741C121233
:10234000897400F0A37422F090011A7401F0A37450
:1023500000F0A374361212897400F0A3742A1212CA
:10236000897400F0A37438F0751B00751CC89001C7
:102370001A121212F9E51B851CF0120A1990011DA0
:10238000121212F9E475F064120A19900120121267
:1023900012F9E475F096020A1943AB025389FD5312
:1023A00095FD5396FD12127112140B7402F0E4F5B0
:1023B00025F526F527F528F52412126E902EC71460
:1023C000F004121297902EC0E030E2F9121412FEBF
:1023D000A3E02526F526EE3525F525439980121232
:1023E00071121290902EC0E030E2F912141CFEA37C
:1023F000E02528F528EE3527F5270524E524B40344
:10240000B8E42526FFE5253412FEC3EF9528F52A0A
:10241000EE9527F529900172F0A3E52AF0A3E527B0
:10242000F0A3E528F0A3E525F0A3E526F0AF2AAE5A
:1024300029122FE1900178EEF0A3EFF0902EC5E481
:10244000F0902EC0F0121278900178E0FEA3E0FF29
:10245000900164E012121EEEF0A3EFF0900164E030
:1024600004F0E075F01484E5F0F0229002E8EEF05C
:10247000A3EFF07E007F077D007B007A00791012C9
:102480000BD09002E8E07002A3E060031238377FBF
:1024900014123DA2E4900194F0A3F0900164F07F47
:1024A000141239E3900232E4F074641213069001BE
:1024B00006E0F9A3E0FFA31212121212B090010B72
:1024C0001212121213859001111212121213EA90B5
:1024D0000114121212121385900117121212121304
:1024E000EA1213F3E4900132F0900187120B6600B8
:1024F000000000E490018BF0900134120B660000A4
:1025000000001212C8F090010612120A1212B0E472
:10251000900133F090023E1213FAFE7F13FD7B010F
:102520007A01799C120BD09001231211FA9001A12B
:1025300012138C9001A912140422122E58E4900256
:10254000E6F09002E6E0FFC394034003022DD8EFCB
:10255000607A1228BF9002E6E0FF121DDB300319FB
:102560002001162004139001EC120F499002E6E0BE
:10257000120FA3E4F5F0120A389001EC120F499003
:1025800002E6120F55FDACF0C39406EC6480948013
:102590005002804DC3ED9432EC6480948050509092
:1025A00001EC120F499002E6E075F002A4F582E911
:1025B0002582F9EA35F0FA120931FFAEF07C007D90
:1025C000021208E5EE8FF0120A1980239001EC1236
:1025D0000F499002E6120F55C3E5F06480948050D5
:1025E0000E9001ECA3A3120FA2E4F5F0120A3890AA
:1025F00002E6E004F0022D22E4900225F022000021
:102600000203AB1BE4FF3006169002F8E0FCA3E0E7
:10261000F5828C83E0FE54F0FFEE540FF0C20622E8
:10262000029003030A0B0D100E800FFF0C020BFF2C
:1026300023F724032502070127302A3028102B1006
:1026400029032C032D202E202F10262002110306F3
:102650000A100D100E800FFF0C020BFF23F4240450
:102660002504070127102A1028042B0429032C0312
:102670002D202E202F1026209002E77408F024052C
:10268000A3F0E4FF1228BF120F46121172120F4975
:102690001211DCFE9002E9F0A3EFF0123DB99002B6
:1026A000E7121132501C12105E940AEE648094807E
:1026B00040028044C3EF94F6EE6480947F5065023C
:1026C0002EF39002E9E0FEA3E0FF123DB99002E88C
:1026D000D312113340169001E3120F49120931FF52
:1026E000120F46E5F08FF0120A19803812105E942E
:1026F00064EE648094804010E4900207F0A3F0122E
:102700000F46E475F0018019C3EF949CEE64809449
:102710007F5011E4900207F0A3F0120F4674FFF50A
:10272000F0120994120F46121172120F491211DCA5
:10273000F99001ECE0FBA3E0FAA3E0C98FF0020AF4
:1027400019200265D202E4FFEF25E02452F582E46D
:10275000343D1210F01211C1ECF0A3EDF0EF25E0C2
:10276000244CF582E4343D1210F012111FECF0A35A
:10277000EDF0EF25E02458F582E4343D1210F0121C
:1027800011CBECF0A3EDF00FEFB403BC9001CAA3A2
:102790001210BCFDF5828C83A3A3EFF09001CCA3B3
:1027A000E08D828C83A3A3A3F01210CFF5828E83D9
:1027B000A3E0B4AA031238981210CFFF1210C6E09B
:1027C000B41008EF1210C6E4F0D20B1210CFFF24A1
:1027D0001B1210C8E0700DEF241C1210C8E0B410DA
:1027E00003123A7A1210CF24131210C8E0FFB4106B
:1027F0000690025A7401F0EFB42005E490025AF0FA
:10280000229002ECEEF0A3EFF0E4FCFDE5152FF5CD
:1028100015E5143EF514ED3513F513EC3512F512EC
:102820000516E516D39414401CAF16CBEFCBE4FA93
:10283000F9F8AF15AE14AD13AC12120AA18E108FB9
:1028400011E41213DFD3E5119400E5109400403138
:102850009002EDE09511FF9002ECE09510FE123D24
:10286000B9C3EF940AEE6480948050159002EDE0B5
:102870002511FF9002ECE03510C313FEEF13FF802B
:10288000249001781212FC9400401FEF25E0FFEE27
:1028900033FE9002EDE02FFF9002ECE03EFE7C0064
:1028A0007D03120890EEF0A3EFF09002ECE0FEA39F
:1028B000E0FF22EF75F003A4246EF582E43402F504
:1028C00083E58222F583E493FE740193FFE4FCFD2B
:1028D000902F60E0F8A3E0F9A3E0FAA3E02FFFEA6D
:1028E0003EFEED39EC38222EF582E43583F5832265
:1028F00074DC2BF582E43402F58322E4E075F00801
:10290000A4248CF582E43402F58322EFF0FCA3E0EA
:10291000FE131313541F2225E0245CF582E43402D5
:10292000F58322E0FF74017E00C8EFC80822902FD3
:1029300060A3A3E0FEA3E0FF22F583C37401939F8D
:10294000E4939E2225E02405F582E4343D22E0FC58
:10295000A3E0FDD39FEC9E2225E02419F582E43408
:102960003D2212113D9000FEE0601BE49002E6F073
:102970009002E6E0FF246A120FE41211D5E0B416CB
:10298000EFE49000FEF0E49002E6F09002E6E0FF53
:10299000C394035011742D2F120FCAE4F0A374FFD7
:1029A000F01211D580E5E49002E6F09002E6E0FF37
:1029B000C39403504A1237D29002E6E0242D12113C
:1029C00069FF1229BCEF7031E41211AB9002E6E00E
:1029D000B4010F120FC8E0FFA3E090024ACFF0A3AA
:1029E000EFF09002E6E0FFB4020F120FC8E0FFA381
:1029F000E090022ACFF0A3EFF01211D502318B0242
:102A00003ABD9002EDEDF09002EC1230EBA3F0EE47
:102A10005407A3F09002EEE0FFEC1230942F123036
:102A2000C8E0FD7C009002EF1231038005C333CE75
:102A300033CED8F9FFEE5CFEEF5D4E606212310ED0
:102A40009002EC1230DBC083C0829002EDE0D082B5
:102A5000D08375F002120B9712312E5042C3EF9DB6
:102A6000FFEE9CFE9002ECE0FD1231241231194081
:102A70002E9002EEE0FFED1230942F1230C8C0838A
:102A8000C082E0FF9002EFE0FE7401C8EEC808804B
:102A900002C333D8FCF45FD082D083F07F01227F61
:102AA0000022758A50538AEF9000027411F0900052
:102AB000017422F09000037433F07599BF759A4049
:102AC000E4FFFEC2950020960CD295003096069049
:102AD00000027487F00FBF00010EEF640A4E70E32E
:102AE0007590FF75999F759A607580FF7589FE7561
:102AF0009501000000E4FEFF30800630950320962B
:102B0000069000017487F00FBF00010EEF640A4EBB
:102B100070E6E4F5AB75AC1DF5ADF5AF7589FF75E5
:102B2000913E7599FFF59675931CF59BF595F59279
:102B3000F59A5388FED28AD20A22902EC0E4F090F1
:102B40000253F0900252F0FC742D2C121169FE1306
:102B50001313541FFDEE5407FEED14601B04702E7A
:102B6000900252E0FD7401C8EEC8088002C333D859
:102B7000FC4D900252F08016900253E0FF7401C8A1
:102B8000EEC8088002C333D8FC4F900253F00CEC1F
:102B9000B403B5900252E0FF42ABA3E0FE42ADEFBA
:102BA000F4FF5289EEF4FE5299EF5295EE529A904C
:102BB0000252E0F45296A3E0F4529B7F032290026B
:102BC000EDEDF09002EC1230EBFDEE5407A3F0ECCB
:102BD0001230942D1230C8E0FB7A009002EE1231D0
:102BE000038005C333CE33CED8F9FFEE5AFEEF5B38
:102BF0004E704D9002ECE0FE1230942D1230C8C0A1
:102C000083C082E0FF9002EEE0FD7401C8EDC808C9
:102C10008002C333D8FC4FD082D083F0EE1231242F
:102C20001230A49002EC1230DBC083C0829002ED1F
:102C3000E0D082D08375F002120B97EEF0A3EFF094
:102C400022023C5EE493A3F8E493A34003F68001E0
:102C5000F208DFF48029E493A3F85407240CC8C3D6
:102C600033C4540F4420C8834004F456800146F610
:102C7000DFE4800B0102040810204080903702E45A
:102C80007E019360BCA3FF543F30E509541FFEE46E
:102C900093A360010ECF54C025E060A840B8E49330
:102CA000A3FAE493A3F8E493A3C8C582C8CAC58372
:102CB000CAF0A3C8C582C8CAC583CADFE9DEE780F7
:102CC000BE300008751B0B751CB88006751B00759F
:102CD0001CC890010B1211FAFFAEF0C3951CEE95C3
:102CE0001B5015900132E060209001201211FAFD76
:102CF000C3EF9DEE95F04011900238E07002A3E022
:102D0000702790013204F0802090001BE0B4200571
:102D10001213D78006900238121404E4900132F0A6
:102D2000900236F0A3F01213F3900132E06011909C
:102D30000028E090003AB410047410F0227420F0DF
:102D400022C202E4FFEF12100CE4F0A3F0EF121025
:102D500036E4F0A3F0740D2FF582E43402F583E439
:102D6000121052E4F0EF25E0241FF582E43402F55E
:102D700083E4F0A3F074132F1210E8E4F074192F19
:102D8000120FC0E4F090021C747EF0121112E4F0F5
:102D900074DD2FF582E43401F583E4F00FEF640372
:102DA00070A3E490021DF0A3F0900250F0A3F09005
:102DB0000228747EF09001BBF0E4900227F02243D9
:102DC00089025395FD5396FD438002123CB5E49071
:102DD00002EDF0A3F0FC7F0C12361B9002EEE02F08
:102DE000F09002EDE03EF00CECB402EA123CF91275
:102DF000093145F07005123CDE8039120931FFAE11
:102E0000F07C007D13120BA3ECC0E0C9EDC9CAEE43
:102E1000CACBEFCB123CDEE4FDD0E0F8EB2FFFEAAB
:102E20003EFEED39FDEC38FCE47B14FAF9F8120AA9
:102E3000A1123CF9EE8FF0120A1922CDEFCD43AD6D
:102E4000105399EF439A10539BEF902EC07402F0E9
:102E5000147E00C8EDC8088005C333CE33CED8F940
:102E6000FF902EC4EEF0A3EFF0902EC8EEF0A3EF8B
:102E7000F07410123CED902EC0E030E2F9902EC0BC
:102E8000E4F07402F07420123CED902EC0E030E2C9
:102E9000F9902E00E0FEA3E0FF902EC4E4F0A3F032
:102EA000902EC0F0439910539AEF539BEF5390EF3D
:102EB0002290024EE01460141460392402705130E4
:102EC00088071236F1D205D200C203227F02123CDB
:102ED00000EF60077F02123DC5C2052088329002D4
:102EE0004E7402F0D203C205C2007F03123DC57FBB
:102EF00003023B697F03123C00EF60147F03123D25
:102F0000C5208807E490024EF080031236F1C20318
:102F10002290024E7401F07F02123DC57F02123BE7
:102F20006922C109410252004102530041024F008F
:102F300041025700C102C101C10441025A004102CD
:102F40004E00C103C100C10543022D000D0E420217
:102F500058000042024C0000410249004102FA00C0
:102F60004102FB004202F50000C106C108C1074151
:102F700002F7104101030041010510C10CC10B41D2
:102F800001BA004101041041025B0000200B062041
:102F90000303300509E4FFFE122C4BC20B22900202
:102FA0003CE07002A3E060051213B77041200003FB
:102FB000123A2F7F01123DA27F011239E3122550F0
:102FC0009002E6EEF0A3EFF07B017A0279E6123987
:102FD000479002E6E0F9A3E0FF90010812121212F6
:102FE00012B01218881234A1121A6612168F123AF1
:102FF000F82212113DEF25E025E0245EF582E4344D
:103000003DF583E4937014902EC4121079F5ABF45F
:10301000528912107A902EC5F08013902EC5E412BA
:103020001079F5ADF4529912107A902EC4F0EF2574
:10303000E025E02460F582E4343DF583E493902EAE
:10304000C3F0EF25E025E02461F582E4343DF5830B
:10305000E493902ECAF02212126212140BF0FF12A7
:10306000122AEEF00FEFB416F61213681229BC12F2
:103070001278902E42E0FEA3E02475FFEE34FEFEAF
:10308000D3EF9414EE64809480400A902E42740131
:10309000F0A3748BF0900105E0FF9002F8E0FCA330
:1030A000E0241DF582E43CF583EFF012133912128F
:1030B00012F9EE8FF0020A199002E57408F0A3E409
:1030C000F0A3743FF0A374DFF0E4FDFCF9758A10FF
:1030D000538AEF009002E5E0FEA3E02DF582EE3C7E
:1030E000F583E493FF69F90DBD00010CBC37E5BD24
:1030F000DFE29002E7123D99E493699002F87009CB
:10310000123D99A37402F08006123D99A3E4F07574
:103110008A50538AEF0022E4FECFEECF1237D290CE
:103120002EC07419F0902EC0E030E2F9902EC4E465
:10313000F0A3F0902EC0F01211AB742D2E12116975
:1031400075F002A42400120FD8E0FCA3E0FD90016A
:10315000E0120F4975F002EE120FA6EC8DF0120A84
:10316000380EEEB403B3229002E8EBF0A3EAF0A32A
:10317000E9F0900232E07002A3E07039900133E090
:103180006033E4900133F07F14123DA27522017F79
:10319000011239E31225509002E812121212139410
:1031A0000522E522C3941440E6900232E4F0A374B1
:1031B00064F01213D7221213B7702E9001BAE07088
:1031C00008900232F0A37464F09001BA7401F09098
:1031D0000029E0B4200812376C120BFC8003123B6C
:1031E0009D9002407401F08017E49001BAF09000C5
:1031F00029E0B4200312376C900240E06002E4F052
:10320000023D6A9002EBEFF0121271E4F523745460
:103210002523F582E43400F583E0FFE5231212371D
:10322000EFF00523E523B416E5E4F5239002EBE087
:10323000FFE523C39F5007122B79052380EE902EC4
:10324000C0E4F0121C21900106EEF0A3EFF0223052
:103250000747C20712126212140BF0FF12122AEE75
:10326000F00FEFB416F6902E42E0FFA3E09002E8D4
:10327000CFF0A3EFF01213681229BC1212781213C8
:10328000391212121213941212719002E8E0FFA385
:10329000E0902E42CFF0A3EFF02212082EE4F5F2D8
:1032A00075F30875EEFF75EF3F75EA81F5F675EB7E
:1032B0000700E5EC30E7FBE4F5EC9002F8E0FEA354
:1032C000E0FF241BF582E43EF583E5F3F0EF241CD8
:1032D000F582E43EF583E5F2F075EB3022300A37F3
:1032E000C390024BE0942090024AE0940050069074
:1032F00000037487F0C390022BE0942090022AE030
:10330000940050069000037487F0C20A90000312E4
:1033100010BC2406120F992290003AE0FC900104A0
:10332000E06C602E90003AE0FE900104F090000BFB
:10333000E0900257F0540FF0EEB42005E0442080F6
:103340000AECB4100B900257E04410F090000BF020
:10335000C28A2200000000FFFFFFFF0000FFFFFF06
:10336000FFFFFFFFFFFF00FF000000FFFF00000066
:10337000FFFFFFFFFFFFFF00000000FFFFFFFFFF59
:10338000FFFFFFFFFF000000009002E6EFF0E024E7
:10339000DC1230D3E060037F01229002E6E0FF24DC
:1033A000DC1230D37401F0EF1231381230A49002E5
:1033B000E6E01230F7EEF0A3EFF07F0022E4F5B282
:1033C000F5BA758D20438D20538D7F53AAF7F58B69
:1033D000E5DB20E217200914E4F58A758703000075
:1033E00000758A50D20B9000297420F0758B112241
:1033F000758B11902F647440F0E4FEE4FF1230935B
:103400001230C7E4F00FEFB40AF30EEEB403EC7F12
:10341000099002DCE4F0A3DFFC902F647480F022BA
:10342000CBEFCB1230D0E0602412310EEB1230F72C
:1034300012312E5018C3EF9DFFEE9CFEEB12313877
:1034400012311940081230D0E4F07F01227F0022AF
:10345000ED131313541FFEED5407FD123093123079
:10346000C7C083C082E0FFCEEDCE7401C8EEC808AD
:103470008002C333D8FCF45FD082D083F0221208DC
:103480004E53A87F12328212081E123C8A43A88033
:10349000123DCE9000FFE0600690022C7401F01205
:1034A0002DE4122F2112213A80F59002F8E0FFA3BB
:1034B000E09002FCCFF0A3EFF0E4F5DA75DA4043D8
:1034C000DA2075D74075DA5875D90143A90875B85F
:1034D0000875F80822902EC07402F0902EC77471FF
:1034E000F0902EC27421F0902ECD74C0F0A374FF22
:1034F000F0A3F0902EC37401F0902ECAF022900237
:10350000EDE0FEA3E0FF7C007D1402087E902EC259
:10351000F0902EC0E04419F022900123E0FBA3E0DC
:10352000FAA3E0F92201F40028002801F400960330
:10353000E801F403E81770006403E80032012C018D
:103540002C012C01F403E8271000C812113DE4FF00
:10355000120FE10FEFB416F8902EC4E4F0A3F012AE
:1035600038F71238F79002257401F0220096008295
:1035700000B4009B008700B9008C007800AA00010D
:1035800010100220191002401308E5B230E005E5E2
:10359000AA20E013E4900242F075B28E75B6F9F5F8
:1035A000B743B20143AA0122E0FF04F0A3E0FCA369
:1035B000E02FF582E43CF58322E0FEA3E0F5828E65
:1035C00083229002ECEFF09002ECE0600B12359F4A
:1035D0009002ECE014F080EF22EE30E707C3E49FA6
:1035E000FFE49EFE2274DC2F1230D3E4F022123D61
:1035F000DB023BD01213F322D2AF32023D6A00004D
:1036000000000000000000000000000000000000BA
:1036100000000000000000000000000000000000AA
:10362000000000000000000000000000000000009A
:10363000000000000000000000000000000000008A
:10364000000000000000000000000000000000007A
:10365000000000000000000000000000000000006A
:10366000000000000000000000000000000000005A
:10367000000000000000000000000000000000004A
:10368000000000000000000000000000000000003A
:10369000000000000000000000000000000000002A
:1036A000000000000000000000000000000000001A
:1036B000000000000000000000000000000000000A
:1036C00000000000000000000000000000000000FA
:1036D00000000000000000000000000000000000EA
:1036E00000000000000000000000000000000000DA
:1036F00000000000000000000000000000000000CA
:1037000000000000000000000000000000000000B9
:1037100000000000000000000000000000000000A9
:103720000000000000000000000000000000000099
:103730000000000000000000000000000000000089
:103740000000000000000000000000000000000079
:103750000000000000000000000000000000000069
:103760000000000000000000000000000000000059
:103770000000000000000000000000000000000049
:103780000000000000000000000000000000000039
:103790000000000000000000000000000000000029
:1037A0000000000000000000000000000000000019
:1037B0000000000000000000000000000000000009
:1037C00000000000000000000000000000000000F9
:1037D00000000000000000000000000000000000E9
:1037E00000000000000000000000000000000000D9
:1037F000000000000000000000000000000000E2E7
:1038000000000000000000000000000000000000B8
:1038100000000000000000000000000000000000A8
:00000001FF
