:1007E0000067000000080000FC5600000000000048
:1007F00000000000000000000000000000000000F9
:100800000227DC12152C22D2AF3200022078D2AFA0
:10081000320000022F810230CE00000208070000E3
:10082000000000021C2E000000000002080EE70974
:10083000F608DFFA8046E709F208DFFA803E888290
:100840008C83E709F0A3DFFA8032E309F608DFFAC8
:100850008078E309F208DFFA807088828C83E309EC
:10086000F0A3DFFA806489828A83E0A3F608DFFAC6
:10087000805889828A83E0A3F208DFFA804C80D214
:1008800080FA80C680D4806980F28033801080A690
:1008900080EA809A80A880DA80E280CA80338982E8
:1008A0008A83ECFAE493A3C8C582C8CCC583CCF094
:1008B000A3C8C582C8CCC583CCDFE9DEE7800D893B
:1008C000828A83E493A3F608DFF9ECFAA9F0EDFB42
:1008D0002289828A83ECFAE0A3C8C582C8CCC5838A
:1008E000CCF0A3C8C582C8CCC583CCDFEADEE880E3
:1008F000DB89828A83E493A3F208DFF980CC88F055
:10090000EF60010E4E60C388F0ED2402B404005085
:10091000B9F582EB2402B4040050AF2323458223AF
:1009200090087E73EF8DF0A4A8F0CF8CF0A428CEB1
:100930008DF0A42EFE22C2D5EC30E709B2D5E4C377
:100940009DFDE49CFCEE30E715B2D5E4C39FFFE4C7
:100950009EFE120BB5C3E49DFDE49CFC8003120BCC
:10096000B530D507C3E49FFFE49EFE22C5F0F8A38F
:10097000E028F0C5F0F8E582158270021583E038B2
:10098000F022BB010A89828A83E0F5F0A3E02250BD
:100990000687F009E71922BBFE07E3F5F009E31922
:1009A0002289828A83E493F5F074019322BB0107C4
:1009B00089828A8302096C500B09C5F027F7C5F0BC
:1009C0001937F722BBFE0D09F8E325F0F3C5F0193E
:1009D000E338F322F889828A8374019325F0C5F005
:1009E000F8E4933822BB010A89828A83F0E5F0A3F8
:1009F000F0225006F709A7F01922BBFE06F3E5F036
:100A000009F3192275F008758200EF2FFFEE33FE0F
:100A1000CD33CDCC33CCC58233C5829BED9AEC99D6
:100A2000E58298400CF582EE9BFEED9AFDEC99FC78
:100A30000FD5F0D6E4CEFBE4CDFAE4CCF9A88222BF
:100A4000B800C1B90059BA002DEC8BF084CFCECDDF
:100A5000FCE5F0CBF97818EF2FFFEE33FEED33FD18
:100A6000EC33FCEB33FB10D703994004EB99FB0FFD
:100A7000D8E5E4F9FA227818EF2FFFEE33FEED33D4
:100A8000FDEC33FCC933C910D7059BE99A4007EC4C
:100A90009BFCE99AF90FD8E0E4C9FAE4CCFB227593
:100AA000F010EF2FFFEE33FEED33FDCC33CCC83327
:100AB000C810D7079BEC9AE899400AED9BFDEC9A89
:100AC000FCE899F80FD5F0DAE4CDFBE4CCFAE4C801
:100AD000F922EB9FF5F0EA9E42F0E99D42F0EC64CA
:100AE00080C864809845F022EB9FF5F0EA9E42F0C2
:100AF000E99D42F0E89C45F022E8600FECC313FC4E
:100B0000ED13FDEE13FEEF13FFD8F122E8600FEFB7
:100B1000C333FFEE33FEED33FDEC33FCD8F122ECB2
:100B2000F0A3EDF0A3EEF0A3EFF022A8828583F00E
:100B3000D083D082120B42120B42120B42120B4294
:100B4000E473E493A3C583C5F0C583C8C582C8F028
:100B5000A3C583C5F0C583C8C582C822EC8EF0A4A6
:100B6000CCC5F0CCCDF8EFA4CEC5F02DFDE43CFC17
:100B7000E8A42EC8C5F03DFDE43CFCEFA4FFE5F081
:100B800028FEE43DFDE43CFC22EF4E6012EF6001E4
:100B90000EEDBB010B89828A83F0A3DFFCDEFA2213
:100BA00089F05007F709DFFCA9F022BBFEFCF3092E
:100BB000DFFCA9F022BC000BBE0029EF8DF084FF02
:100BC000ADF022E4CCF875F008EF2FFFEE33FEEC29
:100BD00033FCEE9DEC984005FCEE9DFE0FD5F0E950
:100BE000E4CEFD22EDF8F5F0EE8420D21CFEADF04F
:100BF00075F008EF2FFFED33FD4007985006D5F054
:100C0000F222C398FD0FD5F0EA221212FFFDACF0DC
:100C1000D39FEC9E40329001B5121313121552D39C
:100C2000EF9430EE9475400C9002DC7475F0A37470
:100C300030F0800D12130A1214769002DCF0A3EF4C
:100C4000F0E4900234020CB1121310FFAEF09001E8
:100C5000B5121313FDACF0C39FFFEC9EFED3EF94CF
:100C600010EE942740089002DC1214D18012121367
:100C700010FFC3ED9FFEEC95F09002DCF0A3CEF0E8
:100C80009002DCE0FFA3E0900234CFF0A3EFF0305D
:100C90000014D3E0942C900234E09401400F9002B1
:100CA000361214D18007E4900236F0A3F0E49002EB
:100CB000DCF0A3F09001D0E0604D121371D39400EA
:100CC000EE6480948040179001A312154BEF9DEEC7
:100CD0009C400B9002B7E4F0A37464F0801BD390A7
:100CE00002B8E094009002B7E09400400C9001B28A
:100CF0001213139002DC121453D20A9002BD740F27
:100D0000F0A374A0F080119002BB7403F0A374E808
:100D1000F07A00794612135AD39002DDE0940090E5
:100D200002DCE0648094805003020F4DE0F9A3E000
:100D3000FF9001B212132B12139912137112155C4A
:100D4000E47BB87A88F9F8C3120AD2500A9002DC20
:100D50007488F0A374B8F0D39002BAE094009002C3
:100D6000B9E09400500790001BE0B4201D121371ED
:100D7000C39496EE648094805010EF9400EE6480EB
:100D80009480402F7C007D0A801E3000269001D088
:100D9000E0702090023DE0FCA3E0FD121371C39DC2
:100DA000EE9C500F7C027DBC1209369002DCEEF006
:100DB000A3EFF09001D0E07003020F279002BBE098
:100DC0007002A3E06003020F2712137112155CE595
:100DD000492FF549E5483EF548E5473DF547E546E5
:100DE0003CF546054BE54B7002054AC3E54F94D0F0
:100DF000E54E94075003020EC5AE4AAF4BCBEFCB86
:100E00001213DAAF49AE48AD47AC46120A40900221
:100E1000DEEEF0A3EFF0C3E54D9FFFE54C9EFE1222
:100E200031469002E0EEF0A3EFF0D39464EE94002C
:100E30005006E54D454C700D9002DEE0F54CA3E008
:100E4000F54D020EB4D39002DFE0954D9002DEE046
:100E5000954C402D1214249450EE940040047414C8
:100E60008018D3EF943CEE94004004740A800BD3B6
:100E7000EF9428EE9400403C7405254DF54DE48038
:100E80002F1214249450EE9400400774EC12156352
:100E9000801ED3EF943CEE9400400774F612156365
:100EA000800ED3EF9428EE9400400974FB12156372
:100EB000354CF54CE4F549F548F547F546F54AF566
:100EC0004BF54EF54FD3E54D9400E54C9400402E84
:100ED000120F77900201EEF0A3EFF0C3120F77C369
:100EE000EF943CEE648094805008121506E4F550AF
:100EF000800CE550C3940450051215060550E5DB3F
:100F000020E23D9001BB121313FFAEF07D0F1213D0
:100F10008712137112155CEB7B101213AE9001BB9C
:100F200012132BF9EE8014E5DB20E2149002DCE0D2
:100F3000F9A3E0FF9001BB12132BC98FF01209E552
:100F40009001BB12131324A8FFE5F0801D9001B29D
:100F500012132B12144C9001BB12132B12144C9031
:100F600002DDE024A8FF9002DCE03461F99001B8D2
:100F700012132B121399229002DDE0954DFF90027F
:100F8000DCE0954CFE12314622208A030212FE90CC
:100F900002B3E07002A3E060030212FE9002B1E02F
:100FA0007002A3E060030212FE900209E07002A347
:100FB000E060030212FE12147D60030212FE900133
:100FC000D0E070309001C4121313FFAEF09001B264
:100FD000121313D39FE5F09E40030212FE12139FDB
:100FE000E4900215F0A3F01215129002B712153317
:100FF000F56C8003756C00756D0FE4F5B2122EE68A
:10100000900219E0F551A3E0F552C208758D204316
:101010008D20758D8043A808D2AF758B02758EC860
:1010200020052412147D701F200B1CE5DB20E21725
:10103000758AC4200B0DE5DB20E2087587030000EC
:10104000008006D2088002D208758B11758A505331
:10105000A8F7D39002B2E094909002B1E0940140DE
:101060000EA3E02470F09002B1E034FEF08007E4BB
:101070009002B1F0A3F0D39002BEE094909002BD34
:10108000E09401400EA3E02470F09002BDE034FE35
:10109000F08007E49002BDF0A3F0122EE612148453
:1010A00012273A0BEBB404F89001A7E0F56EA3E029
:1010B000F56F9001ABE0F522A3E0F523E56F25275E
:1010C000FFE56E3526FEC3EF9523F525EE9522F557
:1010D00024E5272488FFE5263413FED3E5259FE584
:1010E000249E40048E248F25902E23E4F043890A09
:1010F0001213805380F54389029001FFE524F0A389
:10110000E525F0C3E5529525FFE5519524FE123102
:10111000468E538F5412157340030212BFAE24AF94
:10112000257C007D0E120B5C12157DAF6BAE6AAD97
:1011300069AC689002DA121336FBD3120AE8900207
:10114000DA40171213F8956BFFEE956AFEED95697C
:10115000FDEC9568FC12157D8007120B2B0000003A
:1011600000E47F607EEAFDFC9002DA121336FBD3C6
:10117000120AE8400A9002DA120B2B0000EA601211
:101180001310FFAEF07C007D09120B5C9002DA12A6
:1011900013367B0A1213AE12157D9001D0E0703623
:1011A000AE51AF52FC7D09121389E4FCFDEB2525FD
:1011B000FFEA352412134EE47B0A1213BA8E518FC4
:1011C000529002DA12132112139912142E12132BB9
:1011D0001213990212BF12142E12132B121399908C
:1011E00001B5121313FFAEF09002DA121333FBD3E2
:1011F000120AE850030212CF1212FF121476FE12E6
:1012000014D940030212CF9001B2121313FFAEF0B3
:101210007C007D02120B5CC8ECC8EDC0E0EEC0E0C3
:10122000EFC0E01212FF121476FEE4FCFDD0E0FBEA
:10123000D0E0FAD0E0F9121349E47B031213BA901C
:1012400001B212132B12145B9001B2121313D39438
:1012500030E5F094754008747575F0301209E5902A
:10126000021CE0605A9002201214279400EE9400B1
:10127000404D9001B2121313121476FE12314690B3
:1012800002DEEEF0A3EFF09001B212131312136519
:1012900095F050101214AC400B121328F9E475F0BD
:1012A000051209AD9001B2121313FFD31213679503
:1012B000F0400CD31214AC400612132812156A2009
:1012C000080D121573500812147D700302100C9053
:1012D000021BE00412143C121356E49001FB12139B
:1012E000E5F0900224120B2B000000001213E174B1
:1012F000C8F09001D17401F09002B512141D229033
:1013000001B5E0FBA3E0FAA3E0F9120982FFAEF019
:101310009001AFE0FBA3E0FAA3E0F902098290019B
:10132000D2A3A3E0F9A3E0FF9001B5E0FBA3E0FAAC
:10133000A3E022E4FCFDE0F8A3E0F9A3E0FAA3E0D7
:1013400022E0FEA3E0FFE4FCFDEB2FFFEA3EFEED12
:1013500039FDEC38FC227A00795C7E007F0B7D0041
:101360007B00020B89FFC3900221E09F900220E0E6
:10137000229002DCE0FEA3E0FF2243AB0A5389F592
:101380005395F55396F5227C00120B5CC8ECC8C946
:10139000EDC9CAEECACBEFCB22C98FF00209E57FB7
:1013A000087A0179D27E007D007B01020B892FFF34
:1013B000EA3EFEE93DFDE83CFCE4FAF9F8020A40A9
:1013C000A3F0A37401F0A322E50825E02428F8E6A1
:1013D000FE08E622A3E0FEA3E0FBCAEECAE4F9F8A9
:1013E00022900228E4F0A3F0A3F0A322F09002B32D
:1013F0007402F0A37458F022E0FCA3E0FDA3E0FE29
:10140000A3E022902E12E0FEA3E0FF7C007D0A12F2
:101410000924EF245CFFEE34122290023DE4F0A395
:1014200074C8F0229002E0E0FEA3E0FFD322900215
:10143000DAA3A3E0F9A3E0FF9001AF22F07E007FE2
:10144000077D007B007A007955020B89F9E4F5F0FD
:101450000209E5FFE5F0F0A3EFF022F9EE8FF002CC
:1014600009E5E0FCA3E0FDC3EF9DFF22E4F50CF5E8
:101470000BF50AF50922C39FFFE5F09E2290001BA1
:10148000E0642022E49001A7F0A3F09001ABF0A368
:10149000F0FB22AB0CAA0BA90AA809D3020AE89018
:1014A00002DDE0940A9002DCE09400229002DFE08A
:1014B00094149002DEE094002225E0240DF582E4ED
:1014C0003402F583229001ADE0FFA3E0900213CF38
:1014D000227427F0A37410F022D390023EE09F9074
:1014E000023DE09E22E03CF0902E20E4F00FEF223F
:1014F0009001FFE562F0A3E563F02225E02428F8DF
:10150000A60D08A60E229002DCE54CF0A3E54DF0F6
:1015100022E49002B9F0A3F0229001A3E4F0A374B6
:1015200096F022F9746175F0A80209E590003A740A
:1015300010F022F0A3F09002BFF0A3F022902E2032
:101540007409F022E0FEA3E0780222E0FCA3E0FDB3
:10155000D322FFC3ED9FFFEC95F0FE22EE3395E022
:10156000FDFC22254DF54D74FF22F974FF75F0FB4B
:101570000209ADC3E554956DE553956C229002DAEE
:10158000020B1F12148412273A0BEBB404F8E52760
:10159000240CFFE52634FEFE9001A7E0FCA3E0FD4D
:1015A000C39FEC9E5015900209E07002A3E07012F8
:1015B00090020904F0A374F4F08007E4900209F0AB
:1015C000A3F0E5272DFFE5263CFE9001AB12146247
:1015D000EE9CFE9002E2F0A3EFF0E5272488FBE505
:1015E000263413FAD3EF9BEE9A40089002E2EAF019
:1015F000A3EBF09002E2E0FFA3E09001F9CFF0A3AB
:10160000EFF0A3ECF0A3EDF09001A7E0FFA3E090D2
:1016100001FDCFF0A3EFF0D3900206E0940090021A
:1016200005E0940040719001D0E0600F9001B2128B
:101630001313C394A0E5F0940F5009E4900203F053
:10164000A3F08053D3900204E09400900203E0944E
:10165000004030900205E0FEA3E0FF1217DD1213F8
:1016600092900203E0FEA3E0FF7C007D03120924B8
:10167000EB2FFFEA3EFEEF7802CEC313CE13D8F96C
:10168000FF800C900205E0FEA3E0FFC31217DD907F
:101690000203EEF0A3EFF0D3900204E0940A90026C
:1016A00003E0940090020740097428F0A37446F008
:1016B00080077405F0A3740FF09001F9E0FFA3E038
:1016C000900205CFF0A3EFF09002E2E0FEA3E0FF6E
:1016D00012235F9001FFEEF0A3EFF090001BE0B447
:1016E00020031213569001FFE0FEA3E0FFE4FCFD8F
:1016F000E55F2FF55FE55E3EF55EED355DF55DEC92
:10170000355CF55C0561E56170020560C3E56594D3
:10171000E8E5649403402AAE60AF61CBEFCB1213CF
:10172000DAAF5FAE5EAD5DAC5C120A408E628F6375
:10173000E4F55FF55EF55DF55CF560F561F564F582
:1017400065D3E5639400E56294004074900200E084
:101750009563FF9001FFE09562FE9002E4F0A3EF35
:10176000F0900207E0FDFBC3E49BFBE49400FAD396
:10177000EF9BEA6480F8EE648098401BEDFF9002D6
:10178000E5E09F7480F89002E4E0648098500812CD
:1017900014F0E4F56680299002E4E0FEA3E0FF1275
:1017A0003146900208E0FDD3EF9D7480F86E9840BA
:1017B00003756603E566C3940350051214F00566CD
:1017C0009001FFE0F544A3E0F54578287C007D001A
:1017D0007B007A00792A7E007F1C0208FE9001FAC5
:1017E000E09FFF9001F9E09EFE1231462290022414
:1017F000121336FB90010D121341900224120B1F9D
:10180000900229E004F07006900228E004F09002B3
:101810002AE07002A3E06003021A3290022412133D
:10182000F8FFEEC0E0EFC0E01213D4D0E0FFD0E04C
:10183000FE120A40900224120B1F900224A3A3E080
:10184000FFA3E0900222CFF0A3EFF0A3120B2B0036
:101850000000001213E174C8F09002B1E07002A31E
:10186000E06003021A3290022CE07002A3E06003F1
:10187000021A329001D0E0700302192690021EE095
:10188000FEA3E0FF4E7022900222E0FDA3E0900252
:101890001ECDF0A3EDF09001B2121313FD900220C3
:1018A000E5F0F0A3EDF0021932900222121462EE7C
:1018B0009CFE12314690022E12132B12145B9002E2
:1018C0001CE0702690022E121313C3940FE5F094BF
:1018D00000500F9001B2121313FF90022012145403
:1018E000802390021C7401F0801B90022E121313AF
:1018F000C39402E5F09400500CE490021E1213E52C
:10190000F090021CF090022212142790021FE09F18
:1019100090021EE09E4007E490021DF080149002A9
:101920001D7401F0800CE490021E1213E5F0900289
:101930001CF090021CE07003021A32900220121474
:10194000279400EE94005003021A329001B2121351
:1019500013121476FE1231469002DCEEF0A3EFF083
:10196000A3E4F0A37464F09001B2121313D394941F
:10197000E5F09411400A9002DE7403F0A37420F0A5
:101980009002DCE0FFA3E0900232CFF0A3EFF090F2
:1019900001B2121313FFAEF0D31213679E401290E0
:1019A00002DE12154B9002DDE09D9002DCE09C50BF
:1019B0001A1213669E50439002DEE0FEA3E0FF90F1
:1019C00002DDE09F9002DCE09E402FE490021CF0DC
:1019D00090021EF0A3F09001B2121313121365953A
:1019E000F090022C74015007F0A3742CF08005F0E5
:1019F000A37490F0E490021DF0229001B212131330
:101A0000FFD312136795F0400CD312149F400612B7
:101A1000132812156A9001B212131312136595F070
:101A2000501012149F400B121328F9E475F00512A0
:101A300009AD22900215E0FEA3E0FFC39404EE94EA
:101A400000502F9001ADE0FCA3E0FDEF25E0FFEE9C
:101A500033FE740D2FF58274023EF583ECF0A3ED96
:101A6000F0900216E004F07006900215E004F00217
:101A70001BC29002E47401F09002E4E0FF1214B97A
:101A8000E0FCA3E0FDEF25E0240BF582E43402F551
:101A900083ECF0A3EDF09002E4E004F0E0B404D8AD
:101AA0009001D0E07003021B699001B5121313FF7F
:101AB000AEF09001AD12154B9FEC9E5003021BBB84
:101AC000ED9FFFEC9EFED3EF94F4EE9401500302E1
:101AD0001BBBA31213131215529002E5F0A3EFF0F3
:101AE000123146C3EF9464EE648094805063E490B6
:101AF00002E7F0A3F09002E5E0FEA3E0FF1231461A
:101B0000D3EF9428EE648094804025D39002E6E0E1
:101B100094009002E5E0648094809002E74008E43D
:101B2000F0A37405F0801074FFF0A374FBF080073D
:101B3000E49002E7F0A3F0121310FF9002E8E02F08
:101B4000FE9002E7E035F0900213F0A3CEF0021B06
:101B5000C21214C5F0A3EFF0900239E004F0700651
:101B6000900238E004F0021BC2121310FF9001AD86
:101B7000121462E5F09CFE123146C3EF9428EE6425
:101B800080948050369001B5121313FFC39001AEBC
:101B9000E09FFF9001ADE095F0FE123146C3EF9457
:101BA00014EE6480948050059001B580039001AFDD
:101BB000121313FF900213E5F080031214C5F0A373
:101BC000EFF09002E0120B2B00000000E49002E422
:101BD000F09002E4E0FFD3900216E09F900215E03F
:101BE0009400401D9002E0121336FBA3E01214B9DA
:101BF0001213419002E0120B1F9002E4E004F08007
:101C0000D09002E01213F8FFEEC0E0EFC0E09002C7
:101C1000151213D5D0E0FFD0E0FE120A409002E08A
:101C2000120B1F9002E0A3A3E0FEA3E0FF22C0E09E
:101C3000C083C082C0D0D2AF9002C4E004F0E5738C
:101C40002401F573E43572F572E43571F571E4350C
:101C500070F570D39002B2E094009002B1E094006D
:101C6000400CA3E024FFF09002B1E034FFF0D390E9
:101C700002B4E094009002B3E09400400CA3E0248E
:101C8000FFF09002B3E034FFF0D39002B6E094008E
:101C90009002B5E09400400CA3E024FFF09002B560
:101CA000E034FFF0D39002B8E094009002B7E094E3
:101CB00000400CA3E024FFF09002B7E034FFF0D323
:101CC0009002BAE094009002B9E09400400CA3E0C6
:101CD00024FFF09002B9E034FFF0D39002C2E09408
:101CE000009002C1E09400400CA3E024FFF09002B9
:101CF000C1E034FFF0D39002C0E094009002BFE056
:101D00009400400CA3E024FFF09002BFE034FFF009
:101D1000D39002BCE094009002BBE09400400CA37E
:101D2000E024FFF09002BBE034FFF0C3E56594E8E7
:101D3000E564940350080565E56570020564C3E534
:101D40004F94D0E54E94075008054FE54F700205BB
:101D50004ED390022BE0940090022AE09400400CB5
:101D6000A3E024FFF090022AE034FFF0D390022D8C
:101D7000E0940090022CE09400400CA3E024FFF0DB
:101D800090022CE034FFF0D390020AE0940190021C
:101D900009E09400400CA3E024FFF0900209E03435
:101DA000FFF0D39002BEE094009002BDE0940040AA
:101DB0000CA3E024FFF09002BDE034FFF0D39002CA
:101DC00037E09400900236E09400400CA3E024FF3A
:101DD000F0900236E034FFF0D0D0D082D083D0E053
:101DE000327E007FFF7D007B017A007904120B892F
:101DF0009002EC7400F0A37404F09002647401F09B
:101E0000A37400F0A374B8F090026A7401F0A37494
:101E100000F074AC122D427400F0A37494F09002A0
:101E2000677401F0A37400F0A374C6F0900270749C
:101E300001F0A37400F074D2122D427400F0A37468
:101E40001F122D437401F0A37402F0902DE0E4936F
:101E5000FF9002ECE0FCA3E0FDF5828C83A3EFF0A1
:101E6000900002E0FFED2404122D28900001E0FF15
:101E7000ED2405122D28900003E0FFED2406122D1D
:101E800028902DE2E493FFED2412122D28902DE3EB
:101E9000E493FFED2414122D289002797401F0A32D
:101EA0007400F0A3743CF0E4FF75F002EFA4240189
:101EB000F582E5F0342EF583E493FE74542FF58219
:101EC000E43400F583EEF0EF25E02423F582E434DA
:101ED0002EF583E493FE122D4AEEF0122D4AE0FE19
:101EE000EF25E02422F582E4342EF583E4932420C8
:101EF000F582E4342EF583EEF00FEFB411AB902FA2
:101F000056E0900058F0902F56E090006AF0900054
:101F1000FF7401F09000FEF090003A7410F0900011
:101F20001BF0900028F0A37420F09002B17407F029
:101F3000A374D0F02212146CF513F51485280F85C4
:101F40002910852811852912F5081213C8FFD3E539
:101F5000129FE5119E40078E118F12850814C3E56C
:101F6000109FE50F9E50078E0F8F108508130508F0
:101F7000E508B40ED5E4F50DF50EF508E514650891
:101F80006034E5136508602EE50E450D7010E50818
:101F900025E02428F8E6F50D08E6F50E8018121362
:101FA000C8250EFFE50D3EFEEF2401FFE43EC313FE
:101FB000F50DEF13F50E0508E508B40EBF900219F4
:101FC000E50DF0A3E50EF0E514C3940B5005E51400
:101FD0001214FBE513C3940B5005E5131214FB1206
:101FE000146CF5081213C8FFC3E50E9FFFE50D9EA4
:101FF000FE123146D3EF9414EE64809480400FE4D7
:10200000FCFDE50C250EF50CE50B350D800F1213CC
:10201000C8FFE4FCFDE50C2FF50CE50B3EF50BEDE0
:10202000350AF50AEC3509F5090508E508C3940EEB
:1020300040B2AF6BAE6AAD69AC68121493401AE55A
:102040000C956BF50CE50B956AF50BE50A9569F5B2
:102050000AE5099568F509800312146CE47F607E37
:10206000EAFDFC121493400BE4750C60750BEAF565
:102070000AF509AE0BAF0C22C0E0C083C082C0D00D
:1020800075D018D2AFE5DB30E419D20BC207E5DB1F
:1020900030E102802E9002EBE5DFF09002EEE4F0FA
:1020A00002216DE5DB30E50FD205300705C20702DE
:1020B000216DC20B02216DC207E5DB30E13AE5DBA1
:1020C00030E0109002EFE0FF04F0123101E0F5DFA4
:1020D00002216D9002EFE0FFB40813208A10D28A2B
:1020E0009002ECE0FCA3E02407123107E4F0EF6477
:1020F0001A707AD20602216D9002EEE0700EA3E50E
:10210000DFF09002EE7401F0D20780619002EFE000
:10211000902E7C93FFB4FF089002EBE5DFF0804740
:10212000EF640F70299002EFE0FFA3E0FCA3E0FD55
:10213000123106E0540FF09002EFE0FF04F0ED12D0
:102140003106E0FFE5DF54F0FEEF4EF0801F900215
:10215000EFE0FF123101E5DFF0EFB4240A9002B3A3
:102160007401F0A374F4F09002EFE004F075DBFF6B
:10217000D0D0D082D083D0E0329001D0E06006127F
:10218000139F0222619001D2121336FBE9C0E0EAEC
:10219000C0E0EBC0E0121310FFE4FCFDD0E0FBD088
:1021A000E0FAD0E0F9EB2FFFEA35F012134E900180
:1021B000D2120B1F9001D7E004F070069001D6E018
:1021C00004F09002B5E07002A3E0600302226B907D
:1021D00001D21213F8FFEEC0E0EFC0E01213D4D02A
:1021E000E0FFD0E0FE120A409001D2120B1F9001D6
:1021F000B51213132432FFE435F0FE9001D212130E
:1022000033FBD3120AE840399002B1E07002A3E038
:10221000702F200A2C9001D9E004F070069001D8AC
:10222000E004F0D39001D9E094059001D8E0940047
:10223000401E12131E121399E49001D8F0A3F080EF
:102240000F12131E121399E49001D8F0A3F0C20AE2
:102250009001D2120B2B00000000E49001D6F0A3F5
:10226000F09002B57402F0A374BCF022900123E058
:10227000FEA3E0FFC390010CE09FFF90010BE09EE6
:10228000FE123146D3EF940AEE6480948040209091
:102290000103120B2B00000000E4900107F0A3F0F3
:1022A000900123E0FFA3E090010BCFF0A3EFF090AB
:1022B0000103122AC1900123122A7B900103120B01
:1022C0001F900108E004F07006900107E004F09010
:1022D0000107E0FEA3E0FFD3940AEE94004031CB67
:1022E000EFCBCAEECAE4F9F8900103122AB5120A3C
:1022F00040900109EEF0A3EFF0A3EEF0A3EFF09011
:102300000103120B2B00000000E4900107F0A3F082
:10231000D390010AE09400900109E09400403090CD
:10232000010DE0FEA3E0FF7C007D03120B5CC8EC16
:10233000C8C9EDC9CAEECACBEFCB900109122A7BFE
:10234000E47B04FAF9F8120A4090010DEE800B903C
:102350000123E0FFA3E090010DCFF0A3EFF0229066
:1023600002E6EEF0A3EFF0E4FFFEFDFCAB5AAA5943
:10237000A958A857C3120AE89002E67010E0FEA31D
:10238000E0FFE48F5A8E59F558F557802FE0FEA3F1
:10239000E0FFEF255AFFEE3559FEE43558FDE435F0
:1023A00057FCEF2401FFE43EFEE43DFDE43CFC78F5
:1023B00001120AF98F5A8E598D588C57055BE55BCF
:1023C000D3940A4011855955855A56E4F55AF55962
:1023D000F558F557F55BD3E5569400E55594004064
:1023E000569002E7E09556FF9002E6E09555FE1202
:1023F0003146C3EF940AEE64809480AE55AF5650D8
:102400000F7D031213879002E61213417802801C9D
:10241000CBEFCBCAEECA9002E6E0FEA3E0FFEB2FC3
:10242000FFEA3EFEE433FDE433FC7801120AF99042
:1024300002E6EEF0A3EFF09002E6E0FEA3E0FF225A
:102440009002E0EFF0122D197402F0A3E4F0902E48
:102450002204F0A3E04401F0E49002E1F0A3F09044
:1024600002E1E0FEA3E0FFC3940AEE940040030201
:10247000251DEF9408EE940040067E007F01801930
:102480009002E1A3E004FFE47E02C8EFC8088006E2
:10249000CEA2E713CE13D8F8FF9002E3EEF0A3EF3D
:1024A000F0902E207409F0902E20E030E2F9900296
:1024B000E0E0FF75F002A42400122D1FE0FCA3E071
:1024C000FD902E20E4F0D3ED94FEEC94074017909D
:1024D00002E3E0FCA3E0FD75F002EF122D1CEC8D91
:1024E000F012096C80269002E0E0122D19C083C022
:1024F00082E0FEA3E0FF9002E3E0FCA3E0FDC3EF77
:102500009DFFEE9CD082D083F0A3EFF09002E2E03A
:1025100004F070069002E1E004F002245F7F0022E4
:102520007F8D7A0179AD1213A59001AF7401F0A3EC
:102530007400F074441213C07400F074461213C097
:102540007400F0A374481213C17400F0A374321223
:1025500013C17400F0A3742E1213C17400F0A3749D
:102560002CF09001CA7401F0A37400F0A37426F05B
:1025700090022E7401F0A37400F0A37484F0900113
:10258000CD7401F0A37400F0A3741CF09001C17429
:1025900001F0A37400F0A374361213C17400F0A309
:1025A000742A1213C17400F0A37438F012141A9034
:1025B00001C112132BF9E475F0C81209E59001C4AA
:1025C00012132BF9E475F0641209E5121519900144
:1025D000C712132BF9E475F0960209E59002DCEEC0
:1025E000F0A3EF12143C9002DCE07002A3E0600361
:1025F00012286BE4900215F0A3F07F0E122F1A122E
:1026000013EDA37402F0A374BCF09001ADE0F9A344
:10261000E0FFA312132B1213999001B212132B1285
:10262000144C9001B812132B1215239001BB1213F6
:102630002B12144C9001BE12132B12152312152CC1
:10264000E49001D0F09001D2120B2B00000000901A
:1026500001D61213E4F09001AD121323121399E482
:102660009001D1F09002C11215339002BDF0A3F099
:10267000FE7F12FD7B017A02791C120B899001CA40
:1026800012131390022212145390022A12141D22C4
:10269000D39002B2E094009002B1E09400400302B3
:1026A0002739300025900236E07002A3E090023D09
:1026B00060051214D18007741BF0A37458F09001C8
:1026C000A37417F0A37470F0800612141A1215196F
:1026D0009001B2121313FFAEF01214D940139001FF
:1026E000D0E0601ED39001A4E09F9001A3E09E5033
:1026F000119002B9E07002A3E070279001D004F0BD
:10270000802090001BE0B420051215118006900275
:10271000B912141DE49001D0F09002B7F0A3F012AA
:10272000152C9001D0E06011900028E090003AB4A0
:1027300010047410F0227420F02212137AE4900135
:10274000A9F0A3F090023BF0A3F0FF1230E81215BD
:102750003D902E20E030E2F9902E02E0FCA3E0FD57
:102760009001AAE02DF09001A91214E5B403DCE475
:10277000FF122DC812153D902E20E030E2F9902E68
:102780000EE0FCA3E0FD90023CE02DF090023B1235
:1027900014E5B403DC9001A9121544CEC313CE1383
:1027A000D8F9FF9001A8E02FF09001A7E03EF0904B
:1027B000023B121544CEC313CE13D8F9FF9001ACDF
:1027C000E02FF09001ABE03EF0902E23E4F0902E4D
:1027D00020F043890A1213805380F522787FE4F6B3
:1027E000D8FD758173022826020000022EB2E49300
:1027F000A3F8E493A34003F68001F208DFF48029F4
:10280000E493A3F85407240CC8C333C4540F4420E2
:10281000C8834004F456800146F6DFE4800B0102D1
:102820000408102040809028F9E47E019360BCA346
:10283000FF543F30E509541FFEE493A360010ECF1F
:1028400054C025E060A840B8E493A3FAE493A3F849
:10285000E493A3C8C582C8CAC583CAF0A3C8C58209
:10286000C8CAC583CADFE9DEE780BE7F01123066D1
:10287000902E12E0FEA3E02408FFEE34FD9002DE6D
:10288000F0A3EFF012137A122EE61230E8902E2207
:102890007401F012153D902E20E030E2F9902E02E6
:1028A000121544CEC313CE13D8F9FF7C007D0C1251
:1028B00009248E268F277D0E120B5CEF24E0F56B2A
:1028C000EE34B1F56AED34FFF569EC34FFF568904C
:1028D0002E20E4F043890A1213805380F5902E23B2
:1028E000F09001A6E0900021F0121403F99001CDC0
:1028F00012132BC98FF00209E5C10B4102D200412E
:1029000002D3004102D9004102CF004102D700C1E9
:1029100001C1034102D8004102CE00C102C100C181
:10292000044102EE004102EF004202E90000C1054D
:10293000C107C1064102EB104101A2004101A610EE
:10294000C10AC10941023A000226000004680000E1
:1029500000000167004101A5104101100004700052
:1029600000000041010F00410193004201230000DB
:102970004401940000000042010D00004101980054
:10298000009002CEE014601B1460432402705D903E
:1029900002D8E0B4010A9002CE1229EDD204D2008E
:1029A000C202227F02122E44EF60077F02123152D0
:1029B000C2049002D8E070349002CE7402F0D202C9
:1029C000C204C2007F031231527F0302303B7F03F7
:1029D000122E44EF60167F031231529002D8E0901D
:1029E00002CE7003F080031229EDC202227401F0BE
:1029F0007F021231527F0212303B22758A10E4F5B9
:102A0000B275B6FF75B7FF75B2A243B20112313984
:102A10009001987401F0E5A830E2030080F890017D
:102A20000FE0FFE4FCFDFE122AAB122AB578081273
:102A30000B0C122AAB122AC1900193E0FFEB4FFF5F
:102A4000EAFEE9FDE8FCA3122AAEA3A3E0FFA3E09F
:102A5000900123CFF0A3EFF0758A50538AEF538B88
:102A6000EF53A8FBE4F5B21230CE02226CCBEFCBD1
:102A700074992BF582E43401F58322E0FEA3E0FF94
:102A8000E4FCFDEB2FFFEA3EFEED39FDEC38FC22C5
:102A9000FEEB25E02411F582E43401F58322EB25D9
:102AA000E024A0F582E43430F58322900194120BE7
:102AB0001F90019422E0FCA3E0FDA3E0FEA3E0FF51
:102AC00022E0F8A3E0F9A3E0FAA3E0FB229002DA07
:102AD0007408F0A3E4F0A3743FF0A374DFF0E4FD06
:102AE000FCF9758A10538AEF009002DAE0FEA3E049
:102AF0002DF582EE3CF583E493FF69F90DBD0001ED
:102B00000CBC37E5BDDFE29002DC12310EE49369C4
:102B10009002EC700912310EA37408F08006123195
:102B20000EA3E4F0758A50538AEF00222009062094
:102B30000203300409E4FFFE1225DCC209229002E0
:102B4000BFE07002A3E0600512147D70372000031F
:102B5000122D907F01122F1A121A339002DAEEF022
:102B6000A3EFF07B017A0279DA122C889002DA1254
:102B7000143312132B121399120C0A1226901217E7
:102B8000ED122179122D5522122D3AF5828E83A352
:102B9000E0B4AA03122ACD122D3AFF122D31E0B46F
:102BA0001008EF122D31E4F0D209122D3AFF241B48
:102BB000122D33E0700DEF241C122D33E0B41003FE
:102BC000122C37122D3A2413122D33E0FFB41006C5
:102BD0009002D87401F0EFB42005E49002D8F022FE
:102BE0009002B0E024FE60131460231460272403D5
:102BF00070449002B07402F01208037F017E00124C
:102C000025DC9002B07403F0E49002CFF022900231
:102C1000B07404F022122981122CD1122981900261
:102C200009E07004A3E06401700C900209F0A3F0C5
:102C30009002B07402F022758A10538AEF00122DB0
:102C4000E4E4F5F275F30875EEFF75EF3F75EA8180
:102C5000F5F675EB0700E5EC30E7FBE4F5EC9002E8
:102C6000ECE0FEA3E0FF241BF582E43EF583E5F3F0
:102C7000F0EF241CF582E43EF583E5F2F075EB30CD
:102C8000758A50538AEF00229002DCEBF0A3EAF041
:102C9000A3E9F09002B3E07002A3E070339001D199
:102CA000E0602DE49001D11213EC9002DF7401F08A
:102CB0007F01122F1A121A339002DC12132B1214F6
:102CC0005B9002DFE004F0E0C3940E40E3121511C4
:102CD0002212147D702990023AE070031213ED90D5
:102CE000023A7401F0900029E0B42008122B2C1253
:102CF0000F898003122FE39002C37401F08017E460
:102D000090023AF0900029E0B42003122B2C90029C
:102D1000C3E06002E4F00230CE75F002A42410F5A6
:102D200082E5F0342EF58322F582E43CF583EFF062
:102D300022241AF582E43EF583229002ECE0FEA301
:102D4000E022A3F0A37401F0A32274662FF582E4BD
:102D50003400F5832290003AE0FC9001A5E06C601D
:102D60002E90003AE0FE9001A5F090000BE090025A
:102D7000D7F0540FF0EEB42005E04420800AECB404
:102D8000100B9002D7E04410F090000BF0C28A22A2
:102D9000300634C206902E12E0FFA3E09002DCCF92
:102DA000F0A3EFF0E4FF123066121403FE9001CDA1
:102DB00012132B12145B9002DCE0FFA3E0902E12A2
:102DC000CFF0A3EF1213EC22902E217411F0902E6D
:102DD0002404F0902E277405F0902E237480F022A6
:102DE0000804AB6774AA7583F5758255A57455758B
:102DF00083FA7582AAA574A57583F5758255A522F7
:102E00000191020107120AB00BB60CFF090008FF7E
:102E10000D770E050F040401111212081307141088
:102E200010100111020607100A100B800CFF090296
:102E300008FF0DF40E040F04040111101204130313
:102E400014201020122A6DE0602FE573FFE5721246
:102E50002A90E0FCA3E0FDD39FEC9E501CC3EF9DA5
:102E6000FFEE9CFE122A9EC37401939FE4939E4042
:102E700008122A70E4F07F01227F00220000000087
:102E8000FFFFFFFF0000FFFFFFFFFFFFFFFFFF004F
:102E9000FF000000FFFF000000FFFFFFFFFFFFFF3C
:102EA00000000000FFFFFFFFFFFFFFFFFFFF00002C
:102EB000000053A87F122FB312312C1230101231A0
:102EC0001743A8801229FB9000FFE0600B9002B02E
:102ED0007401F0E49000FFF01230B2122B88122B34
:102EE000E01229FB80E1902E23E4F0FF74542FF5CB
:102EF00082E43400F583E0FE75F002EFA42400F5CF
:102F000082E5F0342EF583E4932420F582E4342E18
:102F1000F583EEF00FEFB411D3229002E0EFF01240
:102F20002EE6E49002E1F09002E0E0FFA3E0C39F10
:102F3000500B1215839002E1E004F080EA902E20FD
:102F4000E4F0121F359001ADEEF0A3EFF022E4FEA5
:102F5000E4FFEF75F003A42425F582E43401F58342
:102F6000E5822EF582E43583F583E4F00FEFB40AB1
:102F7000E10EEEB403DA7F09900199E4F0A3DFFCDF
:102F800022C0E0C083C082900198E0600DE4F0535D
:102F90008B7F758B11438B088012538B7F53A8FB5B
:102FA000E5B590010FF0E5B4900193F0D082D083A5
:102FB000D0E032758A50538AEFE4F58F90000274A6
:102FC00011F09000017422F09000037433F0E4F5E6
:102FD000AB75AC0F7589FF75913FF595F592D28A67
:102FE000D20C22E4F5B2F5BA758D20438D20538DB5
:102FF0007F53AAF7F58BE5DB20E211200B0EE4F5F9
:103000008A758703000000758A50D209758B1122DA
:103010009002ECE0FFA3E09002F0CFF0A3EFF0E429
:10302000F5DA75DA4043DA2075D74075DA5875D984
:103030000143A80275B80475F80422122A6DE060F5
:10304000037F0122122A707401F0122A9EE493FE7B
:10305000740193FFEF2573FFEE3572122A90EEF0A4
:10306000A3EFF07F0022CDEFCD12137A122EE6ED02
:103070006008122DC87F071224401230E87F011229
:10308000244043890A1213805380F52201F400285A
:10309000002801F4009603E801F403E817700064C7
:1030A00003E8003202580258012C01F403E827100B
:1030B00000C8E4FF3005169002ECE0FCA3E0F582C6
:1030C0008C83E0FE54F0FFEE540FF0C20522E5B20F
:1030D00030E005E5A820E40F75B28E75B6F9E4F589
:1030E000B743B20143A81022902E217491F0902E84
:1030F000247401F0902E277412F0902E237402F0A5
:1031000022A3E0FCA3E02FF582E43CF58322E0FE5D
:10311000A3E0F5828E83227E007F0A7D007B017A08
:10312000017903120B89120816022F4E121DE112AB
:1031300025209002B07401F022538B7F758B1043D1
:103140008B0843A80422EE30E707C3E49FFFE49E08
:10315000FE2274992F122A73E4F02200000000006E
:10316000000000000000000000000000000000005F
:10317000000000000000000000000000000000004F
:10318000000000000000000000000000000000003F
:10319000000000000000000000000000000000002F
:103FD000000000000000000000000000000000B130
:103FE00000000000000000000000000000000000D1
:103FF00000000000000000000000000000000000C1
:00000001FF
