:10000000544649530001000040670200F584999668
:1000100009300124170914184E3841300930020004
:10002000170914184E384130093001041709141407
:100030004E384130030000000000000000000000C6
:1000400054464353002000007C4B02000000000097
:1000500000000210012100002521000041220000C3
:10006000292100002B2100002D2100003D2100004E
:100070003D2100003D2100003D2100002F21000016
:10008000312100003D21000033210000DD58000037
:10009000C3590000372100003D21000035B9001090
:1000A00037210000993D00009F3D00003D210000E8
:1000B0003D210000135500005D4C0000A53D0000EF
:1000C00085520000372100003D2100003D21000045
:1000D0000000000000000000000000000000000020
:1000E0000000000000000000000000000000000010
:1000F0000000000000000000000000000000000000
:1001000000000000000000000000000000000000EF
:1001100000000000000000000000000000000000DF
:1001200000000000000000000000000000000000CF
:1001300000000000000000000000000000000000BF
:1001400000000000000000000000000000000000AF
:1001500000F003F800F020F8FEE70D480168890878
:100160008900002001C101C101C101C17047000027
:10017000C4EE0010FEE7FEE7FEE7FEE7FEE7FEE75F
:10018000FEE7FEE7FEE703480047FEE7FEE7000064
:10019000202100003D21000000F002F800F068F886
:1001A0000AA090E8000C82448344AAF10107DA45D2
:1001B00001D100F05DF8AFF2090EBAE80F0013F0BC
:1001C000010F18BFFB1A43F001031847185A01002A
:1001D000585A01000A444FF0000C10F8013B13F08C
:1001E000070408BF10F8014B1D1108BF10F8015B90
:1001F000641E05D010F8016B641E01F8016BF9D183
:1002000013F0080F1EBF10F8014BAD1C0C1B09D1D9
:100210006D1E58BF01F801CBFAD505E014F8016B4B
:1002200001F8016B6D1EF9D59142D6D370470000DD
:10023000103A24BF78C878C1FAD8520724BF30C812
:1002400030C144BF04680C607047000000230024E4
:1002500000250026103A28BF78C1FBD8520728BFD6
:1002600030C148BF0B6070471FB51FBD10B510BD32
:10027000DFF80CD0FFF7F8FF05F0E8F914F0B8FC50
:100280000000021003B4FFF7F1FF03BC14F0B8FC48
:100290001EF0040F0CBFEFF30880EFF309800AF0A3
:1002A000E7BC000008B5002103200B460A46009178
:1002B00012F0BCFD08BD38B5F74D00242C816C81CF
:1002C000AC8112F084FDE861FF20A871F348234659
:1002D00022460460446004720120E8716C612C7055
:1002E00003202146009412F0A1FD012038BD38B54D
:1002F000E94D0228AC7922460DD0052810D0A24243
:1003000008BF38BD0020034602462146009012F087
:100310008DFDAC7138BD022914BF01240224EEE723
:10032000022914BF64246524E9E738B513460A4658
:100330004FF0010C002401466046009412F076FD57
:1003400038BDD549012048707047D3484078704780
:10035000D1490020487070472DE9F041044601273B
:10036000002503F00700CC4E8846012804BF00207A
:10037000B08146D0022844D1B08904280BD200288D
:1003800018BFB06902D112F030FEB06110F8011B45
:100390002170B0612EE0062808D212F028FEB18943
:1003A000C1F10501C900C840207023E0082808D227
:1003B00012F021FEB189C1F10701C900C8402070C7
:1003C00018E00C2808D212F002FDB189C1F10B012E
:1003D000C900C84020700DE00E2808D212F0F9FCC8
:1003E000B189C1F10D01C900C840207002E0FF20B1
:1003F00020700027B089401C80B2B0810E2828BF31
:10040000012588F800503846BDE8F08130B403F08B
:1004100007000024DFF880C201280BD06046BCF83A
:100420000C300089022B0CD2120242EA1020ACF8E8
:10043000080010E0ACF80840ACF80A40ACF80C40FA
:100440000CE01844851EB5F5806F04DADCF81C500A
:10045000284400F8022C581CACF80C000C7030BC7E
:1004600000207047F0B40746002003F007048A4DCF
:100470000646012C04BFAE812E6125D0DFF818C2DC
:10048000022CBCF80AC003D013F0070F0DD01BE0FC
:10049000AA890CEB0203B3F5806F15D2E869C05C42
:1004A0003870501CA88101200EE0120242EA1C2282
:1004B0006A812B69012B05D1B2F5806F24BF40F210
:1004C000FF326A815A1C2A610E70F0BC704738B541
:1004D00003F0070000240D4601280AD16E4821468A
:1004E0000B4684810481448102200A46009412F064
:1004F0009DFC2C70002038BD30B50C0068A183B085
:1005000009684FF00002029108BF03250AD0217844
:1005100002AB5D5C002D18BF022D41D0012D7ED0B5
:10052000032D0DD10F210170032141704280828083
:10053000C280028142818281817B21F0010181732D
:10054000002D1EBF012D03B030BD05F08DF805282C
:100550001CBF03B030BD0AF022FC042804BF03B066
:1005600030BD002D0CBFC020C1208DF80000607888
:100570008DF8010060880123000A8DF80200A07840
:100580008DF80300A0880622000A8DF80400207967
:100590008DF80500694607200DF008FE03B030BD58
:1005A000617800EB011202F8101C617800EB011178
:1005B00001F80F5C6278618800EB021222F80E1CD1
:1005C0006278A18800EB021222F80C1C6278A179F3
:1005D00000EB021222F80A1C6278217A00EB021268
:1005E00022F8081C6278617A00EB021222F8061CDD
:1005F0006278217B00EB021222F8041CE1790529C4
:10060000617800EB011010F8021C0EBF41F00101EF
:1006100021F0010100F8021C92D132E0FFE761787D
:1006200000EB011303F8101C6378012100EB0313A6
:1006300003F80F1C6378618800EB031323F80E1C8A
:100640006378A18800EB031323F80C1C617800EB9E
:10065000011121F80A2C617800EB011121F8082C16
:10066000617800EB011121F8062C617800EB011193
:1006700021F8042C617800EB011010F8021C21F025
:10068000010100F8021C5BE70349002088707047F5
:10069000014880787047000000040110F407011041
:1006A000030002016449012088707047634A1154B5
:1006B0007047614800B5C06983B04FF000014078D1
:1006C00010F0020F0AD000918DF8041001230522CA
:1006D000694600200DF0A1FD03B000BD10F0040F2D
:1006E00012D001208DF800008DF801108DF8021055
:1006F0008DF803108DF8041003460522694600208A
:100700000DF08BFD03B000BD03B001230022632177
:1007100007205DF804EB0DF019BD026812F0C00F60
:1007200010D0454812F0400F04BF0021017004D0E2
:10073000012101704169491C41610123002106200A
:100740000DF004BD01230022632107200DF0FEBC43
:1007500070473949002818BF0120C87170473648D2
:10076000C07970473448C0787047002818BF01200E
:100770003149C87070473049087170472E48007978
:10078000002818BF0120704701460020072904BF38
:100790002B487047082908BF2A48704710B44FF00B
:1007A000000C072808BFDFF898C003D0082808BF4E
:1007B000DFF890C04FF00000ABB1002A9CBF10BC26
:1007C00070473CF91030141A01EB440434F9024C20
:1007D000234403EBD3735B102CF81030401C82428F
:1007E000EFD810BC7047002A9CBF10BC7047131A8A
:1007F00001EB430333F8023C2CF81030401C8242DA
:10080000F5D810BC70470C480078002818BF0120AC
:100810007047094840697047074948617047002898
:1008200018BF0120044948717047034840790028E7
:1008300018BF01207047000000040110F4070110E8
:100840003E080110FE0701107047FE48D0F8C000B6
:1008500000F00100704770B5FA4C05000AD001F0B5
:1008600041FA38B9D4F8C00010F0010F1CBF0020C5
:10087000A06005D10120A060002D08BF002000D09D
:1008800001202062002D18BF70BDD4F8D410D4F818
:10089000D00011F0010F18BF11F0600F24D0D4F870
:1008A000B02222F48032C4F8B02241F0610242F05A
:1008B000FF22C4F8D42040F0610242F0FF22C4F8C5
:1008C000D02021F06102C4F8D42020F06102C4F8E5
:1008D000D020D4F8B02242F48032C4F8B022C4F858
:1008E000D410C4F8D00070BD10F0010F18BF10F084
:1008F000600FD4D170BDD348006A002818BF012012
:100900007047C00000F1804000F5A040416370478F
:10091000C00000F1804000F5A040006B00F4807042
:1009200070471021C00000F1804000F5A0404163F5
:100930007047C449D1F8402160F30D22C1F840212D
:100940007047C048D0F84001C0F305207047020747
:10095000520DC0F3031002EB401000F1804000F58F
:10096000A0400029D0F8401114BF41F0010121F04E
:100970000101C0F8401170470107490DC0F3031091
:1009800001EB401000F1804000F5A040D0F840019C
:1009900000F001007047AB4900230B6202680A6057
:1009A00042684A6082688A60C268CA60426A0A64B1
:1009B000826A4A6402698A614269CA61426B0A6654
:1009C000826B0A67C26B4A67026C8A67426CC1F825
:1009D0008020826CC1F88420C26CC1F88820026D2E
:1009E000C1F88C20026EC1F89C20426EC1F8A02094
:1009F000826EC1F8A420C26EC1F8A820C26FC1F8EF
:100A0000C020D0F88020C1F8C420D0F88420C1F8DC
:100A1000C820D0F88820C1F8CC20D0F88C20C1F8AC
:100A2000D020D0F89C20C1F8E020D0F8A420C1F854
:100A3000F020D0F8A820C1F8F420D0F8AC20C1F8FC
:100A4000F820D0F8B020C1F8FC2021224A63CA6304
:100A5000C2694A62C26A8A64026BCA64026FC1F8E0
:100A6000AC20D0F89020C1F8D420D0F89420C1F860
:100A7000D820D0F8A020C1F8E420426FC1F8B020FF
:100A8000826FC1F8B420D0F8F821C1F88022D0F8E4
:100A9000FC21C1F88422D0F80022C1F88822D0F8C5
:100AA0000422C1F88C22D0F80822C1F89022D0F894
:100AB0000C22C1F89422D0F81022C1F89822D0F864
:100AC0001422C1F89C22D0F8182222F48032C1F8F6
:100AD000B022D0F8B420C1F80021D0F8B820C1F875
:100AE0000421D0F8BC20C1F80821D0F8C020C1F8FA
:100AF0000C21D0F8C420C1F81021D0F8C820C1F8CA
:100B00001421D0F8CC20C1F81821D0F8D020C1F899
:100B10001C21D0F8D420C1F82021D0F8D820C1F869
:100B20002421D0F8DC20C1F83021D0F8E020C1F831
:100B30004021D0F8E420C1F84421D0F8E820C1F8E1
:100B40004821D0F8F020C1F85021D0F8F420C1F8A5
:100B50005421D0F8F820C1F85821D0F8FC20C1F871
:100B60005C21D0F8EC20C1F84C21D0F82021C1F84C
:100B70008021D0F82421C1F88421D0F82821C1F89F
:100B80008821D0F82C21C1F88C21D0F83021C1F86F
:100B90009021D0F83421C1F89421D0F83821C1F83F
:100BA0009821D0F83C21C1F89C21D0F84021C1F80F
:100BB000A021D0F84421C1F8A421D0F84821C1F8DF
:100BC000B021D0F84C21C1F8C021D0F85021C1F893
:100BD000C421D0F85421C1F8C821D0F85C21C1F853
:100BE000D021D0F86021C1F8D421D0F86421C1F817
:100BF000D821D0F86821C1F8DC21D0F86C21C1F8E7
:100C0000E021D0F87021C1F8E421D0F87421C1F8B6
:100C1000E821D0F87C21C1F8F021D0F88021C1F87A
:100C2000F421D0F88421C1F8F821D0F88821C1F846
:100C3000FC21D0F85821C1F8CC21D0F87821C1F896
:100C4000EC2101E000500040D0F88C21C1F80022D6
:100C5000D0F89021C1F80422D0F89421C1F80822DC
:100C6000D0F89821C1F80C22D0F89C21C1F81022AC
:100C7000D0F8A021C1F81422D0F8A421C1F818227C
:100C8000D0F8A821C1F81C22D0F8AC21C1F820224C
:100C9000D0F8B021C1F82422D0F8B421C1F8302214
:100CA000D0F8B821C1F84022D0F8BC21C1F84422C4
:100CB000D0F8C021C1F84822D0F8C821C1F850228C
:100CC000D0F8CC21C1F85422D0F8D021C1F8582254
:100CD000D0F8D421C1F85C22D0F8D821C1F8602224
:100CE000D0F8DC21C1F86422D0F8E021C1F86822F4
:100CF000D0F8E821C1F87022D0F8EC21C1F87422B4
:100D0000D0F8F021C1F87822D0F8F421C1F87C2283
:100D1000D0F8C421C1F84C22D0F8E421C1F86C22EB
:100D2000FE4A126832F0FF0C05D1D1F890C062F390
:100D3000030CC1F890C0FA4A5370C36F13F0010F4F
:100D40001CBF01235370D1F8C03023F00103C1F858
:100D5000C030D0F88C3013F0010F03D0537843F03B
:100D600002035370D1F8D03023F00103C1F8D03022
:100D7000D0F8900010F0010F03D0507840F004003C
:100D80005070D1F8D40020F00100C1F8D4007047B1
:100D9000E34800787047E24880787047E049C870BF
:100DA0007047DF48C0787047DE4951F8C42F60F3C0
:100DB00009020A607047DB48D0F8C400C0F309009C
:100DC0007047D74948607047D648C06870472DE9DA
:100DD000F047DFF84C93054615F4003F99F8010001
:100DE00099F8031000EA010418BF24F0010415F477
:100DF000802F18BF24F0020415F4002F18BF24F030
:100E0000040415F4801F18BF24F00804DFF81483CD
:100E1000D8F8B00220F48030C8F8B00214F00F0FF8
:100E200059D0D9F80460D8F8B802002740F0010082
:100E3000C8F8B802D8F8B80220F00100C8F8B80223
:100E4000D8F8B00240F48030C8F8B0024FF0630A1E
:100E50000DE002F0D4FD5046D8F8B81211F0010FA1
:100E600001D0012703E0011EA0F10100F4DC301ED7
:100E7000A6F1010601DD002FEBD067B3D8F8C00062
:100E800014F0010F0CBF20F0010040F00100C8F881
:100E9000C000D8F8D00014F0020F14BF40F00100D9
:100EA00020F00100C8F8D000D8F8D40014F0040FE6
:100EB00014BF40F0010020F00100C8F8D40089F808
:100EC0000240012089F80000D8F8B00240F48030D8
:100ED000C8F8B00233E0D8F8C00020F00100C8F82C
:100EE000C000D8F8D00020F00100C8F8D000D8F831
:100EF000D40020F00100C8F8D400002089F80200D6
:100F0000ACB1022089F80000D8F8B00240F480307B
:100F1000C8F8B002D8F8B80240F00100C8F8B8022A
:100F2000D8F8B80220F00100C8F8B80207E0D8F8F5
:100F3000B01221F48031C8F8B01289F80000D8F856
:100F4000400115F0020F20F00D0018BF40F0010025
:100F500015F0080F18BF40F0040015F0040F18BF7B
:100F600040F00800C8F8400115F0010F21D001F051
:100F7000A9F8044601F0A9F80146D8F80C000028A9
:100F80000EBF2046084621460028D8F8C00114BFED
:100F900040F0010020F00100C8F8C001D8F8E001DD
:100FA000002914BF40F0010020F00100C8F8E00162
:100FB0000BE0D8F8C00120F00100C8F8C001D8F853
:100FC000E00120F00100C8F8E00115F0200F18BF83
:100FD000002417D0204601F07FF800284FEA441083
:100FE00000F1804000F5A040D0F8401214BF41F05D
:100FF000010121F00101C0F84012641C022CE9D368
:10100000BDE8F087D8F8400220F00100C8F840029F
:10101000D8F8600220F00100C8F86002BDE8F0874F
:101020002DE9F0030246002011074C0DC2F3031115
:1010300004EB411101F1804101F5A041D1F84011CB
:1010400011F0010F11D142F01001C1F3031104EBB3
:10105000411101F1804101F5A041D1F8401111F099
:10106000010F04BFBDE8F0037047D60106F18041CF
:1010700001F5A041D1F81C31C3F30809294BDB6904
:10108000D1F8001103F008071FFA81F8002142EAA5
:101090000113C3F3031304EB431303F1804303F57C
:1010A000A043D3F8403113F0010F18D006EB4113E1
:1010B00003F1804303F5A043D3F844C1CCF3080502
:1010C00017F1000C1CBFD3F844C1CCF3023CD3F899
:1010D000403105FA0CFCC3F3054360441844491C35
:1010E0000229D4D300FB08F0C9EB0911BDE8F003D5
:1010F00000EB4100704710B50120FFF791FF044657
:101100000220FFF78DFF044400F0E7FB20444FF47A
:101110007A71484347F2305106E00000E0FE0300D8
:101120002004011000500040B0FBF1F010BD2DE98B
:10113000F041FE4E0546306810F01F0408BF012440
:101140000120FFF76DFF07460220FFF769FF074404
:1011500000F0C3FB3918F64F002D18BF00294DD001
:10116000D6F8C000002210F0010F34D07820B0EB88
:10117000151F08D9D6F8CC0020F00F0040F0010070
:10118000C6F8CC002CE0D6F8C400EA4BC0F3090046
:101190006043A0EB001003EB4003E748A0FB05C051
:1011A0004FEA502CB3FBF1F0102828BF0F208445E4
:1011B00098BF6046002808BF012005D0012884BFE1
:1011C00000FB1132B2FBF0F2D6F8CC3060F303032F
:1011D000C6F8CC3004E0B7FBF5F0884288BF421A6D
:1011E000C4EB04104000B2FBF0F0B0F5005F28BF84
:1011F00041F6FF70726860F30C0272607068C0F3B1
:101200000C006043C0EB001001EB4000B7FBF0F0B6
:10121000BDE8F081C548D0F8C01011F0010F07D02B
:10122000D0F8CC0000F00F00C0EB00108001704738
:1012300070B50168406801F01F05C0F30C0601207D
:10124000FFF7EEFE04460220FFF7EAFE044400F03A
:1012500044FB06FB05F1C1EB011104EB410108441D
:10126000B349B1FBF0F070BDB048D0F8CC0000F04D
:101270000F007047AD494A684B68C2F30C0260F337
:101280000C034B6010467047A8484068C0F30C0040
:101290007047C00100F1804000F5A040D0F8000187
:1012A0004EF6602180B2B1FBF0F0401C4008704760
:1012B00030B44EF6602331B1B3FBF1F1491C4A085A
:1012C000B2F5804F01D343F6FF72B3FBF2F1491C34
:1012D0004D08C101530801F1804101F5A0410028EA
:1012E00007BF981FA3F10C0CD1F8040180B218BFFE
:1012F000A2F1060C2CF0010CD1F8004162F30F04AE
:10130000C1F80041D1F8002163F31F42C1F8002168
:10131000D1F8042160F30F02C1F80421D1F81001C3
:101320006CF30F00C1F81001284630BC7047C001B3
:1013300000F1804000F5A040D0F80001000C70479B
:10134000C20102F1804202F5A042D2F8003161F3FD
:101350001F43C2F80031002818BF70478A1F901F32
:1013600020F001017148D0F8043162F30F03C0F896
:101370000431D0F8102161F30F02C0F8102170473A
:101380000107490DC0F3031001EB401000F180404C
:1013900000F5A040D0F84401C0F3080070470207F0
:1013A000520DC0F30310654B02EB401000F180407A
:1013B00000F5A0409B58D0F84421CB1A61F30802F5
:1013C000C0F84421D0F844119B1E63F31841C0F8C3
:1013D000441170475549C969594A11F0100F4FEA35
:1013E00000714FEA5151C0F3031001EB401000F1BE
:1013F000804000F5A0405258D0F84401D2B2C0F36A
:10140000080008BF0022801A0004000C08BF012059
:1014100070470309DB0103EB810101F1405101F544
:10142000C0410007C00E0B6802FA00F018430860C4
:1014300070470209D20102EB810101F1405101F52F
:10144000C04100070968C00E21FA00F000F0030057
:1014500070470207520DC0F3031002EB401000F179
:10146000804000F5A040C0F84C1170470107490DBD
:10147000C0F3031001EB401000F1804000F5A040E4
:10148000D0F84C017047294A0021D26912F0080FA8
:101490000DD00107490DC0F3031001EB401000F11E
:1014A000804000F5A040D0F84401C0F30231084666
:1014B00070471E4AD36943F00803D3610207520DF7
:1014C000C0F3031002EB401000F1804000F5A04093
:1014D000D0F8442161F30E32C0F844217047134A1A
:1014E0000021D26912F0080F0DD00107490DC0F399
:1014F000031001EB401000F1804000F5A040D0F84F
:101500004801C0F30241084670470207520DC0F37C
:10151000031002EB401000F1804000F5A040D0F82D
:10152000482161F31242C0F8482170470050004042
:1015300000389C1C1B810700898888881451004052
:1015400020510040042988BF704710B40023FD4C8F
:10155000E26912F0080F4FEA00724FEA5252C0F3EC
:10156000031002EB401000EB04021CBFD2F8440150
:10157000C0F302330020D4F81CC01CF0080F1CBFBD
:10158000D2F84801C0F30240C91A0844042803DD18
:10159000081A011D042003E00028BCBF01440020FC
:1015A0001944E36943F00803E361D2F8443161F37D
:1015B0000E33C2F84431D2F8481160F31241C2F838
:1015C000481110BC7047DF490028886914BF40F0FB
:1015D000080020F0080088617047DA488069C0F38D
:1015E000C00070470207520DC0F3031002EB401019
:1015F00000F1804000F5A040D0F8482161F30F02CF
:10160000C0F8482170470107490DC0F3031001EBF2
:10161000401000F1804000F5A040D0F8480180B2B1
:101620007047C84AD2F8CC10022903D110F0010F3C
:1016300018BF7047D2F8400110F0010F08BF704783
:10164000D2F84801D2F844110304C1F302311B0C53
:1016500014BF002970474FF6FF714840C2F8480197
:101660007047B84A0021D26912F0080F0DD0010767
:10167000490DC0F3031001EB401000F1804000F56C
:10168000A040D0F84801C0F300510846704701203F
:10169000704710B4022ADDF804C026BF921E52081B
:1016A0000022022B26BF9B1E5B080023A64CA4FB36
:1016B0000C4C4FEA1C144FEA007C4FEA5C5CC0F310
:1016C00003100CEB401000F1804000F5A040D0F872
:1016D00054C161F31B6C62F3134C63F30B2C64F382
:1016E000070CC0F854C110BC704770B40407640DF7
:1016F000C0F3031004EB401000F1804000F5A0405F
:10170000DDF80CC0D0F854010029C0F30366C0F323
:101710000345C0F30324C0B218BF0E6012B16900C4
:10172000891C116013B16100891C1960BCF1000FA4
:1017300004BF70BC704700EB80008000CCF8000054
:1017400070BC704770B491B000224FF480456C10AB
:10175000EC4601E0082A05D2531C03EB8303B5FBDA
:10176000F3F304E0D31F03EB8303B4FBF3F35B1A3F
:1017700048BF5B424CF82230521C102AEAD30026A4
:10178000009B01215CF821209A42BCBF13460E4603
:10179000491C1029F6D30107490DC0F3031001EBD2
:1017A000401000F1804101F5A041D1F85801D1F875
:1017B000582100F00F0066F30302C1F858210828F1
:1017C00007D2401C00EB8000B5FBF0F011B070BCFC
:1017D0007047C01F00EB8000B4FBF0F011B070BC8C
:1017E00070470107490DC0F3031001EB401000F1F1
:1017F000804000F5A040D0F8580100F00F00082804
:1018000034BF401CC01F00EB800034BF4FF4804148
:101810004FF40051B1FBF0F0704710F00F0F08BF0C
:1018200070470007400D00F1804000F5A0400029FE
:10183000D0F824110CBF21F4803141F48031C0F87C
:1018400024117047002110F00F0F0BD00007400D3E
:1018500000F1804000F5A040D0F8240110F4803F52
:1018600018BF012108467047364AD2F8AC0011F083
:10187000010FD2F8AC10C0F3C00014BF41F0080152
:1018800021F00801C2F8AC1070472E4A50679167EA
:1018900070472C490028D1F8AC0014BF40F002007A
:1018A00020F00200C1F8AC00704726490028D1F8AA
:1018B000AC0014BF40F0010020F00100C1F8AC0002
:1018C00070472048D0F8DC0070471E49C1F8E0009E
:1018D00070471C48D0F89800704770B4194E00202B
:1018E000D6F8401111F0010F04BF70BC704711F021
:1018F000040FD6F81C3101F00805D6F800C1C3F377
:1019000008031FFA8CF4D6F844C1CCF3080C18BFB6
:10191000C1F30740F269C1F3052112F008021CBFB0
:10192000D6F84421C2F30232002D18BF491C0CFA2C
:1019300002F201FB0200604370BCC3EB031100EB39
:101940004100704700500040CDCCCCCCFEF7D3BF57
:1019500010B5FEF7D0FF012818BF10BD0020FEF71C
:101960007AFF21210020FEF7CCFF2121BDE81040A5
:101970000120FEF7C6BF10B5FEF766FFFEF7BBFFFE
:1019800001280AD10020FEF766FF21210020FEF782
:10199000B8FF21210120FEF7B4FF0121052001F04D
:1019A0006CFB0121052001F068FBFC490020087157
:1019B00010BD10B54FF4066001F0B5FBBDE8104056
:1019C0004FF4066001F0A0BBF44A0146107B0028EA
:1019D00018BF0120002918BF012111737047EF4A79
:1019E000516A506208467047EC490020C8728870FE
:1019F00048707047E9490020C87288704870704785
:101A00000007C00EE64A801E02EBC0104FF4807241
:101A100013F0FCB870B50646FEF793FFE14D04469F
:101A2000C6B1A2013146284613F0F0F805EB841048
:101A30000021016041608160C1600161416181619B
:101A4000C161016241628162C1620163416381637C
:101A5000C16370BD800100F140012846BDE87040BF
:101A600013F0D9B810B5CD4CE061FFF7B0F9FFF72E
:101A70008FF9A1696FF30F01A161A269C1B242EAB6
:101A80000121A161022818BF10BDA06940F001002A
:101A9000A06110BDC4488168C44A114381600168D7
:101AA000521C1143016000F0D4BD2DE9F047BE4A3D
:101AB0000D4606469368BD48184390601068BC49BF
:101AC0000843106000F0C5FD0024002D6FD00020F9
:101AD000FEF7C1FE286820B1FEF75DFF0020FEF78B
:101AE000BAFE3046FFF7BEFF0020FEF745FF002894
:101AF00052D0D5F80480FEF724FFDFF8A892012623
:101B00000746B8F1000F1ED0BA014146484613F00F
:101B10007DF809EB8710046044608460C460046150
:101B200044618461C461046244628462C462046387
:101B300044638463C4639F48E96859B14FF4807279
:101B400013F064F821E0800100F14001484613F0F1
:101B500062F8F0E7984F4FF4807113F05CF80020C2
:101B6000395600290EDB0A09D20102EB800202F18C
:101B7000405202F5C0420907C90E136806FA01F186
:101B800019431160401C2028EAD38C48696949B187
:101B90004FF4807213F03AF80120FEF7EDFE804E0C
:101BA00050B905E04FF4807113F035F8F4E719E00F
:101BB0001120FEF7E1FE30B1A96821B130464FF4A3
:101BC000807213F023F80220FEF7D6FE18B9122017
:101BD000FEF7D2FE30B1296921B179484FF4807205
:101BE00013F014F86D48C472847044704462017B31
:101BF000002101734FF4066001F095FABDE8F0474B
:101C00004FF4066001F080BA10B50020FEF723FE05
:101C100000F00CFD6148C078002808BF10BD624884
:101C2000016821F0030141F00D7141F08051016024
:101C3000816821F0020141F00D7141F08051816015
:101C400010BD4FF4066001F064BA10B54FF40660A1
:101C500001F05FFAFEF74FFE01280AD10020FEF7DF
:101C6000FAFD21210020FEF74CFE21210120FEF784
:101C700048FE5448D0F8B01221F48031C0F8B012B8
:101C80000020FEF7E8FD00F0D1FC4448C0780028B1
:101C900008BF10BD4448016821F0030141F00D71F7
:101CA00041F080510160816821F0020141F00D7125
:101CB00041F08051816010BD10B501F02FFA10F095
:101CC000600018BF012010BD3448C0697047334818
:101CD0008069704772B631498A6922EA00008861DA
:101CE00062B670472D480078002818BF0120704761
:101CF00070B5FEF700FE002818BF70BD0024274D08
:101D0000EC72AC706C7021212046FEF7FAFD2121A7
:101D10000120FEF7F6FD2C70BDE870400120FEF7B3
:101D20009ABD70B50446FEF7E6FD002818BF70BDE9
:101D300000211A4DE972A970697021210020FEF777
:101D4000E0FD21210120FEF7DCFD022C3CBF01203B
:101D5000FEF7E7FD012028702C62BDE87040FEF719
:101D60007ABD10B5FEF7C7FD002818BF10BD0020D2
:101D70000A4CE072A07060702121FEF7C2FD2121A3
:101D80000120FEF7BEFD0120FEF7CBFD01202070F3
:101D90002062BDE81040FEF75EBD0000280401107F
:101DA0004048003000400030008000400200341203
:101DB0000300341200600030800801100080003001
:101DC00040490030005000400020FEF744BDFF496C
:101DD0000020887048700120FEF73DBDFB498862F5
:101DE0007047FA48806A7047002000F068BB012005
:101DF00000F065BB10B5FFF764FD0446FFF765FD15
:101E0000F348044208BF10BDF048816941F0040165
:101E100081610E2101EAD43104F001020A43816993
:101E200062F31F418161EB48016841F020010160CC
:101E300010BD002818BF0120E449C8707047E6486B
:101E40007047E6487047E148C06A7047DF4841790B
:101E5000C279914214BF006B406B7047DB48406B06
:101E600070472DE9F00FDC4E4FF0000C88B006F102
:101E70004007E1464FF0FF3806F80C8007F80C9059
:101E80000CF1010CBCF1200FF6DB4FF0000C002828
:101E900007DD12F80C4006F80C400CF1010C60450F
:101EA000F7DC002422464FF0010A00280EDD16F967
:101EB00002C0BCF1000F06DBBCF1200F3CBF0AFAE8
:101EC0000CFC4CEA0404521C8242F0DB00229446D3
:101ED0006D460AFA02FB1BEA040F1ABF05F802C09E
:101EE0000CF1010C05F80280521C202AF1DB0022C3
:101EF000002810DD16F902C0BCF1000F08DBBCF1B0
:101F0000200F3ABF15F80CC007F802C007F802808E
:101F1000521C8242EEDBAD4C00220028C4F82C900B
:101F200008DD17F902C0944501D0E76202E0521CB7
:101F30008242F6DBAA4F0020A7F1600CA7F1200631
:101F40000CF8008006F8009007F80090401C20284C
:101F5000F6DB0020002905DD1A5C0CF80020401C8F
:101F60008142F9DC0022104600290BDD1CF900300B
:101F7000002B04DB202B3CBF0AFA03F31A43401C5E
:101F80008842F3DB002003460AFA00FB1BEA020F3B
:101F90001ABF2B545B1C05F80080401C2028F3DB83
:101FA000002000290ADD1CF90030002B03DB202B68
:101FB0003CBFEB5C3B54401C8842F4DB0020C4F87F
:101FC0003490002907DD3B56834201D0676302E06D
:101FD000401C8842F7DB11F0010F18BF1F2009D009
:101FE0000AFA00F3134203D10AFA00F0024301E0B7
:101FF000401EF5D5002003460AFA00F717421ABF23
:102000002B545B1C05F80080401C2028F4DB0020CA
:1020100000290ADD1CF90020002A03DB202A3CBF2E
:10202000AA5C3254401C8842F4DB0020C4F8309093
:102030000029DEBF08B0BDE8F00F7047325682427B
:1020400004D0266308B0BDE8F00F7047401C8842FA
:10205000F4DB08B0BDE8F00F7047624900EB4010B8
:1020600001EB8010704700EBC0005F4900EB4000BF
:1020700001EB80007047DFF854C1012B8CF805009C
:102080008CF8061003D9401C20F0010011468CF892
:1020900007008CF8081000FB01F24FF6FF7101EA0F
:1020A0004202ACF8122001EA4000ACF8140070477C
:1020B0004648007A70474548C0797047434A507295
:1020C000917270474148807A70474048407A704723
:1020D000464A1070517070474449085C70472DE9BA
:1020E000F047DFF8E890044699F80C00002804BF98
:1020F00099F8010012F094FD99F80B00002808BF30
:10210000BDE8F0874FF00008D9F81C004746464666
:10211000454610F0020F1CBFDFF8C88010F0040F16
:1021200005D0B9F812102F4A21F001018F1810F0D4
:10213000010F18BF2C4E10F0200F18BF2C4DD9F8EE
:1021400028002060FEF727FE10F0010F06D0FFF7F1
:102150008BF8022828BF99F8020000D20020E7601F
:10216000C4E90108C4E904650120BDE8F087174906
:102170000020C872704710B50446FEF7E2FB8201EA
:102180002046BDE810401B4912F040BD2DE9F0414A
:10219000FEF7D7FB04460020FFF768F90022002C69
:1021A00084BF012541F6F07635D900214FEA821C23
:1021B00005FA01F3034228D04B080CEB830303F12B
:1021C000405303F58043CF071B6815E02804011036
:1021D000010007006404011080080110A00801102C
:1021E00000090110200901106011011035040110CF
:1021F0003812011000400030FF0EFB40C3F30C0307
:10220000B34202D90020BDE8F081491C2029CFD378
:10221000521CA242C9D30120BDE8F0810B46000741
:10222000C00EC549801E01EBC0114FF480721846E4
:1022300012F0ECBC2DE9F05F00F00F0670000025F5
:10224000A0F1020B012741F6F07846EA051948464D
:10225000FEF792FB002835D04846FFF714F907FA3D
:1022600000F4022C88BF02244846FFF7FFF8002242
:10227000002C84BF0BEB05014FEAC11A22D90021C3
:102280000AEB821907FA01F3034215D04B0809EB58
:10229000830303F1405303F580434FEAC17CD3F835
:1022A00040384FEADC6C23FA0CF3C3F30C034345CC
:1022B00002D90020BDE8F09F491C2029E2D3521C1E
:1022C000A242DCD36D1C022DBFD30120BDE8F09FDC
:1022D0002DE9F05F0026994C4FF6FF7500280F4658
:1022E00044D000F00F01C0F3031001290EBF0021FC
:1022F0000229BDE8F09F022828BFBDE8F09F01EB4E
:102300000009FEF7F8FA5FEA00081CBF0020FEF79C
:10231000A2FA00204FEAC919002209EB80115308E4
:1023200001EB830303F1405CD307DB0E0CF5804C1B
:1023300005FA03FBDCF840A807FA03F32AEA0B0AC4
:102340004AEA0303521CCCF84038202AE7D3401C49
:102350000228E1D3B8F1000F08BFBDE8F09FA670D6
:102360006670BDE8F05F0120FEF775BAFEF7C3FAAC
:102370005FEA00081CBF0020FEF76DFA0020002273
:102380008101530801EB83034FEAC27C03F1405300
:102390004FEADC6C03F5804305FA0CFAD3F80090A1
:1023A00007FA0CFC29EA0A0949EA0C0C521CC3F88A
:1023B00000C0202AE5D3401C2128E0D3B8F1000F4B
:1023C000CDD1BDE8F09F10B5FFF704F85B49088256
:1023D00010BD5A4AC1B200F4F853128A914288BF24
:1023E00011464FF0640C01FB0CF1B1FBF2F11A0A3B
:1023F00002FB0C1110F4005F12BF08B2484200B299
:10240000704710B54FF480714D4C4E4812F003FCEC
:10241000002001232156002910DB0A09D20102EB1A
:10242000800202F1405202F5C0420907C90ED2F8FB
:1024300000C003FA01F14CEA01011160401C2028A0
:10244000E8D310BD10B53E4C4FF480713D4812F0FA
:10245000E2FB002001232156002910DB0A09D201EA
:1024600002EB800202F1405202F5C0420907C90E98
:10247000D2F800C003FA01F14CEA01011160401CDE
:102480002028E8D3BDE810404FF424612E4812F014
:10249000C2BB2A4810B5808B00F48170FFF7E2FAC6
:1024A0004FF48071274812F0B6FB4FF404612648C0
:1024B00012F0B1FBBDE810400020FEF7DBBE70B5A6
:1024C0001E4C0546A06A401CA062207850B1206ACC
:1024D00010B1206A401E2062206A002804BF00203C
:1024E000FEF7B9F920212846FEF70BFA616A0029A8
:1024F0001CBF28468847FEF74BFC022815D113481D
:10250000D0F8B81211F0010F0FD0D0F8B81241F086
:102510000101C0F8B812D0F8B81221F00101C0F8DA
:10252000B812A06940F00200A0610948016841F0BA
:102530002001016070BD00004048003028040110F7
:102540008008011000600030004000300050004062
:10255000640401102DE9F0410027634D0126002895
:1025600008BF2E701FD001282F7018BF6F701AD0AF
:10257000DFF87881D8F800005D490843C8F800000A
:1025800029785C4C002914BF4BF608305A48E060AB
:1025900014BF5A484FF0BB70A0605948006830F033
:1025A000FF0206D101E06E70E2E7E26860F3030229
:1025B000E26051B1A06840F01800A060012000F076
:1025C00071F8A06840F48050A060012000F06AF823
:1025D000687818B1E06840F03000E060D4F8B000EE
:1025E00040F00100C4F8B000012000F05BF8E6679D
:1025F0004FF4E0602061C4F888702878002818BF84
:10260000C4F89460E06820F03000E060A06820F436
:102610008050A060D8F8000020F0040040F00D7059
:1026200040F08050C8F80000BDE8F0813148C16832
:1026300021F03001C160816821F4805181602B4814
:10264000016821F0040141F00D7141F080510160F9
:1026500070472648026826491143016022492548EF
:102660000A783AB1826842F018028260826842F4C5
:1026700080528260497819B1C16841F03001C1606F
:10268000D0F8B01041F00101C0F8B01070471D49FA
:10269000C0B241EA002017490864704715491A483A
:1026A0000864704782B040F24C42009013E000BFD3
:1026B00000BF00BF00BF00BF00BF00BF00BF00BF22
:1026C00000BF00BF00BF00BF00BF00BF00BF019838
:1026D000411E0191EBD20098411E009128BF01924A
:1026E000F5D202B070470000600401100080004085
:1026F000040034120060004005F401002000BB001B
:10270000D0FE030013005FA000005FA041484049D5
:102710008161891CC161491E4163026822F0030284
:1027200042F00D7242F080520260426922F00102D2
:1027300042F00D7242F08052426102691143016120
:10274000354981603549C1603549002008607047CE
:1027500010B501F04CF932480468002C08BF30BFB6
:10276000FAD00021016001F046F9204610BD10B5F5
:1027700001F03DF926482A4B2649421C1C682CB121
:102780000020186001F037F9204610BD72B648638A
:102790008A6120BF88614A6362B6BFF36F8FBFF35F
:1027A0004F8FEBE71B48016821F0030141F00D71E9
:1027B00041F0805101601B49816001691A4A11434F
:1027C000016130BF704772B6114912484163C91C9C
:1027D000C161891E816162B670470E480168134A63
:1027E0001143016070470B48016821F0030141F07B
:1027F0000D7141F080510160704772B6044905487F
:102800008161891CC161491E416362B67047000045
:1028100000003412008000403C00341228003412C2
:102820006404011008003412010034120300341251
:102830007047002818BF01204FF4E021486070471E
:102840000022B2EBD10F26D20368B3F1FF3F04BFE1
:102850004368B3F1FF3F17D18368B3F1FF3F04BF73
:10286000C368B3F1FF3F0FD10369B3F1FF3F04BF6A
:102870004369B3F1FF3F07D18369B3F1FF3F04BF61
:10288000C369B3F1FF3F01D0002070472030521CD4
:10289000B2EBD10FD8D30120704710B40023B3EBB3
:1028A000D20F30D2D0F800C00C68A44522D1D0F8A5
:1028B00004C04C68A4451DD1D0F808C08C68A4455C
:1028C00018D1D0F80CC0CC68A44513D1D0F810C0F2
:1028D0000C69A4450ED1D0F814C04C69A44509D1A7
:1028E000D0F818C08C69A44504D1D0F81CC0CC69BC
:1028F000A44502D010BC00207047203020315B1C62
:10290000B3EBD20FCED310BC012070472DE9F041BC
:10291000054601F074F8002021264FF482578446C2
:102920004FF4E0221660C5F800C0116841F00401C0
:102930001160116811F0040FFBD1176040232C4681
:102940000021D4F80080B8F1FF3F04BFD4F8048020
:10295000B8F1FF3F1DD1D4F80880B8F1FF3F04BFA4
:10296000D4F80C80B8F1FF3F13D1D4F81080B8F13F
:10297000FF3F04BFD4F81480B8F1FF3F09D1D4F869
:102980001880B8F1FF3F04BFD4F81C80B8F1FF3FB6
:1029900008D0C2F800C0401CC0B20828C2D3022030
:1029A000BDE8F081491C2034B1EBD30FC9D3C2F884
:1029B00000C00120BDE8F0812DE9F041054601F09D
:1029C0001EF80020092684464FF4E0231E60C5F857
:1029D00000C0196841F004011960196811F0040F72
:1029E000FBD12C464FF4806200212768B7F1FF3FEE
:1029F00004BF6768B7F1FF3F17D1A768B7F1FF3F82
:102A000004BFE768B7F1FF3F0FD12769B7F1FF3F78
:102A100004BF6769B7F1FF3F07D1A769B7F1FF3F6F
:102A200004BFE769B7F1FF3F08D0C3F800C0401CFE
:102A3000C0B20328CAD30220BDE8F081491C20346B
:102A4000B1EBD20FD1D3C3F800C00120BDE8F081B3
:102A50002DE9F05F0F46804604264FF0020A4FF042
:102A6000000B4FF4E02900F0CAFF44463846C9F88D
:102A700000A00F21B0E82C10A4E82C10491EF9D2B8
:102A8000D9F8000040F00400C9F80000D9F80000AF
:102A900010F0040F06D000BF00BFD9F8000010F0FE
:102AA000040FF8D1C9F800B0454638460F21D5E9E2
:102AB0000023D5E902C4D0F800E0964504BF42687F
:102AC0009A4205D18268624504BFC268A24208D01A
:102AD000761E03D34046FFF719FFC4E70220BDE886
:102AE000F09F10301035491EE1D20120BDE8F09F63
:102AF00070B50D46044600F082FF4FF48072214607
:102B0000284612F083F8012070BD2DE9F041C0B0D5
:102B100014460E46054610F0FF0F23D025F0FF089F
:102B20006F4600F06CFF4FF480724146384612F059
:102B30006DF8E8B2C0F58077A74288BF27466844A1
:102B40003A46314612F071F84046FFF7DFFE0228A0
:102B500043D069464046FFF77BFF022841D03D4401
:102B60003E44E41BB4F5807F19D34FF480723146A4
:102B7000684612F05AF82846FFF7C8FE02282CD003
:102B800069462846FFF764FF02282AD0A4F580741E
:102B900005F5807506F58076B4F5807FE5D2C4B181
:102BA0006F4600F02CFF4FF480722946384612F031
:102BB0002DF822463146684612F037F82846FFF7CE
:102BC000A5FE022809D069462846FFF741FF0228E2
:102BD00007D040B00120BDE8F08140B00A20BDE838
:102BE000F08140B00B20BDE8F08100002E49086064
:102BF000086100F010B82C490860486100F00BB87B
:102C00002949486770472849886770472648012145
:102C10000166016570474FF04022116B10F0010F03
:102C200018BF21F4404110F0020F1CBF21F44051A5
:102C300041F4805110F0040F18BF21F4406110F0EE
:102C4000080F18BF41F4407110F0100F18BF41F089
:102C5000C00110F0200F18BF41F0300110F0400FFC
:102C600018BF41F00C0110F0800F18BF41F00301B4
:102C700041F4BE0141F020411163D2F8901010F4EC
:102C8000807F1CBF21F0030141F0020110F4007F9E
:102C90001CBF21F00C0040F0080141F4BE0040F0E0
:102CA0002040C2F890007047001000407047D048A4
:102CB0008268D0490A438260C2681143C160416999
:102CC000CD4A114341617047C948416921F0010172
:102CD00041F00D7141F080514161C16821F0400126
:102CE00041F00D7141F08051C160816821F04001D7
:102CF00041F00D7141F080518160704710B5BC4CBE
:102D0000A168BC480143A160E1680843E0606069D4
:102D1000B94908436061B94843F63F71C160002179
:102D200081638164C0F8B01003210A2000F0A5F986
:102D30000A2000F0C5F9606920F0010040F00D7034
:102D400040F080506061E06820F0400040F00D707D
:102D500040F08050E060A06820F0400040F00D702E
:102D600040F08050A06010BDA44A106051604843FC
:102D700090607047A14A10605160484310F0010F05
:102D800018BF401C906070479C49C1F8B000704764
:102D90009A49002818BF01208864704797498863C2
:102DA000C86840F00200C8607047DFF850C2CCF835
:102DB0002000CCF82410CCF82820CCF82C300120AE
:102DC000CCF83000DCF8340010F0010F05D020BF43
:102DD000DCF8340010F0010FF9D110F0020018BF38
:102DE0004FF0FF3070478548C16821F00201C16093
:102DF00070478248C16841F00101C16070477F4B54
:102E0000186259629A6201201864586C10F0010F20
:102E100004D020BF586C10F0010FFAD110F006005A
:102E200018BF4FF0FF3070477448C16821F00101AE
:102E3000C16070477148C16841F00401C1607047CA
:102E4000027C017B02F03F0241EA02416B4A91653C
:102E500001685162416891628168D1620121116506
:102E6000516D11F0010F04D020BF516D11F0010F11
:102E7000FAD1D36D8382D36D1B0CC382136E03838F
:102E8000136E1B0C4383536E8383526EC2F30E4248
:102E9000C28311F0020018BF4FF0FF30704757484F
:102EA000C16821F00401C16070475448C16841F015
:102EB0000801C1607047DFF844C1CCF87820CCF835
:102EC0002000CCF82430CCF828100120CCF8700079
:102ED000DCF8740010F0010F05D020BFDCF874009E
:102EE00010F0010FF9D110F0060018BF4FF0FF30BD
:102EF00070474248C16821F00801C160704701680D
:102F00004FEA31423D49C1F89C204068C1F8A00019
:102F1000C86840F02000C860704701684FEA31423D
:102F20003649C1F89C208088C1F8A000C86840F0EC
:102F30002000C8607047314B18625A6299620120C4
:102F4000C3F89400D3F8980010F0010F05D020BF0B
:102F5000D3F8980010F0010FF9D110F0060018BF57
:102F60004FF0FF307047254A106251620120C2F8CD
:102F70009000D2F8980010F0010F05D020BFD2F8D1
:102F8000980010F0010FF9D110F0060018BF4FF0B3
:102F9000FF3070471948C16821F02001C1607047B7
:102FA0001648C16841F01001C1607047A3F1050CDB
:102FB000124BC3F888C018625A6299620120C3F8A4
:102FC0008000D3F8840010F0010F05D020BFD3F8A3
:102FD000840010F0010FF9D110F0060018BF4FF077
:102FE000FF3070470548C16821F01001C16070478B
:102FF0000080004040003412010034120090004074
:103000001B4810B5022140F8501F01210161102119
:10301000416241F206014161002181610421816325
:1030200090214163416B41F0010141634FF4817193
:1030300001610161032000F043F80021032000F04A
:103040001CF8002010BD10B5032000F045F808481A
:103050004FF4807101660021016610218167022111
:103060004165002010BD0349002008707047000032
:103070000030004068040110704700F00303DA00DC
:103080004FF0FF0C0CFA02F24FF0050C0CEBC303EF
:1030900001FA03F300F00C0101F1E021002807DA46
:1030A000D1F8140D90431A401043C1F8140D704725
:1030B000D1F8000490431A401043C1F8000470474F
:1030C00000F01F01012202FA01F14009800000F125
:1030D000E020C0F80011704700F01F01012202FA41
:1030E00001F14009800000F1E020C0F88011704734
:1030F00000F01F01012202FA01F14009800000F1F5
:10310000E020C0F8801270474FF0E021C1F80001C4
:1031100070474FF0E021C1F8800170474FF0E02088
:10312000D0F8000170474FF0E021C1F880027047ED
:10313000084800687047074A1168106008467047E1
:10314000044A126800F1100352F8230042F82310D9
:103150007047000008ED00E002210C20FFF78DBF52
:10316000B8488268B8490A438260C2681143C160A6
:103170007047B448816821F4805141F00D7141F0ED
:1031800080518160C16821F4805141F00D7141F09E
:103190008051C1607047AD4881B0016F11F4007F6C
:1031A000FBD1816E11F0010F1CBFD0F8841000918B
:1031B00004D0D0F88410009A9142FAD0016F11F433
:1031C000007F04BF4CF27101016642F24131816619
:1031D00001B070479D4981B04FF40D528A660A6F65
:1031E000CA66012898BF012005D9401EB0F5803F6E
:1031F00028BF4FF6FF7082B24FF05C5040EA0220C9
:1032000048664FF01140C1F88000086F10F4007F4D
:10321000FBD1886E10F0010F1CBFD1F88400009024
:1032200004D0D1F88400009A9042FAD0086F10F4CC
:10323000007F04BF4CF27100086642F2413088669C
:1032400001B07047814881B0016F11F4007FFBD15C
:10325000816E11F0010F1CBFD0F88410009104D0D2
:10326000D0F88410009A9142FAD04FF40D51816643
:1032700001B070477348806810F4805008BF7047F1
:103280007248806E00F0010070477048406EC0F3D5
:103290000F2070476D48D0F88400704710B50C209F
:1032A000FFF726FF0C20FFF70BFF68490220486755
:1032B00010BD664910B5032088670C20FFF70CFF8E
:1032C000BDE810400C20FFF713BF614A1168106081
:1032D000084670475D4810B5016FC1665C480068DC
:1032E000002818BF80475B48016841F480510160A5
:1032F00010BD574840687047524810B5826852491F
:103300000A438260C2681143C16050490320886744
:103310000C20FFF7E1FE0C20FFF7EAFE00F066F953
:103320004D4B0420C3F888004FF6FF70C3F88C00A3
:1033300072B66033FFF74EFF4FF40070186062B64C
:1033400010BDF8B572B64148016F11F4007FFBD192
:10335000816E11F0010F1CBFD0F88410009104D0D1
:10336000D0F88410009A9142FAD04FF40D51816642
:1033700039494FF400320A6662B6D1F80412314D71
:10338000002946D0324C4FF6FF73591AA160AA6942
:10339000D5F81CC002F00F020CF00F0C6244121D95
:1033A00001FA02F2A2F5EA41DFF8B0C03139614515
:1033B0002FD2D0F88400191AE160B1F5803F28D2ED
:1033C000274B4FF0000CA1FB03070CFB037301FB21
:1033D0000C31634611F02EFC401C40082061B0F512
:1033E0007A7F38BF4FF47A701E4B9968002908BF66
:1033F00098605A681A609968C3E901108A421BD91B
:10340000824205D9814201D9616002E0606000E03A
:10341000626000F0F7F8A86820F4805040F00D706A
:1034200040F08050A860E86820F4805040F00D70B3
:1034300040F08050E860F8BD8242E9D88142E5D88A
:10344000E2E70000008000400010341200C000409D
:103450006C0401106404011000A000402F6E1600DF
:10346000008793037C1201100F4881680F4A1143B3
:1034700081600F48016841F404710160001F016818
:1034800041F004010160016841F0100101607047E2
:10349000084908607047BFF34F8F08490648086025
:1034A000BFF34F8FFEE7000000800040040034129D
:1034B00014ED00E008ED00E00400FA050CED00E07A
:1034C00018488168184A114381601003416941F02E
:1034D00001014161016A21F00F0214490A430262AD
:1034E000134B8A1EC3F8C420016570474FF040207B
:1034F000006900F0700070474FF040200D4940F81F
:10350000301F0D4941600D4901660D494166704704
:103510004FF0402148680B4A904202BF496C002995
:1035200009487047008000400400341203005FA087
:1035300000600040C0845FA055995FA00A005FA0B2
:1035400000005FA061A5650561B66505022824BF7E
:1035500000207047DE4B53F8202043F8201010461F
:10356000704770B5DB4C206FD94D10F0010F05D0BE
:103570000120E0662868002818BF8047206F10F0FF
:10358000020F08BF70BD0220E0666868002808BF0F
:1035900070BDBDE870400047CF4810B58268CF4984
:1035A0000A438260C2681143C160CA4902220A65A7
:1035B00001230B660323CB664A65816821F08001F5
:1035C00041F00D7141F080518160C16821F08001AE
:1035D00041F00D7141F08051C1600920FFF770FD8D
:1035E0000221BDE810400920FFF747BDBA488268B4
:1035F000BA490A438260C2681143C160B5490220DA
:1036000008657047B34902204865B348816821F0D6
:10361000800141F00D7141F080518160C16821F05D
:10362000800141F00D7141F08051C1607047AA489E
:103630008068C0F3C0107047A648016F11F4007F86
:1036400014BF4FF440714FF480710166704710B59C
:10365000A04CE06F10F0020F4FF0010018BF0320E4
:10366000606700F068F99C498A69C96902F00F0235
:10367000D04001F00F01C8400521B0FBF1F04FF43C
:1036800005710009C4F880109549A1FB001040099C
:10369000C4F88400206F10F4007F14BF4FF4407012
:1036A0004FF48070206610BD8A48016F11F4807F4E
:1036B00014BF4FF440714FF4007101667047854BA1
:1036C00030B4DA6F12F0010F14BF032202225A67DE
:1036D00000EB4005C5EBC0104FF49674C1EBC00081
:1036E0004C4300EB80007F4904EB4010A1FB00102D
:1036F000794900224FF0020C8C69C008C96904F0B6
:103700000F0401F00F012144C8400521B0FBF1F086
:10371000B0F5803F05D3511C4008CAB2B0F5803FD8
:10372000F9D242EA0C2141F01001C3F88810C3F825
:103730008C00186F10F4807F14BF4FF440704FF46A
:103740000070186630BC70476248016F11F4003F8A
:1037500014BF4FF440314FF48031016670475D482B
:10376000016F11F4803F14BF4FF440314FF400312A
:10377000016670475748006FC0F3002070475548F6
:10378000006FC0F34020704753498968C1F3C011EE
:10379000002904BF002070474E4900280CBFD1F813
:1037A0000002D1F8040270474B4B9A68C2F3C01272
:1037B000002A04BF00207047464A00280CBFD2F8F8
:1037C0008000D2F88800C0F30A200CBFD2F8802015
:1037D000D2F8882002F00F02D3F818C0DB690CF091
:1037E0000F0C03F00F0363441A449140012202EBD3
:1037F000400048433C49A1FB0010000970473B4989
:1038000001200870704770B4334BC1EB01114900BF
:103810009A69D3F81CC002F00F020CF00F0C62443E
:10382000121DD14008BF012104D0B1F5803F28BF4F
:103830004FF6FF719A68C2F3C012002A1CBF70BC19
:103840007047D3F808C0254A4CEA020CC3F808C0F8
:10385000D3F80CC04CEA0202DA601E4A4FF0020CA8
:10386000C2F850C04FF4003414660425C2F88850E2
:10387000C2F88C101E4DD566C2F874C01D490228CE
:103880003CBF134E46F820100021184801704FF439
:1038900000711166017819B920BF01780029FBD0A9
:1038A00014669567D566C2F854C0986820F0800009
:1038B00040F00D7040F080509860D86820F0800093
:1038C00040F00D7040F08050D86070BC7047000030
:1038D0008404011000A000400080004080003412E9
:1038E0001F85EB51CDCCCCCC898888888004011011
:1038F00002000202AF5700004FF0E0210020886173
:1039000008611F494860704710B54FF0E0246061BE
:103910000020A0610221401EFFF7AFFB07202061BD
:1039200010BD4FF0E0210020086170471448018865
:10393000491C018070471248806870472DE9F041AA
:103940000F4C002705462780A0684FF47A71B0FB22
:10395000F1F04FF0E026401E7061B7610221C81EF1
:10396000FFF78BFB072030612188A942FCD3376128
:10397000BDE8F08103494843014988607047000071
:103980008C04011040420F00704770B505464FF49B
:103990000D500406A0660320E066264860664CF2DF
:1039A000710020662448C4F8800042F24630A066C8
:1039B00002210020FFF761FB0020FFF781FB002DB3
:1039C00008BF70BDA06E42F241310843A06670BDD1
:1039D000012110B5880781674FF40D5181660020E1
:1039E000FFF77AFBBDE810400020FFF781BB012004
:1039F00081074867704701208107886770474CF24C
:103A000071008107086670470C4A1168106008460B
:103A100070470A4808B5006818B18047002818BFE9
:103A200008BD4CF2710188070166016FC166006F25
:103A3000009008BD07383937009C1C91980401108C
:103A400070B5FF4E00244FF4A0613470747034716F
:103A5000FC4811F0E0F84FF4A061FB4811F0DBF8EE
:103A6000FA4DB46074712C606C60AC60EC602C61D9
:103A70006C61AC61EC612C626C62AC62EC622C63D8
:103A80006C63AC63EC632C646C64AC64EC642C65B8
:103A90006C65AC65EC652C666C66AC66EC662C6798
:103AA0006C67AC67EC67B471682105F1800011F0B8
:103AB000B2F8682105F1E80011F0ADF8F460F47196
:103AC000C5F8B841C5F8BC41C5F8C041C5F8C44106
:103AD000C5F8C841C5F8CC41C5F8D041C5F8D441B6
:103AE000C5F8D841C5F8DC41C5F8E041C5F8E44166
:103AF000C5F8E841C5F8EC41C5F8F041C5F8F44116
:103B0000C5F8F841C5F8FC41C5F80042C5F80442C3
:103B1000C5F80842C5F80C42C5F81042C5F8144271
:103B2000C5F81842C5F81C42C5F82042C5F8244221
:103B3000C5F82842C5F82C42C5F83042C5F83442D1
:103B4000C5F83842C5F83C42C5F84042C5F8444281
:103B5000C5F84842C5F84C42C5F85042C5F8544231
:103B6000C5F85842C5F85C42C5F86042C5F86442E1
:103B7000C5F86842C5F86C42C5F87042C5F8744291
:103B8000C5F87842C5F87C42C5F88042C5F8844241
:103B9000C5F88842C5F88C42C5F89042C5F89442F1
:103BA000C5F89842C5F89C42C5F8A042C5F8A442A1
:103BB000C5F8A842C5F8AC42C5F8B042C5F8B44251
:103BC000346170BD9E490020487070479C48407821
:103BD00070479B484079002818BF012070479848DB
:103BE000C079002818BF01207047954880790028C7
:103BF00018BF0120704792480079002818BF0120A3
:103C0000704700219148C0F87812C0F87C12C0F8C3
:103C10008012C0F88412C0F88812C0F88C12C0F864
:103C20009012C0F89412C0F89812C0F89C12C0F814
:103C3000A012C0F8A412C0F8A812C0F8AC12C0F8C4
:103C4000B012C0F8B412704781487047814A0146EB
:103C50008148137852781A44520010F0E6BF70B5CC
:103C60007C4A05461078517842185200144629467D
:103C7000774810F0DAFF22462946784810F0D5FF41
:103C80006F490120C87170BD6D48006970476C486C
:103C9000407800EB800101EBC000714901EBC000EE
:103CA00070472DE9F041664D04466D496A786D4FC5
:103CB00002EB820000EBC2006B4E01EBC0033A78CE
:103CC0003078214610444200184610F0AEFF6A7862
:103CD000664902EB820000EBC20001EBC0033A78B8
:103CE0003078214610444200184610F09EFF012013
:103CF000A871BDE8F0815248C068704750485149EA
:103D0000407800EB800001EB002070472DE9F04186
:103D10004B4E07463078002814BF55485548047864
:103D200014BF55485548057804FB05F8FEF7BFFF5A
:103D300029462046FFF718F87078434C00EB8000C6
:103D400004EB0022A4F5A06101EB00203B460146F4
:103D5000FFF72BF8FEF7B8FF70784FEA480200EB48
:103D6000800004EB0020394610F05FFF0120307125
:103D7000BDE8F0812DE9F047314D044631496878BE
:103D8000DFF8EC8000EB800001EB002C2878DFF8F6
:103D9000E490394E394F2146002815BF98F800208D
:103DA00099F8002033783B7802FB03F04FEA400299
:103DB000604610F03AFF6878234900EB800001EB81
:103DC000002C28782146002815BF98F8002099F883
:103DD000002033783B7802FB03F04FEA4002604654
:103DE00010F023FF01202871BDE8F0871448806897
:103DF000704770B5224C05460146227813485200A0
:103E000010F013FF2278294652001E4810F00DFFD3
:103E10000B490120487170BD2DE9F04FADF24C5DAA
:103E2000DFF81C900120CDF82C0599F80400CDF89E
:103E3000280599F80500CDF8240599F8060023E037
:103E40009C040110881201108817011088260110A7
:103E500040280110D9040110C02801108028011049
:103E600008270110D6040110D70401107027011093
:103E7000D4040110D1040110D5040110D2040110A2
:103E8000D8040110C8260110CDF8200599F80700C4
:103E9000CDF81C0501F0E8FB8046FDF757FDCDF895
:103EA0004405FDF71FFFCDF84005FDF7EDF9CDF80E
:103EB0003C05FCF770FF0446FCF76AFF0646FDF779
:103EC00047FD99F802001E270025002804BF0420A2
:103ED000C9F8180008D0B8F1020F18BF0A200ED098
:103EE000C9F8180089F80250FDF794F90830000964
:103EF0004FF0010BCDF83005022E0AD01EE010F075
:103F00009EFE10F4817F14BF0F20C9F81870E7D10E
:103F1000E8E7B8F1020F06D0B8F1050F08BFC9F8FD
:103F2000187009D00AE04FF47A7141434FF47A7067
:103F300091FBF0F0C9F8180089F802B0D9F8180020
:103F40000428BCBF0420C9F8180099F80200B9F889
:103F50001810000240EA014040F0010200239121C4
:103F600007200AF0F3F814F0010F05D0FDF7C0FEAA
:103F70000020CDF82C0504E00020FDF77BF9FDF7CB
:103F8000F0FE10F061FE00263746CDF8186505F00A
:103F9000E7FD01281CD00DF5A060FEF7A0F8002871
:103FA00000F0EE820DF5A06006F0C3FC002089F859
:103FB0000100D9F81800C01E8642CABF87420125F9
:103FC0000025DDF80C05B8B3DDF8240528B133E091
:103FD0000120CDF8180500F0BDBA6846DDF80C15D3
:103FE00010F037FE82467DB1FE4C514620784200EB
:103FF000FD4810F01AFE207851464200FB4810F0B0
:1040000014FE89F805B017E0FEF751FEF54C0121CA
:104010002078FEF7A9FEF54A5346A2F14001084672
:10402000FEF7C3FEFEF750FE207851464200EF48EF
:1040300010F0FBFD89F805B0DDF80805002800F058
:10404000CE80DDF8280500287ED199F80000DDF843
:104050000845E0BBD9F808A0BAF1000F24D0E44825
:104060000078CDF83805E3480078CDF83405FEF740
:104070001EFEDDF83415DDF83805FEF77BFE21461F
:1040800052460846FEF7BBFEFEF71EFEDA480078F1
:10409000022804BF504606F02FF9D74800780928B7
:1040A00004BF204606F028F9D4480078012816D924
:1040B000DFF844A39AF80000042804BF204606F065
:1040C0001BF92146684610F0C9FD044600E006E0F1
:1040D0009AF80000052804BF204606F00DF9A5B3A4
:1040E00099F8010099F8002000EB8001C448002AEB
:1040F00000EB012021460CBFC24ABD4A137814BF11
:10410000BC4AC14A127803FB02F24FEA420210F0A5
:104110008CFD99F8010000EB8001BC4800EB012305
:1041200099F800002146002814BFB148B54800782E
:1041300014BFB04AB44A127800FB02F04FEA4002C2
:10414000184610F072FD01E049E002E089F804B081
:1041500038E0CDF8344599F80000002814BFA44891
:10416000A84890F800A014BFA248A74804780AFB0A
:1041700004F0CDF83805FEF79AFD21465046FEF7CB
:10418000F3FD99F80100A14C00EB800004EB002244
:10419000A4F5A06101EB00200146DDF83435FEF7FF
:1041A00004FEFEF791FDDDF83805DDF83415420018
:1041B00099F8010000EB800004EB002010F035FDC1
:1041C00089F804B08C480078032808D199F80100D8
:1041D00000EB80018A4800EB012006F08DF8DDF845
:1041E000100500287DD0DDF82005002879D199F848
:1041F0000000DDF8104548BBD9F80CA0BAF1000F5B
:1042000024D083480178834800780844401C400843
:10421000019002200090FEF74AFDDDE90010FEF754
:10422000A9FD214652460846FEF7E9FDFEF74CFD82
:1042300079480078022804BF504606F061F97648B4
:104240000078092804BF204606F05AF94DB399F8C2
:104250000100DFF8BCA100EB800101EBC0016F4859
:104260009AF8002000EBC1036A4821460078104408
:104270004200184610F0D9FC99F80100654A00EB9D
:10428000800101EBC00166489AF80030127800EB1B
:10429000C1001A442146520010F0C7FC89F806B04C
:1042A00030E05B48009401785A4800780C18FEF71B
:1042B000FEFC601C40080221FEF756FD99F8010043
:1042C000DFF85CA100EB800101EBC000AAF16801FE
:1042D0000AEBC00201EBC0010846009BFEF765FD3A
:1042E00000E01EE0FEF7F0FC99F80100620000EB30
:1042F000800101EBC0000AEBC000009910F095FCB2
:1043000089F806B04448007803280AD199F80100DA
:1043100000EB800101EBC001404800EBC10006F05A
:10432000EFF8DDF8140500285AD0DDF81C0530B18F
:10433000B8F1020F18BFB8F1050F52D0FDE099F89F
:104340000000DDF8144540BBD9F810A0BAF1000F09
:1043500023D03448017840780844401C400801903C
:1043600002200090FEF7A3FCDDE90010FEF702FD3D
:10437000214652460846FEF742FDFEF7A5FC2A48B4
:104380000078022804BF504606F0D9F92648007884
:10439000092804BF204606F0D2F9DFF888A09AF871
:1043A00000009AF801100844401C420821460846C3
:1043B00010F059FC1C480078332804BF204606F052
:1043C000BEF9ADB325469AF800009AF801100844EA
:1043D000440022462946154810F027FC224628E0D2
:1043E000ABE081E0D804011088260110C826011036
:1043F000D4040110D504011051050110D30401109B
:1044000088120110D1040110D20401108817011084
:10441000D6040110D7040110560501100827011019
:1044200070270110D90401105B050110402801100C
:1044300006E02946FE4810F0F8FB89F807B025E0B1
:104440009AF800009AF801104518FEF730FC681C35
:1044500040080221FEF788FCF54A2346A2F14001FC
:104460000846FEF7A2FCFEF72FFC6A002146F04842
:1044700010F0DBFB89F807B09AF800009AF80110F9
:10448000084442002146EB4810F0CFFBEA48007890
:10449000032804BFE94806F052F910F0E9FBE849A7
:1044A0000020C1F87802C1F87C02C1F88002C1F88E
:1044B0008402C1F88802C1F88C02C1F89002C1F8E8
:1044C0009402C1F89802C1F89C02C1F8A002C1F898
:1044D000A402C1F8A802C1F8AC02C1F8B002C1F848
:1044E000B40200F0B8FE28E00021DDF8140510F059
:1044F000C4FBDDF83005782828BF16F0010F1CD06A
:10450000D04C207A58B10820FCF73EF9CE4A1378F7
:10451000527899184A0001460820FBF706FFE07917
:1045200058B10720FCF730F9C74A01460720137835
:1045300052781A445200FBF7F8FEFDF718FED9F83E
:104540001800761C7F1C8642A8BF874211DBD9F871
:10455000140070B1FDF7FCF9DDF83C05FCF78AFEAC
:10456000DDF8440588B1DDF8400560B1FDF7F9FBE1
:104570000BE0DDF82C05002818BFFDF7F2FB06E57F
:1045800001F0BFF803E5FDF7B3FBDDF818050028DF
:1045900004BF0420C9F818000FD0DDF8280589F8F9
:1045A0000400DDF8240589F80500DDF8200589F808
:1045B0000600DDF81C0589F80700DDF81805B9F8D4
:1045C0001810000240EA014200239121072009F05F
:1045D000BDFDDDF818050DF24C5DBDE8F08F70B53E
:1045E0000024FDF771FB994E054610F0020F0AD02A
:1045F0003079002808BF012415F0040F03D070792A
:10460000002808BF012415F0010F07D001F02CF895
:10461000052803D0B079002808BF012415F0200F29
:1046200003D0F079002808BF01240020002C08BF27
:1046300070BD00203070BDE87040FFF7EDBB38B5AD
:1046400005460F2410F0FBFA40B101F00DF80228E6
:1046500003D001F009F8052800D10E242146284690
:1046600001F017F9012804D1FFF7B9FF009001F01C
:1046700083FA7648017900291CBF8179002906D088
:10468000C17900291FBF40790028012038BD0020D2
:1046900038BDD4E7704770B56C4D00242C716C7137
:1046A000AC71FCF7C2F8002818BFEC71BDE870408F
:1046B0000AF03ABA10B54FF4A061654810F0ABFAB1
:1046C000BDE810404FF4A061624810F0A4BA6248FF
:1046D00070476248017862480078484341005E486C
:1046E00010F099BA70B506465C4804785C480578C5
:1046F000FEF7DDFA29462046FEF73CFB53485449B5
:10470000407800EB800001EB002231465248FEF772
:1047100076FBFEF7D9FA53480078152818BF70BD0C
:104720004D48BDE8704005F0E7BD002818BF0120E6
:1047300046490871704710B5444C002804BFA0607A
:1047400010BDDFF824C149490B7849490A78014670
:104750005A435200604610F068FA4348A06010BD0A
:1047600037490020086048608860C8600861486177
:104770008861C861086248628862C86208634863E9
:104780008863C863086448648864C86408654865C9
:104790008865C865086648668866C86608674867A9
:1047A0008867C867704726487047002818BF0120EF
:1047B00026494871704710B568212E4810F02BFA31
:1047C000BDE8104068212C4810F025BA002818BF19
:1047D00001201E498871704710B51C4C002804BF89
:1047E000E06010BD68220146244810F01EFA2348FC
:1047F000E06010BD12490020C1F8B801C1F8BC0149
:10480000C1F8C001C1F8C401C1F8C801C1F8CC01A8
:10481000C1F8D001C1F8D401C1F8D801C1F8DC0158
:10482000C1F8E001C1F8E401C1F8E80128E00000A6
:1048300080280110C02801105B05011040280110DC
:1048400088260110F4070110D90401109C040110FE
:104850008812011088170110881C0110D104011062
:10486000D20401105105011088210110D404011057
:10487000D50401100827011070270110D827011056
:10488000C1F8EC01C1F8F001C1F8F401C1F8F80178
:10489000C1F8FC01C1F80002C1F80402C1F8080225
:1048A000C1F80C02C1F81002C1F81402C1F81802D4
:1048B000C1F81C02C1F82002C1F82402C1F8280284
:1048C000C1F82C02C1F83002C1F83402C1F8380234
:1048D000C1F83C02C1F84002C1F84402C1F84802E4
:1048E000C1F84C02C1F85002C1F85402C1F8580294
:1048F000C1F85C02C1F86002C1F86402C1F8680244
:10490000C1F86C02C1F87002C1F87402C1F87802F3
:10491000C1F87C02C1F88002C1F88402C1F88802A3
:10492000C1F88C02C1F89002C1F89402C1F8980253
:10493000C1F89C02C1F8A002C1F8A402C1F8A80203
:10494000C1F8AC02C1F8B002C1F8B4027047002847
:1049500018BF0120F949C871704710B5F74C0028FD
:1049600004BF206110BDF6490A78497811444A0015
:104970000146F44810F059F9F248206110BDEF48A3
:10498000C078002818BF01207047002818BF0120F8
:10499000EA49C8707047EC487047EC487047E84AED
:1049A0000146EA48137852781A44520010F03DB993
:1049B00030B44FF0000C029C634304BF30BC70471E
:1049C00032F91C4051F82C502C4440F82C400CF18A
:1049D000010C6345F4D830BC7047002B08BF70470A
:1049E00010B4DDF804C0BCF1000F4FF0000C11D082
:1049F000002A9CBF10BC704751F82C4004EB5304B4
:104A0000B4FBF3F420F81C400CF1010C6245F3D820
:104A100010BC7047002A9CBF10BC704751F82C4056
:104A200094FBF3F420F81C400CF1010C6245F5D81E
:104A300010BC704770B5C14D002604462E716E71D2
:104A4000AE71FBF7F2FE002818BFEE710AF06CF8A9
:104A5000002C14BF012000202870BDE87040FFF733
:104A6000DBB92DE9F04FA9B04FF4A061B84810F0C0
:104A7000D2F86821B74810F0CEF8B7480021C0F846
:104A8000B812C0F8BC12C0F8C012C0F8C412C0F806
:104A9000C812C0F8CC12C0F8D012C0F8D412C0F8B6
:104AA000D812C0F8DC12C0F8E012C0F8E412C0F866
:104AB000E812C0F8EC12C0F8F012C0F8F41280212D
:104AC000684610F0A8F8FDF7FFF80446FCF73EFF33
:104AD0002890FDF707F92790FCF7D6FB2690FCF706
:104AE00037FF0020FCF7C6FBFDF73BF900263546F3
:104AF00005F036F8012875D020A8FDF7F0FA002857
:104B00007DD020A805F015FF14F0020F1CD09348AB
:104B1000DFF83CB2DDF8889090F800809048DA46E3
:104B20000778FEF7C4F80120FEF732F9394640460F
:104B3000FEF720F9524649465846FEF760F9002034
:104B4000FEF726F9FEF7C0F814F0010F20D08548D3
:104B5000DFF800B24FF0020801788348DA46DDF84A
:104B6000909000780844401C4708FEF7A0F8012008
:104B7000FEF70EF941463846FEF7FCF85246494624
:104B80005846FEF73CF90020FEF702F9FEF79CF8C4
:104B900014F0200F1CD06A496B46022791F800C020
:104BA000497825986144491C4FEA510C00211A4666
:104BB0005FEA4C0818BF0CFB07FC09D030F91170F4
:104BC00052F82180474443F82170491C8C45F5D8A0
:104BD000FDF7CDFA761C102E05D2FDF7C2F887E757
:104BE00000E00CE00125FCF7B3FE2698FCF742FB41
:104BF000289848B1279828B1FDF7B3F804E000F0F1
:104C000080FD75E7FDF774F8002D59D1DFF82CC150
:104C100014F0020F1BD051484D4E017850483746D2
:104C2000007801FB00F210200021002A88BF034613
:104C30000AD937F9118008EB5008B8FBF3F826F8C9
:104C40001180491C8A42F4D84148CCF8080014F07D
:104C5000010F19D043483F4B017843481E46007866
:104C60000A184FF010004FF000010AD036F91180F9
:104C700008EB5008B8FBF0F723F81170491C8A4282
:104C8000F4D83448CCF80C0014F0200F18D02C487D
:104C90002C4B6C46017840780A184FF010014FF009
:104CA00000000AD054F8206006EB5106B6FBF1F67E
:104CB00023F81060401C8242F4D82248CCF810003F
:104CC00029B02846BDE8F08F01207047274870477B
:104CD00026480068704725490A68B2F1FF3F15D0A1
:104CE000052804BFC87A704742DC012804BF087950
:104CF0007047022804BF087A7047032804BF487A27
:104D00007047042804BF887A704741E0052813D013
:104D100007DC01283CD002281CBF032804280BD044
:104D200036E0142812BF15282D207047162804BF1E
:104D30002820704717282BD1002070479C040110B1
:104D4000D904011040290110C028011000290110C8
:104D500088210110D827011088260110D4040110E1
:104D6000D5040110D6040110D704011000AE0200D2
:104D7000142804BF087B7047152804BF487B704780
:104D8000162804BF887B7047172804BFC87B70476C
:104D9000FF20704730B5C1B000244FF480716846E1
:104DA0000FF039FFFF22D14D511C68460FF06AFF0A
:104DB000FF21224661F307022D23214663F30701F9
:104DC00063F30F2128234BF6BB3063F3174164F3E1
:104DD0001F61CDE90002CDE9024104942846FDF7A8
:104DE00095FD69462846FDF733FE41B030BD2DE9FB
:104DF000FF4FDFF8F882C1B08346D8F800004E9F1D
:104E000091468A464446B0F1FF3F08BFFFF7C2FF14
:104E1000D4E901106BF307018B466AF3070044994C
:104E200069F30F2061F317402568D4E9036467F341
:104E30001F600746FF22511C68460FF023FF0297B0
:104E4000CDE90364CDE9005B4046FDF75FFD6946AF
:104E50004046FDF7FDFD012818BF002045B0BDE824
:104E6000F08F2DE9F74FDFF8849283460020D9F8C0
:104E70000060C0B08A464C46B6F1FF3F04BF43B065
:104E8000BDE8F08FD4E902856768FF22511C6846AF
:104E9000D9F810400FF0F6FE6BF3070542986AF35D
:104EA0000F2560F31745012060F31F65CDF80880DA
:104EB000CDE903544846CDE90067FDF727FD694673
:104EC0004846FDF7C5FD43B0BDE8F08F2DE9F04F32
:104ED0008648874E00250368C1B074422F461720CC
:104EE000FFF7F9FE84461420FFF7F5FE40B2B3F158
:104EF000FF3F04D0BCF1000F03D12D2801D0FFF7F4
:104F000049FF1420FFF7E7FE40B202901520FFF79B
:104F1000E2FE4FFA80F91620FFF7DDFE40B2019065
:104F20001620FFF7D8FE404240B20090FCF7CCFEBE
:104F3000DFF8C0A1834600208AF804008AF8050043
:104F40008AF80600FBF771FC00281CBF00208AF8D5
:104F5000070009F0E9FD00208AF80000FEF75CFF79
:104F60001BF0010F04D00FF092FE012808BF0125AD
:104F70001BF0020F7ED060489AF80110604A90F84A
:104F800000C05E4801EB810102EB012200784FF086
:104F900000080028C8BFACF1010A1EDD0021BAF1EB
:104FA000000F16DD01F1010B01FB00830BFB008BF1
:104FB00032F8133032F81BB0A3EB0B031BB2002BFB
:104FC000B8BF5B421BB2BB42C8BF1F46491C51451C
:104FD000E8DB08F101088045E0DBB945B8BF45F0E2
:104FE00002054FF00008C146BCF1000FC8BFA0F198
:104FF000010A1BDD0021BAF1000F13DD09FB0013CC
:1050000032F813B002EB43035B88ABEB03031BB234
:10501000002BB8BF5B421BB24345C8BF9846491C32
:105020005145EBDB09F10109E145E3DB029941451B
:10503000B8BF45F004054FF00009BCF1000F13DDC7
:10504000002300280CDD09FB003132F91110B142B8
:10505000C8BF0E46A142B8BF0C465B1C8342F2DBC0
:1050600009F10109E145EBDB0198B04204DB00984E
:10507000A04200E002E001DD45F0080560421B4C63
:1050800008F0FF0B00F0FF08206807F0FF0A06F0A9
:10509000FF09B0F1FF3F08BFFFF77CFED4E9011024
:1050A0006BF307006AF30F20266869F31740D4E911
:1050B000037465F3070168F31F600D468046FF2205
:1050C000511C68460FF0DEFDCDF80880CDE9037471
:1050D000064CCDE900652046FDF718FC69462046E0
:1050E000FDF7B6FC41B0BDE8F08F000000AE020055
:1050F000F1D8FFFF9C040110D2040110D10401106B
:1051000088120110FE4920F07E40C8607047FC48BC
:10511000C0687047FA4800897047F948408970476D
:105120007047084318BF7047F548C06810F0807F8B
:105130001CBF0020107070472DE9FF5F8346F148C7
:105140000027DDF838A005780398109EB9463C4644
:1051500050452CD006FB050E0F983BF91EC006FBF0
:1051600005093BF91900BCEB000348BFA0EB0C0399
:1051700006FB05A83BF91840B4EB000C48BFA0EBB8
:10518000040C03EB0C0004B231F91EC031F9190014
:10519000BCEB000348BFA0EB0C0331F918C0BCEB1B
:1051A000000148BFA0EB0C0158180FFA80F9012A42
:1051B0002DD04FF001080FF06FFDD349002C0A7875
:1051C0002EDD0F9906FB05113BF91110143128292A
:1051D00026D9039902EB0A0C11448C4520D9119B66
:1051E000129D13442A448B421CBF8D1A15F1020FE5
:1051F00030F9115000EB4106B6F90260A5EB060547
:1052000008D01E353C2D08D94FF0000808E0A14514
:105210000CDD0AE00A35142DF6D8491C8C45E2D87D
:10522000A14503DDB8F1000F00D0012704B03846D6
:10523000BDE8F09FB54A0280428000218280C18093
:105240000181534243818181C181018241828182F6
:10525000C18202837047AA49002008618021AC48BE
:105260000FF0D9BCAB480021016041608160C16092
:10527000016141618161C161016241628162C1621A
:10528000016341638163C1637047A2487047A24ACA
:105290000146A048137852781A4452000FF0C5BC5A
:1052A0002DE9F04F91B00C460546FFF776FB064618
:1052B000DFF860820FF0F5FC914F14203C23D7F803
:1052C00010B00A2284464FF00509BBF1000F09D146
:1052D0000021002C06D935F811A028F811A0491C8E
:1052E0008C42F8D80021002C0AD935F811A038F8E2
:1052F00011E0AAEB0E0A2DF811A0491C8C42F4D83B
:10530000CB4524BF0021002C22D9DFF80492C0F144
:105310000008EA464FF0000B35F911009842B8BF7B
:1053200049F821B011DB59F82100401C49F821004F
:1053300090420AD93AF91100404506DD604504DC87
:1053400036F811E0704426F81100491CA142E3D35D
:105350003046FFF724FB386942F2107188423ABFA9
:10536000401C386139616C48294602784078104405
:10537000420068480FF059FC11B0BDE8F08F70B5DD
:1053800004460FF093FC5F490123062209784FF091
:10539000090C02FB013230F91250142DD8BF70BD38
:1053A00000EB4202B2F90220142AA8BF70BD0CFB28
:1053B000013130F91120142AD8BF70BD00EB410033
:1053C000B0F902001428A8BF70BD4FF0FF30206074
:1053D0004B48037170BD2DE9FF4F85B09846DDE95C
:1053E00013A791460446DDF848B009F07DFB09F0AB
:1053F000ACFB0026424D002840F0DB8000F034F981
:10540000052800F0D6800698CDE902070A2004900E
:1054100042481E27007800903B4800780190288978
:1054200010B92878012819D109F0C9FBB0B9BAF12F
:10543000010F13D0BBF1010F02D16889C8280DD824
:1054400009F06FFB01280BD0DDE90012002089185C
:1054500012D0029A32F91020BA4209DDAE711BE077
:10546000052004900398012814BF28273227EBE772
:10547000401C80B28142ECD8E86810F4803F0BD029
:10548000A879401CC0B2A8710499884204D90120AF
:1054900028714FF0FF34AE7109F043FB01287DD134
:1054A000BBF1000F3CDCBAF1010F39D0E86810F411
:1054B000003F0AD06879401CC0B268710A2804D93C
:1054C000012028714FF0FF346E710A2001901348BB
:1054D00000274FF01E0B007800900B4890F800A0BA
:1054E0000FF0E9FB01460020AAF1010CBCF1000F0E
:1054F00028DD31F910201E2A14DDEE7159E000007C
:10550000B8040110D1040110D7040110F1D8FFFF35
:10551000C029011080290110D9040110D6040110FE
:105520006E71D2E701EB4003B3F90230002BB8BF34
:10553000002A03DAD21ABA42C8BF17B2401C80B29E
:105540006045D6DB31F910001E28D6DC00985044A7
:10555000431E534515DD31F91A001E28CDDC01EB41
:105560004A02B2F90220002AB8BF002803DA801AE2
:10557000B842C8BF07B20AF101001FFA80FA5345CA
:10558000E9DC31F91A001E28B7DCE86810F4002FB6
:105590000FD05F45B1DDE879401C00E009E0C0B202
:1055A000E8710199884204D9012028714FF0FF3435
:1055B000EE71B4F1FF3F21D0002C07BFA87801287D
:1055C00009B0BDE8F08FAE7009F08EFA04282BD038
:1055D00005F0E5FB042827D0B9F1000F1CBF4846B1
:1055E000FEF7C8FBB8F1000F04BF09B0BDE8F08FAB
:1055F000404609B0BDE8F04FFEF753BB28790128BB
:105600001CBF09B0BDE8F08F4846FFF76BF82E715C
:10561000B9F1000F1CBF4846FEF7ACFBB8F1000F14
:10562000E6D109B0BDE8F08FB9F1000F1CBF4846C4
:10563000FEF76CFBB8F1000F04BF09B0BDE8F08FB6
:10564000404609B0BDE8F04F0FF03ABB10B506F088
:10565000EBFA06F094FB002010BD0000F9498870B9
:105660007047F84880787047F64800787047F548EA
:1056700040787047F3480078022805D005281CBF01
:105680000020704705F08BBB09F02EBAED49087079
:10569000704770B5EB4E04460D463078A04212D0EC
:1056A00002281AD0052814BF002005F078FB44EA30
:1056B00005213278002341EA024141EA006261217A
:1056C000072008F043FD7570072C28BF70BDDFE888
:1056D00004F016070B13160F160009F005FAE6E79B
:1056E000284600F055FA0AE0284609F0A0FA06E03C
:1056F000284605F049FB02E0284608F0DFFD34703B
:1057000070BDD14900200968B1F8641011F4807FA0
:1057100008BF7047FDF71CB8CB4900200968B1F8F5
:10572000641011F4807F08BF7047FDF720B8C649A8
:1057300000200968B1F8641011F4007F08BF7047B9
:105740000FF0C3BAC04900200968B1F8641011F421
:10575000806F08BF70470FF0BDBABA49C8780028FB
:105760001CBF401EC870704770B5B849D1F8CC0056
:10577000B44C10F0030F0AD040F4BE0040F02040BB
:10578000C1F8C800E078002804BF0120E070B048EC
:105790008068AD4D10F0020F296807D14FF040200E
:1057A000406910F0010F01D0E07840B1B1F8641009
:1057B000002011F4807F18BFFCF7D9FF07E0B1F893
:1057C0006410002011F4806F18BF0FF083FAA14914
:1057D000084208BF70BD2968496E090CE17070BDB0
:1057E00010B572B6FEF7F4F8BDE81040FDF753BEF1
:1057F00010B5012802D0022805D008E04FF42F3060
:10580000FDF784F803E04FF040219348086772B633
:10581000FEF7DEF8BDE81040FDF73DBE89490028DF
:105820000A7918BF01200871C0B2824208BF7047D0
:105830000022002818BF012200230121022008F0C5
:1058400085BC80480079002818BF012070477D483A
:10585000406970477B48006970477A4800690028B2
:1058600018BFC07A7047774988617047754880696A
:1058700070477449C86170477248C0697047724880
:10588000026802F5C073118A508A02F5A072FCF713
:10589000E8BA2DE9F04FDFF8AC9197B08A46C9F825
:1058A000140006F0E3F8C9F81000002800F0A48006
:1058B00090F800C089F805C0417889F8061083780F
:1058C00004460CF1010089F8073000F0FE0089F869
:1058D0000800E27889F80920207989F80A006079BF
:1058E00089F80B0009F10D05A0792870E07968703E
:1058F000207889F80C006046FCF7BDFB99F80B1086
:1059000099F80A00FCF7DAFB69782878FCF7E0FBE5
:105910006946204606F0D3F8608AD9F81850002866
:105920001CBF6843050BB4F81A80D9F81C60B8F1A5
:10593000000F08BF4FF48058678C002F08BF4FF44A
:10594000805700201AF0040F18BF4FF485701AF02A
:10595000080F18BF40F004001AF0020F1CBF40F2FD
:10596000012108431AF0010F18BF40F48460616AF6
:105970006FF30F0A08406FF30F0108434AEA000A69
:105980000098109004981190089812900C98149018
:10599000019813900798159010A95046FCF785F8C8
:1059A0001AF0020F71D005F018FC5FEA000B30D03E
:1059B00005F02AFC6843050B59460020FBF778FCEC
:1059C000218A00291CBF0020FBF7E9FC05F03CFC04
:1059D0007043000B8030020A0820012101FA00F315
:1059E000134201D1401EF9D5061FA07B002818BF25
:1059F000A0F1010B17D112E013480068B0F8640061
:105A000010F4807F18BFFCF7B2FE002017B0BDE88D
:105A1000F08FB4F80CB0BBF1000FCDD1D0E700206F
:105A2000FBF731FD8346E07B002814BF401EFBF7E7
:105A300056FD0BEB0601042910DD711A0E1D042121
:105A400010E00000CC0401103C0601100060004092
:105A50000080004008000300AD2007B00029BCBF53
:105A6000761A00210644042E03DD301FC5400426AB
:105A700004E0002E02DA7042854000260020FBF789
:105A800018FD31460020FBF740FD1AF0010F23D02E
:105A9000A18A00291CBF0120FBF70AFC268B3EB11E
:105AA00031460120FBF77BFC31461120FBF777FCE8
:105AB000A67D3EB1711E0120FBF7FBFC711E11207B
:105AC000FBF7F7FCE67D3EB1711E0120FBF71DFDE3
:105AD000711E1120FBF719FD1AF0200F23D0A18BA6
