:100000005446495300010000A84C0200E70C1A10A6
:10001000101701041610261444315930101702002D
:100020001610261444313030101701121610261401
:100030004431594C030000000000000000000000A3
:1000400054464353002000000C240200000000002E
:100050000080011001210000252100004122000044
:10006000292100002B2100002D2100003D2100004E
:100070003D2100003D2100003D2100002F21000016
:10008000312100003D21000033210000A55A00006D
:100090008B5B0000372100003D210000094B001060
:1000A000372100009F3E0000A53E00003D210000DA
:1000B0003D210000CF5600002D4E0000AB3E000059
:1000C00055540000372100003D2100003D21000073
:1000D0000000000000000000000000000000000020
:1000E0000000000000000000000000000000000010
:1000F0000000000000000000000000000000000000
:1001000000000000000000000000000000000000EF
:1001100000000000000000000000000000000000DF
:1001200000000000000000000000000000000000CF
:1001300000000000000000000000000000000000BF
:1001400000000000000000000000000000000000AF
:1001500000F003F800F020F8FEE70D480168890878
:100160008900002001C101C101C101C17047000027
:1001700088590010FEE7FEE7FEE7FEE7FEE7FEE730
:10018000FEE7FEE7FEE703480047FEE7FEE7000064
:10019000202100003D21000000F002F800F068F886
:1001A0000AA090E8000C82448344AAF10107DA45D2
:1001B00001D100F05DF8AFF2090EBAE80F0013F0BC
:1001C000010F18BFFB1A43F001031847F8CD0100D7
:1001D00048CE01000A444FF0000C10F8013B13F028
:1001E000070408BF10F8014B1D1108BF10F8015B90
:1001F000641E05D010F8016B641E01F8016BF9D183
:1002000013F0080F1EBF10F8014BAD1C0C1B09D1D9
:100210006D1E58BF01F801CBFAD505E014F8016B4B
:1002200001F8016B6D1EF9D59142D6D370470000DD
:10023000103A24BF78C878C1FAD8520724BF30C812
:1002400030C144BF04680C607047000000230024E4
:1002500000250026103A28BF78C1FBD8520728BFD6
:1002600030C148BF0B6070471FB51FBD10B510BD32
:10027000DFF80CD0FFF7F8FF04F0B8FF1CF00AF825
:100280000080011003B4FFF7F1FF03BC1CF00AF873
:100290001EF0040F0CBFEFF30880EFF3098009F0A4
:1002A00005BF000008B5002103200B460A46009157
:1002B0001AF0CAFD08BD38B5FC4D0024AC80EC80B6
:1002C0002C811AF09EFD2861FF20A870F848234673
:1002D00022460460446004720120E8700320214635
:1002E00000941AF0B1FD012038BD38B5EF4D022859
:1002F000AC7822460DD0052810D0A24208BF38BDE8
:10030000002003460246214600901AF09DFDAC7085
:1003100038BD022914BF01240224EEE7022914BFCC
:1003200064246524E9E738B513460A464FF0010C0A
:1003300000240146604600941AF086FD38BDDB4873
:1003400000697047D949012008707047D748007884
:100350007047D6490020087070472DE9F0410446E7
:100360000127002503F00700D04E8846012804BF6E
:100370000020308146D0022844D1308904280BD295
:10038000002818BFF06802D11AF07FFDF06010F865
:10039000011B2170F0602EE0062808D21AF077FDCC
:1003A0003189C1F10501C900C840207023E0082847
:1003B00008D21AF070FD3189C1F10701C900C840A7
:1003C000207018E00C2808D21AF01BFD3189C1F109
:1003D0000B01C900C84020700DE00E2808D21AF0A9
:1003E00012FD3189C1F10D01C900C840207002E041
:1003F000FF20207000273089401C80B230810E28F9
:1004000028BF012588F800503846BDE8F08130B497
:1004100003F007000024DFF894C201280BD06046E7
:10042000BCF808308088022B0CD2120242EA10205D
:10043000ACF8040010E0ACF80440ACF80640ACF8AE
:1004400008400CE01844851EB5F5806F04DADCF82E
:100450001050284400F8022C581CACF808000C700E
:1004600030BC00207047F0B40746002003F00704BA
:100470008E4D0646012C08BF2E811AD0DFF82CC203
:10048000022CBCF806C003D013F0070F0DD010E00B
:100490002A890CEB0203B3F5806F0AD22869C05C8D
:1004A0003870501C2881012003E0120242EA1C220D
:1004B000EA800E70F0BC704738B503F007000024E6
:1004C0000D4601280AD1794821460B4604818480D3
:1004D000C48002200A4600941AF0B6FC2C7000205A
:1004E00038BD2DE9F04182B00446DDE908061F461B
:1004F0000D464FF0010804EB061C002818BF022827
:1005000018D0002101287CD003281CBF02B0BDE810
:10051000F0810F202070032060706180A180E18055
:1005200021816181A181A07B20F00100A07302B034
:10053000BDE8F0810CF8106C0CF80F0CB5F8B400A5
:100540002CF80E0CB5F8B6002CF80C0C95F89000B1
:100550002CF80A0C95F891002CF8080C95F89200EC
:100560002CF8060CA88A2CF8040C92F848101CF8F9
:10057000020C61F300000CF8020C95F8EE00012863
:100580001CBF02B0BDE8F08104F038FE05281CBF96
:1005900002B0BDE8F08109F020FE042804BF02B0DB
:1005A000BDE8F081C0208DF8000095F899008DF825
:1005B000010095F8990004EB001030F80E0C000AC9
:1005C0008DF8020095F8990004EB001010F80E0C5D
:1005D0008DF8030095F8990004EB001030F80C0C2E
:1005E000000A8DF8040095F8990004EB001010F84B
:1005F0000C0C8DF805000CF0BBFE9DF800100909ED
:1006000000E00FE008FA01F1084204BF02B0BDE8C3
:10061000F08101230622694607200CF0DFFE02B0BC
:10062000BDE8F0810CF8106C0CF80F8C2CF80E1C47
:100630002CF80C1C2CF80A1C2CF8081C2CF8061C96
:100640002CF8041C1CF8020C20F001000CF8020C21
:1006500004F0D4FD05281CBF02B0BDE8F08109F00C
:10066000BCFD042804BF02B0BDE8F081C1208DF8B4
:1006700000008DF801607888000A8DF80200B878D3
:100680008DF80300B888000A8DF8040038798DF8D9
:1006900005000CF06DFE9DF80010090908FA01F143
:1006A0000842B6D102B0BDE8F0810000008400101D
:1006B000388700102B49002048707047294840783F
:1006C00070472849012048707047274A11547047E5
:1006D000244800B5006983B04FF00001407810F065
:1006E000020F0AD000918DF80410012305226946FB
:1006F00000200CF09AFE03B000BD10F0040F12D0E1
:1007000001208DF800008DF801108DF802108DF891
:1007100003108DF8041003460522694600200CF0F2
:1007200084FE03B000BD10F0C00F4FF001034FF086
:10073000000206D003B0012103205DF804EB0CF0A9
:100740001DBE03B0632107205DF804EB0CF016BE5C
:1007500070470449002818BF0120C870704701483D
:10076000C078704700840010388700107047FE483A
:10077000D0F8500300F00100704770B5FA4D040046
:100780000AD001F020FB38B9D5F8500310F0010F62
:100790001CBF0020A86005D10120A860002C08BF64
:1007A000002000D00120286270BDEF48006A0028B8
:1007B00018BF01207047C00000F1804000F5A04044
:1007C00041637047C00000F1804000F5A040006B1D
:1007D00000F4807070471021C00000F1804000F5E7
:1007E000A04041637047E049D1F8402160F30D22F9
:1007F000C1F840217047DC48D0F84001C0F3052023
:10080000704700F00F0202EB42029201C0F30310A6
:1008100002EB801000F1804000F5A0400029D0F8E4
:10082000401114BF41F0010121F00101C0F8401155
:10083000704700F00F0101EB41018901C0F3031083
:1008400001EB801000F1804000F5A040D0F840019D
:1008500000F001007047C44900230B6202680A607F
:1008600042684A6082688A60C268CA60426A0A64F2
:10087000826A4A6402698A614269CA61826B0A6655
:10088000826C0A67C26C4A67026D8A67426DCA67EA
:10089000826DC1F88020C26DC1F88420026EC1F85B
:1008A0008820426EC1F88C20426FC1F8B020C26F20
:1008B000C1F8B820C26EC1F8A820D0F89422C1F8BF
:1008C0005023D0F89822C1F85423D0F89C22C1F8C4
:1008D0005823D0F8A022C1F85C23D0F88420C1F8B6
:1008E000F020D0F88820C1F8F420D0F88C20C1F88E
:1008F000F820D0F89020C1F8FC2021224A63CA6376
:10090000C2694A62C26A8A64026BCA64026FC1F831
:10091000AC20026ACA62426B0A65C26B4A66026C0C
:100920008A66426CCA66826FC1F8B420D0F8802013
:10093000C1F8BC20D0F8A422C1F86023D0F8A822C6
:10094000C1F86423D0F8AC22C1F86823D0F8B022F3
:10095000C1F86C23D0F8B422C1F87023D0F8B822C3
:10096000C1F87423D0F8BC22C1F87823D0F8C02293
:10097000C1F87C23D0F88C2222F48032C1F84023C5
:10098000D0F89022C1F84C23D0F89420C1F800216F
:10099000D0F89820C1F80421D0F89C20C1F8082193
:1009A000D0F8A020C1F80C21D0F8A420C1F8102163
:1009B000D0F8A820C1F81421D0F8C820C1F83421FB
:1009C000D0F8AC20C1F81821D0F8B020C1F81C2113
:1009D000D0F8B420C1F82021D0F8B820C1F82421E3
:1009E000D0F8BC20C1F82821D0F8C020C1F82C21B3
:1009F000D0F8C420C1F83021D0F8CC20C1F8402173
:100A0000D0F8D020C1F84421D0F8D820C1F84C212A
:100A1000D0F8E420C1F86021D0F8E820C1F86421C2
:100A2000D0F8EC20C1F86821D0F8F020C1F86C2192
:100A3000D0F8D420C1F84821D0F8DC20C1F85021EA
:100A4000D0F8E020C1F85421D0F8F420C1F870218A
:100A5000D0F8F820C1F87421D0F8FC20C1F8782132
:100A6000D0F80021C1F87C21D0F83C21C1F8C02188
:100A7000D0F84021C1F8C421D0F84421C1F8C821E0
:100A8000D0F84821C1F8CC21D0F84C21C1F8D021B0
:100A9000D0F85021C1F8D421D0F87021C1F8F42148
:100AA000D0F85421C1F8D821D0F85821C1F8DC2160
:100AB000D0F85C21C1F8E021D0F86021C1F8E42130
:100AC000D0F86421C1F8E821D0F86821C1F8EC2100
:100AD000D0F86C21C1F8F021D0F87421C1F80022BF
:100AE000D0F87821C1F80422D0F88021C1F80C2276
:100AF000D0F88C21C1F82022D0F89021C1F824220E
:100B0000D0F89421C1F82822D0F89821C1F82C22DD
:100B1000D0F8AC21C1F84022D0F8B021C1F844226D
:100B2000D0F8B821C1F84C22D0F8C421C1F8602215
:100B3000D0F8C821C1F86422D0F8CC21C1F86822CD
:100B4000D0F8D021C1F86C22D0F87C21C1F808225D
:100B5000D0F88421C1F81022D0F88821C1F81422DD
:100B6000D0F89C2102E0000000500040C1F8302283
:100B7000D0F8A021C1F83422D0F8A421C1F838223D
:100B8000D0F8A821C1F83C22D0F8B421C1F84822FD
:100B9000D0F8BC21C1F85022D0F8C021C1F85422AD
:100BA000D0F8D421C1F87022D0F8D821C1F874222D
:100BB000D0F8DC21C1F87822D0F8E021C1F87C22FD
:100BC000D0F8E421C1F88022D0F8E821C1F88422CD
:100BD000D0F8EC21C1F88822D0F8F021C1F88C229D
:100BE000D0F8F421C1F89022D0F8F821C1F894226D
:100BF000D0F81822C1F8B422D0F8FC21C1F898220C
:100C0000D0F80022C1F89C22D0F80422C1F8A0221A
:100C1000D0F80822C1F8A422D0F80C22C1F8A822EA
:100C2000D0F81022C1F8AC22D0F81422C1F8B022BA
:100C3000D0F81C22C1F8C022D0F82022C1F8C4226A
:100C4000D0F82822C1F8CC22D0F83422C1F8E02212
:100C5000D0F83822C1F8E422D0F83C22C1F8E822CA
:100C6000D0F84022C1F8EC22D0F85422C1F8002379
:100C7000D0F85822C1F80423D0F86022C1F80C2320
:100C8000D0F86C22C1F82023D0F87022C1F82423B8
:100C9000D0F87422C1F82823D0F87822C1F82C2388
:100CA000D0F82422C1F8C822D0F82C22C1F8D022D2
:100CB000D0F83022C1F8D422D0F84422C1F8F02272
:100CC000D0F84822C1F8F422D0F84C22C1F8F8221A
:100CD000D0F85022C1F8FC22D0F85C22C1F80823D9
:100CE000D0F86422C1F81023D0F86822C1F8142388
:100CF000D0F87C22C1F83023D0F88022C1F8342308
:100D0000D0F88422C1F83823D0F88822C1F83C23D7
:100D1000FE4A126832F0FF0C05D1D1F890C062F3A0
:100D2000030CC1F890C0FA4A5370D0F8943213F013
:100D3000010F1CBF01235370D1F8503323F001037E
:100D4000C1F85033D0F8A43213F0010F03D0537818
:100D500043F002035370D1F8603323F00103C1F86C
:100D60006033D0F8B43213F0010F03D0537843F05E
:100D700004035370D1F8703323F00103C1F87033CA
:100D8000D0F8AC0210F0010F03D0507840F008000A
:100D90005070D1F8680320F00100C1F86803704773
:100DA000DB4800787047DA4880787047D849C870C7
:100DB0007047D748C0787047D649D1F8542360F3BC
:100DC0000902C1F854237047D248D0F85403C0F345
:100DD00009007047CE4948607047CE48C0687047E8
:100DE0002DE9F047DFF82893054615F4003F99F800
:100DF000010099F8031000EA010418BF24F001046F
:100E000015F4802F18BF24F0020415F4002F18BF2A
:100E100024F00404DFF8FC82D8F8400320F480308A
:100E2000C8F8400314F0070F59D0D9F80460D8F877
:100E30004803002740F00100C8F84803D8F84803E9
:100E400020F00100C8F84803D8F8400340F480308F
:100E5000C8F840034FF0630A0DE002F0B4FE5046BC
:100E6000D8F8481311F0010F01D0012703E0011E4B
:100E7000A0F10100F4DC301EA6F1010601DD002F17
:100E8000EBD067B3D8F8500314F0010F0CBF20F07B
:100E9000010040F00100C8F85003D8F8600314F0D6
:100EA000020F14BF40F0010020F00100C8F86003F9
:100EB000D8F8700314F0040F14BF40F0010020F0C4
:100EC0000100C8F8700389F80240012089F8000089
:100ED000D8F8400340F48030C8F8400333E0D8F835
:100EE000500320F00100C8F85003D8F8600320F048
:100EF0000100C8F86003D8F8700320F00100C8F8BA
:100F00007003002089F80200ACB1022089F80000CB
:100F1000D8F8400340F48030C8F84003D8F84803BC
:100F200040F00100C8F84803D8F8480320F0010059
:100F3000C8F8480307E0D8F8401321F48031C8F816
:100F4000401389F80000D8F8400115F0020F20F096
:100F50000D0018BF40F0010015F0080F18BF40F059
:100F6000040015F0040F18BF40F00800C8F8400155
:100F700015F0010F21D001F05AF9044601F05AF999
:100F80000146D8F80C0000280EBF2046084621462E
:100F90000028D8F8000214BF40F0010020F0010042
:100FA000C8F80002D8F84002002914BF40F0010040
:100FB00020F00100C8F840020BE0D8F8000220F051
:100FC0000100C8F80002D8F8400220F00100C8F87B
:100FD000400215F0200F18BF002417D0204601F062
:100FE00030F900284FEA841000F1804000F5A0405D
:100FF000D0F8C01214BF41F0010121F00101C0F886
:10100000C012641C022CE9D3BDE8F087D8F8C002F6
:1010100020F00100C8F8C002D8F8000320F0010059
:10102000C8F80003BDE8F0872DE9F003024602F09E
:101030000F01002001EB41018C01C2F3031104EB0D
:10104000811101F1804101F5A041D1F8401111F069
:10105000010F11D142F01001C1F3031104EB811112
:1010600001F1804101F5A041D1F8401111F0010FCB
:1010700004BFBDE8F003704702EB42018E0106F1A8
:10108000804101F5A041D1F82431C3F30809214B77
:10109000DB69D1F8001103F008071FFA81F800217D
:1010A00042EA0113C3F3031304EB831303F18043F8
:1010B00003F5A043D3F8403113F0010F18D006EB2D
:1010C000811303F1804303F5A043D3F844C1CCF36B
:1010D000080517F1000C1CBFD3F844C1CCF3023C47
:1010E000D3F8403105FA0CFCC3F3054360441844BF
:1010F000491C0229D4D309EBC90100FB08F001EB1C
:101100000911BDE8F00300EB41007047E0FE030069
:10111000148400100050004010B50120FFF784FF38
:1011200004460220FFF780FF044400F03CFC20440A
:101130004FF47A7148434CF25031B0FBF1F010BDDE
:101140002DE9F041FA4E0546306810F01F0408BF43
:1011500001240120FFF768FF07460220FFF764FF24
:10116000074400F020FC3918F24F002D18BF002969
:101170004ED0D6F85003002210F0010F36D0782060
:10118000B0EB151F08D9D6F85C0320F00F0040F033
:101190000100C6F85C032EE0D6F85403E64BC0F31A
:1011A000090060436FF0180C00FB0CF003EB4003E8
:1011B000E248A0FB05C04FEA502CB3FBF1F0102829
:1011C00028BF0F20844598BF6046002808BF012033
:1011D00005D0012884BF00FB1132B2FBF0F2D6F833
:1011E0005C3360F30303C6F85C3304E0B7FBF5F04F
:1011F000884288BF421A32206043B2FBF0F0B0F55B
:10120000005F28BF41F6FF70726860F30C027260E5
:101210007068C0F30C00604300EBC00202EB0010EA
:1012200001EB4000B7FBF0F0BDE8F081C048D0F81A
:10123000501311F0010F07D0D0F85C0300F00F003D
:10124000C0EB00108001704770B50168406801F084
:101250001F05C0F30C060120FFF7E6FE044602203E
:10126000FFF7E2FE044400F09EFB06FB05F132228C
:1012700001FB02410844AF49B1FBF0F070BDAC483E
:10128000D0F85C0300F00F007047A9494A684B682A
:10129000C2F30C0260F30C034B6010467047A44885
:1012A0004068C0F30C00704700EB4000800100F183
:1012B000804000F5A040D0F80001A14980B2B1FB08
:1012C000F0F0401C4008704730B49D4B31B1B3FB87
:1012D000F1F1491C4A08B2F5804F01D343F6FF7281
:1012E000B3FBF2F1491C4D0800EB400189015308A2
:1012F00001F1804101F5A041002807BF981FA3F12B
:101300000C0CD1F8040180B218BFA2F1060C2CF02D
:10131000010CD1F8004162F30F04C1F80041D1F88B
:10132000002163F31F42C1F80021D1F8042160F3CA
:101330000F02C1F80421D1F818016CF30F00C1F8B5
:101340001801284630BC704700EB4000800100F1D6
:10135000804000F5A040D0F80001000C704700EB81
:101360004002920102F1804202F5A042D2F800311F
:1013700061F31F43C2F80031002818BF70478A1F6D
:10138000901F20F001016A48D0F8043162F30F0386
:10139000C0F80431D0F8182161F30F02C0F8182109
:1013A000704700F00F0101EB41018901C0F3031008
:1013B00001EB801000F1804000F5A040D0F844011E
:1013C000C0F30800704700F00F0202EB42029201E6
:1013D000C0F303105B4B02EB801000F1804000F57E
:1013E000A0409B58D0F84421CB1A61F30802C0F802
:1013F0004421D0F844119B1E63F31841C0F84411F6
:1014000070474B49C969504A11F0100F00F00F01A5
:1014100001EB41014FEA8111C0F3031001EB801091
:1014200000F1804000F5A0405258D0F84401D2B2FB
:10143000C0F3080008BF0022801A0004000C08BF97
:101440000120704703091B0203EB810101F14051A8
:1014500001F540410007C00E0B6802FA00F0184386
:10146000086070470209120202EB810101F140514C
:1014700001F5404100070968C00E21FA00F000F0B4
:101480000300704700F00F0303EB43039B01C0F31D
:10149000031003EB801000EB810000F1804000F5A9
:1014A000A040C0F85021704700F00F0202EB42024A
:1014B0009201C0F3031002EB801000EB810000F1F9
:1014C000804000F5A040D0F850017047184A002134
:1014D000D26912F0080F10D000F00F0101EB4101AA
:1014E0008901C0F3031001EB801000F1804000F58A
:1014F000A040D0F84401C0F30231084670470C4ABE
:10150000D36943F00803D36100F00F0202EB4202FB
:101510009201C0F3031002EB801000F1804000F54F
:10152000A040D0F8442161F30E32C0F84421704746
:10153000005000400008AF2FD8810C0089888888AF
:10154000A08601001C51004028510040F84A0021AB
:10155000D26912F0080F10D000F00F0101EB410129
:101560008901C0F3031001EB801000F1804000F509
:10157000A040D0F84801C0F302410846704700F08F
:101580000F0202EB42029201C0F3031002EB801043
:1015900000F1804000F5A040D0F8482161F31242EC
:1015A000C0F848217047042988BF704710B4002351
:1015B000DF4CE26912F0080F00F00F0202EB42026A
:1015C0004FEA8212C0F3031002EB801000EB04021A
:1015D0001CBFD2F84401C0F302330020D4F81CC071
:1015E0001CF0080F1CBFD2F84801C0F30240C91A12
:1015F0000844042803DD081A011D042003E0002824
:10160000BCBF014400201944E36943F00803E361CF
:10161000D2F8443161F30E33C2F84431D2F84811A4
:1016200060F31241C2F8481110BC7047C04900284D
:10163000886914BF40F0080020F0080088617047F6
:10164000BB488069C0F3C000704700F00F0202EB96
:1016500042029201C0F3031002EB801000F18040BF
:1016600000F5A040C0F84C11704700F00F0101EBED
:1016700041018901C0F3031001EB801000F18040AB
:1016800000F5A040D0F84C017047A94AD2F85C138D
:10169000022903D110F0010F18BF7047D2F84001A2
:1016A00010F0010F0BD0D2F84C01D2F844110028F1
:1016B000C1F302311EBF0029C043C2F84C01012111
:1016C00001EB410100204FEA811C0CEB801101F17C
:1016D000804101F5A041D1F8402112F0010F0BD05B
:1016E000D1F84C21D1F84431002AC3F302331EBF94
:1016F000002BD243C1F84C21401C0228E5D370478F
:101700008B4A0021D26912F0080F10D000F00F01AF
:1017100001EB41018901C0F3031001EB801000F1DE
:10172000804000F5A040D0F84801C0F300510846C1
:1017300070470120704710B4022ADDF804C026BFAC
:10174000921E52080022022B26BF9B1E5B0800231C
:10175000784CA4FB0C4C4FEA1C1400F00F0C0CEB63
:101760004C0C4FEA8C1CC0F303100CEB801000F102
:10177000804000F5A040D0F864C161F31B6C62F3B7
:10178000144C63F30C2C64F3070CC0F864C110BC58
:10179000704770B400F00F0404EB4404A401C0F3DC
:1017A000031004EB801000F1804000F5A040DDF84C
:1017B0000CC0D0F864010029C0F30366C0F30444F0
:1017C000C0F30425C0B218BF0E6012B16100891CBD
:1017D000116013B16900891C1960BCF1000F04BFCE
:1017E00070BC704700EB80008000CCF8000070BC3B
:1017F000704770B491B000224FF480456C10EC46F5
:1018000001E0082A05D2531C03EB8303B5FBF3F375
:1018100004E0D31F03EB8303B4FBF3F35B1A48BF6D
:101820005B424CF82230521C102AEAD30026009B5F
:1018300001215CF821209A42BCBF13460E46491C88
:101840001029F6D300F00F0101EB41018901C0F32B
:10185000031001EB801000F1804101F5A041D1F8A7
:101860006801D1F8682100F00F0066F30302C1F8A7
:101870006821082807D2401C00EB8000B5FBF0F07F
:1018800011B070BC7047C01F00EB8000B4FBF0F0DB
:1018900011B070BC704700F00F0101EB41018901EC
:1018A000C0F3031001EB801000F1804000F5A04070
:1018B000D0F8680100F00F00082834BF401CC01F9A
:1018C00000EB800034BF4FF480414FF40051B1FB76
:1018D000F0F0704710F00F0F08BF704700F00F00D6
:1018E00000EB4000800100F1804000F5A04000299D
:1018F000D0F82C110CBF21F4803141F48031C0F8B4
:101900002C117047002110F00F0F0ED000F00F00C7
:1019100000EB4000800100F1804000F5A040D0F8CD
:101920002C0110F4803F18BF0121084670470000C9
:1019300000500040CDCCCCCC00F00F0000EB4000BC
:10194000800100F1804202F5A042D2F83401C2F8D1
:10195000341170472F4B58679967DA6770472D49E4
:101960000028D1F8AC0014BF40F0020020F00200C3
:10197000C1F8AC00704727490028D1F8AC0014BF6B
:1019800040F0010020F00100C1F8AC007047214890
:10199000D0F8E00070471F49C1F8E40070471D48C7
:1019A000D0F89800704770B41A4E0020D6F8401155
:1019B00011F0010F04BF70BC704711F0040FD6F88E
:1019C000242101F00805D6F800C1C2F308021FFA6D
:1019D0008CF4D6F844C1CCF3080C18BFC1F307400F
:1019E000F369C1F3052113F008031CBFD6F8443195
:1019F000C3F30233002D18BF491C0CFA03F301FB9B
:101A00000300604302EBC20170BC01EB021100EB6A
:101A10004100704700500040FEF7C7BE10B5FEF70A
:101A2000C4FE012818BF10BD0020FEF7A6FE21212C
:101A30000020FEF7C0FE2121BDE810400120FEF786
:101A4000BABE10B5FEF792FEFEF7AFFE01280AD12E
:101A50000020FEF792FE21210020FEF7ACFE21219E
:101A60000120FEF7A8FE0121052001F0EEFB012177
:101A7000052001F0EAFBFF490020087110BD10B5F8
:101A80004FF4066001F037FCBDE810404FF40660EB
:101A900001F022BCF74A0146107B002818BF012044
:101AA000002918BF012111737047F24A516A506230
:101AB00008467047EF490020C87288704870704728
:101AC000EC490020C87288704870704770B50007F4
:101AD000C00E0D46801E00EB400101EB0014E648ED
:101AE0004FF4987200EBC40029461AF0E1FBE3487A
:101AF00005F5987100EBC400BDE870404FF4987292
:101B00001AF0D6BB2DE9F0410546FEF774FEDC4F16
:101B1000DFF870830446EDB14C2004FB00F216465A
:101B2000294638461AF0C4FB324605F500614046A6
:101B30001AF0BEFB04EB440000EB041407EB840036
:101B40004C211AF0BAFB08EB8400BDE8F0414C21AF
:101B50001AF0B3BB4C21401C41430C4638461AF0E6
:101B6000ACFB21464046BDE8F0411AF0A6BB10B5DB
:101B7000C04CE061FFF734F9FFF712F9A1696FF388
:101B80000F01A161A269C1B242EA0121A16102284B
:101B900018BF10BDA06940F00100A06110BDBA4897
:101BA0008168BA4A114381600168521C1143016087
:101BB00000F061BE2DE9F041B34A0C46054693683A
:101BC000B248184390601068B1490843106000F0B3
:101BD00052FE0026002C76D00020FEF7CEFD2068B5
:101BE00020B1FEF738FE0020FEF7C7FD2846FFF7BC
:101BF000BEFF0020FEF71DFE70B36068FFF782FF96
:101C0000A448E16819B102151AF052FB1DE0A24D7B
:101C10004FF440711AF051FB00200123295600298E
:101C200010DB0A09120202EB800202F1405202F5B7
:101C300040420907C90ED2F800C003FA01F14CEA8C
:101C400001011160401C2628E8D39448616959B10C
:101C50004FF400721AF02CFB0120FEF7EAFDDFF8CA
:101C60001882864F48B904E04FF400711AF025FB42
:101C7000F2E71120FEF7DDFD70B1A56865B14046C1
:101C80004FF4987229461AF013FB38464FF49872B5
:101C900005F598711AF00CFB0220FEF7CAFD18B981
:101CA0001220FEF7C6FD70B1246964B17C484FF480
:101CB000987221461AF0FCFA7A484FF4987204F5AB
:101CC00098711AF0F5FA6B48C672867046704662D3
:101CD000017B002101734FF4066001F00CFBBDE8AD
:101CE000F0414FF4066001F0F7BA10B50020FEF79E
:101CF00044FD00F0ADFD5F48C078002808BF10BD6E
:101D00006148016821F0030141F00D7141F08051FB
:101D10000160816821F0020141F00D7141F08051B4
:101D2000816010BD4FF4066001F0DBBA10B54FF4CE
:101D3000066001F0D6FAFEF738FD01280AD100202E
:101D4000FEF71BFD21210020FEF735FD212101209A
:101D5000FEF731FD5448D0F8401321F48031C0F82B
:101D600040130020FEF709FD00F072FD4148C078E5
:101D7000002808BF10BD4448016821F0030141F06C
:101D80000D7141F080510160816821F0020141F044
:101D90000D7141F08051816010BD10B501F0A6FABF
:101DA00010F0600018BF012010BD3248C0697047B4
:101DB00030488069704772B62E498A6922EA00006D
:101DC000886162B670472B480078002818BF012050
:101DD000704770B5FEF7E9FC002818BF70BD0024FD
:101DE000244DEC72AC706C7021212046FEF7E3FCB0
:101DF00021210120FEF7DFFC2C70BDE8704001209E
:101E0000FEF7BBBC70B50446FEF7CFFC002818BF38
:101E100070BD0021174DE972A97069702121002061
:101E2000FEF7C9FC21210120FEF7C5FC022C3CBFB6
:101E30000120FEF7D0FC012028702C62BDE8704024
:101E4000FEF79BBC10B5FEF7B0FC002818BF10BD14
:101E50000020084CE072A07060702121FEF7ABFCFE
:101E600021210120FEF7A7FC0120FEF7B4FC012090
:101E700020701BE01C840010189D003018BD00303D
:101E80000080003000A000300080004002003412CA
:101E90000300341200C000304487001000D000302E
:101EA000489E003048BE0030005000402062BDE82F
:101EB0001040FEF762BC0020FEF75FBCFE49002028
:101EC000887048700120FEF758BCFB498862704753
:101ED000F948806A7047002818BF0120F649C86297
:101EE0007047F548C06A002818BF012070470020DD
:101EF00000F0CEBB012000F0CBBB10B5FFF747FDD3
:101F00000446FFF748FDED48044208BF10BDEA480B
:101F1000816941F0040181610E2101EAD43104F0AC
:101F200001020A43816962F31F418161E44801684B
:101F300041F02001016010BD002818BF0120DE49DA
:101F4000C8707047DF487047DF487047DA48006B59
:101F50007047D948406B7047D748806B70472DE970
:101F6000F04FD84F4FF0000C8DB007F14C04E6460F
:101F70004FF0FF3807F80C8004F80CE00CF1010C6E
:101F8000BCF1260FF6DB4FF0000C002807DD12F83D
:101F90000C5007F80C500CF1010C6045F7DC0022E6
:101FA0000126CDF804E06D46CDF800E0002816DDEE
:101FB00017F902C0BCF1000F0EDBBCF1260F0BD2EB
:101FC0004FEA5C190CF01F0C55F829A006FA0CFC1E
:101FD0004AEA0C0C45F829C0521C8242E8DB002278
:101FE00094460DF108094FEA521A02F01F0B55F8FA
:101FF0002AA006FA0BFB1AEA0B0F1ABF09F802C057
:102000000CF1010C09F80280521C262AEBDB00229D
:10201000002810DD17F902C0BCF1000F08DBBCF18D
:10202000260F3ABF19F80CC004F802C004F8028069
:10203000521C8242EEDBDFF880A200220028CAF8A0
:1020400030E009DD14F902C0944502D0CAF83040EE
:1020500002E0521C8242F5DBDFF870B20020ABF1E7
:10206000720404F14C0704F8008007F800E00BF854
:1020700000E0401C2628F6DB0020002904DD1A5C65
:102080002254401C8142FADC0020CDF804E0CDF857
:1020900000E0002912DD2256002A0CDB262A0AD293
:1020A000530902F01F0255F823C006FA02F24CEA67
:1020B000020245F82320401C8842ECDB0020024647
:1020C000430900F01F0C55F8233006FA0CFC13EA04
:1020D0000C0F1ABF09F80020521C09F80080401CA0
:1020E0002628EDDB002000290BDD2256002A05DB27
:1020F000262A3CBF19F802200BF80020401C884219
:10210000F3DB0020CAF838E0002909DD1BF90020C4
:10211000824202D0CAF838B002E0401C8842F5DBA7
:1021200011F0010F18BF252015D0420900F01F0340
:1021300055F8222006FA03F31A420AD1420900F0A8
:102140001F0055F8223006FA00F0184345F8220027
:1021500001E0401EE9D500200246430900F01F0CB3
:1021600055F8233006FA0CFC13EA0C0F1ABF09F8D5
:102170000020521C09F80080401C2628EDDB0020BE
:1021800000290ADD2256002A04DB262A3CBF19F862
:1021900002203A54401C8842F4DB0020CAF834E0A4
:1021A0000029DCBF0DB0BDE8F08F3A56824204D062
:1021B000CAF834700DB0BDE8F08F401C8842F4DBE3
:1021C0000DB0BDE8F08F40F2DB114843404901EB10
:1021D000800070473F49C0EB001001EBC000704722
:1021E000DFF8D4C0012B8CF805008CF8061003D959
:1021F000401C20F0010011468CF807008CF80810F4
:1022000000FB01F24FF6FF7101EA4202ACF8122026
:1022100001EA4000ACF8140070472748007A704784
:102220002548C0797047244A5072917270472248FD
:10223000807A70472048407A7047274A1070517062
:1022400070472549085C70472DE9F047DFF8689032
:10225000044699F80C00002804BF99F801001AF010
:1022600031F899F80B00002808BFBDE8F0874FF05F
:102270000008D9F81C0047464646454610F0020FB4
:102280001CBFDFF84C8010F0040F05D0B9F8121015
:102290000F4A21F001018F1810F0010F18BF0D4EE9
:1022A00010F0200F18BF0D4DD9F828002060FEF760
:1022B0007AFD10F0010F13E01C84001001000700EC
:1022C0005C840010448700106A870010DC870010CF
:1022D00004880010708F0010298400106090001096
:1022E00006D0FEF7CCFF022828BF99F8020000D2E2
:1022F0000020E760C4E90108C4E904650120BDE8E5
:10230000F087FF490020C872704770B50546FEF798
:1023100072FA4C2100FB01F21446FA49284619F0E2
:10232000C7FF224605F50060BDE87040F64919F088
:10233000BFBFF0B583B0FEF75EFA04460021084641
:10234000FFF7B2F8009001210020FFF7ADF800225E
:102350000190002C2AD96E464FF0010C4FF6F07513
:1023600002EB4200002100EB02104B0901F01F07B5
:1023700056F823300CFA07F73B4211D0CB079B0CE1
:1023800003EB80034F0803EB870303F1405303F58E
:1023900000431B889BB2AB4202D903B00020F0BDC2
:1023A000491C2629E1D3521CA242D9D303B00120F3
:1023B000F0BD70B50D460107C80E811E01EB41004E
:1023C00000EB0114D1484FF4987200EBC401284689
:1023D00019F06EFFCE484FF4987200EBC40105F57A
:1023E0009870BDE8704019F063BF2DE9F04F00F020
:1023F0000F07780083B0A0F1020B0025E9464FF0EB
:1024000001084FF6F07647EA051A5046FEF711FA32
:10241000002843D05046FFF759F808FA00F4022C80
:1024200088BF022400215046FFF73EF800900121AA
:102430005046FFF739F800210190002C2ED90BEB04
:102440000500982200FB02FA01EB4102002002EB9A
:10245000011C420900F01F0359F8222008FA03F377
:102460001A4215D000F001020AEB423202EB8C0254
:10247000430802EB830202F1405202F51042B2F827
:10248000182D92B2B24203D903B00020BDE8F08FFC
:10249000401C2628DDD3491CA142D5D36D1C022D3A
:1024A000B1D303B00120BDE8F08F2DE9F041002643
:1024B000934D00280C4640D000F00F01C0F30310EC
:1024C00001290EBF00210229BDE8F081022828BFA2
:1024D000BDE8F0810F18FEF768F95FEA00081CBF3D
:1024E0000020FEF74AF90023982007FB00FC03EBCD
:1024F0004300002200EB031702F001000CEB403018
:10250000510800EB870000EB810000F1405000F51E
:102510001040521CC0F8184D262AEDD35B1C022B2C
:10252000E5D3B8F1000F08BFBDE8F081AE706E7062
:10253000BDE8F0410120FEF720B9FEF736F95FEA69
:1025400000081CBF0020FEF718F9002303EB43002E
:10255000002200EB031CD007800C510800EB8C001C
:1025600000EB810707F1405707F50047521C3C601C
:10257000262AF0D35B1C312BE8D3B8F1000FD5D15C
:10258000BDE8F08110B5FEF73CFF5D49088210BD43
:102590005B4AC1B200F47F43128A914288BF114660
:1025A0004FF0640C01FB0CF1B1FBF2F11A0A02FBD3
:1025B0000C1110F4803F12BF08B2484200B27047BD
:1025C00010B54FF44071534C534819F076FE00207B
:1025D00001232156002910DB0A09120202EB8002B6
:1025E00002F1405202F540420907C90ED2F800C07C
:1025F00003FA01F14CEA01011160401C2628E8D3DE
:1026000010BD10B5434C4FF44071434819F055FECE
:10261000002001232156002910DB0A09120202EBD7
:10262000800202F1405202F540420907C90ED2F879
:1026300000C003FA01F14CEA01011160401C262898
:10264000E8D341F678712F4819F037FEBDE8104005
:1026500041F678712C4819F030BE294810B5808BAE
:1026600000F48170FFF783FA4FF440712A4819F0A3
:1026700024FE41F61851234819F01FFE41F6185167
:10268000214819F01AFEBDE810400020FEF7FDBDFC
:1026900070B51B4C0546A06A401CA062E16A002987
:1026A00018BFFEF7F2FF207850B1206A10B1206AFF
:1026B000401E2062206A002804BF0020FEF75DF85B
:1026C00020212846FEF777F8616A00291CBF2846BA
:1026D0008847FEF765FB022826D11048D0F848133A
:1026E00011F0010F20D0D0F8481341F00101C0F8DB
:1026F0004813D0F8481321F00101C0F848130FE047
:102700001C8400100080003000A00030189D0030B4
:1027100018BD00304487001000C000300050004059
:10272000A06940F00200A0610248016841F0200168
:10273000016070BD5C840010F0B40024634E01237E
:1027400082B0002808BF33701CD00128347018BF35
:10275000747017D05E4D28685E4908432860317850
:102760005D4A002914BF49F608305C48D06014BFA8
:102770005B484FF0BB7090605A48006830F0FF0C27
:1027800008D101E07370E5E7D2F80CC060F3030CE8
:10279000C2F80CC040F2E24CA9B1906840F01800B9
:1027A00090600120009004E00198471E0197FBD241
:1027B0000098471E009728BFCDF804C0F4D2906857
:1027C00040F4805090600120009004E00198471E82
:1027D0000197FBD20098471E009728BFCDF804C090
:1027E000F4D2707818B1D06840F03000D060D2F8E0
:1027F000B00040F00100C2F8B0000120009004E0F9
:102800000198461E0196FBD20098461E009628BFEE
:10281000CDF804C0F4D2D3674FF4E0601061C2F881
:102820008840002918BFC2F89430D06820F03000EA
:10283000D060906820F480509060286820F00400F8
:1028400040F00D7040F08050286002B0F0BC70473E
:102850002148C16821F03001C160816821F48051B4
:1028600081601B48016821F0040141F00D7141F0C5
:102870008051016070471648026816491143016093
:10288000124915480A783AB1826842F0180282600B
:10289000826842F480528260497819B1C16841F07F
:1028A0003001C160D0F8B01041F00101C0F8B010A3
:1028B00070470D49C0B241EA0020074908647047DB
:1028C00005494FF02040086470470000588400100C
:1028D00000800040040034120060004005F4010054
:1028E00020009B00D0FE0300130000A04248414995
:1028F0008161891CC1614A1E4263036823F003039E
:1029000043F00D7343F080530360436923F00103E8
:1029100043F00D7343F08053436103691A4302612E
:10292000364A8260364AC260C2681143C160354986
:1029300000200860704710B501F03DF93148046887
:10294000002C08BF30BFFAD00021016001F037F938
:10295000204610BD10B501F02EF92648294B264916
:10296000421C1C682CB10020186001F028F9204698
:1029700010BD72B648638A6120BF88614A6362B63F
:10298000BFF36F8FBFF34F8FEBE71B48016821F058
:10299000030141F00D7141F0805101601A498160DD
:1029A00001691A4A1143016130BF704772B611497B
:1029B00011484163C91CC161891E816162B67047BB
:1029C0000D480168124A1143016070470A480168C6
:1029D00021F0030141F00D7141F080510160704719
:1029E00072B6044904488161891CC161491E416372
:1029F00062B6704700003412008000403C00341280
:102A0000280034125C8400100800341201003412D3
:102A100003003412704770470022B2EBD10F26D268
:102A20000368B3F1FF3F04BF4368B3F1FF3F17D121
:102A30008368B3F1FF3F04BFC368B3F1FF3F0FD119
:102A40000369B3F1FF3F04BF4369B3F1FF3F07D10F
:102A50008369B3F1FF3F04BFC369B3F1FF3F01D006
:102A6000002070472030521CB2EBD10FD8D3012088
:102A7000704710B40023B3EBD20F30D2D0F800C0AF
:102A80000C68A44522D1D0F804C04C68A4451DD1DF
:102A9000D0F808C08C68A44518D1D0F80CC0CC6818
:102AA000A44513D1D0F810C00C69A4450ED1D0F8BC
:102AB00014C04C69A44509D1D0F818C08C69A4454C
:102AC00004D1D0F81CC0CC69A44502D010BC0020B1
:102AD0007047203020315B1CB3EBD20FCED310BC3B
:102AE000012070472DE9F041054601F06CF8002007
:102AF00021264FF4825784464FF4E0221660C5F831
:102B000000C0116841F004011160116811F0040F58
:102B1000FBD1176080232C460021D4F80080B8F147
:102B2000FF3F04BFD4F80480B8F1FF3F1DD1D4F8B3
:102B30000880B8F1FF3F04BFD4F80C80B8F1FF3F24
:102B400013D1D4F81080B8F1FF3F04BFD4F814803B
:102B5000B8F1FF3F09D1D4F81880B8F1FF3F04BFA6
:102B6000D4F81C80B8F1FF3F08D0C2F800C0401C68
:102B7000C0B20828C2D30220BDE8F081491C20342D
:102B8000B1EBD30FC9D3C2F800C00120BDE8F0817A
:102B90002DE9F041054601F016F80020092684468B
:102BA0004FF4E0231E60C5F800C0196841F004012D
:102BB0001960196811F0040FFBD12C464FF48062A4
:102BC00000212768B7F1FF3F04BF6768B7F1FF3FF7
:102BD00017D1A768B7F1FF3F04BFE768B7F1FF3F20
:102BE0000FD12769B7F1FF3F04BF6769B7F1FF3F16
:102BF00007D1A769B7F1FF3F04BFE769B7F1FF3F0E
:102C000008D0C3F800C0401CC0B20328CAD30220B9
:102C1000BDE8F081491C2034B1EBD20FD1D3C3F809
:102C200000C00120BDE8F0812DE9F05F88468146B3
:102C300004274FF07F0A4FF0020B4FF4E02600F01C
:102C4000C2FF4946424653464FF0060CC6F800B054
:102C500052F8040B41F8040BC6F800C0306810F0BD
:102C6000040FFBD15B1EF1D2002030604C4645467C
:102C70001F20D4E900C3D4E90221D5F800E0E645DD
:102C800004BFD5F804C09C4505D1AB68934204BF8E
:102C9000EA688A4208D07F1E03D34846FFF722FF26
:102CA000CDE70220BDE8F09F10341035401EE0D281
:102CB0000120BDE8F09F70B50D46044600F083FF8B
:102CC0004FF400722146284619F0F2FA012070BD37
:102CD0002DE9F0410546C005ADF5007D14460E46D0
:102CE000C00D25D0A8466FF308086F4600F06BFFB3
:102CF0004FF400724146384619F0DAFAC5F308007D
:102D0000C0F50077A74288BF274668443A46314657
:102D100019F0DDFA4046FFF7E5FE022844D0694687
:102D20004046FFF781FF022843D03D443E44E41B68
:102D3000B4F5007F19D34FF400723146684619F09C
:102D4000C6FA2846FFF7CEFE02282DD0694628464F
:102D5000FFF76AFF02282CD0A4F5007405F5007572
:102D600006F50076B4F5007FE5D2C4B16F4600F0F9
:102D70002AFF4FF400722946384619F099FA224684
:102D80003146684619F0A3FA2846FFF7ABFE022841
:102D90000AD069462846FFF747FF022809D00DF5FB
:102DA000007D0120BDE8F0810DF5007D0A20BDE821
:102DB000F0810DF5007D0B20BDE8F0812E49086003
:102DC000086100F010B82C490860486100F00BB8A9
:102DD0002949486770472849886770472648012174
:102DE0000166016570474FF04022116B10F0010F32
:102DF00018BF21F4404110F0020F1CBF21F44051D4
:102E000041F4805110F0040F18BF21F4406110F01C
:102E1000080F18BF41F4407110F0100F18BF41F0B7
:102E2000C00110F0200F18BF41F0300110F0400F2A
:102E300018BF41F00C0110F0800F18BF41F00301E2
:102E400041F4BE0141F020411163D2F8901010F41A
:102E5000807F1CBF21F0030141F0020110F4007FCC
:102E60001CBF21F00C0040F0080141F4BE0040F00E
:102E70002040C2F890007047001000407047D048D2
:102E80008268D0490A438260C2681143C1604169C7
:102E9000CD4A114341617047C948416921F00101A0
:102EA00041F00D7141F080514161C16821F0400154
:102EB00041F00D7141F08051C160816821F0400105
:102EC00041F00D7141F080518160704710B5BC4CEC
:102ED000A168BC480143A160E1680843E060606903
:102EE000B94908436061B94843F63F71C1600021A8
:102EF00081638164C0F8B01003210A2000F0A5F9B5
:102F00000A2000F0C5F9606920F0010040F00D7062
:102F100040F080506061E06820F0400040F00D70AB
:102F200040F08050E060A06820F0400040F00D705C
:102F300040F08050A06010BDA44A1060516048432A
:102F400090607047A14A10605160484310F0010F33
:102F500018BF401C906070479C49C1F8B000704792
:102F60009A49002818BF01208864704797498863F0
:102F7000C86840F00200C8607047DFF850C2CCF863
:102F80002000CCF82410CCF82820CCF82C300120DC
:102F9000CCF83000DCF8340010F0010F05D020BF71
:102FA000DCF8340010F0010FF9D110F0020018BF66
:102FB0004FF0FF3070478548C16821F00201C160C1
:102FC00070478248C16841F00101C16070477F4B82
:102FD000186259629A6201201864586C10F0010F4F
:102FE00004D020BF586C10F0010FFAD110F0060089
:102FF00018BF4FF0FF3070477448C16821F00101DD
:10300000C16070477148C16841F00401C1607047F8
:10301000027C017B02F03F0241EA02416B4A91656A
:1030200001685162416891628168D1620121116534
:10303000516D11F0010F04D020BF516D11F0010F3F
:10304000FAD1D36D8382D36D1B0CC382136E0383BD
:10305000136E1B0C4383536E8383526EC2F30E4276
:10306000C28311F0020018BF4FF0FF30704757487D
:10307000C16821F00401C16070475448C16841F043
:103080000801C1607047DFF844C1CCF87820CCF863
:103090002000CCF82430CCF828100120CCF87000A7
:1030A000DCF8740010F0010F05D020BFDCF87400CC
:1030B00010F0010FF9D110F0060018BF4FF0FF30EB
:1030C00070474248C16821F00801C160704701683B
:1030D0004FEA31423D49C1F89C204068C1F8A00048
:1030E000C86840F02000C860704701684FEA31426C
:1030F0003649C1F89C208088C1F8A000C86840F01B
:103100002000C8607047314B18625A6299620120F2
:10311000C3F89400D3F8980010F0010F05D020BF39
:10312000D3F8980010F0010FF9D110F0060018BF85
:103130004FF0FF307047254A106251620120C2F8FB
:103140009000D2F8980010F0010F05D020BFD2F8FF
:10315000980010F0010FF9D110F0060018BF4FF0E1
:10316000FF3070471948C16821F02001C1607047E5
:103170001648C16841F01001C1607047A3F1050C09
:10318000124BC3F888C018625A6299620120C3F8D2
:103190008000D3F8840010F0010F05D020BFD3F8D1
:1031A000840010F0010FF9D110F0060018BF4FF0A5
:1031B000FF3070470548C16821F01001C1607047B9
:1031C00000800040400034120100341200900040A2
:1031D0001B4810B5022140F8501F01210161102148
:1031E000416241F206014161002181610421816354
:1031F00090214163416B41F0010141634FF48171C2
:1032000001610161032000F043F80021032000F078
:103210001CF8002010BD10B5032000F045F8084848
:103220004FF480710166002101661021816702213F
:103230004165002010BD0349002008707047000060
:103240000030004060840010704700F00303DA0093
:103250004FF0FF0C0CFA02F24FF0050C0CEBC3031D
:1032600001FA03F300F00C0101F1E021002807DA74
:10327000D1F8140D90431A401043C1F8140D704753
:10328000D1F8000490431A401043C1F8000470477D
:1032900000F01F01012202FA01F14009800000F153
:1032A000E020C0F80011704700F01F01012202FA6F
:1032B00001F14009800000F1E020C0F88011704762
:1032C00000F01F01012202FA01F14009800000F123
:1032D000E020C0F8801270474FF0E021C1F80001F3
:1032E00070474FF0E021C1F8800170474FF0E020B7
:1032F000D0F8000170474FF0E021C1F8800270471C
:10330000084800687047074A11681060084670470F
:10331000044A126800F1100352F8230042F8231007
:103320007047000008ED00E002210C20FFF78DBF80
:10333000B8488268B8490A438260C2681143C160D4
:103340007047B448816821F4805141F00D7141F01B
:1033500080518160C16821F4805141F00D7141F0CC
:103360008051C1607047AD4881B0016F11F4007F9A
:10337000FBD1816E11F0010F1CBFD0F884100091B9
:1033800004D0D0F88410009A9142FAD0016F11F461
:10339000007F04BF4CF27101016642F24131816647
:1033A00001B070479D4981B04FF40D528A660A6F93
:1033B000CA66012898BF012005D9401EB0F5803F9C
:1033C00028BF4FF6FF7082B24FF05C5040EA0220F7
:1033D00048664FF01140C1F88000086F10F4007F7C
:1033E000FBD1886E10F0010F1CBFD1F88400009053
:1033F00004D0D1F88400009A9042FAD0086F10F4FB
:10340000007F04BF4CF27100086642F241308866CA
:1034100001B07047814881B0016F11F4007FFBD18A
:10342000816E11F0010F1CBFD0F88410009104D000
:10343000D0F88410009A9142FAD04FF40D51816671
:1034400001B070477348806810F4805008BF70471F
:103450007248806E00F0010070477048406EC0F303
:103460000F2070476D48D0F88400704710B50C20CD
:10347000FFF726FF0C20FFF70BFF68490220486783
:1034800010BD664910B5032088670C20FFF70CFFBC
:10349000BDE810400C20FFF713BF614A11681060AF
:1034A000084670475D4810B5016FC1665C4800680A
:1034B000002818BF80475B48016841F480510160D3
:1034C00010BD574840687047524810B5826852494D
:1034D0000A438260C2681143C16050490320886773
:1034E0000C20FFF7E1FE0C20FFF7EAFE00F05CF98C
:1034F0004D4B0420C3F888004FF6FF70C3F88C00D2
:1035000072B66033FFF74EFF4FF40070186062B67A
:1035100010BDF8B572B64148016F11F4007FFBD1C0
:10352000816E11F0010F1CBFD0F88410009104D0FF
:10353000D0F88410009A9142FAD04FF40D51816670
:1035400039494FF400320A6662B6D1F80412314D9F
:10355000002946D0324C4FF6FF73591AA160AA6970
:10356000D5F81CC002F00F020CF00F0C6244121DC3
:1035700001FA02F2A2F54341DFF8B0C051396145CA
:103580002FD2D0F88400191AE160B1F5803F28D21B
:10359000274B4FF0000CA1FB03070CFB037301FB4F
:1035A0000C31634618F098FE401C40082061B0F5CD
:1035B0007A7F38BF4FF47A701E4B9968002908BF94
:1035C00098605A681A609968C3E901108A421BD949
:1035D000824205D9814201D9616002E0606000E069
:1035E000626000F0EDF8A86820F4805040F00D70A3
:1035F00040F08050A860E86820F4805040F00D70E2
:1036000040F08050E860F8BD8242E9D88142E5D8B8
:10361000E2E70000008000400010341200C00040CB
:10362000648400105C84001000A000404F622500FC
:1036300000E1F505D89000100F4881680F4A11434A
:1036400081600F48016841F404710160001F016846
:1036500041F004010160016841F010010160704710
:10366000084908607047BFF34F8F08490648086053
:10367000BFF34F8FFEE700000080004004003412CB
:1036800014ED00E008ED00E00400FA050CED00E0A8
:1036900015488168154A114381601003416941F062
:1036A00001014161016A21F00F0211490A430262DE
:1036B000104B8A1EC3F8C420016570474FF04020AC
:1036C000006900F0700070474FF040200A4940F850
:1036D000301F0A4941600A4901660A49416670473C
:1036E0004FF04020406870470080004004003412D2
:1036F00003005FA000600040C0845FA095995FA0B8
:103700000A005FA000005FA0022824BF00207047CD
:10371000E04B53F8202043F820101046704770B556
:10372000DD4C206FDB4D10F0010F05D00120E0666D
:103730002868002818BF8047206F10F0020F08BFCC
:1037400070BD0220E0666868002808BF70BDBDE853
:1037500070400047D14810B58268D1490A43826061
:10376000C2681143C160CC4902220A6501230B667D
:103770000323CB664A65816821F0800141F00D7119
:1037800041F080518160C16821F0800141F00D71EC
:1037900041F08051C1600920FFF77AFD0221BDE8A8
:1037A00010400920FFF751BDBC488268BC490A435C
:1037B0008260C2681143C160B74902200865704742
:1037C000B54902204865B548816821F0800141F083
:1037D0000D7141F080518160C16821F0800141F09C
:1037E0000D7141F08051C1607047AC488068C0F3F2
:1037F000C0107047A848016F11F4007F14BF4FF448
:1038000040714FF480710166704710B5A24CE06FB3
:1038100010F0020F4FF0010018BF0320606700F0A6
:103820006EF99E498A69C96902F00F02D04001F021
:103830000F01C8400521B0FBF1F04FF405710009FC
:10384000C4F8801018F04DFD964A974B18F04EFDC5
:1038500018F051FDC4F88400206F10F4007F14BFED
:103860004FF440704FF48070206610BD8A48016F9D
:1038700011F4807F14BF4FF440714FF40071016662
:103880007047854B30B4DA6F12F0010F14BF03227A
:1038900002225A6700EB4005C5EBC010C1EBC00027
:1038A0004FF4FA744C43C0EB001000EB40007F492A
:1038B00004EBC000A1FB0010784900224FF0020C7D
:1038C0008C69C008C96904F00F0401F00F0121449C
:1038D000C8400521B0FBF1F0B0F5803F05D3511C85
:1038E0004008CAB2B0F5803FF9D242EA0C2141F05B
:1038F0001001C3F88810C3F88C00186F10F4807F93
:1039000014BF4FF440704FF40070186630BC70471D
:103910006148016F11F4003F14BF4FF440314FF480
:103920008031016670475C48016F11F4803F14BF1D
:103930004FF440314FF40031016670475648006F34
:10394000C0F3002070475448006FC0F34020704718
:1039500052498968C1F3C011002904BF0020704793
:103960004D4900280CBFD1F80002D1F8040270477D
:103970004A4B9A68C2F3C012002A04BF0020704765
:10398000454A00280CBFD2F88000D2F88800C0F366
:103990000A200CBFD2F88020D2F8882002F00F0253
:1039A000D3F818C0DB690CF00F0C03F00F0363446D
:1039B0001A449140012202EB400048433C49A1FBDC
:1039C0000010000970473B4901200870704770B42F
:1039D000324B322251439A69D3F81CC002F00F02D5
:1039E0000CF00F0C6244121DD14008BF012104D01D
:1039F000B1F5803F28BF4FF6FF719A68C2F3C0123D
:103A0000002A1CBF70BC7047D3F808C0244A4CEA97
:103A1000020CC3F808C0D3F80CC04CEA0202DA600A
:103A20001D4A4FF0020CC2F850C04FF40034146627
:103A30000425C2F88850C2F88C101F4DD566C2F814
:103A400074C01E4902283CBF124E46F820100021C7
:103A5000184801704FF400711166017819B920BF40
:103A600001780029FBD014669567D566C2F854C06A
:103A7000986820F0800040F00D7040F08050986011
:103A8000D86820F0800040F00D7040F08050D86081
:103A900070BC70477C84001000A000400080004093
:103AA000800034127B14AE47E17A843FCDCCCCCC7D
:103AB0001F85EB5178840010020002027759000044
:103AC0004FF0E0210020886108611F49486070477D
:103AD00010B54FF0E02460610020A0610221401E7B
:103AE000FFF7B3FB0720206110BD4FF0E02100205D
:103AF0000861704714480188491C018070471248CA
:103B0000806870472DE9F0410F4C0027054627805B
:103B1000A0684FF47A71B0FBF1F04FF0E026401E40
:103B20007061B7610221C81EFFF78FFB072030616B
:103B30002188A942FCD33761BDE8F081034948439D
:103B400001498860704700008484001040420F00E3
:103B5000704770B505464FF40D500406A06603206B
:103B6000E066264860664CF2710020662448C4F87E
:103B7000800042F24630A06602210020FFF765FB7C
:103B80000020FFF785FB002D08BF70BDA06E42F23C
:103B900041310843A06670BD012110B588078167D7
:103BA0004FF40D5181660020FFF77EFBBDE8104009
:103BB0000020FFF785BB012081074867704701207F
:103BC0008107886770474CF271008107086670476B
:103BD0000C4A11681060084670470A4808B500682A
:103BE00018B18047002818BF08BD4CF27101880742
:103BF0000166016FC166006F009008BD075E5F3708
:103C000000AF2F919084001070B5FD4C00254FF44B
:103C1000E46125706570E570FA4818F04EFB4FF4CA
:103C2000E461F94818F049FBA56025714C21F7487B
:103C300018F043FB4C21F64818F03FFB65717421E6
:103C4000F44818F03AFB7421F34818F036FBE560AD
:103C5000A5717421F14818F030FB7421F04818F078
:103C60002CFB256170BDE649002048707047E44890
:103C700040787047E2480079002818BF012070475B
:103C8000DF488079002818BF01207047DC48407960
:103C9000002818BF01207047D948C078002818BFF5
:103CA00001207047DD48704770B5DE4A0546107840
:103CB00051784218520014462946D84818F007FB9C
:103CC00022462946D64818F002FBCD4901208871CA
:103CD00070BDCB4800697047C948407800EB40018F
:103CE000C1EB4010CB4901EB800070472DE9F0415A
:103CF000C34D0446C7496A78CB4F02EB4200C0EB84
:103D00004210CA4E01EB80033A78307821461044C5
:103D10004200184618F0DBFA6A78BF4902EB42000D
:103D2000C0EB421001EB80033A7830782146104412
:103D30004200184618F0CBFA01206871BDE8F08106
:103D4000AF48C0687047AE484078C0EBC001C1EBD7
:103D50008010AC4901EB401070472DE9F041A84EAE
:103D600007463078002814BFB148B248047814BF21
:103D7000B148B248057804FB05F8FFF780F82946FA
:103D80002046FFF7D9F870789F4CC0EBC001C1EB1B
:103D9000801004EB4012A4F5E46101EB40103B46B7
:103DA0000146FFF7EAF8FFF777F870784FEA480224
:103DB000C0EBC001C1EB801004EB4010394618F095
:103DC00086FA0120F070BDE8F0812DE9F0478C4DB6
:103DD00004468C496A78DFF85882C2EBC200C0EB17
:103DE000821001EB40132878DFF84892924E934FEF
:103DF000002815BF98F8000099F8000032783A784A
:103E000000FB02F04FEA40022146184618F05FFA24
:103E10006A787D49C2EBC200C0EB821001EB401C06
:103E200028782146002815BF98F8002099F800202E
:103E300033783B7802FB03F04FEA4002604618F00B
:103E400046FA0120E870BDE8F0876D488068704749
:103E500070B57B4C0546014622786C48520018F03C
:103E600036FA227829465200694818F030FA644937
:103E70000120087170BD2DE9F04FDFF88481ADF2AB
:103E8000647D98F80300CDF8440798F80400CDF855
:103E9000400798F80500CDF83C0798F80600CDF8E3
:103EA000380701F0ABF90446FDF7B6FDCDF85C0725
:103EB000FDF789FFCDF85807FDF7F1F9CDF8540764
:103EC000FCF771FFCDF84807FCF76AFF0746FDF7DE
:103ED000A5FDDDF8480710F0010F02D0FDF779FFCE
:103EE00004E00020FDF7D1F9FDF7ACFF98F80200DF
:103EF0001E250026002804BF0420C8F8180007D09B
:103F0000022C18BF0A2008D0C8F8180088F80260F0
:103F10004FF0010A022F19D109E00FF032FE10F420
:103F2000817F14BF0F20C8F81850EDD1EEE7022CA6
:103F300018BF052C0AD1FDF779F908300009022CC9
:103F400018BFC8F818503AD088F802A0D8F818005E
:103F50000428BCBF0420C8F8180098F80200B8F87C
:103F60001810000240EA014040F0010200239121B4
:103F7000072009F003FA37464FF0000B05F045F82B
:103F8000012826D00DF5E460FEF75EF9002800F068
:103F9000A3820DF5E46005F00BFF002088F8010016
:103FA000D8F81800C01E8642CABF874201240024E8
:103FB000DDF82C0718B3DDF8400770B15BE04FF473
:103FC0007A7141434FF47A7091FBF0F0C8F8180011
:103FD000BAE74FF0010B00F068BADDF82C978CB30C
:103FE000174D494628784200084818F070F928789B
:103FF00049464200064818F06AF988F804A03AE0F9
:1040000094840010E49000100498001044A600105E
:1040100090A60010DCA6001050A7001038A80010D1
:10402000ACA80010D4840010D1840010D2840010F9
:10403000CF840010CC840010D0840010CD840010F8
:10404000D3840010FFE7FEF71AFFFF4D0121287807
:10405000FEF772FFFD4A4B46A2F14C010846FEF7FF
:104060008CFFFEF719FF287849464200F74818F000
:104070002EF988F804A0DDF82807002800F0D78082
:10408000DDF84407002840F0D28098F80000DDF801
:104090002857E0BBD8F80890B9F1000F24D0EC48BD
:1040A0000078CDF85007EB480078CDF84C07FEF7C4
:1040B000E6FEDDF84C17DDF85007FEF743FF294612
:1040C0004A460846FEF783FFFEF7E6FEE248007820
:1040D000022804BF484605F03EFBDF480078092867
:1040E00004BF284605F037FBDC480078012816D9C4
:1040F000DFF8649399F80000042804BF284605F00F
:104100002AFB2946684618F0FBF8054600E006E061
:1041100099F80000052804BF284605F01CFBCCB325
:1041200098F8010098F80020C0EBC001C1EB8011A5
:10413000CB48002A00EB411029460CBFC94AC44AAB
:10414000137814BFC34AC84A127803FB02F24FEA3D
:10415000420218F0BCF898F80100C0EBC001C1EBB6
:104160008011C24800EB411398F80000294600284E
:1041700014BFB748BB48007814BFB64ABA4A127891
:1041800000FB02F04FEA4002184618F0A0F888F849
:1041900003A03DE0FFE7CDF84C5798F80000002859
:1041A00014BFAB48AF4890F8009014BFA948AE4880
:1041B000057809FB05F0CDF85007FEF760FE2946AB
:1041C0004846FEF7B9FE98F80100A84DC0EBC001C3
:1041D000C1EB801005EB4012A5F5E46101EB401046
:1041E0000146DDF84C37FEF7C8FEFEF755FEDDF858
:1041F0005007420098F80100C0EBC001C1EB8010ED
:1042000005EB4010DDF84C1718F061F888F803A0B2
:104210009148007803280AD198F80100C0EBC0014A
:10422000C1EB80118E4800EB411005F094FADDF8E7
:10423000300700287DD0DDF83C07002879D198F8B8
:104240000000DDF8305748BBD8F80C90B9F1000FEA
:1042500024D087480178874800780844401C4008EB
:10426000019002200090FEF70AFEDDE90010FEF743
:1042700069FE29464A460846FEF7A9FEFEF70CFEEF
:104280007D480078022804BF484605F06FFB7A4855
:104290000078092804BF284605F068FB4CB398F85D
:1042A0000100DFF8D09100EB4001C1EB40117348F1
:1042B00000EB81036E482946027899F8000010440B
:1042C0004200184618F003F898F80100684A00EB1D
:1042D0004001C1EB40116A48127899F8003000EBB8
:1042E00081001A442946520017F0F1FF88F805A012
:1042F00030E05F48009501785E4800780D18FEF7C1
:10430000BEFD681C40080221FEF716FE98F8010069
:10431000DFF86C9100EB4001C1EB4010A9F1740192
:1043200009EB800201EB80010846009BFEF725FEA9
:1043300000E01EE0FEF7B0FD98F801006A0000EB17
:104340004001C1EB401009EB8000009917F0BFFF5E
:1043500088F805A04848007803280AD198F8010099
:1043600000EB4001C1EB4011444800EB810005F037
:10437000FDFADDF83407002863D0DDF8380700289F
:104380005FD198F80000DDF8345740BBD8F81090A2
:10439000B9F1000F23D03B48017840780844401C15
:1043A0004008019002200090FEF769FDDDE9001051
:1043B000FEF7C8FD29464A460846FEF708FEFEF706
:1043C0006BFD31480078022804BF484605F0E8FB41
:1043D0002D480078092804BF284605F0E1FB29484C
:1043E0000178407874B108444400224629462748A1
:1043F00017F06DFF22462946254817F068FF88F818
:1044000006A017E00C18FEF73AFD601C40080221D8
:10441000FEF792FD1E4A2B46A2F174010846FEF7F4
:10442000ACFDFEF739FD62002946194817F04FFF31
:1044300088F806A014480078032804BF134805F044
:10444000AFFBFDF75EFF25E0D384001090A60010BF
:10445000CF840010D08400103D850010CE84001061
:10446000E4900010CC840010CD840010049800105B
:10447000D1840010D284001042850010DCA6001008
:1044800050A70010D48400104785001038A80010F1
:10449000ACA80010D8F81800761C7F1C8642A8BF74
:1044A000874211DBD8F8140070B1FDF7B7FADDF8D8
:1044B0005407FCF7EAFEDDF85C0790B1DDF8580719
:1044C00068B1FDF7BFFC0CE0DDF8480710F0010F04
:1044D00008BFFDF7B7FC51E500F0DDFE4EE5FDF746
:1044E00078FCBBF1000F04BF0420C8F818000FD0FF
:1044F000DDF8440788F80300DDF8400788F8040079
:10450000DDF83C0788F80500DDF8380788F8060074
:10451000B8F818104FEA0B2040EA0142002391211D
:10452000072008F02BFF0DF2647D5846BDE8F08FA0
:1045300010B50024FDF739FCFF4910F0020F0AD036
:10454000CA78002A08BF012410F0040F03D00A79AA
:10455000002A08BF012410F0010F03D04A79002A75
:1045600008BF012410F0200F03D08879002808BF6D
:1045700001240020002C08BF10BD00200870BDE8F9
:10458000104078E408B50F2100F03AFF012804D16B
:10459000FFF7CEFF009001F0A2F8E748C1780029AC
:1045A0001CBF4179002906D0817900291FBF0079FD
:1045B0000028012008BD002008BD08B50F2100F02B
:1045C0001FFF012804D1FFF7B3FF009001F087F827
:1045D000D948C17800291CBF4179002906D08179CA
:1045E00000291FBF00790028012008BD002008BD58
:1045F0007047D14900220028CA700A714A718A7135
:104600001CBF0120887000F011BD10B54FF4E461AB
:10461000CA4817F052FEBDE810404FF4E461C848A4
:1046200017F04BBE2DE9F041C34D069A29780029B9
:1046300014BFC449C4490978D21A4A4303FB01F4A0
:1046400069785200C1EBC103C3EB8111BB4B164625
:1046500003EB411101EB440300EB44010F46184604
:1046600017F035FE68783246C0EBC001C1EB801010
:10467000B34901EB401000EB4400394617F027FE28
:104680000120E870BDE8F0812DE9F047AA4F80468F
:1046900008983978002914BFAA49AB490D78A0EBD6
:1046A000030905FB09F603FB05F4FEF7E8FB4946A1
:1046B0002846FEF741FC7878A14DC0EBC001C1EB64
:1046C000801005EB401101EB4402A5F5E46101EB1C
:1046D000401000EB440008EB440843460146FEF757
:1046E0004CFCFEF7D9FB78787200C0EBC001C1EB3F
:1046F000801005EB401000EB4400414617F0E7FD49
:104700000120F870BDE8F087002818BF01208A4911
:10471000C870704710B5884C002804BFA06010BD59
:10472000DFF828C287490B7889490A7801465A433D
:104730005200604617F0CBFD8448A06010BD10B554
:104740004C21844817F0B9FDBDE810404C21824847
:1047500017F0B3BD7F487047002818BF0120764985
:104760000871704710B574217C4817F0A6FDBDE8AC
:10477000104074217A4817F0A0BD002818BF01200E
:104780006D494871704710B56B4C002804BFE0605C
:1047900010BD74220146734817F099FD7148E0601E
:1047A00010BD10B57421704817F087FDBDE81040AA
:1047B00074216E4817F081BD002818BF01205E49A2
:1047C0008871704710B55C4C002804BF206110BD93
:1047D00067490A78497811444A000146654817F04C
:1047E00076FD6448206110BD70B5534C002105462C
:1047F000E17021716171A17100F018FC002D14BFEE
:10480000012000202070BDE87040FFF734BB2DE987
:10481000F04F89B04FF4E4614C4817F04EFD74211D
:10482000504817F04AFD7421524817F046FDFDF735
:10483000BCFA0446FDF7F0F80890FDF7C4FA0190C1
:10484000FCF72DFD0090FDF7E9F80020FCF71DFDB9
:10485000FDF7F8FA00252E4604F0D7FB012868D0B2
:1048600002A8FDF7F1FC002864D002A805F0A0FA28
:1048700014F0020F1CD03348DFF8D0B0DDF81090F0
:1048800090F800803248DA460778FEF7F8FA0120FF
:10489000FEF766FB39464046FEF754FB5246494652
:1048A0005846FEF794FB0020FEF75AFBFEF7F4FA99
:1048B00014F0010F20D03048DFF8A8B04FF0020804
:1048C00001782E48DA46DDF8189000780844401C3C
:1048D0004708FEF7D4FA0120FEF742FB414638466E
:1048E000FEF730FB524649465846FEF770FB002063
:1048F000FEF736FBFEF7D0FA14F0200F47D01C4825
:10490000DFF870904FF0020B01784078C8460844F9
:10491000401C4FEA500A079FFEF7B1FA0120FEF74C
:104920001FFB59465046FEF70DFB424639464846A6
:1049300026E034E040E0000094840010E490001091
:1049400004980010CF840010CC840010249F001025
:10495000D084001044A6001090A60010DCA6001021
:1049600050A70010C4A7001038A80010ACA8001071
:10497000D484001020A90010D1840010D28400102B
:10498000FEF725FB0020FEF7EBFAFEF785FAFDF7B0
:10499000B8FC6D1C102D03D2FDF754FA5CE701261C
:1049A000FDF73CF80098FCF770FC089848B10198B6
:1049B00028B1FDF747FA04E000F06DFC4CE7FDF785
:1049C00008FA96BBF84D14F0020F4FF001070DD016
:1049D000F648009710230178F548007801FB00F2B3
:1049E000F449084617F091FCF248A86014F0010F52
:1049F0000CD0F148009710230178F04800780A188D
:104A0000EF49084617F081FCED48E86014F0200FEC
:104A10000BD0EC4800971023017840780A18EA4937
:104A2000084617F072FCE848286109B03046BDE836
:104A3000F08F012070472DE9F0414FF43F300027FF
:104A4000D0E90015D0E903464BF6BB38ADF5007D43
:104A500041452BD04FF40071684617F02EFCFF2221
:104A60004FF40071684617F055FCFF2060F307050E
:104A70002D2060F3070460F30F24282060F317440F
:104A8000CDF80080CDE90346CDE901574FF43F341E
:104A90002046FEF727F869462046FEF7C5F80128AC
:104AA0001EBF00200DF5007DBDE8F08101200DF551
:104AB000007DBDE8F0814FF43F3070474FF43F3147
:104AC000042804BFC87A704710DC002804BF0879A6
:104AD0007047012804BF087A7047022804BF487A4B
:104AE0007047032804BF887A70470BE0142804BF7E
:104AF000087B7047152804BF487B7047162804BF01
:104B0000887B7047FF2070472DE9F0434FF43F3C0E
:104B1000ADF5017DDCE9015461F3070462F30F2474
:104B2000DDF82092DCE9037860F3070563F31744AE
:104B300069F31F64FF224FF400716846DCF80060DF
:104B400017F0E8FB0096CDE90154CDE903784FF466
:104B50003F342046FDF7C6FF69462046FEF764F85D
:104B6000012818BF00200DF5017DBDE8F0832DE977
:104B7000F04F4FF43F33ADF5017DD3E90274D3E933
:104B80000056904689468246FF224FF400716846DF
:104B9000D3F810B017F0BEFB6AF3070469F30F24D3
:104BA00068F31744CDE90274CDE900564FF43F3461
:104BB000CDF810B02046FDF795FF69462046FEF778
:104BC00033F80DF5017DBDE8F08F2DE9F04F00279A
:104BD000ADF5017D7D4C42F20F783D461420FFF784
:104BE0006DFF40B202901520FFF768FF4FFA80F981
:104BF0001620FFF763FF40B201901620FFF75EFF1B
:104C0000404240B20090FDF7D0F8DFF89CA1834607
:104C100000208AF803008AF804008AF805008AF860
:104C2000060000F003FA00208AF80000FFF723F9DD
:104C30001BF0010F04D017F072FB012808BF0127F9
:104C40001BF0020F7ED062489AF80110002690F8FF
:104C500000C06048C1EBC102C2EB811100785E4A1E
:104C6000002802EB4112C8BFACF1010A1DDD002192
:104C7000BAF1000F16DD01F1010B01FB00630BFB24
:104C8000006B32F8133032F81BB0A3EB0B031BB2EE
:104C9000002BB8BF5B421BB2AB42C8BF1D46491CCC
:104CA0005145E8DB761C8642E1DBA945B8BF47F0F9
:104CB00002070026B146BCF1000FC8BFA0F1010AEF
:104CC0001BDD0021BAF1000F13DD09FB001332F8E0
:104CD00013B002EB43035B88ABEB03031BB2002B67
:104CE000B8BF5B421BB2B342C8BF1E46491C514508
:104CF000EBDB09F10109E145E3DB0299B142B8BF01
:104D000047F002074FF00009BCF1000F13DD00234C
:104D100000280CDD09FB003132F91110A142C8BF97
:104D20000C464145B8BF88465B1C8342F2DB09F163
:104D30000109E145EBDB0198A04202DB0098404508
:104D400003DD00E001E047F002074FF43F32C8F115
:104D50000001D2E9018066F3070065F30F20D2E974
:104D600003AB64F3174061F31F600446D2F8009070
:104D700067F30708FF224FF40071684617F0CAFA7C
:104D8000CDF80090CDE901844FF43F342046CDE9C1
:104D900003ABFDF7A7FE69462046FDF745FF0DF57D
:104DA000017DBDE8F08F000094840010CF840010D6
:104DB000D0840010249F0010D1840010D2840010F1
:104DC000C4A70010D484001020A90010F1D8FFFF60
:104DD000CD840010CC840010E4900010FA48808943
:104DE0007047F948C089704770B515460E460446AD
:104DF00008F0BAFE002C18BF70BD042806D0F34896
:104E0000006890F82400A84288BF70BD3046BDE815
:104E1000704017F089BADDF800C0084312BF52EAAB
:104E2000030000208CF800007047E7484069704795
:104E3000E549012048617047E34900204861704717
:104E40000143E14818BF142AD4BF01210021416168
:104E50007047DD480021C171018270472DE9F0479C
:104E600090468946044608F0FDFD0027D64E0028EE
:104E700002BFF7713782BDE8F087B6F910008442AF
:104E8000C8BF3482204617F054FA04460D46B6F9DE
:104E9000100017F04EFACE4ACE4B17F027FA2246F2
:104EA0002B4617F083FB13D2B9F1010F10D0F07924
:104EB000401CC0B2F071032898BFBDE8F087F771BD
:104EC000378201203071801EC8F80000BDE8F087ED
:104ED000F771BDE8F0872DE9FF5F0546BE480A2659
:104EE000002490F80090BD48B74FDDF838B090F836
:104EF00000809246012B08BFBBF1000F1BD008F0C9
:104F0000B1FD01281DD0B889012888BF1E2336D9DC
:104F100079890020A1421CBF7C81B871002119EB66
:104F200008021FD035F911C09C4517DDB87104B0D7
:104F30000020BDE8F09FB879052828BF05201ED3C2
:104F40001CE0BBF1010F08BF4123E1D03C23012449
:104F50000526BAF1000FC8BF3323D9E7491C89B22F
:104F60008A42DFD8B979491CC9B2B971B14206D9B0
:104F700001994FF0FF320A6001213971B87104B014
:104F80000020BDE8F09F70B51E4615460C4608F09F
:104F900069FD01281AD10021DFF82CC2002DC2BF03
:104FA0008CF80510002070BD012E0FD09CF8050074
:104FB000401CC0B28CF805000A2807D94FF0FF301A
:104FC000206001208CF804008CF80510002070BDD2
:104FD00000207D4A034601291CBF137070471078DA
:104FE000401CC0B21070042826BF1370022001209C
:104FF000704708B502237A490A787A490978891EE8
:1050000000910021FFF70EFB012008BD744908B58F
:105010000A78744902230978891E00910021FFF75C
:1050200033FB012008BD6848007A704710B508F0CE
:1050300019FD002808BF10BD08F017FD002301214D
:10504000BDE810401A46022008F098B9664A02806E
:10505000428000218280C18001815342438181814D
:10506000C18101824182017501834183C2827047FF
:105070002DE9FF4F83B01446DDE910A70546DDF8A2
:1050800048B008F071FD0195DFF83C8100252E46FF
:1050900088F8085008F0F4FC4FF0010948BB08F00C
:1050A000BBFE014601AA1398FFF7D8FE3B465246C5
:1050B00001A9CDF800B00498FFF70DFF08F0D2FC6D
:1050C000012816D1BAF1000FC8BF88F8056010DCBE
:1050D000012F0ED098F80500401CC0B288F80500DA
:1050E0000A2806D94FF0FF30019088F8049088F81C
:1050F000056008F0E5FE012808D1D8F8140028B1B1
:105100000025012F18BF88F800600CD00198344AA0
:105110003449B0F1FF3F04BF98F8040001280FD0D4
:10512000022D2DD036E098F80000401CC0B288F85F
:105130000000042826BF88F8006002250125E5E765
:1051400088F8046088F80890012D18BF022D08D057
:10515000002C04BF07B0BDE8F08F2046FEF735FEF7
:1051600018E0002C04BF07B0BDE8F08F2046097896
:105170001278891E009102230021FFF753FA09E0FB
:1051800044B109781278891E00912046022300213B
:10519000FFF77AFA0198002807BF98F80200012863
:1051A00007B0BDE8F08F88F8026088F80890002CFE
:1051B0001CBF2046FEF7D1FD0698002818BF17F047
:1051C000BDF807B0BDE8F08FB0840010D4850010A2
:1051D000CDCCCCCCCCCCE43FD1840010D284001018
:1051E000CC840010CD840010F1D8FFFF10B505F07D
:1051F00097FD05F042FE002010BD0000FE4800783B
:105200007047FD4840787047FB480078022805D079
:1052100005281CBF0020704704F0DFBF08F0A4BCC5
:10522000F5490870704770B5F34E04460D46307866
:10523000A04212D002281AD0052814BF002004F082
:10524000CCFF44EA05213278002341EA024141EAD9
:1052500000626121072008F091F87570072C28BFC3
:1052600070BDDFE804F016070B13160F160008F0E8
:105270007BFCE6E7284600F03FFA0AE0284608F003
:105280006EFC06E0284604F09DFF02E0284608F088
:105290001DF9347070BDD94900200968B1F8641057
:1052A00011F4807F08BF7047FDF745BBD34900204C
:1052B0000968B1F8641011F4807F08BF7047FDF7EA
:1052C00049BBCE4900200968B1F8641011F4007F91
:1052D00008BF704717F037B8C84900200968B1F80F
:1052E000641011F4806F08BF704717F031B8C249DD
:1052F000887800281CBF401E8870704770B5C04970
:10530000D1F8CC00BC4C10F0030F0AD040F4BE0022
:1053100040F02040C1F8C800A078002804BF012058
:10532000A070B8488068B54D10F0020F296807D109
:105330004FF04020406910F0010F01D0A07840B13B
:10534000B1F86410002011F4807F18BFFDF702FB54
:1053500007E0B1F86410002011F4806F18BF16F058
:10536000F7FFA949084208BF70BD2968496E090CBA
:10537000A17070BD10B572B6FEF70EFCBDE810400E
:10538000FEF771B910B5012802D0022805D008E057
:105390004FF44330FDF7A6FB03E04FF040219B485C
:1053A000086772B6FEF7F8FBBDE81040FEF75BB980
:1053B0009149002818BF0120C87070478E48C078F6
:1053C000002818BF012070478B48406970478A4801
:1053D00000697047884988617047874880697047CD
:1053E0008549C86170478448C0697047834802682E
:1053F00002F5C073118A508A02F5A072FCF7AFBDA6
:105400002DE9F04FDFF8F09197B08A46C9F8140003
:1054100005F0B6FBC9F81000002800F0A58090F850
:1054200000C089F804C0417889F8051083780446E3
:105430000CF1010089F8063000F0FE0089F8070041
:10544000E27889F80820207989F80900607989F8DC
:105450000A0009F10C05A0792870E07968702078BD
:1054600089F80B006046FCF7BBFE99F80A1099F822
:105470000900FCF7D8FE69782878FCF7DEFE69465B
:10548000204605F0A0FB608AD9F8185000281CBF00
:105490006843050BB4F81A80D9F81C60B8F1000F06
:1054A00008BF4FF48058678C002F08BF4FF4805717
:1054B00000201AF0040F18BF4FF485701AF0080F7F
:1054C00018BF40F004001AF0020F1CBF40F2012187
:1054D00008431AF0010F18BF40F48460616A6FF34B
:1054E0000F0A08406FF30F0108434AEA000A0098C8
:1054F000109004981190089812900C9814900198AC
:1055000013900798159010A95046FCF753FB1AF01A
:10551000020F65D005F045F85FEA000B31D005F0C9
:1055200057F86843050B59460020FBF7CDFE218A4A
:1055300000291CBF0020FBF746FF05F069F8704307
:10554000000B00F50060010A0820012202FA00F3B6
:105550000B4201D1401EF9D5061FA07B002818BFC1
:10556000A0F1010B17D112E024480068B0F86400E4
:1055700010F4807F18BFFDF7EDF9002017B0BDE8EB
:10558000F08FB4F80CB0BBF1000FCCD1CFE7002006
:10559000FBF79CFF8346E07B002814BF401EFBF70F
:1055A000D5FF0BEB0601042903DD711A0E1D042142
:1055B00003E00029BCBF761A00210644042E03DD57
:1055C000301FC540042604E0002E02DA70428540F8
:1055D00000260020FBF793FF31460020FBF7CFFFAA
:1055E0001AF0010F30D0A18A00291CBF0120FBF75F
:1055F0006BFE268BA6B10BE0C8840010D48500108A
:10560000006000400080004008000300AD2007B0AB
:1056100031460120FBF7D7FE31461120FBF7D3FEC0
:10562000A67D3EB1711E0120FBF769FF711E11209E
:10563000FBF765FFE67D3EB1711E0120FBF79FFF82
:10564000711E1120FBF79BFF1AF0200F23D0A18BB6
:1056500000291CBF0220FBF737FE268C3EB13146E5
:105660000220FBF7B0FE31461220FBF7ACFEA67F0E
:105670003EB1711E0220FBF742FF711E1220FBF7A4
:105680003EFFE67F3EB1711E0220FBF778FF711EE0
:105690001220FBF774FFE07A00281CBF0001FBF723
:1056A0004FFD029804F059FF039830B12B4699F84A
:1056B000052099F8041016F050FE3A464146284657
:1056C00016F050FE0598FFF725F80998FFF75BF8EC
:1056D0000D98FFF777F817B00120BDE8F08F10B5EF
:1056E000FCF724FB04F041FF02490020086101207F
:1056F00010BD0000C8840010FE4908707047FD48C6
:1057000000787047FC4810B4FC4A0168914218D1F7
:105710004168B1F5887F14D80022D0F808C003464C
:105720001146B2EB9C0F24BF10BC704753F82140C8
:10573000491C2244B1EB9C0FF8D3002A04BF10BCD3
:105740007047002010BC7047EB48FDF7CBB9E94922
:105750000120087070472DE9F34FE5B00020459017
:105760008A465590549072B6FCF71FFB0646FEF72A
:105770003CF848B1FEF7E2F85590FEF7C9F8FEF79D
:10578000E2F85490FEF7CFF8FCF709FAFCF744F979
:105790005C90FCF718FB5B90FCF740F9FCF7A1FB71
:1057A0005D900020FCF797FBFDF74CFE5A90FDF74B
:1057B00031FE4FF49350FDF79EFD62B60020074680
:1057C00036AD45F82070401C0628FAD3DFF8308348
:1057D00016F0020F4FF001040AD041F6185140466E
:1057E000369416F06AFD41F61851C64816F065FD6C
:1057F000DFF8149316F0010F15D04FF41871C34859
:1058000016F05BFD4FF41871484616F056FD012066
:10581000FBF70FF8002818BF38941120FBF709F8A0
:10582000002818BF399416F0200F15D04FF41871C6
:10583000B64816F042FD4FF41871484616F03DFD8B
:105840000220FAF7F6FF002818BF3A941220FAF760
:10585000F0FF002818BF3B94DFF8B492A54E3698AD
:105860004FF0405B68B300210846FBF71DFE009037
:1058700001210020FBF718FE019099F800008DF837
:105880000800A4480078012894BFA348A3480078E2
:105890008DF809000020FBF733FF002818BF4FF0F8
:1058A000FF3004908DF80AA07088ADF80C0000203D
:1058B000FBF7A7FDADF80E009948CDF81880CDE9AB
:1058C00007B037984FF0FF0A68B300210846FBF78E
:1058D000EBFD099001210020FBF7E6FD0A9099F805
:1058E00000008DF82C008DF82D400D978DF82EA01E
:1058F0007088ADF830000020FBF783FDADF8320072
:105900009DF8090000EB400101EB001108EB81015B
:105910000F919DF8081048430BEB4001109180490E
:1059200001EB400011907F4FDFF8FC81389870B395
:1059300000210120FBF7B8FD012112900846FBF77A
:10594000B3FD1390FBF749FA00280CBF98F800004C
:1059500038788DF850000120FBF7B8FD04FA00F00C
:105960008DF851000120FBF780FEC04316908DF8A2
:1059700052A0B088ADF854000120FBF742FDADF80D
:105980005600624818906948199069481A903998E9
:1059900070B300211120FBF787FD1B90012111201E
:1059A000FBF782FD1C90FBF718FA00280CBF387833
:1059B00098F800008DF874001120FBF787FD04FAB9
:1059C00000F08DF875001120FBF74FFEC0431F90CB
:1059D0008DF876A0B088ADF878001120FBF711FDA6
:1059E000ADF87A00534821905348229053482390B1
:1059F000534F3A9840B300210220FBF755FD249005
:105A000001210220FBF750FD259038788DF8980091
:105A10000220FBF75BFD04FA00F08DF899000220EC
:105A2000FBF723FEC04328908DF89AA0B088ADF80C
:105A30009C000220FBF7E5FCADF89E0041482A904F
:105A400041482B9041482C903B9840B300211220B4
:105A5000FBF72AFD2D9001211220FBF725FD2E904A
:105A600078788DF8BC001220FBF730FD04FA00F0C6
:105A70008DF8BD001220FBF7F8FDC04331908DF882
:105A8000BEA0B088ADF8C0001220FBF7BAFCADF89C
:105A9000C2002F4833902F4834902F4835909DF8FE
:105AA00051000227022888BF8DF851709DF87500BB
:105AB000022888BF8DF875704FF055361F9601206B
:105AC0001696FBF7D2FD18B171000120FBF7BDFD62
:105AD0001120FBF7CAFD20B14FF0AA311120FBF7CE
