:10000000011009001900000040350000FF00000049
:10001000021A1A12260222FFFFFFFF022F94E4FFAA
:1000200075BE0E439F100FEFB4FFFB439F02539F1B
:10003000EFE4FF0FEFB4FFFB75BC0243B9207592EC
:1000400076E4F5BFD2D953CCFD22FF022743AB079C
:10005000AA06D3EB9DEA9C4007EB9DFFEA9CFE229B
:10006000C3ED9BFFEC9AFE22FFFFFF022059900197
:1000700081EEF0A3EFF0E4A3F0A3F0900105E070AF
:1000800003020391D3900120E0940090011FE094BB
:1000900000404074FFF5F012047E90016F12066E6E
:1000A0000000000190011FE0FEA3E0FFE4FCFD90D2
:1000B00001731206567F0F1231CA900133EEF0A37E
:1000C000EFF07816E2FF08E29000F5CFF0A3EFF032
:1000D0000203C8D3900134E09400900133E094000F
:1000E000400974FFF5F012047E801B7F0F1231CAA5
:1000F000900133EEF0A3EFF07816E2FF08E29000F3
:10010000F5CFF0A3EFF09000F5E0C313FEA3E013EA
:10011000FFC37817E29F18E29E50187F101231CA71
:10012000EF7803C333CE33CED8F9FF9000F7EEF06B
:10013000A3EFF0D39000F8E094009000F7E0940073
:10014000400774FFF5F012047E9000F7E07002A300
:10015000E06037E49000FDF0A3F09000F9F0A3F028
:100160009000E01206259000E412065690016F12EE
:10017000066E000000029000F7E0FEA3E0FFE4FC42
:10018000FD9001731206560203C8900074E0FEA3AE
:10019000E0FFA3E0FCA3E0FD12003ED3EF9432EEBB
:1001A00094004040E49000FDF0A3F09000F9F0A32B
:1001B000F09000E01206259000E412065690016FC0
:1001C00012066E00000003900074E0FEA3E0FFA39F
:1001D000E0FCA3E0FD12003EE4FCFD90017312067A
:1001E000560203C8900076E0FEA3E0FFC3900075BE
:1001F000E09FFF900074E09E9000F98FF012047E63
:100200009000FDE475F00112047E900181E0FEA3F0
:10021000E0FFC39000FEE09F9000FDE09E500302CF
:1002200002DB9000E4120625900189120656900028
:10023000E0120625123125E47B78FAF9F8C312059D
:10024000E240030202CE9000F9E0FEA3E07802CE85
:10025000A2E713CE13D8F8FF7C007D031204179099
:100260000183EEF0A3EFF09000A5EE8FF012047E74
:10027000C3EE64809480401E900183E0FEA3E0FF03
:10028000EE3395E0FDFC90017312065690016F125B
:10029000066E00000004900183E0FEA3E0FFC3EEC1
:1002A00064809480501CC3E49FFFE49EFE3395E07D
:1002B000FDFC90017312065690016F12066E00004D
:1002C0000005E49000FDF0A3F09000F9F0A3F09099
:1002D00000E01206259000E41206560203C89001C1
:1002E0006F12066E000000060203C89000E41206BA
:1002F000259001891206569000E01206251231253C
:10030000E47B78FAF9F8C31205E240030203859012
:1003100000F9E0FEA3E0FF900183EEF0A3EFF09080
:1003200000A5EE8FF012047EC3EE64809480401E20
:1003300090016F12066E00000007900183E0FEA39B
:10034000E0FFEE3395E0FDFC90017312065690013C
:1003500083E0FEA3E0FFC3EE64809480501CC3E4FE
:100360009FFFE49EFE3395E0FDFC9001731206565C
:1003700090016F12066E00000008E49000FDF0A3EB
:10038000F09000F9F0A3F09000E01206259000E450
:10039000120656804390016F12066E00000009801D
:1003A00037E4FF1231CA90011FEEF0A3EFF0E490A2
:1003B00000FDF0A3F09000F9F0A3F09000E0120629
:1003C000259000E4120656E49000F5F0A3F0A3F0A7
:1003D000A3F0900133F0A3F09000E4120625900101
:1003E000891206569000E0120625123125900177F9
:1003F000120656900074E0FEA3E0FFA3E0FCA3E029
:10040000FD12003EE4FCFD90017B12065622BB016A
:100410000689828A83E0225002E722BBFE02E322A1
:1004200089828A83E49322EF8DF0A4A8F0CF8CF028
:10043000A428CE8DF0A42EFE22BC000BBE0029EF16
:100440008DF084FFADF022E4CCF875F008EF2FFFBB
:10045000EE33FEEC33FCEE9DEC984005FCEE9DFE89
:100460000FD5F0E9E4CEFD22EDF8F5F0EE8420D2D0
:100470001CFEADF075F008EF2FFFED33FD4007983F
:100480005006D5F0F222C398FD0FD5F0EA22C5F050
:10049000F8A3E028F0C5F0F8E58215827002158314
:1004A000E038F022EF2BFFEE3AFEED39FDEC38FCA0
:1004B00022C3EF9BFFEE9AFEED99FDEC98FC22E83B
:1004C0008FF0A4CC8BF0A42CFCE98EF0A42CFC8A39
:1004D000F0EDA42CFCEA8EF0A4CDA8F08BF0A42DB6
:1004E000CC3825F0FDE98FF0A42CCD35F0FCEB8E57
:1004F000F0A4FEA9F0EB8FF0A4CFC5F02ECD39FE0D
:10050000E43CFCEAA42DCE35F0FDE43CFC2275F081
:1005100008758200EF2FFFEE33FECD33CDCC33CC08
:10052000C58233C5829BED9AEC99E58298400CF523
:1005300082EE9BFEED9AFDEC99FC0FD5F0D6E4CE51
:10054000FBE4CDFAE4CCF9A88222B800C1B9005985
:10055000BA002DEC8BF084CFCECDFCE5F0CBF97852
:1005600018EF2FFFEE33FEED33FDEC33FCEB33FBE6
:1005700010D703994004EB99FB0FD8E5E4F9FA2270
:100580007818EF2FFFEE33FEED33FDEC33FCC9336B
:10059000C910D7059BE99A4007EC9BFCE99AF90F33
:1005A000D8E0E4C9FAE4CCFB2275F010EF2FFFEE9F
:1005B00033FEED33FDCC33CCC833C810D7079BECEA
:1005C0009AE899400AED9BFDEC9AFCE899F80FD562
:1005D000F0DAE4CDFBE4CCFAE4C8F922EB9FF5F0C5
:1005E000EA9E42F0E99D42F0EC6480C86480984540
:1005F000F022EB9FF5F0EA9E42F0E99D42F0E89C84
:1006000045F022E8600FECC313FCED13FDEE13FE82
:10061000EF13FFD8F122E8600FEFC333FFEE33FE94
:10062000ED33FDEC33FCD8F122E6FC08E6FD08E6EC
:10063000FE08E6FF22E0FCA3E0FDA3E0FEA3E0FF4E
:1006400022E2FC08E2FD08E2FE08E2FF22E0F8A355
:10065000E0F9A3E0FAA3E0FB22E2FB08E2F908E2FA
:10066000FA08E2CBF822ECF0A3EDF0A3EEF0A3EF52
:10067000F022ECF208EDF208EEF208EFF222A88286
:100680008583F0D083D082120685120685120685F6
:10069000120685E473E493A3C583C5F0C583C8C57A
:1006A00082C8F0A3C583C5F0C583C8C582C822D05F
:1006B00083D082E493F208740193F208740293F2F7
:1006C00008740393F2740473A42582F582E5F0356F
:1006D00083F58322FAE6FB0808E6F925F0F618E62A
:1006E000CA3AF622E493FB740193FA740293F92256
:1006F000D083D082F8E4937012740193700DA3A399
:1007000093F8740193F5828883E4737402936860AC
:10071000EFA3A3A380DFEC8EF0A4CCC5F0CCCDF882
:10072000EFA4CEC5F02DFDE43CFCE8A42EC8C5F036
:100730003DFDE43CFCEFA4FFE5F028FEE43DFDE4D4
:100740003CFC2290018012066E00000000900068C0
:1007500012062590018412065690018412062590F7
:100760000078E025E025E02454F582E43400F583A8
:1007700012063D1204A190018412065690018412C3
:10078000062590016B12063D120494900184120616
:100790005690016B120625900078E025E025E024B4
:1007A00054F582E43400F583120656900078E00494
:1007B000F0E075F00584E5F0F090018412062590D4
:1007C000006812065690006812062590018C1206E9
:1007D000569001907402F090006C120625122A9532
:1007E00090006C1206569000D8120625AB07AA0698
:1007F000A905A80490006C1206251204A190014BD3
:1008000012063D120494900180120656E4FFFEFD8C
:10081000FC90018012063DC31205CC50037F0222DA
:10082000E47FFF7EFFFDFC90018012063DD31205A0
:10083000CC400A90018012066E0000FFFF900180FC
:10084000120625900070EEF0FCA3EFF0FDA3E0FE91
:10085000A3E0FF12003EAC06AD07902FEDE493C37A
:1008600013FE74019313FFD3ED9FEC9E400F900095
:1008700070E0FFA3E0A3CFF0A3EFF0807B30063D54
:10088000900072E0FEA3E0FFE4FCFDC004C005C0E0
:1008900006C007900070E0FEA3E0FFE490018C1218
:1008A00006569001907404F0D007D006D005D0040D
:1008B000122A95900072EEF0A3EFF0803B90007248
:1008C000E0FEA3E0FFE4FCFDC004C005C006C007D5
:1008D000900070E0FEA3E0FFE490018C12065690B9
:1008E00001907420F0D007D006D005D004122A95CC
:1008F000900072EEF0A3EFF0900074E0FFA3E0A38D
:10090000CFF0A3EFF0900072E0FEA3E0FF120F31F2
:10091000900074EEF0A3EFF09000A5E0FCA3E0FDE2
:10092000C3EF9DFFEE9CFEE4FCFD90018012065695
:10093000E47FFF7EFFFDFC90018012063DC312059F
:10094000CC400974FF7806F208F280189000A5E008
:10095000FEA3E0FFC3900075E09F7807F29000745B
:10096000E09E18F27F0622AB07E4900184F0A31208
:10097000066E00000000EB60741233D37B01E4FDCF
:10098000FF122F48784012069F00000000123367C4
:100990007840120649C00090013AE0FF122BFAD0CD
:1009A000001204947840120662900184E004F0E0A2
:1009B000C3940540D8782DE6FFE4FCFDFE78401294
:1009C00006491204AFC007900184E0FFFBE4FAF986
:1009D000F8D00712053A78071205F3900185120640
:1009E0005690018512062590016B120656E490017F
:1009F00083F0900183E0FBC39405501F90016B12BC
:100A00000625EB25E025E02454F582E43400F58347
:100A1000120656900183E004F080D7E47F05FEFDC6
:100A2000FC90016B12063D1204AF9000681206564E
:100A300090006812062590006C12065690007074A3
:100A400075F0A37430F0A37475F0A37430F0A37440
:100A500075F0A37430F0A37475F0A37430F09000B7
:100A6000D8120625AB07AA06A905A80490006C12A7
:100A700006251204A1C374309FFF74759EFEE49D89
:100A8000FDE49CFC90014B12065678067475F20842
:100A90007430F2E47816F208F2780E7475F2087485
:100AA00030F2784012069F00000000E47852F2080D
:100AB000F2900183F0900183E0FFC39414501BEF88
:100AC00025E02479F582E43400F5837475F0A3748D
:100AD00030F0900183E004F080DBE49000A3F0A309
:100AE00004F09000A17475F0A37430F0D20AE49081
:100AF00000A5F0A3F0900078F0900183F0900183BE
:100B0000E0FBC39405501F900068120625EB25E01A
:100B100025E024A7F582E43400F5831206569001FF
:100B200083E004F080D7E49000BBF09000681206E8
:100B3000259000BC120656E4900131F0A3F090011C
:100B40006312062590015F12063D1204949000F195
:100B500012065690016312062590015F12063D129F
:100B600004949000ED12065622E490017FF0A3F069
:100B7000A3F0FCA3F020CA03020D467866E67003DA
:100B8000020D46E490017FF090017FE0FE2466F8BC
:100B9000E6FD74A92EF582E43401F583EDF0E4F668
:100BA00090017FE004F0E0B40ADE9001A9E0FE5479
:100BB000F0FCEE540F900182F0AF04EF1206E00B50
:100BC000CB500BD5600BDF700BE9800C5D900D0EE8
:100BD000A00C8EB00D43C000000D467827E64401FE
:100BE000F6123318227827E654FEF612331822E460
:100BF000FF12348D7829A607229001AAE07F00FE1B
:100C0000900180F0A3EFF09001ABE0FDEEEDFF90DE
:100C10000180EEF0A3EFF0D3940AEE9400400302BB
:100C20000D46900182E0FFB40F2DE490017FF0901B
:100C3000017FE0FEC394044003020D46A3E0FCA341
:100C4000E0FDEE75F008A42434F8A60408A605908B
:100C5000017FE004F080D8900180E0FCA3E0FDEF8C
:100C600075F008A42434F8A60408A6052290018291
:100C7000E0FF70117827E6FE20E103020D4654FDE7
:100C8000F6751C0222EF64016003020D467827E628
:100C9000FF30E103020D464402F6751C022290016A
:100CA00082E0FF703A7827E654DFF6E490017FF0A7
:100CB00090017FE0FE25E024E7F582E4342FF58300
:100CC000E493FC740193FDEE75F008A42434F8A6B7
:100CD0000408A60590017FE004F0E0B402D222EF00
:100CE000640170727827E64420F6E490017FF0906A
:100CF000017FE0FF25E02417F582E43430F583E43A
:100D000093FC740193FDEF75F008A42434F8A60455
:100D100008A60590017FE004F0E0B402D222900121
:100D200082E0FD70157827E6FE30E22A54FBF6904B
:100D30000123E04408F0751C0222EDB40118782765
:100D4000E6FF20E2114404F6900123E04404F0752C
:100D50001C022212331822E4900180F01233D3E4F3
:100D6000FB7D017F01122F48E490017FF090017F0D
:100D7000E0FFC394025017EF25E025E02434F81279
:100D8000069F0000000090017FE004F080DF123336
:100D900067E490017FF090017FE0FFC39402504729
:100DA000EF25E025E02434F8C000120631C004C06D
:100DB00005C006C00790017FE02437F582E43401C6
:100DC000F583E0FF122BFAA804A905AA06AB07D009
:100DD00007D006D005D004120494D0001206629009
:100DE000017FE004F080AF900180E004F0E0C39464
:100DF00005409BE490017FF0900180E0FFE4FCFD62
:100E0000FEC004C005C006C00790017FE025E025B4
:100E1000E02434F8120631D003D002D001D0001201
:100E2000053AC004A905AA06AB0790017FE0242A71
:100E3000F8E6FFE4FCFDFED0001204AF78071205CF
:100E4000F390017FE0FB25E025E0245FF582E434A8
:100E500001F583120656EB25E025E0245FF582E4D8
:100E60003401F583120625E47B107A27F9F8C312C2
:100E700005E2504890017FE0FB25E025E0245FF586
:100E800082E43401F583120625EF24F0FFEE34D816
:100E9000FEED34FFFDEC34FFFCEB25E025E0243FC4
:100EA000F582E43401F58312065690017FE025E0D7
:100EB0002400F87427F2087410F2803890017FE063
:100EC000FB25E025E0243FF582E43401F58312069A
:100ED0006E00000000EB25E025E0245FF582E4349D
:100EE00001F58312062590017FE025E02400F8EE4D
:100EF000F208EFF290017FE0FB25E025E02434F8D2
:100F000012069F00000000EB25E0244CF8E4F208F4
:100F1000F290017FE0FF25E02400F8E2FC08E2FD0A
:100F2000EF25E02408F8ECF208EDF2E025E02410CB
:100F3000F8E4F208F2E004F0E064026003020DE875
:100F400022900188EEF0A3EFF0E4FFA3F0A3F0A35A
:100F5000F0A3F0A3F0A3F0A3F0A20B300601B3506E
:100F600028E4FF900188E0FCA3E0FDEF25E0247970
:100F7000F582E43400F583ECF0A3EDF00FEFB41448
:100F8000E2E49000A3F0A304F030060890018A7414
:100F900005F0800690018A7414F0900188E0FEA3A9
:100FA000E0FF9000A3E0FD25E02479F582E4340021
:100FB000F583EEF0A3EFF0ED25E02479F582E4343B
:100FC00000F583E0FEA3E0FF9000A4E025E0247993
:100FD000F582E43400F583E0FCA3E0FD12003E90CE
:100FE000018BEEF0A3EFF09000A3E004F0E0FF909F
:100FF000018AE0FEEF8EF084AFF09000A3EFF004E2
:10100000A3F08EF084E5F0F0900111E07002A3E00F
:1010100060030210EA90018BE0FEA3E0FFD3940A84
:10102000EE940050129000A1E0FDA3E090018FCD5E
:10103000F0A3EDF00210FBD3EF94C8EE9400400350
:101040000210D79000A1E0FEA3E0FF900188E0FC31
:10105000A3E0FD12003E90018DEEF0A3EFF09001B1
:1010600088E0FCA3E0FD9000A1E0FAA3E0FBD39DA3
:10107000EA9C403190018DE0FEA3E0FFD39464EE42
:1010800094004015EE13FEEF13FFC3EB9FFFEA9EA3
:101090009000A1F0A3EFF0803D9000A174FFF5F067
:1010A00012047E8031C3EB9DEA9C502A90018DE0B2
:1010B000FEA3E0FF9464EE94004011EE13FEEF13E4
:1010C000FF9000A1EE8FF012047E800A9000A1E450
:1010D00075F00112047E9000A1E0FFA3E090018F63
:1010E000CFF0A3EFF08024D20A900188E0FFA3E0C4
:1010F00090018FCFF0A3EFF08011D20A900188E029
:10110000FFA3E090018FCFF0A3EFF0300A11900120
:1011100088E0FFA3E09000A1CFF0A3EFF0C20A9017
:10112000018FE0FEA3E0FF2290017FEEF0A3EFF03D
:10113000E4900182F0A3F0A3F0900124E0FFA3E08B
:10114000900183CFF0A3EFF0E4900181F090018152
:10115000E0FBC3940240030212549001B3E0701606
:10116000900109E0B4030FD3900114E094009001C2
:1011700013E094004020900181E0FF25E0244CF82A
:10118000E4F208F2EF25E025E02434F812069F008F
:1011900000000002124BEB25E0244DF9E370021928
:1011A000E3701C900181E0FF25E02400F8E2FC08D8
:1011B000E2FDEF25E02444F8ECF208EDF2805E90C9
:1011C0000181E0FD25E02444F8E2FE08E2FFED2580
:1011D000E02400F8E2FC08E2FD12003EC390018426
:1011E000E09F900183E09E5034900181E0FF25E074
:1011F0002400F8E2FC08E2FDEF25E02444F8ECF2DC
:1012000008EDF2E0FF25E0244CF8E4F208F2EF25C7
:10121000E025E02434F812069F00000000900181D0
:10122000E0FF25E02400F8E2FC08E2FDEF25E025E0
:10123000E02434F8C000120649AE04AF05E4FCFD1A
:10124000120494D000120662900181E025E0244C43
:10125000F808E22401F218E23400F2900181E0047F
:10126000F002113DE4900181F0900181E0FFC39410
:10127000025024EF25E0244DF990017FE0FEA3E029
:10128000FFC3E39F19E39E4006900182E004F090C3
:101290000181E004F080D2900182E06402706F90DE
:1012A0000181F0900181E0FFC394025061EF25E0DD
:1012B000244CF8E2FE08E2FF4E6053E4FCFDC0045B
:1012C000C005C006C007E025E025E02434F812067A
:1012D00031D003D002D001D00012053A900181E054
:1012E000FD25E02408F8EEF208EFF2ED25E0244CAD
:1012F000F8E4F208F2ED25E025E02434F812069F28
:1013000000000000C218900181E004F080952212D4
:1013100033D3E4FB7D017F01122F48900185E5BAAC
:10132000F053BA0F43BA10E490017FF090017FE0D0
:10133000FFC39402501DEF25E025E0244FF582E421
:101340003401F58312066E0000000090017FE00476
:10135000F080D990015712066E0000000090017FC6
:101360007405F075ABFF123367E4900180F09001D3
:1013700080E0FFC39402503DEF25E025E0244FF5C7
:1013800082E43401F583C083C08212063DC0009020
:101390000180E02437F582E43401F583E0FF122B6D
:1013A000FAD000120494D082D083120656900180A5
:1013B000E004F080B990015712063DC00090013959
:1013C000E0FF122BFAD00012049490015712065637
:1013D000E4F5AB123367E4900180F0900180E0FF08
:1013E000C394025051EF25E025E0244FF582E43408
:1013F00001F583C083C082120625C004C005C00663
:10140000C007900180E02437F582E43401F583E0E1
:10141000FF122BFAA804A905AA06AB07D007D0062D
:10142000D005D0041204A1D082D0831206569001B8
:1014300080E004F080A5900157120625C004C00585
:10144000C006C007900139E0FF122BFAA804A905D5
:10145000AA06AB07D007D006D005D0041204A1908D
:10146000015712065690017FE014F0E0600302136A
:1014700053E4900180F0900180E0FBC3940250306F
:10148000A312066E00203A00EB25E025E0244FF57C
:1014900082E43401F58312063D9001811206251283
:1014A000053A900180E0242AF8A607E004F080C6FF
:1014B00090018112066E00203A0090015712063DFD
:1014C00090018112062512053A782CA60790018515
:1014D000E0F5BA900139E0902FDE93F5AB2212359A
:1014E00023900104EFF070179000F1120625900090
:1014F000E9120656E4900121F0A3F0C20E80669036
:1015000000F11206259001891206569000E9120694
:1015100025123125E47B207A03F9F8C31205E25045
:1015200020900121E475F00112047E7F041231CA7B
:10153000D3900122E09F900121E09E400BD20E80CB
:1015400007E4900121F0A3F0300E1A902FED740102
:101550009325E0FFE49333FEC3781FE29F18E29ED9
:101560005003123318900115E07002A3E0700312CB
:10157000306A900104E0FF123232EF700302164726
:101580003006167F051231CAD3900132E09F9001D8
:1015900031E09E401FD21A801B7F051231CAEEC374
:1015A00013FEEF13FFD3900132E09F900131E09ED4
:1015B0004002D21A7F021231CA90017FEEF0A3EFEF
:1015C000F0D3900112E09400900111E094004018D3
:1015D00090017FE0FEA3E07805CEC313CE13D8F9C7
:1015E000F0EE90017FF08021D3900136E0940090DE
:1015F0000135E09400401290017FE0C4F854F0C837
:1016000068F0A3E0C4540F48F090017FE0FEA3E02F
:10161000FF121D5A7F0D1231CA90017FEEF0A3EF29
:10162000F012005E900105E0FFA3E06F6029122E2A
:10163000AD900105E0A3F0A3E054F0601A7F08121A
:1016400031CA900115EEF0A3EFF07F111231CA906C
:101650000117EEF0A3EFF022E4FD301426ED25E0B3
:1016600024F7F582E4342FF583E493FE740193FFAD
:10167000ED25E0247FF582E43401F583EEF0A3EF5D
:10168000F0804D301526ED25E02417F582E4343046
:10169000F583E493FE740193FFED25E0247FF5824A
:1016A000E43401F583EEF0A3EFF08024ED25E0248F
:1016B000E7F582E4342FF583E493FE740193FFEDA4
:1016C00025E0247FF582E43401F583EEF0A3EFF00A
:1016D0000DED64027084E4FDED25E02420F8E2FEC7
:1016E00008E2FFED25E02419F9D3E39F19E39E40BA
:1016F00016ED25E02418F8E2FE08E2FFED25E024CF
:1017000020F8EEF208EFF2ED25E0247FF582E434D4
:1017100001F583E0C313FEA3E013FFED25E02419D8
:10172000F9D3E39F19E39E5047ED25E0247FF5822E
:10173000E43401F583E0FEA3E0FFED75F008A42496
:1017400034F8A60608A607ED25E0247FF582E434E8
:1017500001F583A3E025E0FF0582D58202158315FC
:1017600082E033F8ED25E02420C8F208EFF2803C57
:10177000ED25E02407F582E43430F583E493FE742C
:101780000193FFED25E02419F9D3E39F19E39E406F
:101790001BED25E02420F9E3C313FE09E313FFED5D
:1017A00075F008A42434F8A60608A6070DED640217
:1017B00060030216C82290017F7407F0A3F0A31201
:1017C000066E000000001233D3E4FB7D017F01129E
:1017D0002F4890017FE0FF602074017E00A8070879
:1017E0008005C333CE33CED8F9FFADACE4EF5D70E6
:1017F0000890017FE014F080D9900180E0FF602024
:1018000074017E00A807088005C333CE33CED8F913
:10181000FFADAEE4EF5D7008900180E014F080D978
:1018200090017FE0FF7401A807088002C333D8FC51
:10183000F5AC900180E0FF7401A807088002C33373
:10184000D8FCFFF5AD8FAE53AACF900189E5BAF071
:1018500053BA0F43BA10123367E490017FF090013E
:101860007FE0FFC39403503B74372FF582E43401CB
:10187000F583E0FF122BFA90018512065690018540
:1018800012062590018112063DC31205E2500C900C
:10189000018512062590018112065690017FE00411
:1018A000F080BB90018112063DC0009001811206BC
:1018B0002578041205F3D0001204949001811206D9
:1018C0005690018112062590012912065690018139
:1018D00012062578101205F38FB3900181120625A8
:1018E00078081205F38FB29001811206258FB1435B
:1018F000AA30900189E0F5BA75AC0375ADC075AE3C
:10190000C022E490017FF090017FE0FE75F008A412
:10191000243AFBEE25E025E0245FF582E43401F56E
:101920008312062578041205F3AD07AC06AF031247
:1019300034F690017FE0FE75F008A42438FFEE2510
:10194000E02410F8E2FC08E2FD1234F690017FE09A
:10195000FE75F008A42436FFEE25E02418F8E2FC1A
:1019600008E2FD1234F690017FE004F0E0C3940237
:1019700040957F4AC007900068120625780412053A
:10198000F3AD07AC06D0071234F67F46C0079000CF
:10199000D412062578041205F3AD07AC06D0071261
:1019A00034F67F52900074E0FCA3E0FD1234F67F21
:1019B0004E7827E6FD7C001234F67F54902FEDE43C
:1019C00093FC740193FD1234F67F56902FED740151
:1019D0009324CEFDE49334FFFC1234F67F587D64EB
:1019E0007C001234F67F5E7806E2FC08E2FD1234D9
:1019F000F67F5C7816E2FC08E2FD1234F67F5A7836
:101A00001EE2FC08E2FD1234F67F60780EE2FC086C
:101A1000E2FD1234F6900068120625780A1205F3EA
:101A20007862A6077827E6F52222439F04E453C68E
:101A3000DFE5C600B5C6F375830075820775FD0D39
:101A4000E4E5FEF4FF75830075820675FD0DE4E59F
:101A5000FEB50704F59E8003759E0078100000D83F
:101A6000FC53C6E043C60843C680759607759705C4
:101A700075830075820475FD0DE5FD0404F58F7511
:101A8000830075820375FD0DE4E5FEF4FF758300A8
:101A900075820275FD0DE4E5FEB50704F59580033A
:101AA00075958375BE0E5392FE9001007F007E02F5
:101AB000E4F0A3DFFCDEFA78007F00E4F208DFFC4C
:101AC00078FFE4F6D8FD758174021AFA020000026C
:101AD000286AE493A3F8E493A34003F68001F20894
:101AE000DFF48029E493A3F85407240CC8C333C45B
:101AF000540F4420C8834004F456800146F6DFE4C6
:101B0000800B0102040810204080902E5FE47E01CB
:101B10009360BCA3FF543F30E509541FFEE493A338
:101B200060010ECF54C025E060A840B8E493A3FA4A
:101B3000E493A3F8E493A3C8C582C8CAC583CAF0D6
:101B4000A3C8C582C8CAC583CADFE9DEE780BE90E4
:101B5000017F7407F0A3F0A312066E00000000E4FA
:101B6000F5B375B28875B1B81233D37B01E4FDFFCC
:101B7000122F4890017FE0FF602074017E00A807CB
:101B8000088005C333CE33CED8F9FFADACE4EF5DAA
:101B9000700890017FE014F080D9900180E0FF6030
:101BA0002074017E00A807088005C333CE33CED849
:101BB000F9FFADAEE4EF5D7008900180E014F080B5
:101BC000D990017FE0FF7401A807088002C333D8D1
:101BD000FCF5AC900180E0FF7401A807088002C307
:101BE00033D8FCFFF5AD8FAE53AACF900189E5BA8B
:101BF000F053BA0F43BA1012336790013AE0FF1264
:101C00002BFA900185120656900185120625900147
:101C10008112063DC31205E2500C90018512062583
:101C200090018112065690018112063DC00090017C
:101C30008112062578031205F3D000120494900156
:101C40008112065690018112062590012D1206562A
:101C500043AA30900189E0F5BA75AC0375ADC07543
:101C6000AEC02290018012066E00000000300076A7
:101C7000E490017FF090017FE0FB242AF8E6FFE486
:101C8000FCFDFEEB25E025E0244FF582E43401F570
:101C90008312063D1204AF78071205F390017FE02E
:101CA000FB25E025E0245FF582E43401F58312068C
:101CB00056EB25E025E0243FF582E43401F583125C
:101CC0000625EB25E025E0245FF582E43401F58369
:101CD00012063DC31205E250037F022290017FE00D
:101CE00004F0E0B4028F782CE6FFE4FCFDFE9001E6
:101CF0005712063D1204AF78071205F390016712E0
:101D00000656782DE6FFE4FCFDFE90015B12063DD1
:101D10001204AF90018012065690018012062578B9
:101D2000071205F3900180120656900180120625D5
:101D300090016B120656E490017FF090017FE0FF66
:101D4000C394045022EF25E025E0245FF582E434BB
:101D500001F583120625EC4D4E4F70037F02229051
:101D6000017FE004F080D47F0522900181EEF0A392
:101D7000EFF09001B8E0FB701990010AE0B4051291
:101D8000201A3AD3900116E09400900115E09400D7
:101D9000402BE47852F208F2784012069F000000CF
:101DA000009000D81206259000DC120656EB700356
:101DB000021E5BE4900117F0A3F0C20F22784012DC
:101DC0000649C0007806E2FE08E2FFE4FCFDD00010
:101DD00012049478401206627853E22401F218E269
:101DE0003400F2900181E0FEA3E0FFC308E29F18F7
:101DF000E29E502F9000DC120625900189120656B3
:101E00009000D8120625123125E47B78FAF9F8C340
:101E10001205E2400EA20B300601B34006201A0361
:101E2000300F487852E2FE08E2FFE4FCFDC004C037
:101E300005C006C0077840120631D003D002D00199
:101E4000D00012053A780EEEF208EFF2E47852F282
:101E500008F2784012069F000000009000D8120699
:101E6000259000DC120656C21AC20F22E4900183AC
:101E7000F0EF60691233D3E4FB7D017F01122F483C
:101E8000783C12069F00000000123367783C12066F
:101E900049C000900139E0FF122BFAD000120494DF
:101EA000783C120662900183E004F0E0C3940540A0
:101EB000D8782CE6FFE4FCFDFE783C1206491204BB
:101EC000AFC007900183E0FFFBE4FAF9F8D00712F6
:101ED000053A78071205F3900167120656E4FB9065
:101EE0000167120625EB25E025E024C0F582E434E5
:101EF00000F5831206560BEBB405E4E47F05FEFD06
:101F0000FC90016712063D1204AF9000D4120656F1
:101F10009000D41206259000E0120656E47F2BFEB6
:101F2000FDFC9000D412063D1204AF78041205F3B4
:101F30009000D81206569000D81206259000DC12A8
:101F400006569000D8120625EF24D0FFEE348AFE04
:101F5000ED34FFFDEC34FFFC900147120656780487
:101F60007475F2087430F2E49000E8F022E4900115
:101F70007FF090017FE0FFC394024003022058EFFE
:101F800025E025E0245FF582E43401F5831206257F
:101F9000E47B107A27F9F8C31205E2506090017FC4
:101FA000E0FB25E025E0245FF582E43401F58312AF
:101FB0000625EF24F0FFEE34D8FEED34FFFDEC34BF
:101FC000FFFCEB25E025E0243FF582E43401F583B6
:101FD00012065690017FE0FF25E02400F87427F2F6
:101FE000087410F2EF25E02410F8E4F208F2EF256F
:101FF000E02408F87427F2087410F2806290017FE0
:10200000E0FB25E025E0243FF582E43401F583126E
:10201000066E00000000EB25E025E0245FF582E479
:102020003401F58312062590017FE0FD25E02400B0
:10203000F8EEF208EFF2ED25E02410F8E4F208F2F1
:10204000ED25E025E0245FF582E43401F5831206F6
:102050002590017FE025E02408F8EEF208EFF290E9
:10206000017FE004F0021F6222C0E0C0F0C083C024
:1020700082C0D075D008C2CFD20730CD0302213B39
:1020800030CB3A20CC377870A6CEE6FFC3948040A0
:102090002375F003EF9026571206B81206D48B1959
:1020A0008A1A891B7819E475F0011206C41203FE1E
:1020B000F5CE80097870E62518F8E6F5CE30CC48E4
:1020C0007870E6FFB4C006786676C0807CEFB4C155
:1020D00006786676908072EFB4C206786676918054
:1020E00068EF64C36063EFC3948040107819E475AF
:1020F000F0011206C41203FEF5CE804D787006E69C
:102100002518F8E6F5CE804120CB3E85CE1D7870AF
:10211000E6FF7024E51DB410099001B9E0F4528087
:102120008027E51DB420089001B9E04280801A782C
:1021300066A61D7870068011EFC3940A5008787067
:10214000E62466F8A61D787006D205D0D0D082D0DD
:1021500083D0F0D0E032E4900180F0900180E0FF85
:1021600025E02408F8E2FC08E2FDEF25E02400F871
:10217000E2FE08E2FFD39DEE9C401BE025E0240830
:10218000F8E2FC08E2FDC3EF9DFFEE9CFEE4FCFDDF
:10219000A3120656800A90018112066E000000000C
:1021A0009001811206257807120606900181120619
:1021B00056900180E025E02410F8E2FE08E2FFE4FA
:1021C000FCFD780712060690018512065690010064
:1021D000E070247F03FEFDFC90018112063D120495
:1021E000AF90018512063D12049478021205F39017
:1021F0000185120656801A900181120625900185EC
:1022000012063D12049478011205F390018512061E
:102210005690018512062578071205F3900180E09B
:1022200025E02410F8EEF208EFF2E004F0E064029A
:10223000600302214B229000D412062590018012E7
:1022400006569001801206259000E8E025E025E082
:1022500024C0F582E43400F58312063D1204A190F7
:102260000180120656900180120625900167120621
:102270003D120494900180120656900167120625C3
:102280009000E8E025E025E024C0F582E43400F584
:10229000831206569000E8E004F0E075F00584E54E
:1022A000F0F09001801206259000D412065690009E
:1022B000D412062590018C1206569001907410F0ED
:1022C0009000E0120625122A959000E0120656E4CE
:1022D0007F2BFEFDFC9000E012063D1204AF780457
:1022E0001205F39000D8120656900147120625AB4E
:1022F00007AA069000D8120625C3EF9B7805F2EED8
:102300009A18F27F0622122A10122B8D12346F9027
:1023100000FFEFF0123262EF70030223C47F01125C
:1023200031CAAD07AC06D3900112E09400900111C0
:10233000E094004010ECC4F854F0C868FCEDC454BC
:102340000F48FD802D301810ECC4F854F0C868FC1C
:10235000EDC4540F48FD801AC37829E2941E18E298
:102360009400500EECC4F854F0C868FCEDC4540F4F
:1023700048FDAE04AF05121118900100E060287FFF
:10238000061231CAD3900110E09F90010FE09E40E9
:102390000AE49000FFF0A3F0121F5D90010FE475B6
:1023A000F00112047E8007E490010FF0A3F0900189
:1023B00000E0FFA3E06F601C1228FC900100E0A386
:1023C000F0A3E054F0600D7F071231CA900113EEC4
:1023D000F0A3EFF022E4900181F0A312066E00005A
:1023E0000000900105E0706ED3900136E0940090FB
:1023F0000135E0940040429000BC120625AB07AACC
:1024000006A905A8049000681206251204A19001EF
:1024100082120656902FED74019325E0FFE493336A
:10242000FEE4FCFD90018212063DD31205CC40680B
:10243000900181E04404F0805F902FEDE493FE74FE
:102440000193FFC3781FE29F18E29E404B900181E9
:10245000E04404F08042300D20902FED740193256C
:10246000E0FFE49333FEC3781FE29F18E29E40280A
:10247000900181E04404F0801F902FED74019324BB
:10248000CEFFE49334FFFEC3781FE29F18E29E4024
:1024900007900181E04404F0900181E09001B8F0E0
:1024A00022D3900112E09400900111E094004007C3
:1024B00074FFF5F012047ED3900114E094009001B3
:1024C00013E09400400774FFF5F012047ED39001EE
:1024D0001EE0940090011DE09400401374FFF5F09D
:1024E00012047E90011DE07002A3E07002D20590FC
:1024F000010BE475F00112047ED3900116E0940004
:10250000900115E09400400774FFF5F012047ED3AB
:10251000900118E09400900117E09400401374FFBC
:10252000F5F012047E900117E07002A3E07002D271
:102530000FD390011CE0940090011BE09400400731
:1025400074FFF5F012047ED3900136E09400900100
:1025500035E09400400774FFF5F012047E22E49009
:10256000017FF0A3F030071790010DF0A37441F044
:102570007F0C1231CA90011BEEF0A3EFF0C207A24C
:1025800006920B7827E6FF20E10330E20D90010D63
:10259000E4F0A37441F0C2068038D3900112E094B5
:1025A00000900111E09400501190011CE094009003
:1025B000011BE09400500320050D90010DE4F0A3F1
:1025C0007441F0C206800B90010DE4F0A37404F096
:1025D000D206300608E4FF12315D12000EA20B3065
:1025E0000601B3501EE4900121F0A3F0900105E034
:1025F0006004D20D800D7F031231CA900135EEF0D8
:10260000A3EFF0900105E07008300D03123318C2FB
:102610000D22E490017FF0900123E054036032C268
:10262000057F0A1231CA90011DEEF0A3EFF0900170
:1026300023E054FCF0C292786476000876967864C1
:1026400008E6161886067001164E60030080EFD269
:1026500092900123E0FF30E214900107E0540F60F4
:10266000227824760490017F7401F08016EF30E325
:1026700012900107E0540F600A7824764090017FA1
:102680007401F0900123E054F3F090017FE0602B9F
:10269000C2057F0A1231CA90011DEEF0A3EFF07857
:1026A000647600087696C292786408E61618860664
:1026B0007001164E60030080EFD29222E490017FF9
:1026C000F07824F6FF12348D90017FEFF0BFFF0603
:1026D000782576098004782576FF78267619E4082F
:1026E000F6782976FFFFEF25E024E7F582E4342F22
:1026F000F583E493FC740193FDEF75F008A4243492
:10270000F8A60408A605EF75F008A42436F8E4F648
:1027100008F6EF75F008A42438F8E4F608F6EF752B
:10272000F008A4243AF8E4F608F60FEFB402B7E490
:102730007854F608F608F608F608F608F608F608DB
:10274000F608F608F608F608F608F608F608F6752C
:10275000182422C0E0C0F0C083C082C0D075D01061
:1027600053B9FD900126E0FB64017059FA74372AD1
:10277000F582E43401F583E0FF122BFAEA25E02527
:10278000E0244FF582E43401F5831206560AEAB4D8
:1027900002DB900139E0FF122BFA90015712065626
:1027A00090013AE0902FDE93F5B490012EE0F5B35E
:1027B000A3E0F5B2A3E0F5B143B901D2D890012668
:1027C0007402F08017EBB4021390013AE0FF122B71
:1027D000FA90015B120656900126E4F0D0D0D08228
:1027E000D083D0F0D0E032FE0000FE0008FE0008EA
:1027F000FE0010FE0010FE0018FE0018FE00200172
:10280000014F01015701015F0101670101B301019E
:10281000B40101B50100FFFE0034FE0038FE004C9B
:10282000FE004E01010601010201010701010F0135
:10283000010B01010D01011101011B01011D01012C
:102840001101013F0101470101270101280101296F
:1028500001012D01016F01017701006801006C0188
:1028600000700100720100740100D40100D8010061
:10287000E001013300002A00002C1234331234E44A
:102880001235161226AC1233B11231FE1233F4D2C5
:10289000AF751C01E51C24FE601C24FE602D146035
:1028A0004114604B240570581235061234D012348E
:1028B000A47F02123027D2D8122CBF900126E070DC
:1028C000FA7F01122C5D751C048038D2D890012645
:1028D000E070FA121C538F1C12254E7F01122C5DE2
:1028E0008021122E118F1C1218F2122491801430A4
:1028F00000031222F61214CE1230AC751C048003B1
:10290000751C01120003120B5980892290017FEF80
:10291000F0900123E0600302298AF9FFFE7401A808
:1029200006088002C333D8FCFD90017FE05DFC9077
:102930000101E05D6C6007900123E04401F090012B
:1029400001E05DB50513EE2404FC7401A8040880C1
:1029500002C333D8FC49F9800D7401A8060880022F
:10296000C333D8FC49F990017FE05DB5050F7401D0
:10297000A806088002C333D8FC4FFF8011EE240460
:10298000FD7401A805088002C333D8FC4FFF0EEE8A
:1029900064027089E95F900102F0229001811206C1
:1029A0006E000000009000681206259000BBE02534
:1029B000E025E024A7F582E43400F5831206569062
:1029C00000BBE004F0E075F00584E5F0F0A20B3008
:1029D0000601B3504AE4900180F0900180E0FFC30B
:1029E00094055026A312063DEF25E025E024A7F527
:1029F00082E43400F58312062512049490018112BA
:102A00000656900180E004F080D0E47B05FAF9F8E6
:102A100090018112062512053A9000BC120656223A
:102A20007818E2FE08E2FF90017FEEF0A3EFF0A33A
:102A3000EEF0A3EFF07F01EF25E02418F8E2FC08A8
:102A4000E2FDD3900180E09D90017FE09C400FEF7C
:102A500025E02418F8E2FD08E2CDF0A3EDF0EF2523
:102A6000E02418F8E2FC08E2FDC3900182E09D90AA
:102A70000181E09C500FEF25E02418F8E2FD08E208
:102A8000CDF0A3EDF00FEFB402AD90017FE0FFA316
:102A9000E0782ACFF208EFF2A3E0FFA3E07828CF96
:102AA000F208EFF222900188120656900191120668
:102AB0006E000000009001881206257804120606B8
:102AC00090018812065690018C1206257804120691
:102AD0000690018C120656900190E024FFFFE4342A
:102AE000FFFEE4FCFD90018812063D1204AF900148
:102AF0008C12063D120494C007900190E0FFFBE4A5
:102B0000FAF9F8D00712053A900191120656900191
:102B10009112062578041205F39001911206569041
:102B2000019112062522E4900180F0900180E0FFDF
:102B3000C394025065EF25E025E0243FF582E4349C
:102B400001F583120625AB07AA06A905A804900182
:102B500080E025E025E0245FF582E43401F583126E
:102B600006251204A1900181120656E47FFF7EFF24
:102B7000FDFC90018112063DC31205E240037F0275
:102B800022900181120625900180E025E02400F8C2
:102B9000EEF208EFF2E004F080917F0622E490016B
:102BA0007FF090017FE0FF25E02408F8E2FC08E2D6
:102BB000FDEF25E02400F8E2FE08E2FFC39DEE9C55
:102BC000503DE025E02409F8C3E29FFF18E29EFE95
:102BD0007C007D64120706C006C007E025E0242CB7
:102BE000F8E2FE08E2FFFBAA06E4F9F8D007D006F7
:102BF00012053AD3EF940AEE94004003D2182290C3
:102C0000017FE004F0E0B4029922EFC39404500580
:102C100053B9EF800343B910EF6003B4040C78722A
:102C2000A6B708A6B608A6B5803DEF64016004EF1C
:102C3000B4050C7872A6EB08A6EA08A6E98028EF8E
:102C400064026004EFB4060C7872A6F308A6F208DA
:102C5000A6F18013EF64036004EFB4070A7872A64C
:102C6000FB08A6FA08A6F978711206192290017FCE
:102C7000EFF0E0900126F06401702530000AFB7D42
:102C8000017F01122F488008E4FB7D01FF122F48CD
:102C900090012AE0F5B3A3E0F5B2A3E0F5B1801D01
:102CA00090017FE0B402167B01E4FDFF122F4890F3
:102CB000012EE0F5B3A3E0F5B2A3E0F5B175BF0FC7
:102CC00043B92053B9FD43BA0143B901D2D82278A0
:102CD00027E6FF30E104D2008002C200EF30E204B8
:102CE000D2018002C201E490010BF0A3F0900195A3
:102CF000F0A3F0A202300001B35012A2009202121F
:102D00002DC0300005121F5D8003121F5D300805C5
:102D1000120D47C208A203300101B35004A2019270
:102D200003300905123318C20922A907E4FF7E0403
:102D3000EEC39404501474372EF582E43401F58305
:102D4000E0902FDE934FFF0E80E6E96005EF42D45E
:102D50008004EFF452D4EFF4FE52F4EF42E4ED605D
:102D600005EF42EC8003EE52ECEFF4FE52DCEB6038
:102D700005EF42808003EE52809001B9EFF022E42B
:102D8000900180F0900180E0FFC394025041EF2554
:102D9000E02410F8E2FE08E2FF7C007D64120706E2
:102DA000C006C007E025E0242CF8E2FE08E2FFFBA5
:102DB000AA06E4F9F8D007D00612053A900180E09F
:102DC00025E02418F8EEF208EFF2E004F080B522D6
:102DD000E4FF900100F0A3F0900109F090010FF0E2
:102DE000A3F0900113F0A3F0900102F0A3F0F523FB
:102DF000EF25E0242CF8E2FC08E2FD900124EC8DA4
:102E0000F012047E0FEFB402E7900124E0FEA3E08D
:102E1000FF7C007D0A120429900124EEF0A3EFF05C
:102E20002290017F7406F0300016122B1690017F5D
:102E3000EFF0BF0205D208E0FF22122146122D6FEB
:102E400012222690017FEFF0BF0205D208E0FF2298
:102E500012073390017FEFF0BF0205D209E0FF2295
:102E600012298B1232921232C090017FE0FF226051
:102E70003800FF000000000000000000000000001B
:102E80000000000000000000000000000000000042
:102E90000000000000000000000000000000000032
:102EA0000000000000000000000000480137050697
:102EB0000002FFFFFFFF04710000000000AA07905E
:102EC0000123E0F97044FCFF7E04EA540FFD9001F9
:102ED00006E0540F6D600A300107E94402900123B7
:102EE000F0900106E0540F6008EEC454F04CFC80F2
:102EF00003EC4EFCEA540F6005EF4EFF8006EEC473
:102F000054F04FFFEC5F900107F02290017F120612
:102F10006E00000000E4900183F090017F12063DF6
:102F2000C000900183E0242AF8E6FFE4FCFDFED017
:102F30000012049490017F120656900183E004F081
:102F4000E0B402D6E47B02FAF9F890017F1206257C
:102F500012053A782DA60722A905E4FEFDEF6018B8
:102F6000E4FF74372FF582E43401F583E0902FDE1F
:102F7000934EFE0FEFB402EAE9600A900139E09047
:102F80002FDE934EFEEB600A90013AE0902FDE9325
:102F90004DFD900127EEF0AF05A3EFF0900127E083
:102FA0004FF5B422C0E0C0F0C083C082C0D075D05D
:102FB00000C000C28D758C32758AEB900195E47566
:102FC000F00112047EC3900196E09414900195E004
:102FD0009400400D90010BE4F0A3F0900195F0A354
:102FE000F0D000D0D0D082D083D0F0D0E032010237
:102FF0000408102040806200370037003C00FA00CF
:103000003C003C003C003C003C003C003C003C00E0
:103010003C003C003C003C00780078003C003C0058
:103020003C003C003C003C03E803E8003C003C0062
:103030003C003C003C003C7827A607EFB40208D2D5
:1030400002D200C203C201EFB40408C202C200D21D
:1030500003D201EFB40608D202D200D203D201900B
:10306000010DE4F0A37441F07F0B1231CA900111FD
:10307000EEF0A3EFF0C206C20B22780EE2FE08E2E9
:10308000FF7806E2FC08E2FDC39FEC9E5026C37861
:103090000FE29DFF18E29CFED3EF941EEE940040D9
:1030A0000B900131E475F00112047E22E4900131AD
:1030B000F0A3F022E4900131F0A3F022E4FFFE300F
:1030C0000010900103E0FD900102E0FC6D6003EC54
:1030D000FF0E300112900108E0FD900107E0FC6D49
:1030E0006005EC4FFF7E01EE60047824A607900196
:1030F00002E0A3F0900107E0A3F022E4FFFEEE75EA
:10310000F008A42435F8E624FDFD18E634FFFCEEB3
:1031100025E02419F9C3E39D19E39C400D7401A82F
:1031200006088002C333D8FC4FFF0EEEB402CF90E6
:1031300001B5EFF022900185120656900189120622
:103140002590018512063DD31205E24010900189B9
:1031500012063D9001851206251204A122900185D8
:1031600012063D9001891206251204A122E4900165
:1031700026F053B9FD53B9DF43CC02C2D9439F10A7
:10318000539FFD438760759262C28DEF700675BDD7
:103190000D75BC011234BB75BE0CD28C4387030085
:1031A00000000022E4FFFEEE75F008A42434F8E6E7
:1031B000FC08E6FDEE25E02419F9C3E39D19E39C24
:1031C000400D7401A806088002C333D8FC4FFF0EDF
:1031D000EEB402D39001B3EFF0227B017A00EFC38B
:1031E000941240057F017E0022EF25E0248EF582B7
:1031F000E43433F583E493FF7E0090010DE0FCA3FB
:10320000E0FD120417AA06AB07AE02AF032243F893
:103210000875CD4053CC7F43CC4043CC2043CC10E9
:1032200043CC0453CCFD43CB0243CB0153CBBF4330
:10323000E80853E5FC43E30243F50343900343ED01
:1032400003227E05900105E06F6007EFF0E4900136
:103250000AF0900105E070027E02AF0690010AE0DC
:1032600004F0C39F50037F002290010A7405F07F91
:1032700001227E03900100E06F6007EFF0E490010F
:1032800009F0900100E070027E01AF06900109E0B4
:1032900004F0C39F50037F00229001097403F07F64
:1032A0000122780EE2FC08E2FD7806E2FA08E2FB71
:1032B000D39DEA9C400F780EE2FC08E2FDEB9DFFF7
:1032C000EA9CFE8003E4FEFF7816EEF208EFF2229D
:1032D0007816E2FE08E2FF7C007D64120706C00655
:1032E000C0077832E2FE08E2FFFBAA06E4F9F8D054
:1032F00007D00612053A781EEEF208EFF22275AA00
:103300003B75BA0843BA2043B92053B9BFE4F5B3BB
:1033100075B28875B1B875BB8675A9C0F5AB75ACCB
:103320000375ADC075AEC022900126E070FAE4FFCF
:10333000120957E4FF121E5CE4900105F090010AA7
:10334000F0900115F0A3F0A3F0A3F0900107F02294
:10335000E4FFFE74372EF582E43401F583E0902F0C
:10336000DE934FFF0EEEB404EAEF42D4EF42F4EFE7
:1033700042E4EFF452DC2275BF0F000000000000B1
:10338000000000000000000000000000D2D853B987
:10339000FD43B901E5B930E1FBE4F5BF22000201CC
:1033A00001020803010405050106060701080109D9
:1033B000020A010B030C010D0F0E040F01103C114A
:1033C00002438901C28DD2A953B8FDE4900195F062
:1033D000A3F090010BF0A3F0758C32758AEBD28CC0
:1033E000D2AF2253BAFEE5B920E006900126E06094
:1033F00005E5B930E1FBE4F5BF53B9FD53B9FE90E3
:103400000126F022782C7402F2087430F20874015C
:10341000F208742CF208E4F2087464F208E4F2088A
:103420007464F222EF600543D504800353D5FB5347
:10343000F5FB53E5FB43E30443ED04E4900123F083
:10344000D29222E4F5E3439F10439F02FF0FEFB4B3
:10345000FFFB539FEF75BE0EE4F5BFF5B97592768D
:1034600022E4900105F0A3F090010AF0900115F01C
:10347000A3F0A3F0A3F0900107F0A3F0C20D221275
:1034800016481231941230EB900100E07007900161
:10349000B3E0FB80059001B5E0FBAF0322E4FFF54C
:1034A00082F5837440FEE493F42FFFA3EEB583F618
:1034B000227F0022E490011DF0A3F07F0C1231CA9C
:1034C00090011BEEF0A3EFF0D20522438901C28CDC
:1034D000C28FE4900195F0A3F0758CFB758AED2204
:1034E0007F01121E5C122EFB121B3F7F0112095737
:1034F000123451221233407B017D01E4FF122D1A58
:103500007F011234142220C90CC2AFA807A60408F8
:10351000A605D2AF22221232EE1212FF1217A61205
:103520000D47122DC022C2DA53D80F43D8D0D2D8BB
:10353000D2D9221223C59001B8E0FF22FFFFFFFF7E
:10354000FFFFFFFFFFFFFFFFFFFFFFFFFFFFFFFF8B
:00000001FF
