:100000000008002085030000000000000000000040
:1000100000000000000000000000000000000000E0
:1000200000000000000000000000000000000000D0
:10003000000000000000000000000000BD01000002
:10004000C101000000000000ED010000B902000045
:10005000000000000000000000000000002934D073
:100060000123002210B488422CD301242407A1428A
:1000700004D2814202D209011B01F8E7E400A14247
:1000800004D2814202D249005B00F8E7884201D3E2
:10009000401A1A434C08A04202D3001B5C082243BA
:1000A0008C08A04202D3001B9C082243CC08A0422B
:1000B00002D3001BDC082243002803D01B0901D017
:1000C0000909E3E7101C10BC7047002801D000208C
:1000D000C04307B4024802A14018029003BDC046C5
:1000E000D90000000029F0D003B5FFF7B9FF0EBC1E
:1000F0004243891A1847C046002941D010B4041C55
:100100004C40A44601230022002900D54942002882
:1001100000D5404288422CD301242407A14204D2B6
:10012000814202D209011B01F8E7E400A14204D296
:10013000814202D249005B00F8E7884201D3401AAD
:100140001A434C08A04202D3001B5C0822438C08CF
:10015000A04202D3001B9C082243CC08A04202D339
:10016000001BDC082243002803D01B0901D0090929
:10017000E3E7101C6446002C00D5404210BC7047D9
:10018000002806D003DB0020C043400801E08020A7
:10019000000607B4024802A14018029003BDC04601
:1001A000190000000029EBD003B5FFF7A7FF0EBC34
:1001B0004243891A1847C0467047C046FEE7000010
:1001C00008B5074B01221A70064B00221A70064B25
:1001D0001B68187D904202D1032101F051FE08BD39
:1001E000E40300203F0000400000002038B5A025B7
:1001F000ED052B691B011B0F082B0CD12D4900238A
:100200000B604B60AA8A52BA081C8A600C3010310D
:1002100002F052FA40E0022B0CD1264BD96800299B
:100220003AD05A681869824236DA501C58602B7DE1
:100230008B5431E0042B2AD11E4CE368002B24D0D0
:10024000226821698A4209DA9B5CAB61A3689A182B
:1002500090B202F06FFA2368013314E0A368201C07
:10026000211CD2180C30103102F026FAE368002B62
:100270000BD0A16822688818A0601B7880B2AB619F
:1002800002F058FA0123236006E0AB6104E0012B81
:1002900002D1084B00225A60C046A023DB05DA6871
:1002A00001210A43DA60C0468022D96852000A431D
:1002B000DA6038BD5802002070B500F08BFF43694A
:1002C000002B01D0013B43611D4BC4691B681D4DD0
:1002D000191949794426890049190D681A49426952
:1002E00009688E5703214E43B61871430919083126
:1002F00089000D50002A05D080230022DB051A70EA
:10030000012219E08169013C41611049C4610E6814
:100310001B195D791F2086430540301C802328432C
:100320000860DB050121002C03DB1A70597019707D
:1003300004E00748C17019705A701A7070BDC04649
:10034000040400202001004000000020D4000040F0
:10035000E4030020064AA023DB051A60054A064B89
:100360001A60064A064B1A60BFF36F8F7047C0468B
:10037000010300490101020004000050010F0101C6
:1003800008000050F8B58023DB055A680F2313409E
:100390004B4A1F2111600133102B0CD08022D20553
:1003A00054680F21181C8C430840211C0143013361
:1003B0005160DBB2F0E70023424A43499A188A426F
:1003C00004D24249C95804331160F5E7404B414A11
:1003D000191D043B934203D200221A600B1CF6E75E
:1003E000EFF308823C4B191D043B9A4203D93B486A
:1003F00018600B1CF7E7FFF7ADFF3949394805399D
:1004000000F03EFF384C394D01235B42237163718C
:10041000A371E3712B1C3C331A782B1C3D331B78E2
:1004200080B21B021343984245D102F037F9304B9A
:1004300030491888304A88420BD06E7D18882B7D51
:1004400036023343984204D113889BB223711B0AAE
:10045000637113888B421BD0EE7DA87D1388360212
:100460003043834214D100200423013BDBB2FF2B35
:1004700007D0224EEF18F65C3F79B742F5D1012044
:10048000F3E7002804D013889BB2A3711B0AE37121
:10049000637922791B0213438B420CD0E279A37952
:1004A00012021A43134B9A4205D0154B1B78312B7D
:1004B00001D000F0BBF8134B04221A6062B6FEE7CD
:1004C000500000400000002058020020F4290000E5
:1004D0005C020020DD03002020040020CDCDCDCD26
:1004E0000030000000000000EE030020C02F0000DC
:1004F000D02D0000FFFF0000BE2F0000D22D000015
:100500007200010000E100E0014B18607047C04636
:10051000F8030020014B18687047C046F80300201C
:10052000014B18607047C046FC030020014B18685F
:100530007047C0460000002038B5074C256801F020
:10054000F9FB064A064912680968E861127C0978D5
:1005500023684A431A6138BD00000020F8030020D8
:10056000FC030020F0B585B000AF00F021FE204B69
:1005700068461B6800215C68A400231C0E33DB085E
:10058000DB00C01A8546C01A6D4685466B46221CA4
:10059000281CFB6002F025FA0321002001F0C8FCB2
:1005A000144E231C3168043B1A1D04D0CA69F86834
:1005B000D258C250F7E7043C01F070FF0B2814D169
:1005C0000321002001F0B4FC3168231C1A1DF3D074
:1005D000F868C0587860C869C2587868821AE858C4
:1005E000904200DAEA50043BF0E7BD4605B0F0BDAA
:1005F000480200200000002008B500F003FC00289D
:1006000000D1FEE7FFF798FF08BD08B502F08AF9B0
:1006100000F0D4FD08BD08B502F0D4F902F086F967
:1006200000F0CCFD00F0D8FF08BD0000F0B58FB0A1
:1006300006AF01F033FFB87202F08AF902F0A0F9B8
:1006400000F0CCFBFFF7D8FF01F028FF041CF87284
:10065000052800D1A7E010D800281AD0022800D021
:10066000C9E0FFF7D2FF01F0DFFE002001F014FA2D
:10067000FFF762FF01F058FF6EE00B2800D1A9E000
:100680000D2800D1B0E0092800D0B4E001F04CFF03
:1006900093E05A4E356801F017FF594B6A461B68C4
:1006A00028755B687A609B000A33DB08DB00D01A90
:1006B000336885461A1C44324533381C1470211C9B
:1006C0001C70142206AD0C3002F08BF9FD6000F0B6
:1006D000C1FE0524012C0AD0002C2CD0022C0CD0F9
:1006E000052C31D101F057F9C0B201F0D1FF434BD5
:1006F00000211868483001F099FD02F03DF8061C11
:1007000002F046F8041C02F049F83C4BB21C1B688E
:1007100000903B48191C0068483140680190381C23
:100720000C30029000200390DB69081C0493291C04
:10073000231C00F08BF9381C391C3A1C0B300A3191
:100740000C3200F025F9041C01F0A8FEFB7A83426C
:10075000C0D07A6895464EE001F0F0FE041E062CEB
:100760000BD0062804D8052810D100F027FF0DE093
:10077000142805D0172803D008E000F02DFF05E06D
:1007800001F0E4FE011C201C00F050FA01F086FE8E
:10079000FB7A8342E0D0FFF73EFF002001F07CF9B6
:1007A000FFF7CAFE27E001F0BFFE01F0A7FA01F053
:1007B00075FEFB7A8342FAD01DE00121002001F092
:1007C000B7FB002001F0D4F901F068FEFB7A834208
:1007D000F3D010E001F0A8FEFFF7C4FE01F05EFECA
:1007E000FB7A8342F8D006E001F09EFE01F056FE4F
:1007F000FB7A8342FAD0FB7ABB7225E70000002027
:100800004802002038B5264C23681D7902F058F8BC
:100810000379002B02D16BB2013303D12368002589
:10082000DD600FE02368D9681A69914202DAD9685D
:100830000131D96004215956012903D0DB68934264
:1008400000DB012523681A79954200D01D711A79C1
:10085000002A03D1134A1268127804E0012A03D156
:10086000104A126852781A60186801F07FFB2368FA
:10087000051C186C01F0A6FB2D1A002D0ADD23685B
:10088000186801F073FB2368051C186C01F09AFBD3
:10089000281A00E0012000F0B9FE01F007F838BD89
:1008A00000000020FC03002010B502F08BF801F0DE
:1008B000FDFD041C01F010FE0020844202D001F076
:1008C000FDFD012010BD0000F0B52B4D0E1C2B6866
:1008D0002A4A197D87B0041C1268012902D1527876
:1008E0001A6003E012781A60FFF78CFF311C201C9D
:1008F00000F080F92A68061C137D012B09D100F055
:1009000077FF1F4800F082FE00F0D0FF01F03CF8B6
:100910000EE001F039F800F06BFF01F0EDF82B6804
:100920003E2120685956FFF7BFFF002800D0061C63
:10093000144B03AC1B6800215F680C22201C02F0E2
:1009400050F801232370FBB26370A370042363711A
:100950002B680022DB6902200093211C131C01F08C
:1009600057FE094B1A68094B9A4202D001F0C6F9AA
:10097000FEE7301C07B0F0BD00000020FC030020A3
:1009800098AB0200480200201C040020CDCDCDCD44
:10099000F0B585B000AF061C0C1C7A6001F096FF24
:1009A000274B69461B685A689200131C0A33DB0800
:1009B000DB00C91A8D46B960081C002102F011F84D
:1009C000227833789A4203D001F0AEFD3378237059
:1009D0001C4D00222B689A6001F054FE041C00F0AC
:1009E000DAFFA04204D0201C00F0F4FF022423E030
:1009F000B9687868FFF768FF2B6838601B7D041CB6
:100A0000FB6001F061FDF968814205D02C6801F0BE
:100A10005BFD207503240FE02B680B4A9968914217
:100A200002D09A6801329A603B68002B04D101F031
:100A300035FD33788342CFD0201CBD4605B0F0BDD4
:100A40004802002000000020FFFFFF7FF0B589B0C2
:100A50000793002411AB0E1C1C57151C069001F0C7
:100A60008BFE0F9B05909A000021301C01F0B9FF0E
:100A7000174B201C03211F6801F060FA059A3864A7
:100A80001778201C002F09D0032101F051FA301CE7
:100A900012990F9A01F0C4FE013FF2E700F0E0FF67
:100AA000071C201C00F0F0FF291C01900E9A0698EC
:100AB0000F9B0097029401F077FE059A301C137883
:100AC000291C0093079A0F9B01F0B8FE09B0F0BDF6
:100AD0000000002010B50D4B0C1C1B683F331B7829
:100AE000002B01D000230370007800280CD001F007
:100AF00043FE2378027C00209A4202D30133237004
:100B000003E02070012000E0207010BD00000020F4
:100B1000F0B58FB00691089001F02EFE079001F01D
:100B200037FE041C01F03AFE304D071C2B68187D7F
:100B30000490002851D108982D4E191CDB690090B3
:100B40003068079A4068029401907C682431023230
:100B50000394069800F0D4FA33680BAC5B680990F4
:100B60000499201C0C22059301F03BFF0599069A7D
:100B7000CBB26370A3707C2301205B422070637151
:100B80000092049A211C131C012001F041FD2B68E6
:100B9000079C181C996A5A6A46301223E35E00F0DB
:100BA00021F92B68049C181C191C9A6A46305B6A50
:100BB00047310094FFF78EFF002813D1099C002CC9
:100BC0000BD131682B684968BA681B6800916921AC
:100BD00001910898069901F049FE069800F03CF949
:100BE000002000E001200FB0F0BDC0460000002052
:100BF0004802002038B50C1C051C01F061FE094BB1
:100C0000002118681822243001F0EBFE211C28680E
:100C1000FFF77EFF041E03D100F040F900F0EAF96F
:100C2000201C38BD0000002070477047684BF0B5AD
:100C30001B688FB05B686A469C00261C0A36F60863
:100C4000F60000AF921B9546F8617A62101C0D1CED
:100C5000221C00213B6201F0C4FE6B469B1B9D469B
:100C6000181CFF21221C7B6101F0BBFE3B6A6A4617
:100C70000733DB08DB00D21A95463A61684600214B
:100C80003A6A01F0AEFE6B469B1B221C9D46181C67
:100C90000021BB6101F0A5FEFA69142A02D0172ACF
:100CA00004D04AE0B869002101F0C0FA002D02D159
:100CB000484B1B689D7C043C2E1CBC60002E3CD025
:100CC0000020092101F034F93D6ABC68013D6B1C2C
:100CD00031D000F079FA3E4B1B685B689D4207DA21
:100CE000031C2C332B301A780378D31ADBB2FB6049
:100CF000394BF9681B68DB691859FFF7AFF97B6A54
:100D00001A59031E934200D2131C7A6A13517A694E
:100D10001359984200D9181C7A6A7B6912591851E4
:100D2000101A7F23FD2801D84008C3B23A69043C59
:100D30005355013DCBE7013EC0E7FA69142A08D0BC
:100D4000172A27D1FFF771FF3A6901247A62251C1F
:100D500022E03C6A013C1BD3BB69A500EB5806218D
:100D6000D803800D0A235843FFF7C6F97A6A061C98
:100D70005051BA69AB5C5B065B0EEBD06420584304
:100D80000621FFF7B9F97B6AC01186195E51E1E7C8
:100D9000FFF74AFF00240425381C00210C222C30C8
:100DA00001F01FFE01232C22D3553A6AE401D3B28D
:100DB0002D22D355381C2E22D355254331232C30D8
:100DC000796ADD5501F0CAFBBD460FB0F0BDC046E3
:100DD00048020020F80300200000002008B501F0C0
:100DE000C3FA08BD10B5002A02DD8A18D40F06E048
:100DF0000024A24203D10124994200DB141C047098
:100E000010BD0000114B642210B51A8000F0FCFDEB
:100E100000F09EFB00F038FB00F068FA00F090FA5A
:100E200000F00EFB01F0F4F8041C00F037FA084B58
:100E30001B681A78074B1B68002A01D0032200E0C8
:100E400002221A6162B6201C10BDC046BC000040E0
:100E5000040400205800002038B50E4B051C1C6807
:100E60000023A360FFF762FB037D002B10D10A4B28
:100E70001B685B685A1C9200A2180832013B07D31A
:100E800099006958002900DC00211160043AF5E757
:100E900038BDC0465002002048020020F0B5514B3A
:100EA00089B01C6801F082FB4F4E0023A3603368B9
:100EB0005D68FFF73BFB4D4B079019684C4B306862
:100EC0001A785B7804926A1C84469200201D059370
:100ED000821843192B330432013D7CD36646766871
:100EE000B54208DA079F387D002802D10E780696B1
:100EF00003E0012801D1CF7806971068002804D0BC
:100F0000069EB04201DA00201060106800283ED032
:100F1000002D13D1A06B96260130A0637600B0425D
:100F200005DDC82040000127A063049702E0049873
:100F3000002818D0201C0026303013E0012D12D1DB
:100F4000E06B96260130E0637600B04204DDC820F5
:100F50004000E063059502E0059E002E03D0201CB2
:100F600000263130067018787F2801D001301870C3
:100F700000269E574879864203DC012040421060DB
:100F800002E0A0680130A0600020187120E0002776
:100F9000DF574E79B74211DD17690197002F17D03F
:100FA0001F790137FFB21F718E797FB2B7420EDC15
:100FB000019F1760A0680130A06009E0002D02D1F8
:100FC000A563049503E0012D01D1E063059018703D
:100FD000013B043A80E7064B0498059A18705A7052
:100FE00009B0F0BD50020020480200201404002087
:100FF0006E020020F0B53F4B87B01E6801F0D6FAB4
:1010000001F0CEFA3C4B03901B685F68FFF78EFA45
:101010007C1CA400341902907D1E08340F231F404D
:10102000691C60D0344B1B685A6895420BDA0298F1
:10103000037D002B05D1314B1B68197800915B783B
:1010400006E0012B05D12D4B1B68D87800901B7949
:10105000019305AB002119809970954203DA02993A
:101060000A7D012A03D11A7840210A431A7005AB80
:101070001A780F218A433A431A70226901988242F2
:101080000DDC21680098814209DB187880225242E9
:1010900002431A700A1EFF2A0CDDFF220AE00099A3
:1010A0008A421CDB23680198834218DC039905AB54
:1010B000042901D15A7006E00398092803D192B29D
:1010C0005A70120A9A7005A801F07AFA6B46197DD7
:1010D000281CC909012200F0EBFC20682061013DB9
:1010E000043C013F9AE7B3683371F36001F07CFA86
:1010F00007B0F0BD50020020480200201404002078
:10110000F7B5071C26480093099C08610D69013C4E
:1011100009943DD30998009B147886009859002CB7
:1011200004D00A9B099C1B5758438009089CA4596A
:10113000A40B201A002810DD0A24135F984222DB3A
:10114000C31A9C460B689C448B6864469C460123EA
:101150009C440C6064468C6015E0002813D00C247D
:10116000135F98420BDCC31A9C464B689C44CB68C7
:1011700064469C4601239C444C606446CC604B69A9
:10118000984200DA4861B851A842BDDA281CBBE792
:101190000620135EE817DA0F9D425041C0B2FEBD33
:1011A0000080FFFF014B18607047C0460404002018
:1011B000014B18687047C04604040020014B1860BA
:1011C0007047C04600040020014B18687047C046B5
:1011D00000040020014B18687047C04658000020EA
:1011E000F0B51E4B1E4A1F7815781E4A1E49167808
:1011F0001E4AFFB214781E4AEDB2127808781978A8
:10120000F6B28C46191C6346E4B2D2B2C0B2AA2B25
:1012100006D1184BED19AD191B78EDB29D4202D0E5
:101220000E4B002208E0144B121912181B78D2B290
:101230009A42F5D101200FE01878013312180F48B7
:10124000D2B28342F8D109780020AA2903D11878B4
:10125000101A42425041C0B2F0BDC04650000100D9
:1012600051000100520001005A0001005800010025
:1012700059000100530001005B0001005F00010004
:1012800080235B040022188059809A8019890120EC
:1012900001431981C046988980B27047104BC02223
:1012A000920098580F49014099509958FF20814366
:1012B000402001439950985880210002000AC90536
:1012C00001439950042201211A6019600821196014
:1012D000FC3300215960044B19690A431A617047B5
:1012E00000E100E0FFFF00FF00ED00E013B5002289
:1012F00000920192104A6846126801AB148E2E3299
:10130000117842787F20824322200243684642704F
:1013100000988022D205506218882405000B240D05
:101320000003204318800198044B090303400B433A
:10133000A832136013BDC04600040020FF0FF0FF69
:101340003C4B70B51E688024331CE4052A331978A1
:10135000231CC03318687F2290431140021C0425CF
:101360000A43201C311C1A6018312A1CD83001F0A5
:101370002FFB201C311C2A1C1C31DC3001F028FB07
:10138000201C311C2A1C2031E03001F021FB201CE4
:10139000311C2A1C2431E43001F01AFB201C311CC2
:1013A0002A1C1031143001F013FB236B08229343E5
:1013B0002363236B02222B432363236B761993430E
:1013C0002363236B012213432363F27FA16C013A51
:1013D000194BD2B292030B401343A364A26C802337
:1013E000DB031343A364231CD4331968F022D20215
:1013F0000A431A601968FC2252040A431A601A68E8
:1014000060218A4320210A431A60A26C0B4B1340CF
:10141000802292041343A364B43423680F229343BD
:101420001D4325602368F022934340221343236029
:1014300070BDC04600040020FF3FC0FFFFFFFFC09B
:101440008023DB0500221A659A67012252425A6600
:101450007047000008B503480021102201F0C1FACE
:1014600008BDC04620010040054B802219681203C8
:101470000A431A601968034A0A401A607047C04656
:10148000B4000040FFFFF7FF70B5264E0422346819
:101490002548211D01F09CFA211C08310422234813
:1014A00001F096FA211C0C310422214801F090FA37
:1014B000211C103104221F4801F08AFA211C8025CA
:1014C000143104221C48ED0501F082FAFFF788FE72
:1014D000002823D033681B781B071B0F0F2B0AD162
:1014E000164B1A780F2A06D81A786968144B5205D9
:1014F0000B4013436B60134B1A689205920F012A3D
:101500000CD1114A11780F2908D811780F221140F7
:1015100018680E4A490302400A431A60FFF7A4FF05
:1015200070BDC04600040020080000400C000040D0
:1015300010000040140000401C0000405200010058
:10154000FFFF1FE0B400004058000100FF1FFEFF36
:1015500008B5144B144A19680A401A6019688022A9
:10156000D2020A431A601968104A0A4080214902CF
:101570000A431A601968802252010A431A601968E6
:101580000B4A0A401A6019680A4A0A408021490039
:101590000A431A601968084A0A401A60FFF764FF94
:1015A00008BDC046B4000040FFFFFDFFFF1FFEFF67
:1015B000FFF7FFFFFFFCFFFFFFFBFFFF0549802355
:1015C0000968DB0509695A6E0120884082435A6622
:1015D0007047C04658000020054A80231268DB058A
:1015E00012690120596E9040021C0A435A667047E6
:1015F000580000208023DB055A6E034B01201B6836
:101600001B69DA4090437047580000208023DB05B7
:10161000020280B2998F120E98873E3319781A70A1
:101620007047000072B6054B1B5C002B03D1C0460F
:1016300062B630BFF6E762B67047C046E4030020EA
:1016400072B6044B1B5C002B02D1C04662B6F7E7B2
:1016500062B67047E4030020F0B587B003AF79604D
:10166000191CBA609C46039001C101229300FE58E8
:101670006446002023689E420DD80D1C0192019BF8
:10168000043D834205DD2B686B60019B013B0193A8
:10169000F5E7266004E001300E6004349042E9DB97
:1016A00001320431032AE1D107B0F0BD30B50C4955
:1016B0000C4B09681A682D310C780B4913790968AD
:1016C000013B0BD301254D5710796843C0188000AA
:1016D00008188C300568E5400560F1E730BDC0466C
:1016E000000400200404002058000020F0B58023EE
:1016F0008FB00122DB0500AF5A700320FFF792FF85
:10170000394B69461B6803241B795BB27B62786A9C
:101710000C2343430A33DB08DB00C91A8D466B46B2
:10172000FB6183009808C1006A465B425218B861A9
:101730003B6179613A62013C2ED37D6A013D26D33B
:101740002A4B294A1B68126801215956127903262F
:101750004A43311C61435219891808318900C9581C
:10176000A01D7960A119714346438918B218083148
:10177000083289009200C958D2583B1C2C33786833
:10178000FFF76AFF396B3A6AAB00D150D6E73B6A84
:1017900038691B183B62CEE77C6AF969013CBA697B
:1017A000A5004D199600611C1AD07B692868EB587A
:1017B000A9591A1CBB603B1C2C33FFF74DFF0B4B88
:1017C000094A1B681268012159561279386B4A433D
:1017D000A218223292009B185860013C043DE2E7B7
:1017E000BD460FB0F0BDC0460404002058000020E4
:1017F00008B5FFF77BFFFFF759FF064B1B68443323
:101800001A78013AD1B2100601D4197001E002220F
:101810001A7008BD0000002010B58023DB05996810
:101820001A4A0A409A605968194A0A405A60596827
:10183000184A0A405A60184A1268127D012A1ED1BD
:101840005A680F21154C8A435A60226880231B0175
:1018500013432360FFF708FE226880239B02134393
:101860002360FFF701FE22680D4B13402360FFF752
:10187000FBFD22680B4B13402360FFF7F5FD80232F
:10188000DB059968084A0A409A6010BDFFFF7FFF98
:10189000FFE1FFFFFF1FFEFF00000020B40000403B
:1018A000FFFFFBFFFFEFFFFFFFFFFEFF08B5044B4D
:1018B00000221A70FFF7B0FF024B01221A7008BD18
:1018C000E40300203F00004070B58025ED05AA68C4
:1018D00080235B021343AB60244B254E1B681B7DAA
:1018E000012B23D1234C802322685B011343236007
:1018F000FFF7BAFD22688023DB0213432360FFF762
:10190000B3FD22681C4B13402360FFF7ADFD226836
:101910001A4B13402360FFF7A7FD336869681A78F4
:101920000F2399431A400B1C13436B603268012349
:101930009078547818408023DB056409C000204368
:101940000F495C6840032140014359605178586851
:10195000C9060C4A090F490202400A435A609968B5
:10196000802212040A439A6070BDC0460000002025
:1019700000040020B4000040FFFFFDFFFFF7FFFF61
:10198000FF1FFEFFFFE1FFFF08B50020FFF74AFE43
:10199000FFF79AFF08BD8023DB055868400DC0B2F1
:1019A000704730B58023DB055A680F23134083420C
:1019B0000ED001DA013300E0013B8022D2055568E8
:1019C0000F211C1C8D430C40291C21435160EEE764
:1019D00030BD000030B58023DB055B685B0DDBB2FA
:1019E00083420DD001DA013300E0013B8022D205B1
:1019F00055680449DCB26405294021435160EFE792
:101A000030BDC046FFFF1FE038B5114C802325686C
:101A1000DB051048291C04225B6800F0D9FF2878F8
:101A20000007000F0F2800DD0F200B4B1B68D8604C
:101A3000C0B2FFF7B6FF23685888C004000EFFF756
:101A4000C9FF8023DB055968044A0A405A6038BD43
:101A5000000400200400004058000020FFFEFFFFAB
:101A6000044B1B681A1C2C322B3310781B78C01ABD
:101A70000130704700040020024B1B682E33187899
:101A80007047C04600040020024B1B682D331878B5
:101A90007047C0460004002008B5FFF7B5FFFFF708
:101AA000F3FCFFF723FCFFF74BFC00F0B1FA08BD95
:101AB00010B50C4B01280AD1002A08D008401C6838
:101AC000C2050948204010431860084B08E01C6814
:101AD0000120074A08400006224002431A60054BD5
:101AE000197010BDB4000040FFFF7FFF6D020020A1
:101AF000FFFFFFFE6C02002038B5184B01251B7854
:101B0000002B02D100F0F0FC0540154CEB05154A06
:101B1000256815401D43144B25601B780125002BBB
:101B200003D100F0E1FCE84005402B060F4A256890
:101B300015401D43256000F0DFFC031C20680F25C5
:101B40002B40A8431843206000F0E2FC0540280128
:101B50002568F0239D430543256038BD6D020020B4
:101B6000B4000040FFFF7FFF6C020020FFFFFFFE7C
:101B7000F0B58023DB05996C802212060A439A6433
:101B80009A6C87B01A4300AF041C9A6449D16D4621
:101B90002A4BBD601A687F231A40131C0733DB08E9
:101BA000DB00EE1AB5466D463D6155002E1C083629
:101BB000F608F6006846801B85467A616A46FA6038
:101BC000211C7A69386900F00CFF211C2A1CF86876
:101BD00000F007FF6B469B1B9D466846211C2A1C94
:101BE000786000F0FEFE7E69B300FE687619B446A8
:101BF000043B013C181D12D011483D691A181168A8
:101C00007E691268A819090B01551205C9B27E68D0
:101C1000120D6000654649002A528A53E8E7BD6804
:101C2000AD468023DB059A6CBD46520052089A648B
:101C3000996C044A0A409A6407B0F0BDC0000040A5
:101C400000000240FFFFFFBF0002064B000A013800
:101C5000002258609A6005221A60C0461A68D103B3
:101C6000FCD5704710E000E0044B054900221A60E3
:101C700059609A6005221A607047C04610E000E083
:101C8000FFFFFF0010B58022D20554680F21640CBD
:101C90000C400823012C04D05468640C21405B1ACA
:101CA000DBB21C1C0A4B51681B680F229B68114059
:101CB000591A084B89185943074B4443C918074818
:101CC000FEF71AFAC1B2201CFEF716FA10BDC04684
:101CD00058000020F91600004E250000400D0300BA
:101CE00010B5044C0448A368C01AFFF7CBFF0023CB
:101CF000236010BD10E000E0FFFFFF0008B50A48B8
:101D000000F060F9FFF7A0FF084B094A934209D29F
:101D10008032D21A2021832A00DC91108910890098
:101D20005B18F2E708BDC046801A06001C040020BC
:101D300080070020014B18688C3070475800002045
:101D400010B58024E405A26C80231B061343A36412
:101D5000A36C80222343A36400215200054800F0B5
:101D600040FEA36C5B005B08A364A26C024B1340B3
:101D7000A36410BD00000240FFFFFFBFF7B53A4B60
:101D800080241D68E405AA79A168D206374BD20FDA
:101D900012050B401343071C0426201C291CA360BA
:101DA000321C1831D83000F013FE201C291C321CC4
:101DB0001C31DC3000F00CFE201C291C321C2031B0
:101DC000E03000F005FE201C291C321C2431E430D8
:101DD00000F0FEFD2B1C2A331978231CC033186831
:101DE0007F2290431140021C0A431A60183B1A6874
:101DF000298E120B0905090D12030A431A602A1CC9
:101E00002E32186811781A4A090302400A431A60F0
:101E10002B1C32331A78A16C3F26164B32400B40F4
:101E200012061343A3642B1C2B331B782C35019310
:101E30002D78FFF785FFA26C80239B011343A364D9
:101E4000A36C019AB34332401343A36435400A4B59
:101E5000A66CAD011E402E43A664381C00F014F998
:101E6000064B1B685F70F7BD00040020FFFFEFFF0B
:101E7000FF0FF0FFFFFFFFC03FF0FFFF5800002003
:101E8000F7B5244A244B12681B6852685961013A1D
:101E90009961DA61051C0C1C00F000FB002807D0DA
:101EA000092C2AD11D4B00221B6844331A7024E0F0
:101EB0001B4B1B6800930099184B18680B79013B6A
:101EC000EED3009E174FF2181E1C1236B600315882
:101ED0005279C903890D92000191D2191768B90A84
:101EE000019F89020F431760375C11680E4E7F0611
:101EF000FF0B0E403E431660E1E7281CFFF73EFF54
:101F00000A4B0022DA708023DB051A705A70012216
:101F10001A70F7BD48020020580000200000002081
:101F20000404002000010040FF03FEFFE403002042
:101F300008B5FFF7A5FFFFF75BFC08BD38B5051C2A
:101F40000C1CFFF791FE211C281CFFF799FF802332
:101F50000122DB055A700320FFF772FBFFF7C6FB77
:101F6000FFF7A4FBFFF7BCFE38BD000038B58022A8
:101F7000D2055168051C50680F23400C19401840C9
:101F80000824012804D05268520C1340E41AE4B229
:101F90000F23591A074B08485943084BC918FEF735
:101FA000ABF8074B211C5843FEF7A6F8291CFEF797
:101FB000A3F838BDF9160000400D03004E250000BF
:101FC00040420F0038B58022D2055168051C506888
:101FD0000F23400C194018400824012804D05268EF
:101FE000520C1340E41AE4B20F23591A054B064869
:101FF0005943064BC918FEF77FF8211C6843FEF7CA
:102000007BF838BDF9160000400D03004E25000096
:1020100038B500211848102200F0E3FC174B19686E
:102020000423013BDBB2FF2B1ED013489A00121889
:102030001468180724012409204310601568072438
:102040000F481C40A4042840204310600A799A429B
:10205000E7D9CA18527908489200121814688020EB
:10206000800220431060DCE78023DB05196B054A02
:1020700001200A401A6338BD00010040040400201A
:10208000FFFFE3FF1FFEFFFF064B1B681A799B183B
:102090001979054B1F22186811409043021C0A430E
:1020A0001A60704704040020D4000040104BF0B5C3
:1020B0001C68013A1AD3A3185B790E4D9B005B197B
:1020C00025794D43AD18AD0045192E68F7031E68FC
:1020D000BF0DB60AB6023E431E602E781F68064D3D
:1020E0007606F60B3D4035431D60E2E7F0BDC04685
:1020F0000404002000010040FF03FEFF70B5041C33
:10210000081C0D1CFFF7ACFC061C281CFFF7B4FCD8
:102110000C4B80211B68C9055B8873434343DB116B
:102120002360896C8A0402D54343DB09236023685A
:1021300073225A43D209626066225343DB09A360CB
:1021400070BDC04604040020F0B585B0039300269E
:102150000DAB051C0C1C02929E57FFF7EBFD071CF4
:10216000641056D00C9A281C311CFFF79FFF301CBE
:102170000921FFF785FEFFF7B9FA2A4B1B68019387
:1021800000230C998B4241DA01980B990279724332
:10219000D218920001291BD1B9580298814205D961
:1021A000A9180A68D003800D001B07E0039881423C
:1021B0002AD2A9180A68D003800D20188005C00B08
:1021C0008446194A086802406046104308601BE0D4
:1021D000B9580A98814206D9AA181178009248067F
:1021E000400E001B08E00A9881420DD2AA1811780F
:1021F00000924806400E2018844662467F20024026
:1022000081430098114301700133BAE7FFF792FD53
:10221000A6E7FFF78FFD301C0921FFF731FE05B05F
:10222000F0BDC046040400207F00FEFFF0B589B079
:102230000023051C05A80C1C059306930793FFF7C4
:102240005DFF164B19680E79331C013B0CD30A79DC
:1022500013486243D2189200AA18176838437F27A0
:10226000106038431070F0E7069801230090019346
:10227000281C059A079B029603940A49FFF764FFFE
:10228000069A079B00920222019202960394281C50
:102290007F21059AFFF758FF09B0F0BD0404002024
:1022A00080FF0100FF030000014B18607047C0462B
:1022B0000804002070B5FEF72DF9061CFEF778FF24
:1022C000274C051C311C2068102200F081FB2B7963
:1022D00021688B75234B61691A1C0832A260802229
:1022E0006360D2059269187E120A0A70597EE2680C
:1022F00009020143987E00040143D87E0006014391
:10230000080A11705070080C090ED170597F907036
:10231000187F09020143987F00040143D87F00061B
:102320000143080A11715071080C090ED171191C72
:102330002D331B782C3109781B020B4313721B0AB7
:102340005372A369907102229A700F22DA70E369C6
:102350001A6800221A6004221A715A7170BDC046B0
:102360005C000020D02F000038B5FEF7D3F8FEF750
:102370001FFF134CA56A00F0D3FA6860FFF79AFFBD
:10238000104B226B1B681B88190A517113710221B3
:10239000042B03D00021092B00D10321231C3C3343
:1023A000917101225A7000229A7000F0B5FA064B22
:1023B00058608023DB059A69236C1A7038BDC046CB
:1023C0005C000020080400201003002008B5084A23
:1023D000916C4B780749DBB20B72012B05D0022BB5
:1023E00005D1536C01225A7001E0FFF7E7F808BDF0
:1023F0005C00002010030020094B10B51B7A094C2B
:10240000012B05D0022B05D1626C0023537001E033
:10241000FFF7E2F8636B7F211A788A431A7010BDC8
:10242000100300205C000020F8B5194D0024194E5F
:10243000337A012B07D0002B18D0022B17D1164B63
:102440005B6C5C7813E0FFF7D5F8041C002D0BD112
:10245000FFF7C2F82E23FF33013B002B01D0C0460B
:10246000FAE7FFF7ABF80A4D013D00E01C1C0A4FEC
:10247000BA6C5378327A9A4206D0FFF7BDFFBB6C34
:10248000044A5B78137201E0002CD0D1F8BDC0463D
:10249000FF2C0100100300205C000020024B9B6C0D
:1024A0001878C0B27047C0465C000020024B9B6C9D
:1024B0009878C0B27047C0465C000020014B9B6C0E
:1024C000987070475C000020024B9B6CD878C0B2BB
:1024D0007047C0465C000020024B9B6C587AC0B22B
:1024E0007047C0465C000020024BDB691868C0B230
:1024F0007047C0465C000020044AD369926919798C
:10250000D078814201D21879C0B270475C000020B7
:10251000044AD36992695979D078814201D25879B5
:10252000C0B270475C000020034BA0225B6C1A70A5
:102530001A78A02AFCD070475C000020024B1B6D6B
:102540001878C0B27047C0465C000020024B1B6D7B
:102550009878C0B27047C0465C0000200E4B30B582
:102560001A6DFF2414700D4C58652160057884782D
:10257000996A6C430579407964194006400E6043BE
:102580000860586CA0210170996C1378FF2B02D160
:102590000B78022BF9D030BD5C0000201003002026
:1025A000014B1B68188870470804002008B5FFF726
:1025B0003BFF024B0022DA6008BDC046100300203A
:1025C00070B5074B074C1A6BE668011C9579986B40
:1025D0002A1C8019751900F0FBF9E56070BDC04632
:1025E0005C0000201003002008B5074BDB68002BBF
:1025F00009D0064ADBB2506B7F21194001703C3292
:102600009370FFF7E3FE08BD100300205C0000207C
:1026100073B56C46E271194A0734D56D2E7886423F
:102620002AD1FF2028709366131C9C331B682078E6
:102630009B688000116654661871114B06980C78DF
:1026400018608878936A60430C79497900194906C3
:10265000490E41431960516CA0230B70D16D936CEE
:102660000A78FF2A02D11A78002AF9D00A78FF2ABC
:1026700002D11A780A2AF3D073BDC0465C0000204C
:1026800010030020014B5B6C98787047DC00002041
:10269000014B5B6C98707047DC000020024BDB68DC
:1026A0009872000AD87270475C000020014B5B6989
:1026B000987270475C000020002303600B601B4B86
:1026C000F7B59A4230DC1312194C122B1BD89B0021
:1026D000E418E46E002C27D0E368013B5D1C23D096
:1026E000D5B2019565681E1CEF5C019D013BED1B99
:1026F000F4D42768B300DB59002B15D05B190360B5
:10270000A3689B5D0EE0E36A666A013B0CD35D0043
:10271000755B551BF9D4266A9B00F258521902606A
:10272000A26AD3585D1B0D60F7BDC046FFEF0000E5
:102730005C000020C02208B5D2000B4B904206D1AD
:102740005B6C1A78052A0DD005221A700AE05B6BC3
:1027500084221B7892005B065B0E9B18984201D185
:10276000FFF74AFE08BDC0465C000020014B186020
:102770007047C0460C040020014B18687047C046E3
:102780000C040020014B18607047C0461004002064
:10279000014B18687047C04610040020014B1868B0
:1027A0007047C0464C020020F7B5151C01900E1C66
:1027B0001A1C0024013A11D30198910041180F68A6
:1027C0000978F803800D0A27784349068446644453
:1027D000490EEFD07943C9096418EBE77788002FD9
:1027E00002D140236B600CE0191C201CFDF736FC65
:1027F000BF01011C381CFDF731FC6E2800DD6E2086
:1028000068603379642253430898099A434313411B
:102810003278002A02D06F687B439B11AB60F7BD12
:1028200070B59300C018C9180023043B013A04D3C3
:10283000C558CE58AC19C450F7E770BDF7B5051CA4
:102840000F1C01921C1C013C0ED3A600A85908992C
:10285000FDF704FC3B78002B03D0019A1357584333
:1028600080118003A851EEE7F7BD0000F8B5051C04
:102870000E1C101C191CFDF73FFC069C0A4B196826
:10288000A300ED18F7180023043B013C0AD30A22E9
:102890008E5EFA58B24200DA321C4243EE58B21A47
:1028A000EA50F1E70120F8BD0C04002008B5034B05
:1028B00018600078FFF7FAFE08BDC0461404002037
:1028C000014B18687047C0465002002038B5114CC3
:1028D000102520682A1C0021103000F082F82068A2
:1028E0002A1C0021203000F07CF8206804252A1CD6
:1028F0000021303000F075F820682A1C00213430A7
:1029000000F06FF82068002140193C2200F069F8BF
:1029100038BDC0465002002000487047E22D00003C
:10292000B020704700487047062E00005823013041
:102930005843014BC0187047E22D000008B5FEF760
:1029400037FC024B02791B685A6008BD4802002020
:1029500010B5094C201CFEF725FC201C0E30FDF79D
:10296000D3FD201C2230FFF79FFCFFF7E7FF034851
:10297000FFF708FF10BDC046E22D0000922E0000B8
:102980000D4B10B51B681C78582301345C430B4B6E
:10299000E4180B4B201C1C60FEF710FC201C34308C
:1029A000FDF7BEFD201C3630FFF7E0FE201C4E3048
:1029B000FFF77CFF10BDC04654020020E22D00004E
:1029C00018040020014B1B6818787047540200203F
:1029D00010B50023934203D0CC5CC4540133F9E713
:1029E00010BD031C8218934202D019700133FAE71C
:1029F0007047FFFF0400002000000000FF000000FF
:102A000000000000000000000000000000000000C6
:102A100000000000000000000000000000000000B6
:102A200000000000000000000000000000000000A6
:102A30000000000000000000000000000000000096
:102A400000000000000000000000000070020020F4
:102A50005703002000000000000000004B0300208E
:102A60003D02002032020020FD0100203003002042
:102A70001003002024010020200300200200000099
:102A80004403002043030020370300200700000018
:102A90002F030020300200201C0200200C02002026
:102AA000090200200000000001020020360300207F
:102AB0000000000000000000000000000000000016
:102AC000D8010020C4010020000000000000000028
:102AD00000000000B00100209C0100200000000068
:102AE00000000000840100200000000068010020B8
:102AF0000000000000000000000000005001002065
:102B00003C01002028010020F9010020F4010020F0
:102B1000000000002A0300200020006020010020A7
:102B200028030020380100200100000005000000FB
:102B30009C000020290300204C010020010000001F
:102B4000010000001401002063010020600100204A
:102B5000030000000405070010200000B40000205E
:102B60007D010020780100200500000008010C0113
:102B70000400102030310000A80000209701002040
:102B8000940100200300000008030C001020000046
:102B900074000020AE010020AC0100200200000003
:102BA00004060010A0000020C2010020C001002087
:102BB00002000000021400108C000020D40100204C
:102BC0009800002003000000001011005C000020AD
:102BD000EE010020E8010020060000001708080CA4
:102BE0000A0B002030405070010000000000200659
:102BF0000100010000002010020E000000FF000094
:102C0000002003026000900018020020006009010B
:102C100000010000000000000000000000000000B3
:102C200000000000050000483248304D450000001B
:102C3000004D495000000000000305007C03002007
:102C4000900300209C030020DC030020FFFFFFFF17
:102C5000FFFFFFFFFFFFFFFFFFFFFFFFFFFFFFFF84
:102C6000FFFFFFFFFFFFFFFFFFFFFFFFFFFFFFFF74
:102C7000FFFFFFFFFFFFFFFFFFFFFFFFFFFFFFFF64
:102C8000FFFFFFFFFFFFFFFFFFFFFFFFFFFFFFFF54
:102C9000FFFFFFFFFFFFFFFFFFFFFFFFFFFFFFFF44
:102CA000FFFFFFFFFFFFFFFFFFFFFFFFFFFFFFFF34
:102CB000FFFFFFFFFFFFFFFFFFFFFFFFFFFFFFFF24
:102CC000FFFFFFFFFFFFFFFFFFFFFFFFFFFFFFFF14
:102CD000FFFFFFFFFFFFFFFFFFFFFFFFFFFFFFFF04
:102CE000FFFFFFFFFFFFFFFFFFFFFFFFFFFFFFFFF4
:102CF000FFFFFFFFFFFFFFFFFFFFFFFFFFFFFFFFE4
:102D0000FFFFFFFFFFFFFFFFFFFFFFFFFFFFFFFFD3
:102D1000FFFFFFFFFFFFFFFFFFFFFFFFFFFFFFFFC3
:102D2000FFFFFFFFFFFFFFFFFFFFFFFFFFFFFFFFB3
:102D3000FFFFFFFFFFFFFFFFFFFFFFFFFFFFFFFFA3
:102D4000FFFFFFFFFFFFFFFFFFFFFFFFFFFFFFFF93
:102D5000FFFFFFFFFFFFFFFFFFFFFFFFFFFFFFFF83
:102D6000FFFFFFFFFFFFFFFFFFFFFFFFFFFFFFFF73
:102D7000FFFFFFFFFFFFFFFFFFFFFFFFFFFFFFFF63
:102D8000FFFFFFFFFFFFFFFFFFFFFFFFFFFFFFFF53
:102D9000FFFFFFFFFFFFFFFFFFFFFFFFFFFFFFFF43
:102DA000FFFFFFFFFFFFFFFFFFFFFFFFFFFFFFFF33
:102DB000FFFFFFFFFFFFFFFFFFFFFFFFFFFFFFFF23
:102DC000FFFFFFFFFFFFFFFFFFFFFFFFFFFFFFFF13
:102DD00004014832483050415241303030303030B8
:102DE00030300000B80B020102000000200B140379
:102DF0004F6E355F4B657900000000000000000059
:102E00000A1E0A0004000F42883930008118990315
:102E1000C0066000000091070000000000007C8AEE
:102E200005001B870101010131F001161933000073
:102E30001E0914038000000005000F4288213000A5
:102E400081189903C006600000009107000000008F
:102E500000007C8A05001B870101010131F0011689
:102E6000193300001E0914038000000005005A28D1
:102E70000300010052063F011E00E2FF1E00E2FFB8
:102E8000020010FFDC0500003C28230000020100C6
:102E90000000402DFFFFFFFFFFFFFFFFFFFFFFFFD1
:102EA000FFFFFFFFFFFFFFFFFFFFFFFFFFFFFFFF32
:102EB000FFFFFFFFFFFFFFFFFFFFFFFFFFFFFFFF22
:102EC000FFFFFFFFFFFFFFFFFFFFFFFFFFFFFFFF12
:102ED000FFFFFFFFFFFFFFFFFFFFFFFFFFFFFFFF02
:102EE000FFFFFFFFFFFFFFFFFFFFFFFFFFFFFFFFF2
:102EF000FFFFFFFFFFFFFFFFFFFFFFFFFFFFFFFFE2
:102F0000FFFFFFFFFFFFFFFFFFFFFFFFFFFFFFFFD1
:102F1000FFFFFFFFFFFFFFFFFFFFFFFFFFFFFFFFC1
:102F2000FFFFFFFFFFFFFFFFFFFFFFFFFFFFFFFFB1
:102F3000FFFFFFFFFFFFFFFFFFFFFFFFFFFFFFFFA1
:102F4000FFFFFFFFFFFFFFFFFFFFFFFFFFFFFFFF91
:102F5000FFFFFFFFFFFFFFFFFFFFFFFFFFFFFFFF81
:102F6000FFFFFFFFFFFFFFFFFFFFFFFFFFFFFFFF71
:102F7000FFFFFFFFFFFFFFFFFFFFFFFFFFFFFFFF61
:102F8000FFFFFFFFFFFFFFFFFFFFFFFFFFFFFFFF51
:102F9000FFFFFFFFFFFFFFFFFFFFFFFFFFFFFFFF41
:102FA000FFFFFFFFFFFFFFFFFFFFFFFFFFFFFFFF31
:102FB000FFFFFFFFFFFFFFFFFFFFFFFFFFFF04011A
:102FC0004D425401483248300000000000300000FB
:102FD000EEEE020304010401EEEEEEEE000B0B0C2C
:102FE000002209012E0200001107162044321700AA
:102FF0000000000000000000000040000A35000052
:00000001FF
