:1000000048000000170000008C2C080017000000BA
:10001000F02C080017000000F42C08001700000066
:10002000F82C080017000000FC2C08001700000046
:10003000002D080017000000042D08001700000024
:10004000082D0800170000000C2D08001700000004
:10005000102D080017000000142D080017000000E4
:10006000182D080017000000342D080017000000AC
:10007000442D0800170000005C2D08001700000048
:10008000602D080017000000902D080017000000E8
:10009000942D080017000000C42D08001700000070
:1000A000C82D080017000000F82D080017000000F8
:1000B000FC2D0800170000002C2E0800170000007F
:1000C000302E080017000000602E08001700000006
:1000D000642E080017000000942E0800170000008E
:1000E000982E080017000000C82E08001700000016
:1000F000CC2E080017000000FC2E0800170000009E
:10010000002F080017000000302F08001700000023
:10011000342F080017000000642F080017000000AB
:10012000682F080017000000982F08001700000033
:100130009C2F080017000000CC2F080017000000BB
:10014000D02F080017000000003008001700000042
:1001500004300800170000003430080017000000C9
:100160003830080017000000683008001700000051
:100170006C300800170000009C30080017000000D9
:10018000A030080017000000D03008001700000061
:10019000D4300800170000000431080017000000E8
:1001A000083108001700000038310800170000006F
:1001B0003C310800170000006C31080017000000F7
:1001C00070310800170000008C3108001700000093
:1001D00090310800170000009C3108001700000053
:1001E000A431080017000000A83108001700000023
:1001F000B431080017000000BC31080017000000EF
:10020000C031080017000000CC31080017000000C2
:10021000D431080017000000D83108001700000092
:10022000E431080017000000EC310800170000005E
:10023000F031080017000000FC3108001700000032
:100240000432080017000000083208001700000000
:1002500014320800170000001C32080017000000CC
:1002600020320800170000002C32080017000000A0
:100270003432080017000000383208001700000070
:1002800044320800170000004C320800170000003C
:1002900050320800170000005C3208001700000010
:1002A00064320800170000006832080017000000E0
:1002B00074320800170000007C32080017000000AC
:1002C00080320800170000008C3208001700000080
:1002D0009432080017000000983208001700000050
:1002E000A432080017000000AC320800170000001C
:1002F000B032080017000000BC32080017000000F0
:10030000C432080017000000C832080017000000BF
:10031000D432080017000000DC320800170000008B
:10032000E032080017000000EC320800170000005F
:10033000F432080017000000F8320800170000002F
:1003400004330800170000000C33080017000000F9
:1003500010330800170000001C33080017000000CD
:10036000243308001700000028330800170000009D
:1003700034330800170000003C3308001700000069
:1003800040330800170000004C330800170000003D
:10039000543308001700000058330800170000000D
:1003A00064330800170000006C33080017000000D9
:1003B00070330800170000007C33080017000000AD
:1003C000843308001700000088330800170000007D
:1003D00094330800170000009C3308001700000049
:1003E000A033080017000000AC330800170000001D
:1003F000B433080017000000B833080017000000ED
:10040000C433080017000000CC33080017000000B8
:10041000D033080017000000DC330800170000008C
:10042000E433080017000000E8330800170000005C
:10043000F433080017000000FC3308001700000028
:1004400000340800170000000C34080017000000FA
:1004500014340800170000001834080017000000CA
:1004600024340800170000002C3408001700000096
:1004700030340800170000003C340800170000006A
:10048000443408001700000048340800170000003A
:1004900054340800170000005C3408001700000006
:1004A00060340800170000006C34080017000000DA
:1004B00074340800170000007834080017000000AA
:1004C00084340800170000008C3408001700000076
:1004D00090340800170000009C340800170000004A
:1004E000A434080017000000A8340800170000001A
:1004F000BC34080017000000C034080017000000DA
:10050000CC34080017000000D434080017000000A5
:10051000D834080017000000EC3408001700000071
:10052000F034080017000000043508001700000030
:1005300008350800170000001435080017000000F7
:100540001C350800170000002035080017000000C7
:100550003435080017000000383508001700000087
:100560004C35080017000000503508001700000047
:100570006435080017000000683508001700000007
:1005800074350800170000007C35080017000000D3
:1005900080350800170000008C35080017000000A7
:1005A0009435080017000000983508001700000077
:1005B000AC35080017000000B03508001700000037
:1005C000BC35080017000000C43508001700000003
:1005D000C835080017000000D435080017000000D7
:1005E000DC35080017000000E035080017000000A7
:1005F000F435080017000000F83508001700000067
:1006000004360800170000000C3608001700000030
:1006100010360800170000001C3608001700000004
:1006200024360800170000002836080017000000D4
:1006300034360800170000003C36080017000000A0
:1006400040360800170000004C3608001700000074
:100650005436080017000000583608001700000044
:1006600064360800170000006C3608001700000010
:1006700070360800170000007C36080017000000E4
:1006800084360800170000008836080017000000B4
:1006900094360800170000009C3608001700000080
:1006A000A036080017000000AC3608001700000054
:1006B000B436080017000000B83608001700000024
:1006C000C436080017000000CC36080017000000F0
:1006D000D036080017000000DC36080017000000C4
:1006E000E436080017000000E83608001700000094
:1006F000F436080017000000FC3608001700000060
:1007000000370800170000000C3708001700000031
:100710001437080017000000183708001700000001
:1007200024370800170000002C37080017000000CD
:100730003037080017000000443708001700000099
:1007400048370800170000005C3708001700000059
:100750006037080017000000743708001700000019
:1007600078370800170000008C37080017000000D9
:1007700090370800170000009C37080017000000A1
:10078000A437080017000000A83708001700000071
:10079000B437080017000000BC370800170000003D
:1007A000C037080017000000CC3708001700000011
:1007B000D437080017000000D837080017000000E1
:1007C000E437080017000000EC37080017000000AD
:1007D000F037080017000000FC3708001700000081
:1007E000043808001700000008380800170000004F
:1007F00014380800170000001C380800170000001B
:1008000020380800170000002C38080017000000EE
:1008100034380800170000003838080017000000BE
:1008200044380800170000004C380800170000008A
:1008300050380800170000005C380800170000005E
:10084000643808001700000068380800170000002E
:1008500074380800170000007C38080017000000FA
:1008600080380800170000008C38080017000000CE
:10087000943808001700000098380800170000009E
:10088000A438080017000000AC380800170000006A
:10089000B038080017000000BC380800170000003E
:1008A000C438080017000000C8380800170000000E
:1008B000D438080017000000DC38080017000000DA
:1008C000E038080017000000EC38080017000000AE
:1008D000F438080017000000F8380800170000007E
:1008E00004390800170000000C3908001700000048
:1008F0001039080017000000243908001700000014
:1009000028390800170000003439080017000000DB
:100910003C390800170000004039080017000000AB
:100920004C39080017000000543908001700000077
:10093000583908001700000064390800170000004B
:100940006C3908001700000070390800170000001B
:100950007C390800170000008439080017000000E7
:1009600088390800170000009439080017000000BB
:100970009C39080017000000A0390800170000008B
:10098000AC39080017000000B43908001700000057
:10099000B839080017000000C4390800170000002B
:1009A000CC39080017000000D039080017000000FB
:1009B000DC39080017000000E439080017000000C7
:1009C000E839080017000000F4390800170000009B
:1009D000FC39080017000000003A0800170000006A
:1009E0000C3A080017000000143A08001700000035
:1009F000183A080017000000243A08001700000009
:100A00002C3A080017000000303A080017000000D8
:100A1000443A080017000000483A08001700000098
:100A20005C3A080017000000603A08001700000058
:100A3000743A080017000000783A08001700000018
:100A4000843A0800170000008C3A080017000000E4
:100A5000903A0800170000009C3A080017000000B8
:100A6000A43A080017000000A83A08001700000088
:100A7000BC3A080017000000C03A08001700000048
:100A8000D43A080017000000D83A08001700000008
:100A9000E43A080017000000EC3A080017000000D4
:100AA000F03A080017000000FC3A080017000000A8
:100AB000043B080017000000083B08001700000076
:100AC000143B080017000000343B0800170000002A
:100AD000383B080017000000443B080017000000E6
:100AE0004C3B080017000000503B080017000000B6
:100AF0005C3B080017000000643B08001700000082
:100B0000683B080017000000743B08001700000055
:100B10007C3B080017000000803B08001700000025
:100B20008C3B080017000000943B080017000000F1
:100B3000983B080017000000A43B080017000000C5
:100B4000AC3B080017000000B03B08001700000095
:100B5000BC3B080017000000C43B08001700000061
:100B6000C83B080017000000DC3B0800170000002D
:100B7000E03B080017000000F43B080017000000ED
:100B8000F83B0800170000000C3C080017000000AC
:100B9000103C0800170000001C3C08001700000073
:100BA000243C080017000000283C08001700000043
:100BB000343C0800170000003C3C0800170000000F
:100BC000403C080017000000543C080017000000DB
:100BD000583C080017000000643C080017000000A3
:100BE0006C3C080017000000703C08001700000073
:100BF0007C3C080017000000843C0800170000003F
:100C0000883C080017000000943C08001700000012
:100C1000B43C080017000000B83C080017000000B2
:100C2000C43C080017000000CC3C0800170000007E
:100C3000D03C080017000000DC3C08001700000052
:100C4000E43C080017000000E83C08001700000022
:100C5000FC3C080017000000003D080017000000E1
:100C6000143D080017000000183D080017000000A0
:100C70002C3D080017000000303D08001700000060
:100C80003C3D080017000000443D0800170000002C
:100C9000483D080017000000543D08001700000000
:100CA0005C3D080017000000603D080017000000D0
:100CB0006C3D080017000000743D0800170000009C
:100CC000783D080017000000843D08001700000070
:100CD0008C3D080017000000903D08001700000040
:100CE0009C3D080017000000A43D0800170000000C
:100CF000A83D080017000000B43D080017000000E0
:100D0000BC3D080017000000C03D080017000000AF
:100D1000CC3D080017000000D43D0800170000007B
:100D2000D83D080017000000E43D0800170000004F
:100D3000EC3D080017000000F03D0800170000001F
:100D4000FC3D080017000000043E080017000000EA
:100D5000083E080017000000143E080017000000BD
:100D60001C3E080017000000203E0800170000008D
:100D70002C3E080017000000343E08001700000059
:100D8000383E080017000000443E0800170000002D
:100D90004C3E080017000000503E080017000000FD
:100DA0005C3E080017000000643E080017000000C9
:100DB000683E080017000000743E0800170000009D
:100DC0007C3E080017000000803E0800170000006D
:100DD0008C3E080017000000943E08001700000039
:100DE000983E080017000000A43E0800170000000D
:100DF000AC3E080017000000B03E080017000000DD
:100E0000BC3E080017000000C43E080017000000A8
:100E1000C83E080017000000D43E0800170000007C
:100E2000DC3E080017000000E03E0800170000004C
:100E3000EC3E080017000000F43E08001700000018
:100E4000F83E080017000000043F080017000000EB
:100E50000C3F080017000000103F080017000000BA
:100E60001C3F080017000000243F08001700000086
:100E7000283F080017000000343F0800170000005A
:100E80003C3F080017000000403F0800170000002A
:100E90004C3F080017000000543F080017000000F6
:100EA000583F080017000000643F080017000000CA
:100EB0006C3F080017000000703F0800170000009A
:100EC0007C3F080017000000843F08001700000066
:100ED000883F080017000000943F0800170000003A
:100EE0009C3F080017000000A03F0800170000000A
:100EF000AC3F080017000000B43F080017000000D6
:100F0000B83F080017000000C43F080017000000A9
:100F1000CC3F080017000000D03F08001700000079
:100F2000DC3F080017000000E43F08001700000045
:100F3000E83F080017000000F43F08001700000019
:100F4000FC3F0800170000000040080017000000E8
:100F50000C400800170000001440080017000000B3
:100F60001840080017000000244008001700000087
:100F70002C40080017000000304008001700000057
:100F80003C40080017000000444008001700000023
:100F900048400800170000005440080017000000F7
:100FA0005C400800170000006040080017000000C7
:100FB0006C40080017000000744008001700000093
:100FC0007840080017000000844008001700000067
:100FD0008C40080017000000904008001700000037
:100FE0009C40080017000000A44008001700000003
:100FF000A840080017000000B440080017000000D7
:10100000BC40080017000000C040080017000000A6
:10101000CC40080017000000D44008001700000072
:10102000D840080017000000E44008001700000046
:10103000EC40080017000000F04008001700000016
:10104000FC400800170000000441080017000000E1
:1010500008410800170000001441080017000000B4
:101060001C41080017000000204108001700000084
:101070003441080017000000384108001700000044
:1010800044410800170000004C4108001700000010
:1010900050410800170000005C41080017000000E4
:1010A00064410800170000006841080017000000B4
:1010B00074410800170000007C4108001700000080
:1010C00080410800170000008C4108001700000054
:1010D0009441080017000000984108001700000024
:1010E000A441080017000000AC41080017000000F0
:1010F000B041080017000000BC41080017000000C4
:10110000C441080017000000C84108001700000093
:10111000D441080017000000DC410800170000005F
:10112000E041080017000000EC4108001700000033
:10113000F441080017000000F84108001700000003
:1011400004420800170000000C42080017000000CD
:1011500010420800170000001C42080017000000A1
:101160002442080017000000284208001700000071
:1011700034420800170000003C420800170000003D
:1011800040420800170000004C4208001700000011
:1011900054420800170000005842080017000000E1
:1011A00064420800170000006C42080017000000AD
:1011B00070420800170000007C4208001700000081
:1011C0008442080017000000884208001700000051
:1011D00094420800170000009C420800170000001D
:1011E000A042080017000000AC42080017000000F1
:1011F000B442080017000000B842080017000000C1
:10120000C442080017000000CC420800170000008C
:10121000D042080017000000DC4208001700000060
:10122000E442080017000000E84208001700000030
:10123000F442080017000000FC42080017000000FC
:1012400000430800170000000C43080017000000CE
:10125000144308001700000018430800170000009E
:1012600024430800170000002C430800170000006A
:1012700030430800170000003C430800170000003E
:10128000444308001700000048430800170000000E
:1012900054430800170000005C43080017000000DA
:1012A00060430800170000006C43080017000000AE
:1012B000744308001700000078430800170000007E
:1012C00084430800170000008C430800170000004A
:1012D00090430800170000009C430800170000001E
:1012E000A443080017000000A843080017000000EE
:1012F000B443080017000000BC43080017000000BA
:10130000C043080017000000CC430800170000008D
:10131000D443080017000000D8430800170000005D
:10132000E443080017000000EC4308001700000029
:10133000F043080017000000FC43080017000000FD
:1013400004440800170000000844080017000000CB
:1013500014440800170000001C4408001700000097
:1013600020440800170000002C440800170000006B
:10137000344408001700000038440800170000003B
:1013800044440800170000004C4408001700000007
:1013900050440800170000005C44080017000000DB
:1013A00064440800170000006844080017000000AB
:1013B00074440800170000007C4408001700000077
:1013C00080440800170000008C440800170000004B
:1013D000944408001700000098440800170000001B
:1013E000A444080017000000AC44080017000000E7
:1013F000B044080017000000BC44080017000000BB
:10140000C444080017000000C8440800170000008A
:10141000D444080017000000DC4408001700000056
:10142000E044080017000000EC440800170000002A
:10143000F444080017000000F844080017000000FA
:1014400004450800170000000C45080017000000C4
:1014500010450800170000001C4508001700000098
:101460002445080017000000284508001700000068
:1014700034450800170000003C4508001700000034
:1014800040450800170000004C4508001700000008
:1014900054450800170000005845080017000000D8
:1014A00064450800170000006C45080017000000A4
:1014B00070450800170000007C4508001700000078
:1014C0008445080017000000884508001700000048
:1014D00094450800170000009C4508001700000014
:1014E000A045080017000000AC45080017000000E8
:1014F000B445080017000000B845080017000000B8
:10150000C445080017000000CC4508001700000083
:10151000D045080017000000DC4508001700000057
:10152000E445080017000000E84508001700000027
:10153000F445080017000000FC45080017000000F3
:1015400000460800170000000C46080017000000C5
:101550001446080017000000184608001700000095
:1015600024460800170000002C4608001700000061
:1015700030460800170000003C4608001700000035
:101580004446080017000000484608001700000005
:1015900054460800170000005C46080017000000D1
:1015A00060460800170000006C46080017000000A5
:1015B0007446080017000000784608001700000075
:1015C00084460800170000008C4608001700000041
:1015D00090460800170000009C4608001700000015
:1015E000A446080017000000A846080017000000E5
:1015F000B446080017000000BC46080017000000B1
:10160000C046080017000000CC4608001700000084
:10161000D446080017000000D84608001700000054
:10162000E446080017000000EC4608001700000020
:10163000F046080017000000FC46080017000000F4
:1016400004470800170000000847080017000000C2
:1016500014470800170000001C470800170000008E
:1016600020470800170000002C4708001700000062
:101670003447080017000000384708001700000032
:1016800044470800170000004C47080017000000FE
:1016900050470800170000005C47080017000000D2
:1016A00064470800170000006847080017000000A2
:1016B00074470800170000007C470800170000006E
:1016C00080470800170000008C4708001700000042
:1016D0009447080017000000984708001700000012
:1016E000A447080017000000AC47080017000000DE
:1016F000B047080017000000BC47080017000000B2
:10170000C447080017000000C84708001700000081
:10171000D447080017000000DC470800170000004D
:10172000E047080017000000EC4708001700000021
:10173000F447080017000000F847080017000000F1
:1017400004480800170000000C48080017000000BB
:1017500010480800170000001C480800170000008F
:10176000244808001700000028480800170000005F
:1017700034480800170000003C480800170000002B
:1017800040480800170000004C48080017000000FF
:1017900054480800170000005848080017000000CF
:1017A00064480800170000006C480800170000009B
:1017B00070480800170000007C480800170000006F
:1017C000844808001700000088480800170000003F
:1017D00094480800170000009C480800170000000B
:1017E000A048080017000000AC48080017000000DF
:1017F000B448080017000000B848080017000000AF
:10180000C448080017000000CC480800170000007A
:10181000D048080017000000DC480800170000004E
:10182000E448080017000000E8480800170000001E
:10183000F448080017000000FC48080017000000EA
:1018400000490800170000000C49080017000000BC
:10185000144908001700000018490800170000008C
:1018600024490800170000002C4908001700000058
:1018700030490800170000003C490800170000002C
:1018800044490800170000004849080017000000FC
:1018900054490800170000005C49080017000000C8
:1018A00060490800170000006C490800170000009C
:1018B000744908001700000078490800170000006C
:1018C00084490800170000008C4908001700000038
:1018D00090490800170000009C490800170000000C
:1018E000A449080017000000A849080017000000DC
:1018F000B449080017000000BC49080017000000A8
:10190000C049080017000000CC490800170000007B
:10191000D449080017000000D8490800170000004B
:10192000E449080017000000EC4908001700000017
:10193000F049080017000000FC49080017000000EB
:10194000044A080017000000084A080017000000B9
:10195000144A0800170000001C4A08001700000085
:10196000204A0800170000002C4A08001700000059
:10197000344A080017000000384A08001700000029
:10198000444A0800170000004C4A080017000000F5
:10199000504A0800170000005C4A080017000000C9
:1019A000644A080017000000684A08001700000099
:1019B000744A0800170000007C4A08001700000065
:1019C000804A0800170000008C4A08001700000039
:1019D000944A080017000000984A08001700000009
:1019E000A44A080017000000AC4A080017000000D5
:1019F000B04A080017000000BC4A080017000000A9
:101A0000C44A080017000000C84A08001700000078
:101A1000D44A080017000000DC4A08001700000044
:101A2000E04A080017000000EC4A08001700000018
:101A3000F44A080017000000F84A080017000000E8
:101A4000044B0800170000000C4B080017000000B2
:101A5000104B0800170000001C4B08001700000086
:101A6000244B080017000000284B08001700000056
:101A7000344B0800170000003C4B08001700000022
:101A8000404B0800170000004C4B080017000000F6
:101A9000544B080017000000584B080017000000C6
:101AA000644B0800170000006C4B08001700000092
:101AB000704B0800170000007C4B08001700000066
:101AC000844B080017000000884B08001700000036
:101AD000944B0800170000009C4B08001700000002
:101AE000A04B080017000000AC4B080017000000D6
:101AF000B44B080017000000B84B080017000000A6
:101B0000C44B080017000000CC4B08001700000071
:101B1000D04B080017000000DC4B08001700000045
:101B2000E44B080017000000E84B08001700000015
:101B3000F44B080017000000FC4B080017000000E1
:101B4000004C0800170000000C4C080017000000B3
:101B5000144C080017000000184C08001700000083
:101B6000244C0800170000002C4C0800170000004F
:101B7000304C0800170000003C4C08001700000023
:101B8000444C080017000000484C080017000000F3
:101B9000544C0800170000005C4C080017000000BF
:101BA000604C0800170000006C4C08001700000093
:101BB000744C080017000000784C08001700000063
:101BC000844C0800170000008C4C0800170000002F
:101BD000904C0800170000009C4C08001700000003
:101BE000A44C080017000000A84C080017000000D3
:101BF000B44C080017000000BC4C0800170000009F
:101C0000C04C080017000000CC4C08001700000072
:101C1000D44C080017000000D84C08001700000042
:101C2000E44C080017000000EC4C0800170000000E
:101C3000F04C080017000000FC4C080017000000E2
:101C4000044D080017000000084D080017000000B0
:101C5000144D0800170000001C4D0800170000007C
:101C6000204D0800170000002C4D08001700000050
:101C7000344D080017000000384D08001700000020
:101C8000444D0800170000004C4D080017000000EC
:101C9000504D0800170000005C4D080017000000C0
:101CA000644D080017000000684D08001700000090
:101CB000744D0800170000007C4D0800170000005C
:101CC000804D0800170000008C4D08001700000030
:101CD000944D080017000000984D08001700000000
:101CE000A44D080017000000AC4D080017000000CC
:101CF000B04D080017000000BC4D080017000000A0
:101D0000C44D080017000000C84D0800170000006F
:101D1000D44D080017000000DC4D0800170000003B
:101D2000E04D080017000000EC4D0800170000000F
:101D3000F44D080017000000F84D080017000000DF
:101D4000044E0800170000000C4E080017000000A9
:101D5000104E0800170000001C4E0800170000007D
:101D6000244E080017000000284E0800170000004D
:101D7000344E0800170000003C4E08001700000019
:101D8000404E0800170000004C4E080017000000ED
:101D9000544E080017000000584E080017000000BD
:101DA000644E0800170000006C4E08001700000089
:101DB000704E0800170000007C4E0800170000005D
:101DC000844E080017000000884E0800170000002D
:101DD000944E0800170000009C4E080017000000F9
:101DE000A04E080017000000AC4E080017000000CD
:101DF000B44E080017000000B84E0800170000009D
:101E0000C44E080017000000CC4E08001700000068
:101E1000D04E080017000000DC4E0800170000003C
:101E2000E44E080017000000E84E0800170000000C
:101E3000F44E080017000000FC4E080017000000D8
:101E4000004F0800170000000C4F080017000000AA
:101E5000144F080017000000184F0800170000007A
:101E6000244F0800170000002C4F08001700000046
:101E7000304F0800170000003C4F0800170000001A
:101E8000444F080017000000484F080017000000EA
:101E9000544F0800170000005C4F080017000000B6
:101EA000604F0800170000006C4F0800170000008A
:101EB000744F080017000000784F0800170000005A
:101EC000844F0800170000008C4F08001700000026
:101ED000904F0800170000009C4F080017000000FA
:101EE000A44F080017000000A84F080017000000CA
:101EF000B44F080017000000BC4F08001700000096
:101F0000C04F080017000000CC4F08001700000069
:101F1000D44F080017000000D84F08001700000039
:101F2000E44F080017000000EC4F08001700000005
:101F3000F04F080017000000FC4F080017000000D9
:101F400004500800170000000850080017000000A7
:101F500014500800170000001C5008001700000073
:101F600020500800170000002C5008001700000047
:101F70003450080017000000385008001700000017
:101F800044500800170000004C50080017000000E3
:101F900050500800170000005C50080017000000B7
:101FA0006450080017000000685008001700000087
:101FB00074500800170000007C5008001700000053
:101FC00080500800170000008C5008001700000027
:101FD00094500800170000009850080017000000F7
:101FE000A450080017000000AC50080017000000C3
:101FF000B050080017000000BC5008001700000097
:10200000C450080017000000C85008001700000066
:10201000D450080017000000DC5008001700000032
:10202000E050080017000000EC5008001700000006
:10203000F450080017000000F850080017000000D6
:1020400004510800170000000C51080017000000A0
:1020500010510800170000001C5108001700000074
:102060002451080017000000285108001700000044
:1020700034510800170000003C5108001700000010
:1020800040510800170000004C51080017000000E4
:1020900054510800170000005851080017000000B4
:1020A00064510800170000006C5108001700000080
:1020B00070510800170000007C5108001700000054
:1020C0008451080017000000885108001700000024
:1020D00094510800170000009C51080017000000F0
:1020E000A051080017000000AC51080017000000C4
:1020F000B451080017000000B85108001700000094
:10210000C451080017000000CC510800170000005F
:10211000D051080017000000DC5108001700000033
:10212000E451080017000000E85108001700000003
:10213000F451080017000000FC51080017000000CF
:1021400000520800170000000C52080017000000A1
:102150001452080017000000185208001700000071
:1021600024520800170000002C520800170000003D
:1021700030520800170000003C5208001700000011
:1021800044520800170000004852080017000000E1
:102190005452080017000000745208001700000095
:1021A0007852080017000000845208001700000051
:1021B0008C52080017000000905208001700000021
:1021C0009C52080017000000A452080017000000ED
:1021D000A852080017000000B452080017000000C1
:1021E000BC52080017000000C05208001700000091
:1021F000CC52080017000000D4520800170000005D
:10220000D852080017000000E45208001700000030
:10221000EC52080017000000F05208001700000000
:10222000FC520800170000000453080017000000CB
:10223000085308001700000014530800170000009E
:102240001C5308001700000020530800170000006E
:102250002C5308001700000034530800170000003A
:10226000385308001700000044530800170000000E
:102270004C530800170000005053080017000000DE
:102280005C530800170000006453080017000000AA
:10229000685308001700000074530800170000007E
:1022A0007C5308001700000080530800170000004E
:1022B0008C5308001700000094530800170000001A
:1022C0009853080017000000A453080017000000EE
:1022D000AC53080017000000B053080017000000BE
:1022E000BC53080017000000C4530800170000008A
:1022F000C853080017000000D4530800170000005E
:10230000DC53080017000000E0530800170000002D
:10231000EC53080017000000F453080017000000F9
:10232000F8530800170000000454080017000000CC
:102330000C5408001700000010540800170000009B
:102340001C54080017000000245408001700000067
:10235000285408001700000034540800170000003B
:102360003C5408001700000040540800170000000B
:102370004C540800170000005454080017000000D7
:1023800058540800170000006454080017000000AB
:102390006C5408001700000070540800170000007B
:1023A0007C54080017000000845408001700000047
:1023B000885408001700000094540800170000001B
:1023C0009C54080017000000A054080017000000EB
:1023D000AC54080017000000B454080017000000B7
:1023E000B854080017000000C4540800170000008B
:1023F000CC54080017000000D0540800170000005B
:10240000DC54080017000000E45408001700000026
:10241000E854080017000000F454080017000000FA
:10242000FC540800170000000055080017000000C9
:102430000C55080017000000145508001700000094
:102440001855080017000000245508001700000068
:102450002C55080017000000305508001700000038
:102460003C55080017000000445508001700000004
:1024700048550800170000005455080017000000D8
:102480005C550800170000006055080017000000A8
:102490006C55080017000000745508001700000074
:1024A0007855080017000000845508001700000048
:1024B0008C55080017000000905508001700000018
:1024C0009C55080017000000A455080017000000E4
:1024D000A855080017000000B455080017000000B8
:1024E000BC55080017000000C05508001700000088
:1024F000CC55080017000000D45508001700000054
:10250000D855080017000000E45508001700000027
:10251000EC55080017000000F055080017000000F7
:10252000FC550800170000000456080017000000C2
:102530000856080017000000145608001700000095
:102540001C56080017000000205608001700000065
:102550002C56080017000000345608001700000031
:102560003856080017000000445608001700000005
:102570004C560800170000005056080017000000D5
:102580005C560800170000006456080017000000A1
:102590006856080017000000745608001700000075
:1025A0007C56080017000000805608001700000045
:1025B0008C56080017000000945608001700000011
:1025C0009856080017000000A456080017000000E5
:1025D000AC56080017000000B056080017000000B5
:1025E000BC56080017000000C45608001700000081
:1025F000C856080017000000D45608001700000055
:10260000DC56080017000000E05608001700000024
:10261000EC56080017000000F456080017000000F0
:10262000F8560800170000000457080017000000C3
:102630000C57080017000000105708001700000092
:102640001C5708001700000024570800170000005E
:102650002857080017000000345708001700000032
:102660003C57080017000000405708001700000002
:102670004C570800170000005457080017000000CE
:1026800058570800170000006457080017000000A2
:102690006C57080017000000705708001700000072
:1026A0007C5708001700000084570800170000003E
:1026B0008857080017000000945708001700000012
:1026C0009C57080017000000A057080017000000E2
:1026D000AC57080017000000B457080017000000AE
:1026E000B857080017000000C45708001700000082
:1026F000CC57080017000000D05708001700000052
:10270000DC57080017000000E4570800170000001D
:10271000E857080017000000F457080017000000F1
:10272000FC570800170000000058080017000000C0
:102730000C5808001700000014580800170000008B
:10274000185808001700000024580800170000005F
:102750002C5808001700000030580800170000002F
:102760003C580800170000004458080017000000FB
:1027700048580800170000005458080017000000CF
:102780005C5808001700000060580800170000009F
:102790006C5808001700000074580800170000006B
:1027A000785808001700000084580800170000003F
:1027B0008C5808001700000090580800170000000F
:1027C0009C58080017000000A458080017000000DB
:1027D000A858080017000000B458080017000000AF
:1027E000BC58080017000000C0580800170000007F
:1027F000CC58080017000000D4580800170000004B
:10280000D858080017000000E4580800170000001E
:10281000EC58080017000000F058080017000000EE
:10282000FC580800170000000459080017000000B9
:10283000085908001700000014590800170000008C
:102840001C5908001700000020590800170000005C
:102850002C59080017000000345908001700000028
:1028600038590800170000004459080017000000FC
:102870004C590800170000005059080017000000CC
:102880005C59080017000000645908001700000098
:10289000685908001700000074590800170000006C
:1028A0007C5908001700000080590800170000003C
:1028B0008C59080017000000945908001700000008
:1028C0009859080017000000A459080017000000DC
:1028D000AC59080017000000B059080017000000AC
:1028E000BC59080017000000C45908001700000078
:1028F000C859080017000000D4590800170000004C
:10290000DC59080017000000E0590800170000001B
:10291000EC59080017000000F459080017000000E7
:10292000F859080017000000045A080017000000BA
:102930000C5A080017000000105A08001700000089
:102940001C5A080017000000245A08001700000055
:10295000285A080017000000345A08001700000029
:102960003C5A080017000000405A080017000000F9
:102970004C5A080017000000545A080017000000C5
:10298000585A080017000000645A08001700000099
:102990006C5A080017000000705A08001700000069
:1029A0007C5A080017000000845A08001700000035
:1029B000885A080017000000945A08001700000009
:1029C0009C5A080017000000A05A080017000000D9
:1029D000AC5A080017000000B45A080017000000A5
:1029E000B85A080017000000C45A08001700000079
:1029F000CC5A080017000000D05A08001700000049
:102A0000DC5A080017000000E45A08001700000014
:102A1000E85A080017000000F45A080017000000E8
:102A2000FC5A080017000000005B080017000000B7
:102A30000C5B080017000000145B08001700000082
:102A4000185B080017000000245B08001700000056
:102A50002C5B080017000000305B08001700000026
:102A60003C5B080017000000445B080017000000F2
:102A7000485B080017000000545B080017000000C6
:102A80005C5B080017000000605B08001700000096
:102A90006C5B080017000000745B08001700000062
:102AA000785B080017000000845B08001700000036
:102AB0008C5B080017000000905B08001700000006
:102AC0009C5B080017000000A45B080017000000D2
:102AD000A85B080017000000B45B080017000000A6
:102AE000BC5B080017000000C05B08001700000076
:102AF000CC5B080017000000D45B08001700000042
:102B0000D85B080017000000E45B08001700000015
:102B1000EC5B080017000000F05B080017000000E5
:102B2000FC5B080017000000045C080017000000B0
:102B3000085C080017000000145C08001700000083
:102B40001C5C080017000000205C08001700000053
:102B50002C5C080017000000345C0800170000001F
:102B6000385C080017000000445C080017000000F3
:102B70004C5C080017000000505C080017000000C3
:102B80005C5C080017000000645C0800170000008F
:102B9000685C080017000000745C08001700000063
:102BA0007C5C080017000000805C08001700000033
:102BB0008C5C080017000000945C080017000000FF
:102BC000985C080017000000A45C080017000000D3
:102BD000AC5C080017000000B05C080017000000A3
:102BE000BC5C080017000000C45C0800170000006F
:102BF000C85C080017000000D45C08001700000043
:102C0000DC5C080017000000E05C08001700000012
:102C1000EC5C080017000000F45C080017000000DE
:102C2000F85C080017000000045D080017000000B1
:102C30000C5D080017000000105D08001700000080
:102C40001C5D080017000000245D0800170000004C
:102C5000285D080017000000345D08001700000020
:102C60003C5D080017000000405D080017000000F0
:102C70004C5D080017000000545D080017000000BC
:102C8000585D080017000000645D08001700000090
:102C90006C5D080017000000705D08001700000060
:102CA0007C5D080017000000845D0800170000002C
:102CB000885D080017000000945D08001700000000
:102CC0009C5D080017000000A05D080017000000D0
:102CD000AC5D080017000000B45D0800170000009C
:102CE000B85D080017000000C45D08001700000070
:102CF000CC5D080017000000D05D08001700000040
:102D0000DC5D080017000000E45D0800170000000B
:102D1000E85D080017000000F45D080017000000DF
:102D2000FC5D080017000000005E080017000000AE
:102D30000C5E080017000000145E08001700000079
:102D4000185E080017000000245E0800170000004D
:102D50002C5E080017000000305E0800170000001D
:102D60003C5E080017000000445E080017000000E9
:102D7000485E080017000000545E080017000000BD
:102D80005C5E080017000000605E0800170000008D
:102D90006C5E080017000000745E08001700000059
:102DA000785E080017000000845E0800170000002D
:102DB0008C5E080017000000905E080017000000FD
:102DC0009C5E080017000000A45E080017000000C9
:102DD000A85E080017000000B45E0800170000009D
:102DE000BC5E080017000000C05E0800170000006D
:102DF000CC5E080017000000D45E08001700000039
:102E0000D85E080017000000E45E0800170000000C
:102E1000EC5E080017000000F05E080017000000DC
:102E2000FC5E080017000000045F080017000000A7
:102E3000085F080017000000145F0800170000007A
:102E40001C5F080017000000205F0800170000004A
:102E50002C5F080017000000345F08001700000016
:102E6000385F080017000000445F080017000000EA
:102E70004C5F080017000000505F080017000000BA
:102E80005C5F080017000000645F08001700000086
:102E9000685F080017000000745F0800170000005A
:102EA0007C5F080017000000805F0800170000002A
:102EB0008C5F080017000000945F080017000000F6
:102EC000985F080017000000A45F080017000000CA
:102ED000AC5F080017000000B05F0800170000009A
:102EE000BC5F080017000000C45F08001700000066
:102EF000C85F080017000000D45F0800170000003A
:102F0000DC5F080017000000E05F08001700000009
:102F1000EC5F080017000000F45F080017000000D5
:102F2000F85F0800170000000460080017000000A8
:102F30000C60080017000000106008001700000077
:102F40001C60080017000000246008001700000043
:102F50002860080017000000346008001700000017
:102F60003C600800170000004060080017000000E7
:102F70004C600800170000005460080017000000B3
:102F80005860080017000000646008001700000087
:102F90006C60080017000000706008001700000057
:102FA0007C60080017000000846008001700000023
:102FB00088600800170000009460080017000000F7
:102FC0009C60080017000000A060080017000000C7
:102FD000AC60080017000000B46008001700000093
:102FE000B860080017000000C46008001700000067
:102FF000CC60080017000000D06008001700000037
:10300000DC60080017000000E46008001700000002
:10301000E860080017000000F460080017000000D6
:10302000FC600800170000000061080017000000A5
:103030000C61080017000000146108001700000070
:103040001861080017000000246108001700000044
:103050002C61080017000000306108001700000014
:103060003C610800170000004461080017000000E0
:1030700048610800170000005461080017000000B4
:103080005C61080017000000606108001700000084
:103090006C610800170000008C6108001700000038
:1030A00090610800170000009C61080017000000F4
:1030B000A461080017000000A861080017000000C4
:1030C000B461080017000000BC6108001700000090
:1030D000C061080017000000CC6108001700000064
:1030E000D461080017000000D86108001700000034
:1030F000E461080017000000EC6108001700000000
:10310000F061080017000000FC61080017000000D3
:1031100004620800170000000862080017000000A1
:1031200014620800170000001C620800170000006D
:1031300020620800170000002C6208001700000041
:103140003462080017000000386208001700000011
:1031500044620800170000004C62080017000000DD
:1031600050620800170000005C62080017000000B1
:103170006462080017000000686208001700000081
:1031800074620800170000007C620800170000004D
:1031900080620800170000008C6208001700000021
:1031A00094620800170000009862080017000000F1
:1031B000A462080017000000AC62080017000000BD
:1031C000B062080017000000BC6208001700000091
:1031D000C462080017000000C86208001700000061
:1031E000D462080017000000DC620800170000002D
:1031F000E062080017000000EC6208001700000001
:10320000F462080017000000F862080017000000D0
:1032100004630800170000000C630800170000009A
:1032200010630800170000001C630800170000006E
:10323000246308001700000028630800170000003E
:1032400034630800170000003C630800170000000A
:1032500040630800170000004C63080017000000DE
:1032600054630800170000005863080017000000AE
:1032700064630800170000006C630800170000007A
:1032800070630800170000007C630800170000004E
:10329000846308001700000088630800170000001E
:1032A00094630800170000009C63080017000000EA
:1032B000A063080017000000AC63080017000000BE
:1032C000B463080017000000B8630800170000008E
:1032D000C463080017000000CC630800170000005A
:1032E000D063080017000000DC630800170000002E
:1032F000E463080017000000E863080017000000FE
:10330000F463080017000000FC63080017000000C9
:1033100000640800170000000C640800170000009B
:10332000146408001700000018640800170000006B
:1033300024640800170000002C6408001700000037
:1033400030640800170000003C640800170000000B
:1033500044640800170000004864080017000000DB
:1033600054640800170000005C64080017000000A7
:1033700060640800170000006C640800170000007B
:10338000746408001700000078640800170000004B
:1033900084640800170000008C6408001700000017
:1033A00090640800170000009C64080017000000EB
:1033B000A464080017000000A864080017000000BB
:1033C000B464080017000000BC6408001700000087
:1033D000C064080017000000CC640800170000005B
:1033E000D464080017000000D8640800170000002B
:1033F000E464080017000000EC64080017000000F7
:10340000F064080017000000FC64080017000000CA
:103410000465080017000000086508001700000098
:1034200014650800170000001C6508001700000064
:1034300020650800170000002C6508001700000038
:103440003465080017000000386508001700000008
:1034500044650800170000004C65080017000000D4
:1034600050650800170000005C65080017000000A8
:103470006465080017000000686508001700000078
:1034800074650800170000007C6508001700000044
:1034900080650800170000008C6508001700000018
:1034A00094650800170000009865080017000000E8
:1034B000A465080017000000AC65080017000000B4
:1034C000B065080017000000BC6508001700000088
:1034D000C465080017000000C86508001700000058
:1034E000D465080017000000DC6508001700000024
:1034F000E065080017000000EC65080017000000F8
:10350000F465080017000000F865080017000000C7
:1035100004660800170000000C6608001700000091
:1035200010660800170000001C6608001700000065
:103530002466080017000000286608001700000035
:1035400034660800170000003C6608001700000001
:1035500040660800170000004C66080017000000D5
:1035600054660800170000005866080017000000A5
:1035700064660800170000006C6608001700000071
:1035800070660800170000007C6608001700000045
:103590008466080017000000886608001700000015
:1035A00094660800170000009C66080017000000E1
:1035B000A066080017000000AC66080017000000B5
:1035C000B466080017000000B86608001700000085
:1035D000C466080017000000CC6608001700000051
:1035E000D066080017000000DC6608001700000025
:1035F000E466080017000000E866080017000000F5
:10360000F466080017000000FC66080017000000C0
:1036100000670800170000000C6708001700000092
:103620001467080017000000186708001700000062
:1036300024670800170000002C670800170000002E
:1036400030670800170000003C6708001700000002
:1036500044670800170000004867080017000000D2
:1036600054670800170000005C670800170000009E
:1036700060670800170000006C6708001700000072
:103680007467080017000000786708001700000042
:1036900084670800170000008C670800170000000E
:1036A00090670800170000009C67080017000000E2
:1036B000A467080017000000A867080017000000B2
:1036C000B467080017000000BC670800170000007E
:1036D000C067080017000000CC6708001700000052
:1036E000D467080017000000D86708001700000022
:1036F000E467080017000000EC67080017000000EE
:10370000F067080017000000FC67080017000000C1
:10371000046808001700000008680800170000008F
:1037200014680800170000001C680800170000005B
:1037300020680800170000002C680800170000002F
:1037400034680800170000003868080017000000FF
:1037500044680800170000004C68080017000000CB
:1037600050680800170000005C680800170000009F
:10377000646808001700000068680800170000006F
:1037800074680800170000007C680800170000003B
:1037900080680800170000008C680800170000000F
:1037A00094680800170000009868080017000000DF
:1037B000A468080017000000AC68080017000000AB
:1037C000B068080017000000BC680800170000007F
:1037D000C468080017000000C8680800170000004F
:1037E000D468080017000000DC680800170000001B
:1037F000E068080017000000EC68080017000000EF
:10380000F468080017000000F868080017000000BE
:1038100004690800170000000C6908001700000088
:1038200010690800170000001C690800170000005C
:10383000246908001700000028690800170000002C
:1038400034690800170000003C69080017000000F8
:1038500040690800170000004C69080017000000CC
:10386000546908001700000058690800170000009C
:1038700064690800170000006C6908001700000068
:1038800070690800170000007C690800170000003C
:10389000846908001700000088690800170000000C
:1038A00094690800170000009C69080017000000D8
:1038B000A069080017000000AC69080017000000AC
:1038C000B469080017000000B8690800170000007C
:1038D000C469080017000000CC6908001700000048
:1038E000D069080017000000DC690800170000001C
:1038F000E469080017000000E869080017000000EC
:10390000F469080017000000FC69080017000000B7
:10391000006A0800170000000C6A08001700000089
:10392000146A080017000000186A08001700000059
:10393000246A0800170000002C6A08001700000025
:10394000306A0800170000003C6A080017000000F9
:10395000446A080017000000486A080017000000C9
:10396000546A0800170000005C6A08001700000095
:10397000606A0800170000006C6A08001700000069
:10398000746A080017000000786A08001700000039
:10399000846A0800170000008C6A08001700000005
:1039A000906A0800170000009C6A080017000000D9
:1039B000A46A080017000000A86A080017000000A9
:1039C000B46A080017000000BC6A08001700000075
:1039D000C06A080017000000CC6A08001700000049
:1039E000D46A080017000000D86A08001700000019
:1039F000E46A080017000000EC6A080017000000E5
:103A0000F06A080017000000FC6A080017000000B8
:103A1000046B080017000000086B08001700000086
:103A2000146B0800170000001C6B08001700000052
:103A3000206B0800170000002C6B08001700000026
:103A4000346B080017000000386B080017000000F6
:103A5000446B0800170000004C6B080017000000C2
:103A6000506B0800170000005C6B08001700000096
:103A7000646B080017000000686B08001700000066
:103A8000746B0800170000007C6B08001700000032
:103A9000806B0800170000008C6B08001700000006
:103AA000946B080017000000986B080017000000D6
:103AB000A46B080017000000AC6B080017000000A2
:103AC000B06B080017000000BC6B08001700000076
:103AD000C46B080017000000C86B08001700000046
:103AE000D46B080017000000DC6B08001700000012
:103AF000E06B080017000000EC6B080017000000E6
:103B0000F46B080017000000F86B080017000000B5
:103B1000046C0800170000000C6C0800170000007F
:103B2000106C0800170000001C6C08001700000053
:103B3000246C080017000000286C08001700000023
:103B4000346C0800170000003C6C080017000000EF
:103B5000406C0800170000004C6C080017000000C3
:103B6000546C080017000000586C08001700000093
:103B7000646C0800170000006C6C0800170000005F
:103B8000706C0800170000007C6C08001700000033
:103B9000846C080017000000886C08001700000003
:103BA000946C0800170000009C6C080017000000CF
:103BB000A06C080017000000AC6C080017000000A3
:103BC000B46C080017000000B86C08001700000073
:103BD000C46C080017000000CC6C0800170000003F
:103BE000D06C080017000000DC6C08001700000013
:103BF000E46C080017000000E86C080017000000E3
:103C0000F46C080017000000FC6C080017000000AE
:103C1000006D0800170000000C6D08001700000080
:103C2000146D080017000000186D08001700000050
:103C3000246D0800170000002C6D0800170000001C
:103C4000306D0800170000003C6D080017000000F0
:103C5000446D080017000000486D080017000000C0
:103C6000546D0800170000005C6D0800170000008C
:103C7000606D0800170000006C6D08001700000060
:103C8000746D080017000000786D08001700000030
:103C9000846D0800170000008C6D080017000000FC
:103CA000906D0800170000009C6D080017000000D0
:103CB000A46D080017000000A86D080017000000A0
:103CC000B46D080017000000BC6D0800170000006C
:103CD000C06D080017000000CC6D08001700000040
:103CE000D46D080017000000D86D08001700000010
:103CF000E46D080017000000EC6D080017000000DC
:103D0000F06D080017000000FC6D080017000000AF
:103D1000046E080017000000086E0800170000007D
:103D2000146E0800170000001C6E08001700000049
:103D3000206E0800170000002C6E0800170000001D
:103D4000346E080017000000386E080017000000ED
:103D5000446E0800170000004C6E080017000000B9
:103D6000506E0800170000005C6E0800170000008D
:103D7000646E080017000000686E0800170000005D
:103D8000746E0800170000007C6E08001700000029
:103D9000806E080017000000946E080017000000F5
:103DA000986E080017000000AC6E080017000000B5
:103DB000B06E080017000000C46E08001700000075
:103DC000C86E080017000000DC6E08001700000035
:103DD000E06E080017000000F46E080017000000F5
:103DE000F86E0800170000000C6F080017000000B4
:103DF000106F080017000000246F08001700000073
:103E0000286F0800170000003C6F08001700000032
:103E1000406F080017000000546F080017000000F2
:103E2000586F0800170000006C6F080017000000B2
:103E3000706F0800170000007C6F0800170000007A
:103E4000846F080017000000886F0800170000004A
:103E5000946F0800170000009C6F08001700000016
:103E6000A06F080017000000AC6F080017000000EA
:103E7000B46F080017000000B86F080017000000BA
:103E8000C46F080017000000CC6F08001700000086
:103E9000D06F080017000000DC6F0800170000005A
:103EA000E46F080017000000E86F0800170000002A
:103EB000F46F080017000000FC6F080017000000F6
:103EC00000700800170000000C70080017000000C8
:103ED0001470080017000000187008001700000098
:103EE00024700800170000002C7008001700000064
:103EF00030700800170000003C7008001700000038
:103F00004470080017000000487008001700000007
:103F100054700800170000005C70080017000000D3
:103F200060700800170000006C70080017000000A7
:103F30007470080017000000787008001700000077
:103F400084700800170000008C7008001700000043
:103F500090700800170000009C7008001700000017
:103F6000A470080017000000A870080017000000E7
:103F7000B470080017000000BC70080017000000B3
:103F8000C070080017000000CC7008001700000087
:103F9000D470080017000000D87008001700000057
:103FA000E470080017000000EC7008001700000023
:103FB000F070080017000000FC70080017000000F7
:103FC00004710800170000000871080017000000C5
:103FD00014710800170000001C7108001700000091
:103FE00020710800170000002C7108001700000065
:103FF0003471080017000000387108001700000035
:1040000044710800170000004C7108001700000000
:1040100050710800170000005C71080017000000D4
:1040200064710800170000006871080017000000A4
:1040300074710800170000007C7108001700000070
:1040400080710800170000008C7108001700000044
:104050009471080017000000987108001700000014
:10406000A471080017000000AC71080017000000E0
:10407000B071080017000000BC71080017000000B4
:10408000C471080017000000C87108001700000084
:10409000D471080017000000DC7108001700000050
:1040A000E071080017000000EC7108001700000024
:1040B000F471080017000000F871080017000000F4
:1040C00004720800170000000C72080017000000BE
:1040D00010720800170000001C7208001700000092
:1040E0002472080017000000287208001700000062
:1040F00034720800170000003C720800170000002E
:1041000040720800170000004C7208001700000001
:1041100054720800170000005872080017000000D1
:1041200064720800170000006C720800170000009D
:1041300070720800170000007C7208001700000071
:104140008472080017000000887208001700000041
:1041500094720800170000009C720800170000000D
:10416000A072080017000000AC72080017000000E1
:10417000B472080017000000B872080017000000B1
:10418000C472080017000000CC720800170000007D
:10419000D072080017000000DC7208001700000051
:1041A000E472080017000000E87208001700000021
:1041B000F472080017000000FC72080017000000ED
:1041C00000730800170000000C73080017000000BF
:1041D000147308001700000018730800170000008F
:1041E00024730800170000002C730800170000005B
:1041F00030730800170000003C730800170000002F
:1042000044730800170000004873080017000000FE
:1042100054730800170000005C73080017000000CA
:1042200060730800170000006C730800170000009E
:10423000747308001700000078730800170000006E
:1042400084730800170000008C730800170000003A
:1042500090730800170000009C730800170000000E
:10426000A473080017000000A873080017000000DE
:10427000B473080017000000BC73080017000000AA
:10428000C073080017000000CC730800170000007E
:10429000D473080017000000D8730800170000004E
:1042A000E473080017000000EC730800170000001A
:1042B000F073080017000000FC73080017000000EE
:1042C00004740800170000000874080017000000BC
:1042D00014740800170000001C7408001700000088
:1042E00020740800170000002C740800170000005C
:1042F000347408001700000038740800170000002C
:1043000044740800170000004C74080017000000F7
:1043100050740800170000005C74080017000000CB
:10432000647408001700000068740800170000009B
:1043300074740800170000007C7408001700000067
:1043400080740800170000008C740800170000003B
:10435000947408001700000098740800170000000B
:10436000A474080017000000AC74080017000000D7
:10437000B074080017000000BC74080017000000AB
:10438000C474080017000000C8740800170000007B
:10439000D474080017000000DC7408001700000047
:1043A000E074080017000000EC740800170000001B
:1043B000F474080017000000F874080017000000EB
:1043C00004750800170000000C75080017000000B5
:1043D00010750800170000001C7508001700000089
:1043E0002475080017000000287508001700000059
:1043F00034750800170000003C7508001700000025
:1044000040750800170000004C75080017000000F8
:1044100054750800170000005875080017000000C8
:1044200064750800170000006C7508001700000094
:1044300070750800170000007C7508001700000068
:104440008475080017000000887508001700000038
:1044500094750800170000009C7508001700000004
:10446000A075080017000000AC75080017000000D8
:10447000B475080017000000B875080017000000A8
:10448000C475080017000000CC7508001700000074
:10449000D075080017000000DC7508001700000048
:1044A000E475080017000000E87508001700000018
:1044B000F475080017000000FC75080017000000E4
:1044C00000760800170000000C76080017000000B6
:1044D0001476080017000000187608001700000086
:1044E00024760800170000002C7608001700000052
:1044F00030760800170000003C7608001700000026
:1045000044760800170000004876080017000000F5
:1045100054760800170000005C76080017000000C1
:1045200060760800170000006C7608001700000095
:104530007476080017000000787608001700000065
:1045400084760800170000008C7608001700000031
:1045500090760800170000009C7608001700000005
:10456000A476080017000000A876080017000000D5
:10457000B476080017000000BC76080017000000A1
:10458000C076080017000000CC7608001700000075
:10459000D476080017000000D87608001700000045
:1045A000E476080017000000EC7608001700000011
:1045B000F076080017000000FC76080017000000E5
:1045C00004770800170000000877080017000000B3
:1045D00014770800170000001C770800170000007F
:1045E00020770800170000002C7708001700000053
:1045F0003477080017000000387708001700000023
:1046000044770800170000004C77080017000000EE
:1046100050770800170000005C77080017000000C2
:104620006477080017000000687708001700000092
:1046300074770800170000007C770800170000005E
:1046400080770800170000008C7708001700000032
:104650009477080017000000987708001700000002
:10466000A477080017000000AC77080017000000CE
:10467000B077080017000000BC77080017000000A2
:10468000C477080017000000C87708001700000072
:10469000DC77080017000000E07708001700000032
:1046A000F477080017000000F877080017000000F2
:1046B00004780800170000000C78080017000000BC
:1046C00010780800170000001C7808001700000090
:1046D0002478080017000000287808001700000060
:1046E00034780800170000003C780800170000002C
:1046F00040780800170000004C7808001700000000
:1047000054780800170000005878080017000000CF
:1047100064780800170000006C780800170000009B
:1047200070780800170000007C780800170000006F
:10473000847808001700000088780800170000003F
:1047400094780800170000009C780800170000000B
:10475000A078080017000000AC78080017000000DF
:10476000B478080017000000B878080017000000AF
:10477000C478080017000000CC780800170000007B
:10478000D078080017000000E47808001700000047
:10479000E878080017000000FC7808001700000007
:1047A00000790800170000001479080017000000C5
:1047B00018790800170000002C7908001700000085
:1047C0003079080017000000447908001700000045
:1047D00048790800170000005C7908001700000005
:1047E00060790800170000006C79080017000000CD
:1047F000747908001700000078790800170000009D
:1048000084790800170000008C7908001700000068
:1048100090790800170000009C790800170000003C
:10482000A479080017000000A8790800170000000C
:10483000B479080017000000BC79080017000000D8
:10484000C079080017000000CC79080017000000AC
:10485000D479080017000000D8790800170000007C
:10486000E479080017000000047A0800170000002F
:10487000087A080017000000147A080017000000EA
:104880004C7A080017000000507A0800170000005A
:104890005C7A080017000000647A08001700000026
:1048A000687A080017000000747A080017000000FA
:1048B0007C7A080017000000807A080017000000CA
:1048C0008C7A080017000000947A08001700000096
:1048D000987A080017000000A47A0800170000006A
:1048E000AC7A080017000000B07A0800170000003A
:1048F000BC7A080017000000C47A08001700000006
:10490000C87A080017000000D47A080017000000D9
:10491000DC7A080017000000E07A080017000000A9
:10492000EC7A080017000000F47A08001700000075
:10493000F87A080017000000047B08001700000048
:104940000C7B080017000000107B08001700000017
:104950001C7B080017000000247B080017000000E3
:10496000287B080017000000347B080017000000B7
:104970003C7B080017000000407B08001700000087
:104980004C7B080017000000547B08001700000053
:10499000587B080017000000647B08001700000027
:1049A0006C7B080017000000707B080017000000F7
:1049B0007C7B080017000000847B080017000000C3
:1049C000887B080017000000947B08001700000097
:1049D0009C7B080017000000A07B08001700000067
:1049E000AC7B080017000000B47B08001700000033
:1049F000B87B080017000000C47B08001700000007
:104A0000CC7B080017000000D07B080017000000D6
:104A1000DC7B080017000000E47B080017000000A2
:104A2000E87B080017000000F47B08001700000076
:104A3000FC7B080017000000007C08001700000045
:104A40000C7C080017000000147C08001700000010
:104A5000187C080017000000247C080017000000E4
:104A60002C7C080017000000307C080017000000B4
:104A70003C7C080017000000447C08001700000080
:104A8000487C080017000000547C08001700000054
:104A90005C7C080017000000607C08001700000024
:104AA0006C7C080017000000747C080017000000F0
:104AB000787C080017000000847C080017000000C4
:104AC0008C7C080017000000907C08001700000094
:104AD0009C7C080017000000A47C08001700000060
:104AE000A87C080017000000B47C08001700000034
:104AF000BC7C080017000000C07C08001700000004
:104B0000CC7C080017000000D47C080017000000CF
:104B1000D87C080017000000E47C080017000000A3
:104B2000EC7C080017000000F07C08001700000073
:104B3000FC7C080017000000047D0800170000003E
:104B4000087D080017000000147D08001700000011
:104B50001C7D080017000000207D080017000000E1
:104B60002C7D080017000000347D080017000000AD
:104B7000387D080017000000447D08001700000081
:104B80004C7D080017000000507D08001700000051
:104B90005C7D080017000000647D0800170000001D
:104BA000687D080017000000747D080017000000F1
:104BB0007C7D080017000000807D080017000000C1
:104BC0008C7D080017000000947D0800170000008D
:104BD000987D080017000000A47D08001700000061
:104BE000AC7D080017000000B07D08001700000031
:104BF000BC7D080017000000C47D080017000000FD
:104C0000C87D080017000000D47D080017000000D0
:104C1000DC7D080017000000E07D080017000000A0
:104C2000F47D080017000000F87D08001700000060
:104C3000047E0800170000000C7E0800170000002A
:104C4000107E0800170000001C7E080017000000FE
:104C5000247E080017000000287E080017000000CE
:104C6000347E0800170000003C7E0800170000009A
:104C7000407E0800170000004C7E0800170000006E
:104C8000547E080017000000587E0800170000003E
:104C9000647E0800170000006C7E0800170000000A
:104CA000707E0800170000007C7E080017000000DE
:104CB000847E080017000000887E080017000000AE
:104CC000947E0800170000009C7E0800170000007A
:104CD000A07E080017000000AC7E0800170000004E
:104CE000B47E080017000000B87E0800170000001E
:104CF000C47E080017000000CC7E080017000000EA
:104D0000D07E080017000000DC7E080017000000BD
:104D1000E47E080017000000E87E0800170000008D
:104D2000F47E080017000000FC7E08001700000059
:104D3000007F0800170000000C7F0800170000002B
:104D4000147F080017000000187F080017000000FB
:104D5000247F0800170000002C7F080017000000C7
:104D6000307F0800170000003C7F0800170000009B
:104D7000447F080017000000487F0800170000006B
:104D8000547F0800170000005C7F08001700000037
:104D9000607F0800170000006C7F0800170000000B
:104DA000747F080017000000787F080017000000DB
:104DB000847F0800170000008C7F080017000000A7
:104DC000907F0800170000009C7F0800170000007B
:104DD000A47F080017000000A87F0800170000004B
:104DE000B47F080017000000BC7F08001700000017
:104DF000C07F080017000000CC7F080017000000EB
:104E0000D47F080017000000D87F080017000000BA
:104E1000E47F080017000000EC7F08001700000086
:104E2000F07F080017000000FC7F0800170000005A
:104E30000480080017000000088008001700000028
:104E400014800800170000001C80080017000000F4
:104E500020800800170000002C80080017000000C8
:104E60003480080017000000388008001700000098
:104E700044800800170000004C8008001700000064
:104E800050800800170000005C8008001700000038
:104E90006480080017000000688008001700000008
:104EA00074800800170000007C80080017000000D4
:104EB00080800800170000008C80080017000000A8
:104EC0009480080017000000988008001700000078
:104ED000A480080017000000AC8008001700000044
:104EE000B080080017000000BC8008001700000018
:104EF000C480080017000000C880080017000000E8
:104F0000D480080017000000DC80080017000000B3
:104F1000E080080017000000EC8008001700000087
:104F2000F480080017000000F88008001700000057
:104F300004810800170000000C8108001700000021
:104F400010810800170000001C81080017000000F5
:104F500024810800170000002881080017000000C5
:104F600034810800170000003C8108001700000091
:104F700040810800170000004C8108001700000065
:104F80005481080017000000588108001700000035
:104F900064810800170000006C8108001700000001
:104FA00070810800170000007C81080017000000D5
:104FB00084810800170000008881080017000000A5
:104FC00094810800170000009C8108001700000071
:104FD000A081080017000000AC8108001700000045
:104FE000B481080017000000B88108001700000015
:104FF000CC81080017000000D081080017000000D5
:10500000DC81080017000000E481080017000000A0
:10501000E881080017000000F48108001700000074
:10502000FC81080017000000008208001700000043
:105030000C8208001700000014820800170000000E
:1050400018820800170000002482080017000000E2
:105050002C820800170000003082080017000000B2
:105060003C8208001700000044820800170000007E
:105070004882080017000000548208001700000052
:105080005C82080017000000608208001700000022
:105090006C820800170000007482080017000000EE
:1050A00078820800170000008482080017000000C2
:1050B0008C82080017000000908208001700000092
:1050C0009C82080017000000A4820800170000005E
:1050D000A882080017000000B48208001700000032
:1050E000BC82080017000000C08208001700000002
:1050F000CC82080017000000D482080017000000CE
:10510000D882080017000000E482080017000000A1
:10511000EC82080017000000F08208001700000071
:10512000FC8208001700000004830800170000003C
:10513000088308001700000014830800170000000F
:105140001C830800170000002083080017000000DF
:105150002C830800170000003483080017000000AB
:10516000388308001700000044830800170000007F
:105170004C8308001700000050830800170000004F
:105180005C8308001700000064830800170000001B
:1051900068830800170000007483080017000000EF
:1051A0007C830800170000008083080017000000BF
:1051B0008C8308001700000094830800170000008B
:1051C0009883080017000000A4830800170000005F
:1051D000AC83080017000000B0830800170000002F
:1051E000BC83080017000000C483080017000000FB
:1051F000C883080017000000D483080017000000CF
:10520000DC83080017000000E0830800170000009E
:10521000EC83080017000000F4830800170000006A
:10522000F88308001700000004840800170000003D
:105230000C8408001700000010840800170000000C
:105240001C840800170000002484080017000000D8
:1052500028840800170000003484080017000000AC
:105260003C8408001700000040840800170000007C
:105270004C84080017000000548408001700000048
:10528000588408001700000064840800170000001C
:105290006C840800170000007084080017000000EC
:1052A0007C840800170000008484080017000000B8
:1052B000888408001700000094840800170000008C
:1052C0009C84080017000000A0840800170000005C
:1052D000AC84080017000000B48408001700000028
:1052E000B884080017000000C484080017000000FC
:1052F000CC84080017000000D084080017000000CC
:10530000DC84080017000000E48408001700000097
:10531000E884080017000000F4840800170000006B
:10532000FC8408001700000000850800170000003A
:105330000C85080017000000148508001700000005
:1053400018850800170000002485080017000000D9
:105350002C850800170000003085080017000000A9
:105360003C85080017000000448508001700000075
:105370004885080017000000548508001700000049
:105380005C85080017000000608508001700000019
:1053900074850800170000007885080017000000D9
:1053A00084850800170000008C85080017000000A5
:1053B00090850800170000009C8508001700000079
:1053C000A485080017000000A88508001700000049
:1053D000B485080017000000BC8508001700000015
:1053E000C085080017000000CC85080017000000E9
:1053F000D485080017000000D885080017000000B9
:10540000E485080017000000EC8508001700000084
:10541000F085080017000000FC8508001700000058
:105420000486080017000000088608001700000026
:1054300014860800170000001C86080017000000F2
:1054400020860800170000002C86080017000000C6
:105450003486080017000000388608001700000096
:1054600044860800170000004C8608001700000062
:10547000508608001700000064860800170000002E
:1054800068860800170000007C86080017000000EE
:1054900080860800170000009486080017000000AE
:1054A0009886080017000000A48608001700000076
:1054B000AC86080017000000B08608001700000046
:1054C000BC86080017000000C48608001700000012
:1054D000C886080017000000D486080017000000E6
:1054E000DC86080017000000E086080017000000B6
:1054F000EC86080017000000F48608001700000082
:10550000F886080017000000048708001700000054
:105510000C87080017000000108708001700000023
:105520001C870800170000002487080017000000EF
:1055300028870800170000003C87080017000000BB
:10554000408708001700000054870800170000007B
:1055500058870800170000006C870800170000003B
:1055600070870800170000008487080017000000FB
:1055700088870800170000009C87080017000000BB
:10558000A087080017000000B4870800170000007B
:10559000B887080017000000C48708001700000043
:1055A000D487080017000000DC87080017000000FF
:1055B000E487080017000000F887080017000000C3
:1055C0000888080017000000108808001700000075
:1055D00018880800170000002C8808001700000039
:1055E0003C880800170000004488080017000000ED
:1055F0004C880800170000005888080017000000B9
:105600006888080017000000748808001700000070
:105610007C8808001700000084880800170000003C
:105620008C8808001700000094880800170000000C
:105630009C88080017000000A488080017000000DC
:10564000AC88080017000000B488080017000000AC
:10565000BC88080017000000C4880800170000007C
:10566000CC88080017000000D4880800170000004C
:10567000DC88080017000000E4880800170000001C
:10568000EC88080017000000F488080017000000EC
:10569000FC880800170000000489080017000000BB
:1056A0000C8908001700000014890800170000008A
:1056B0001C8908001700000024890800170000005A
:1056C0002C8908001700000034890800170000002A
:1056D0003C890800170000004489080017000000FA
:1056E0004C890800170000005489080017000000CA
:1056F0005C8908001700000064890800170000009A
:105700006C89080017000000748908001700000069
:105710007C89080017000000848908001700000039
:105720008C89080017000000948908001700000009
:105730009C89080017000000A489080017000000D9
:10574000AC89080017000000B489080017000000A9
:10575000BC89080017000000C48908001700000079
:10576000CC89080017000000D48908001700000049
:10577000DC89080017000000E48908001700000019
:10578000EC89080017000000F489080017000000E9
:10579000FC89080017000000048A080017000000B8
:1057A0000C8A080017000000148A08001700000087
:1057B0001C8A080017000000248A08001700000057
:1057C0002C8A080017000000348A08001700000027
:1057D0003C8A080017000000448A080017000000F7
:1057E0004C8A080017000000548A080017000000C7
:1057F0005C8A080017000000648A08001700000097
:105800006C8A080017000000748A08001700000066
:105810007C8A080017000000848A08001700000036
:105820008C8A080017000000948A08001700000006
:105830009C8A080017000000A48A080017000000D6
:10584000AC8A080017000000B48A080017000000A6
:10585000BC8A080017000000C48A08001700000076
:10586000CC8A080017000000D48A08001700000046
:10587000DC8A080017000000E48A08001700000016
:10588000EC8A080017000000F48A080017000000E6
:10589000FC8A080017000000048B080017000000B5
:1058A0000C8B080017000000148B08001700000084
:1058B0001C8B080017000000248B08001700000054
:1058C0002C8B080017000000348B08001700000024
:1058D0003C8B080017000000448B080017000000F4
:1058E0004C8B080017000000548B080017000000C4
:1058F0005C8B080017000000648B08001700000094
:105900006C8B080017000000748B08001700000063
:105910007C8B080017000000848B08001700000033
:105920008C8B080017000000948B08001700000003
:105930009C8B080017000000A48B080017000000D3
:10594000AC8B080017000000B48B080017000000A3
:10595000BC8B080017000000C48B08001700000073
:10596000CC8B080017000000D48B08001700000043
:10597000DC8B080017000000E48B08001700000013
:10598000EC8B080017000000F48B080017000000E3
:10599000FC8B080017000000048C080017000000B2
:1059A0000C8C080017000000148C08001700000081
:1059B0001C8C080017000000248C08001700000051
:1059C0002C8C080017000000348C08001700000021
:1059D0003C8C080017000000448C080017000000F1
:1059E0004C8C080017000000548C080017000000C1
:1059F0005C8C080017000000648C08001700000091
:105A00006C8C080017000000748C08001700000060
:105A10007C8C080017000000848C08001700000030
:105A20008C8C080017000000948C08001700000000
:105A30009C8C080017000000A48C080017000000D0
:105A4000AC8C080017000000B48C080017000000A0
:105A5000D08C080017000000EC8C08001700000034
:105A6000088D080017000000248D080017000000B2
:105A7000408D0800170000005C8D08001700000032
:105A8000788D080017000000948D080017000000B2
:105A9000B08D080017000000CC8D08001700000032
:105AA000E88D080017000000048E080017000000B1
:105AB000208E0800170000003C8E08001700000030
:105AC000588E080017000000748E080017000000B0
:105AD000908E080017000000AC8E08001700000030
