:1000000000F00E000000000000000000E02A0500E3
:10001000D95B03000C2C0500956B030005650300FC
:100020000CE40300AC10050008E403005970030061
:10003000495B0300188F04002526000079FB0000AF
:10004000A0100500B95803000C2C05001D2200006B
:100050009D5D0300102C0500242B0500C128000025
:1000600029460100D99D010064BD0B00842B0500C9
:100070007D420100E1240300ED21000075B603007C
:10008000912B0000009B0800512200002D2A000047
:100090008C9A08008010050035210000941005009E
:1000A000B5AC00008D620300E99902002DD0030079
:1000B00080990800E01A0500042B050064BD0B00C0
:1000C000C01205003C2B050015BF0200649D08000E
:1000D00064DD0E00AD670300102C060065280000EB
:1000E000002B050029290000F9230300142B05002B
:0C00F000699E0200102C0700082B050080
:00000001FF
